:020000040000FA
:10000000FC7F00200D060000FD0500000106000039
:1000100000000000000000000000000000000000E0
:1000200000000000000000000000000005060000C5
:100030000000000000000000090600006507000045
:1000400010B5064C2378002B07D1054B002B02D0AE
:10005000044800E000BF0123237010BD5C000020B5
:10006000000000000819000008B5084B002B03D061
:100070000748084900E000BF07480368002B03D089
:10008000064B002B00D0984708BDC046000000007A
:100090000819000060000020580000200000000047
:1000A000154A164B1178002909D115491878097895
:1000B0004118C9B21970802012498002C8611178B4
:1000C0000131C9B211701978F02902D819780929BB
:1000D00009D80B4908784042C0B2087018780978EE
:1000E0004118C9B2197012781B789A4203D1802244
:1000F000044B9202DA617047780000200100002072
:10010000000000200044004110B5C3699C07FCD4E6
:1001100003680224A3430360C46901231C42FBD18A
:100120000468234303600368DC07FCD4C46901232B
:100130001C42FBD1C469DC401C42F7D1084B1A4376
:100140000260C3695A07FCD4C0239B0243608181CB
:10015000C3699C07FCD4036802221343036010BDEB
:1001600004000040037EDA07FCD5018570470000DB
:10017000027E01235107FBD5428B1A4207D1428BE5
:10018000DA401A4203D1428B92081A4202D0034B42
:1001900001221A70008DC0B27047C046790000205D
:1001A00070B50368041C988B1A1C0821FF320842A2
:1001B00026D0802099839872112353704021144BCC
:1001C000917150715E68134DC0202E40800506432A
:1001D0005E605E693540284358610F4818600F48DB
:1001E00018615D680E4828408025AD02284358609C
:1001F0005868800B8003586000235171237105E01B
:10020000137ADA0602D5201C00F0E6FA207970BDD8
:1002100098010020FFFFFF8F9800002018010020A8
:10022000FF3F00F0002303714371044B01608360C2
:100230000B78022213430B707047C046A1010000E7
:1002400038B5364B2021DA6901200A43DA61344B94
:1002500006241A7802431A70324B0F221978914300
:1002600019701978214319702F490C7820430870B0
:1002700019780A401A701A7860210A431A702B4BB9
:100280002B4A5A805A7852B2002AFBDB294B0121B3
:100290001A780A431A709A78D107FCD42648026863
:1002A000510B1F221140914200D1052111408C01B8
:1002B0001D8D22492940214319850468A10C0A405B
:1002C0001F2A00D11D221C8D1F210A408C4322436E
:1002D0001A8502680721D20D0A408A4200D1032202
:1002E0000A40188D1103164A02400A431A851978EC
:1002F0007F220A401A701A78042112480A431A70A1
:1003000058621A890C218A431A811A8901218A4369
:100310001A810021802201F076F938BD00040040E6
:10032000584400413C44004159440041000C004005
:100330000640000000500041246080003FF8FFFFAD
:10034000FF8FFFFF98010020F7B5141C1F4A5F01C3
:1003500001971D1CD319061C5869271C4000400F2B
:1003600003301033C74006D00F1C80225968120694
:100370000A435A6009E02F1C7B1E9F41144BBF01AA
:10038000FF18381C221C01F035F901990F48083577
:1003900042181761131C5269A104920B890C920335
:1003A0000A435A6159690B4A0A405A616B01F318B2
:1003B0000222DA715979802252420A435A716B0142
:1003C000F318DB799A07FAD5201CFEBD98010020AE
:1003D00018010020FF3F00F0F8B51A4E051C3378D5
:1003E000141C002B12D1184B184A1A645A6C920B29
:1003F00092035A64586C164A02405A64A2235B0066
:10040000EA5C40200243EA54012333704827FF3757
:10041000EA5D0123134012D00B4B5A6C9204920CEC
:10042000A24202D25C6CA404A40C081C221C074942
:1004300001F0E0F80123EB550023337000E01C1CB1
:10044000201CF8BD7A00002098010020D800002070
:10045000FF3F00F0FF3083792022002900D11022D5
:100460001343837170470000084BFF305A69920BA9
:1004700092035A6102230372827980235B42134301
:100480008371037A9A07FCD57047C0469801002013
:1004900080235B421943C9B28172704770B5A023B3
:1004A00003225B00C254134B134A5C6CC0211440FE
:1004B00089050C4346255C64FF35402444550F4DA7
:1004C00030261D6490256D0046555D6B154029430F
:1004D000922559636D0080214155094D1D63B0255A
:1004E0006D0044555C6F22405A67B2235B00C154D3
:1004F00070BDC04698010020FFFFFF8FD80000208C
:1005000058010020024B5B785BB2002BFADB70478E
:10051000000C0040024BDB68DA06FBD57047C04692
:1005200000080040F8B52A4B1E2259689143022268
:1005300011435960274B28491E1C9982998A0A4306
:100540009A82F3680227234C3B42FAD0234D0123C1
:10055000AB60FFF7D7FF224B6B60FFF7D3FF82231F
:10056000DB016B80FFF7CEFFA38C80229343A38433
:10057000FFF7D0FF1B4BE362FFF7CCFFA38C1A4AB7
:100580001343A384FFF7C6FFA38C1F43A784F3681C
:100590001A06FCD50F4BDB685A06F8D50024FFF786
:1005A000B9FFAC60FFF7AEFF104B6B60FFF7AAFF1F
:1005B0000F4B104AC0215A600F4A0906106A000208
:1005C000000A0143116207229C601A60F8BDC04610
:1005D00000400041000800400C060000000C0040F4
:1005E00001050100B805FF7D040A000000070300B3
:1005F00010E000E0E703000000ED00E00EBEFEE7C3
:100600000DBEFEE705BEFEE702BEFEE70E4A0F483E
:1006100038B5824204D10E4A0E4B93420ED10AE005
:100620000D4C9442F7D00023D1188842F3D9E558F5
:1006300004330D60F8E700F011F804E09342FAD2B9
:10064000002102C3FAE7FEE7000000205C00002062
:10065000A80300205C0000200C19000038B5344BC2
:100660001A681C1C013221D0324A191D1160D9B2FE
:1006700000291BD1304A1078012210402F4A0AD19C
:1006800015682F498D4201D110600FE011602D498E
:1006900001390029FCD11160226882F30888FF2209
:1006A0009343294A9360224B5B681847FFF73AFF50
:1006B00062B600F0CDFD00F05BF8244B8022920280
:1006C00023499A6008220A602249041C0A60802299
:1006D00012059A609A61204B204AC0215A601A4A3A
:1006E0000906106A0002000A0143116200229A60A2
:1006F00007221A60A368201C9847194B002801D0D4
:1007000001221A701A78002A05D0002000F094FA0D
:1007100000F01AFBFCE71B78002BEBD100F00CFE7D
:100720000028E7D0012000F087FA00F00DFBFCE77D
:10073000002000001802002038040040FC7F002048
:100740003581730748E8010000ED00E000440041F6
:10075000884400419844004110E000E0E7030000B5
:100760007B00002008B5FFF79BFC00F0C9FA08BD2C
:1007700010B5054B054C2360FFF762FD201C216876
:10078000FFF750FD201C10BD005000411C0200204E
:1007900070B5051CC0B0081C161C0C1C00F03BFFFB
:1007A00040006A460323023053701070760801231C
:1007B000E218013A11785A00002906D1281C69462E
:1007C0000023FFF7C1FD40B070BDB342F6DA6846C2
:1007D00081520133ECE70000F7B5BA4A0468137898
:1007E000B949271CFF37051C102038720B7053784D
:1007F000B648B74E037093783380D17833880902B6
:100800000B4333801179B34B198051791888090251
:10081000084318809079B0490880D279088812027C
:1008200002430A8040227A71A84F3A78A64F1202FA
:1008300038780F1C0243A9488446181C624500D131
:10084000C2E020DC802149008A4200D16EE109DC4F
:10085000812A00D192E0822A00D195E0802A00D03E
:1008600064E18BE081235B009A4200D1CFE000DAA3
:1008700058E1C0239B009A4200D157E1984B9A421D
:1008800000D14FE152E190231B019A4269D015DC5F
:10089000D023DB009A4222D088231B019A4269D0E0
:1008A000A023DB009A4200D040E1201CFFF7DCFDD2
:1008B0003188286889B2FFF7EBFD3BE1894B9A420A
:1008C00000D12FE100DC31E1874B9A4200D11DE1DC
:1008D000864B9A4200D029E133886B7122E133883C
:1008E0001B0A012B08D10B8812222868934201D8D9
:1008F0000A8892B27E4911E133881B0A022B08D183
:100900000B8843222868934201D80A8892B2794919
:1009100004E133881B0A032B00D007E13388DBB2E4
:10092000012B17D0002B07D0022B00D0FEE00A8845
:100930002868D2B2704911E0042201A86F4900F082
:1009400059FE3B8804222868934201D83A8892B223
:1009500001A9E3E00A8828686949D2B2FFF718FFC5
:10096000E8E03388201C2B71FFF77EFD201CFFF789
:1009700095FDDFE0291C01C90122CFE06149002378
:100980000B8028680222CAE05E4900220A8018888B
:10099000502210405C4A10701E880F203040188092
:1009A0001888032800D9C1E012781B8808335B013E
:1009B000E418A379002A01D09B0600E0DB06DB0FD8
:1009C0000B8028680222A9E019887F2291434E4AB1
:1009D000C9B2117018880F2101401980318800298F
:1009E00000D0A3E01988002900D19FE019880329CD
:1009F00000D99BE012781B8808335B01E318002ABA
:100A000002D020225A718DE0102159718AE00288AB
:100A10007F239A433C4BD2B21A7001880F220A40BE
:100A200002803288002A00D080E00288002A00D1AB
:100A30007CE00288032A00D978E01B78002B1FD0C5
:100A4000038808335B01E3189B799A066AD503880B
:100A5000202208335B01E3181A71038808335B0115
:100A6000E318DB795F065DD50388402208335B011C
:100A7000E318DA710388022208335B01E3181EE0F1
:100A8000038808335B01E3189B79D9064AD50388AC
:100A9000102208335B01E3181A71038808335B01E5
:100AA000E318DB799A063DD50388202208335B01E1
:100AB000E318DA710388012208335B01E3181A7125
:100AC00030E0C046980000207D0000208200002019
:100AD0008400002086000020800000200203000027
:100AE0000103000021200000A121000021220000BC
:100AF0005C160000040000204C1600003C160000AC
:100B0000401600007E0000207C0000200B88082298
:100B10002868934201D80A8892B207490023FFF758
:100B200013FC07E0201CFFF79FFC03E0201C0121C1
:100B3000FFF790FCF7BDC0464800002007B5054B05
:100B40000122019001A91868131CFFF7FDFB012089
:100B50000EBDC0461C02002013B5054B6C46073481
:100B60001868211C0122FFF737FC207816BDC0460B
:100B70001C02002010B5074C201CFFF711FB031CC2
:100B80000020834205D022684823FF33D05C012334
:100B9000184010BD1C02002010B5054A0C1C031C97
:100BA000191C10680123221CFFF7CEFB201C10BD6E
:100BB0001C02002070B5084C061C201C0D1CFFF701
:100BC000EFFA0023984205D02068311C2A1CFFF759
:100BD00003FC031C181C70BD1C020020F8B50C4C53
:100BE000051C201C0E1CFFF7DBFA0023271C341CFD
:100BF00098420AD0002C07D0291C221C3868FFF725
:100C0000EBFB241A2D18F5E7331C181CF8BDC04661
:100C10001C02002008B5031C081C111C9847044B3B
:100C2000802212055A61034B64221A8008BDC04617
:100C3000004400418C000020012805D1054B064AE4
:100C40001A60064B187004E0002802D1044A014BD8
:100C50001A6070478C02002090160000940000205B
:100C6000DC16000030B50A1C1C4985B00978031C4D
:100C700000292AD0042A01D1006804E0022A01D107
:100C8000008800E00078520004A98B180B3B9C1AE6
:100C9000A3420BD00F210140092902D83025294356
:100CA00000E0373119700009013BF1E701A9302359
:100CB0000B7078234B700A208B1898700D20D87019
:100CC000074B04321B68D86803E005490968C86807
:100CD000191CFFF79FFF05B030BDC04688000020FB
:100CE0008C02002072B6EFF30883044A1360036895
:100CF00083F30888436818477047C0469002002075
:100D00000D4B1A88002A09D01A88013A92B21A802B
:100D1000002A03D18022094B12059A61084B1A88D8
:100D2000002A08D01A88013A92B21A80002A02D109
:100D3000044B08221A6070478C00002000440041D8
:100D40008A00002098440041F0B591B008A9CE4A2D
:100D50000B1C31CA31C351CA51C360CA60C3CB4BEB
:100D6000CB489A687A255203520F92005258C949CB
:100D700002609C68A4B262430C60C74900240A6008
:100D8000C64A1460C64C2570C64CC74D2368281C43
:100D90001B6940219847002805D0C44B08221A60DF
:100DA000C34B64221A80C34B00221860C24B1D60E3
:100DB000C24BC24DBF4F1A602A683B689A42E3D2C9
:100DC000BD4B1B681A78FF2A00D120E2232A00D0ED
:100DD000F7E1BB4E3378002B06D0B24BB9491B6804
:100DE0000222D868FFF716FFAD4B1B78532B3FD17B
:100DF0003B682A6893421ED9AF4801322A609A1A8A
:100E0000B14B01681B6801310160B04E9A4201D2BA
:100E1000326000E03360A14832680068049000F05E
:100E2000E9FB336829685A182A60A34A1668F11842
:100E30001160A74A13702B68013B2B609E4B1A6808
:100E4000013A1A60A24BA04A1B7811688B420DD25E
:100E500022689248C91A006892699047002805D014
:100E6000924B08221A60924B64221A80C04696E187
:100E7000522B0ED18948944A2368006811685B6937
:100E800003909847934B802212055A616422924B3B
:100E90000DE04F2B05D1814B8B4A1B6812681A70ED
:100EA0007DE1482B05D17D4B874A1B6812681A806B
:100EB00075E1572B05D1794B834A1B6812681A607C
:100EC0006DE16F2B03D1754B0121186807E0682B8A
:100ED00008D1724B7C481B6802211B880360FFF716
:100EE000C1FE5CE1772B06D16C4B77481B6804216F
:100EF0001B680360F3E7472B13D1734B1868FFF7A8
:100F0000F1FE764B1B6883F3088862B6744B1B783E
:100F1000002B00D143E1634B06201B681B689847F8
:100F20003DE1542B04D1012333705E4B1B6864E018
:100F30004E2B0CD13378002B06D15A4B61491B68DC
:100F40000222D868FFF766FE0023337027E1562B94
:100F500057D123686349D8680122FFF75BFE2368F5
:100F60006149D8680322FFF755FE604D2368291CAC
:100F7000D8680122FFF74EFE23685D49D8680D222C
:100F8000FFF748FE2368291CD8680122FFF742FEBC
:100F9000494F4A4D5749002339602B603A1C281CA1
:100FA00013685E1C16601B780593002B03D0036842
:100FB00001330360F4E73B4E2A683368D868FFF7D3
:100FC00029FE33684949D8680122FFF723FE0599B5
:100FD000296049493960384A1368581C10601B78E9
:100FE000002B04D0354B1A6801321A60F3E73368DE
:100FF0002A68D868FFF70EFE3368D86831490222A4
:10100000CBE0314A582B17D1214E234D3668136857
:101010002A68B10093420AD21C4D5808E86137484B
:1010200028801A4D287DC607FBD55B18F2E71D4BBB
:1010300033491B68D868AFE0592B00D07DE01268B7
:10104000164B3049002A02D11B680B6070E00F4D2F
:10105000086819686B680D4E8025AB439208736071
:10106000002A65D0284B094D2B80084E337DDD07C3
:10107000FBD50023064D2D680195AD08AB4247D343
:10108000224D024E35804AE07016000000400041BB
:10109000440200203C020020380200208802002088
:1010A000340200208C0200204802002094440041B9
:1010B0008A0000202C020020300200204002002084
:1010C00088000020D0160000940200209802002022
:1010D00028020020004400418C00002090020020E3
:1010E00094000020AC160000D5160000AE160000DB
:1010F000F8160000B0160000BC16000002A5FFFFA5
:10110000C51600009000002044A5FFFF04A5FFFFC6
:101110009342B5D09D00465901334E51AAE7404E47
:10112000357DEE07FBD59D0049194019D21A97E786
:101130003C4B3D491B68D8682EE05A2B2FD13B4BC6
:1011400017681D680026EF19BD4206D02878311CAB
:1011500000F014F90135061CF6E7324B34491B68E0
:101160000122D868FFF756FD07230F223240111CD9
:1011700036093031092A00DD07311820C0186A46C7
:101180008154013BF1D2236806A9D8680822FFF7F1
:1011900041FD23682749D8680322FFF73BFD264B12
:1011A0007A221A70254B00221A60254B1B78934235
:1011B0002DD01C4B23491B680122D868FFF72AFD5C
:1011C00025E0111C3039C8B21C4B092804D81D6811
:1011D0002A01114319601AE0111C4139052903D86D
:1011E0001E68373A310106E0111C6139052904D81F
:1011F0001868573A01010A4308E02C2A03D10B4A28
:101200001968116001E00C490A7000221A600E4B47
:101210001A6801321A600D4B1A680132C9E5C046DE
:10122000004000418C020020C91600008802002006
:10123000CD160000CF1600003402002094020020DA
:1012400088000020D3160000400200203002002059
:1012500010B51C4B01201A78022402431A701A4B55
:101260000F22197891431970197821431970174981
:101270000C782043087019780A401A701A782021D7
:101280000A431A70124B04211A6A0A431A62114B5C
:10129000114A5A805A7852B2002AFBDBC4220F4806
:1012A0000F499203FEF730FF0E4A002313700E4AD7
:1012B00013700E4A13700E4A13700E4A13700E4AC2
:1012C000137010BD4A440041354400414B44004175
:1012D00000040040000C00401440000000080042E0
:1012E0002AF600009C020020230300209D0200201B
:1012F000A0020020240300202103002008B5C1B271
:101300000248FEF72FFF012008BDC046000800423A
:10131000024B187E4007C00F7047C04600080042CD
:1013200008B5FFF7F5FF0028FBD00248FEF720FFC5
:1013300008BDC0460008004208B5FFF7E9FF0023DA
:10134000984205D0FFF7ECFF031C233B5A42534160
:10135000181C08BD70B5041C0D1C4618B44204D0FE
:101360002078FFF7CBFF0134F8E7281C70BD10B5DB
:10137000041CFFF7D5FF2070012010BD0B0A584058
:10138000034B4000C05A0902484080B27047C04633
:1013900006170000F7B50024051C0F1C261CBC42D4
:1013A00020D0FFF7BDFF114BC0B21B780190002B7E
:1013B0001AD1311CFFF7E2FF0D4B061C1A88002AD8
:1013C00004D10C4A11782A1C002907D001996A1C03
:1013D0002970802F02D11988013919800134A4B2F3
:1013E000151CDCE7301C00E00120FEBD21030020BD
:1013F0009E02002022030020F0B53E4E85B0002260
:1014000003900C1C32703C4B914201D1012201E04F
:101410003A490C801A707F231C4201D080349C43CF
:10142000FFF77EFF3378C0B2002B07D00025357060
:10143000FFF776FF3378C0B2AB4236D1432803D0F2
:10144000712853D01528EBD1012300930120FFF719
:1014500055FF0098FFF752FF00998025C843C0B29E
:10146000FFF74CFF039B00270293244A1388002BAD
:101470001DD1214901930978002918D10198FFF75E
:101480003DFF391C0198FFF779FF013D071C002D36
:10149000EBD1000AC0B2FFF731FFF8B2FFF72EFF21
:1014A000FFF73EFF3378002B0AD035701FE002991A
:1014B000013B09781380029B019101330293DDE720
:1014C000C0B2062807D1009B03990133DBB28031FB
:1014D0000093803C0391002CB8D10420FFF70EFF4D
:1014E000FFF71EFF044B01251C7000E00025281C9F
:1014F00005B0F0BD21030020220300209E02002041
:10150000F0B5384C87B0002301902370994201D187
:10151000012301E0344A1180344A642613704320C9
:10152000FFF7ECFE324FFFF7F3FE002803D1002F48
:1015300003D0013FF7E7002F03D1013E002EEED18B
:101540004DE00125FFF7ECFE2378002B38D1C0B227
:101550000290012805D004283DD10620FFF7CEFED9
:1015600039E005AE0221301CFFF714FF01988021FD
:10157000FFF710FF23780390002B18D1FFF7D0FE60
:101580000702FFF7CDFEBFB223783F18BFB2012B91
:101590000DD0039B9F4207D13378AB4204D1EB437C
:1015A0007278DBB29A4204D01820FFF7A7FE00231E
:1015B00003E00620FFF7A2FE029B2278002A02D059
:1015C000002626700BE0012B05D1019A6B1C80329E
:1015D000DDB20192B6E7054A002313700126301CE4
:1015E00007B0F0BD210300209E020020220300204E
:1015F00000350C0010B50023934203D0CC5CC454DA
:101600000133F9E710BD031C8218934202D0197010
:101610000133FAE770470023C25C0133002AFBD193
:10162000581E7047F8B5C046F8BC08BC9E467047C7
:10163000F8B5C046F8BC08BC9E46704704030904D0
:1016400041726475696E6F204C4C43004172647541
:10165000696E6F205A65726F00000000120100026F
:101660000200004041234D00000201020001000081
:1016700008000000100000002000000040000000F2
:1016800080000000000100000002000000040000D3
:10169000FD1200002113000011130000551300007B
:1016A0006F130000F9130000011500007600200000
:1016B00041707220313120323031390031333A30CB
:1016C000393A343900580A0D00590A0D005A0023DE
:1016D0000A0D003E00322E30000000003D0B0000DD
:1016E000590B0000750B0000990B0000B50B0000B2
:1016F000990B0000DD0B00005B41726475696E6F31
:101700003A58595A5D00000021104220633084404D
:10171000A550C660E770088129914AA16BB18CC1C0
:10172000ADD1CEE1EFF13112100273325222B55237
:101730009442F772D662399318837BB35AA3BDD310
:101740009CC3FFF3DEE36224433420040114E66407
:10175000C774A44485546AA54BB528850995EEE560
:10176000CFF5ACC58DD55336722611163006D77617
:10177000F6669556B4465BB77AA719973887DFF7B0
:10178000FEE79DD7BCC7C448E5588668A7784008DF
:10179000611802282338CCC9EDD98EE9AFF9488900
:1017A00069990AA92BB9F55AD44AB77A966A711A77
:1017B000500A333A122AFDDBDCCBBFFB9EEB799B50
:1017C000588B3BBB1AABA66C877CE44CC55C222CC7
:1017D000033C600C411CAEED8FFDECCDCDDD2AADA0
:1017E0000BBD688D499D977EB66ED55EF44E133E57
:1017F000322E511E700E9FFFBEEFDDDFFCCF1BBFF0
:101800003AAF599F788F8891A981CAB1EBA10CD1C9
:101810002DC14EF16FE18010A100C230E3200450D1
:10182000254046706760B9839893FBA3DAB33DC344
:101830001CD37FE35EF3B1029012F322D232354221
:10184000145277625672EAB5CBA5A89589856EF5D4
:101850004FE52CD50DC5E234C324A0148104667471
:10186000476424540544DBA7FAB79987B8975FE724
:101870007EF71DC73CD7D326F2369106B0165766C1
:101880007676154634564CD96DC90EF92FE9C899AC
:10189000E9898AB9ABA94458654806782768C01811
:1018A000E1088238A3287DCB5CDB3FEB1EFBF98B84
:1018B000D89BBBAB9ABB754A545A376A167AF10A61
:1018C000D01AB32A923A2EFD0FED6CDD4DCDAABD94
:1018D0008BADE89DC98D267C076C645C454CA23CB1
:1018E000832CE01CC10C1FEF3EFF5DCF7CDF9BAF64
:1018F000BABFD98FF89F176E367E554E745E932E01
:10190000B23ED10EF01E00000000000001140000E5
:1019100009024300020100803209040000010202B2
:101920000000052400100104240200052406000123
:101930000524010001070583030800FF09040100D5
:10194000020A0000000705810240000007050202AC
:101950004000000000C20100000008006900000013
:0819600041000000000000003E
:1020000000800020B12F0000992F0000992F0000C0
:1020100000000000000000000000000000000000C0
:10202000000000000000000000000000992F0000E8
:102030000000000000000000992F000005300000A3
:10204000992F0000992F0000992F0000992F000070
:10205000992F0000992F0000992F00009D2F00005C
:10206000992F0000E52E0000992F0000992F000005
:10207000592A0000992F0000F52E0000992F00002A
:10208000992F0000992F0000992F0000992F000030
:1020900000000000992F0000992F0000992F0000E8
:1020A000992F0000992F0000992F0000992F000010
:1020B0000000000010B5064C2378002B07D1054B1B
:1020C000002B02D0044800E000BF0123237010BDA4
:1020D000900000200000000068550000044B10B57F
:1020E000002B03D00349044800E000BF10BDC046E8
:1020F00000000000940000206855000070B5012128
:102100001A2001F041F90D4D00230D4A0621280047
:1021100000F052FE002803D10A4802F051FBFEE70E
:10212000280000F00DFE00242100013401222800C7
:10213000E4B200F06BFE102CF6D170BDB0000020B0
:102140007C010020CC4F000070B5FA2601211A2036
:1021500001F066F90F4C104D23680122D9B2280016
:10216000B60000F099FE300000F084FF00211A2034
:1021700001F056F923682800D9B2002200F08CFE45
:10218000300000F077FF0F222368013313402360F3
:1021900070BDC046AC000020B000002010B5024861
:1021A00000F0C8FD10BDC046B0000020F7B5019298
:1021B000002208AC26880AAD09AC0BAF2D783F7819
:1021C00024784261019A47734681857342600160B9
:1021D00003720473FEBDF0B5478985B00500006841
:1021E000FCB203AB3F0A1C705F70002807D06C7B09
:1021F00000930194012300F0B8F805B0F0BD6E68BB
:10220000301EFAD0287A8446687B6546032D09D1B2
:10221000023DAF431F705C7040190090300000F029
:1022200061FAEAE7002D03D17F352C401C70F4E7FA
:10223000022D02D1823D2C43F8E7012DEDD17E35F0
:102240002C403F3DF7E770B50300002A00D1027B28
:102250000020042A15D85C0059619818141983428B
:102260000AD09E7BCDB2002E04D1261AF573090A3E
:102270000138F4E78573FAE7190018000F31FFF70A
:10228000AAFF70BDF0B5468985B004000068F5B2BC
:102290000B00360A03A994460D704E70002808D032
:1022A000627B002401946446009400F0C3F805B0FA
:1022B000F0BD6768381EFAD0207A627B03280CD103
:1022C000023806430E704D701218FF2001906046D0
:1022D0000090380000F026FAE9E7002802D18038A3
:1022E000054303E0022803D17D3005400D70ECE783
:1022F0000128EAD14138F3E7010010B50F31027B24
:102300000400FFF7BFFF002811D00020227B6100EE
:10231000A31852189C420CD0A17B0002002903D1C3
:10232000997B0843013BF5E7D11AC97BF9E7012006
:10233000404210BD016002714371704770B50500E5
:1023400000680C00FFF7D8FF01212B796E799940C6
:1023500001390B00B340214098430300B140286885
:102360001943027BFFF76FFF70BDF7B5099D16009B
:1023700001935319C26804000F00934201D9002051
:10238000FEBD0178406800F041FA002D0FD1606871
:102390003200036839005B6898478642EFD10199A3
:1023A000606800F0A2FA43425841C0B2E8E7089BD7
:1023B000002BECD060682A00036808995B68984796
:1023C000A842DCD1E3E7F8B505000F00160001785C
:1023D000D2B2406800F037FA002486420AD1A64201
:1023E00007D9686803685B69984738550134A4B217
:1023F000F5E701242000F8BDF7B50700160000241A
:1024000000910193B44213D2FB68351B9D4200D961
:102410001D00721B019BA24200D90023009A3800C4
:1024200011192A00FFF7CFFF002802D06419E9E74D
:102430000120FEBD73B5040000201D0006AB40CB9B
:102440001B78019000902000FFF78FFF002805D037
:102450000123320029002000FFF7CEFF76BDF8B53A
:102460001E0006AB1D78FF2343740374C373079BE0
:1024700017000360030000223433040042608173BC
:102480001A70082001F042FD076005714671606016
:10249000A760267365732000F8BD70B504000E2098
:1024A0002056431C07D0C0B2012100F06DFFA07B75
:1024B000012100F0B5FF2568002D07D02B6828000A
:1024C000DB6A984701203434207070BDE07B012125
:1024D00000F05AFF637BE07B2900012B00D901212A
:1024E00000F09EFF10202056431C07D0C0B20121EF
:1024F00000F04AFF207C012100F092FF11202056BD
:10250000431CDFD0C0B2002100F03EFFDAE700003C
:10251000F0B50400006889B00E001500002804D052
:1025200003681B69984709B0F0BD8022237B0292A3
:10253000002B01D101330293029A3378A168134032
:102540005A4253414948DBB2059301F0F9FC6B460E
:1025500001901B79039373190793079BB342E2D051
:1025600000273378029D0693039B002B04D0FF23A2
:102570000198184000F0A0FD0221627BA3698A4304
:1025800046D11022A256013212D0069929400A00E3
:10259000501E824105980491824209D0606A6269A6
:1025A000844600292ED01168014311600122059252
:1025B0001A68E16A0A431A60039B002B04D0FF23C8
:1025C0000198184000F078FD1123E356013306D03E
:1025D000E369A26A1B681A4201D02F43FFB2A269C5
:1025E000E16A13688B4313601123E356013300D073
:1025F0003770237B002B37D16D00EDB2002DB3D1A6
:102600000136AAE76146106888431060049ACEE755
:102610001A68E16A0A431A60039B002B04D0FF2367
:102620000198184000F048FD1023E356013307D00D
:10263000069A6369616A154213D01A680A431A60E0
:10264000A269E16A13688B4313601123E3560133D7
:10265000CAD0E369A26A1B681A42C5D02F43FFB2F1
:10266000C2E71A688A43EAE76D10C6E720A10700AF
:1026700013B56B46DC1DD97101222100FFF748FF1D
:10268000207816BD036810B5002B06D04268196883
:102690001800CC6911685268A04710BD006810B5D9
:1026A000002802D003681B6A984710BD10B5807BD4
:1026B00040B2431C03D0C9B2C0B200F0B1FE10BD9D
:1026C00010B50400FFF7DEFF00212000FFF7EEFF4A
:1026D00010BD10B504000121FFF7E8FF2000FFF74F
:1026E000DDFF10BDF7B51D0006000C000192FFF7DD
:1026F000E7FF089BEF18BD4209D1019BE518AC42EA
:102700000BD021783000FFF7B3FF0134F7E72978C9
:102710003000FFF7ADFF0135EDE73000FFF7D9FFDF
:102720000120FEBDF7B5009308AB40CB0C001B7831
:10273000170005000193FFF7C3FFE719BC420AD158
:10274000009CA619B4420CD001992800FFF790FF15
:1027500020700134F6E721782800FFF789FF013463
:10276000ECE72800FFF7B5FF0120FEBD0020704711
:10277000F8B505000E0017000024BC4208D02B68F5
:10278000315D1B6828009847002801D00134F4E728
:102790002000F8BD006E70477047036E002B03D019
:1027A000C36DC018007E704701204042FBE7000067
:1027B000F7B50193FA230025402604009B008360AF
:1027C000114B0F0008334560036029000092183058
:1027D000320001F090FC2000A5653200E56529007B
:1027E0002566643001F087FC2300A4331D605D6022
:1027F0009D606B461B78276123756B461B79A57519
:1028000020006375FEBDC046E84F0000837D002BAD
:1028100001D0002070470200B03211700C3A1360F2
:102820005360936001238375F4E7836C402B09D0D8
:102830003F22036CC154036C013313400364836C67
:10284000013383647047F7B5002504001700019336
:102850002800AA4226D0A5650122E56520692566E3
:1028600000F0A8FFA8421CD026001836206901F00D
:102870002BF8013501003000FFF7D7FF2069AF4288
:1028800006D000F077FF0221206900F07DFFEDE720
:1028900000F068FF019B002B03D00321206900F0AA
:1028A00073FFE8B2FEBD002310B5827D9A4208D0C6
:1028B0000200AC321268402A03D06430FFF7B5FF43
:1028C0000123180010BD836C002B0BD03F21436CFB
:1028D000C25C436C01330B404364836C013B8364F3
:1028E0001000704701204042FBE70300002270B552
:1028F000B033827504000E000069197800F05AFFA9
:10290000002806D10321206900F03EFF022528009F
:1029100070BD2300AC331D68002D10D02000643042
:102920002569FFF7D0FFC1B2280000F085FF00281D
:10293000EFD10321206900F027FF0325E7E7002EF0
:10294000E5D00321206900F01FFFE0E710B5183043
:10295000FFF7B9FF10BD70B50400006900F092FFE9
:10296000002814D0206900F09BFF002810D02069B7
:1029700000F000FF0321206900F006FF2300B833B8
:102980001D68002D32D10023A365E365236670BD69
:10299000206900F08FFF002809D0206900F085FF32
:1029A000002804D0206900F08AFF0028DFD02069C9
:1029B00000F080FF00281FD1206900F06CFF002884
:1029C000E5D0206900F07BFF00282FD02300AC3336
:1029D0001B68FF21002B04D020006430FFF773FF39
:1029E000C1B2206900F040FFA075D0E72368200045
:1029F0001B699847A847C6E7206900F0BBFE20691D
:102A0000032100F0C1FE206900F059FF0028BED06C
:102A100022000023A4321360536093600133A37536
:102A2000B4342368002BB2D09847B0E7236E2069F6
:102A3000402B06D100F096FE0321206900F0A4FE91
:102A4000A5E700F041FF010020001830FFF7EDFE80
:102A5000206900F08FFEEFE710B50248FFF77BFF1B
:102A600010BDC046C000002010B515231422024935
:102A70000248FFF79DFE10BD44060020C000002064
:102A800070B506000C008D18AC4207D03368217871
:102A90009B683000984720700134F5E770BD70479F
:102AA000704710B50400406800F02AFE002323762A
:102AB00010BD10B5406800F048FE10BDF8B5050027
:102AC00040680C0000F03CFE2B68E7B2260A9B68C9
:102AD000012810D139002800FF2798472B68BC43F4
:102AE00004439B68310028009847030220003840C7
:102AF000184380B2F8BD310028009847FF262B68A4
:102B00000002344004439B68390028009847B443CE
:102B10002043EEE710B5040001F0FCF9200010BDE1
:102B200010B54B1C0BD0102909D0EFF3108472B6EE
:102B3000102905DD02234376002C00D162B610BDBA
:102B40000123427E1A43427618224A4304498918D7
:102B500016228A569340C2691343C361ECE7C0460C
:102B60004C5000004B1C17D0102915D0437E9B07FA
:102B700012D4EFF3108272B618234B430749C918D9
:102B80000123897D49B28B40C1699943C16100D15C
:102B90004176002A00D162B67047C0464C50000012
:102BA000437E002B05D09A0704D5837E002B00D0EE
:102BB00062B67047DB07FCD5C369024A9BB2D3609B
:102BC000F7E7C04600180040037E002B04D143768F
:102BD0008376C36101330376704700007FB50369D4
:102BE00002AE04000D00029172608B4203D1828A12
:102BF000B3889A4226D0200006223100103001F01E
:102C000071FA606800F093FD7379E17A013B581E18
:102C10008341227B00936068002300F0EFFE33794C
:102C20000021013BDBB2022B01D8074AD15C074BE4
:102C30002A009D4200D91A00606800F049FD6068D2
:102C400000F06BFD7FBDC0460C500000001BB700BC
:102C500070B518260400FFF7B7FF33000821207A6B
:102C60000D4D4343EB18595600F006FC3300082184
:102C7000A07A4343EB18595600F0FEFB0821607A16
:102C80004643AD19695600F0F7FB044B200006CB14
:102C9000FFF7A4FF70BDC0464C5000009C0100200F
:102CA00007B5437E00910192002B07D09A070AD501
:102CB000EFF310835A425341837672B60099019A1A
:102CC000FFF78CFF07BDDB07F8D5C369014A9BB24C
:102CD0009360F3E7001800400E490F4B10B5012236
:102CE0000B6000234A710B710C490D4808310160DB
:102CF0000C49427541600C49C2720181182103617F
:102D000081720375094A0A490376037301F006F9D3
:102D100010BDC0469C01002000093D00105000007D
:102D20007C0100204C060020161700000000002047
:102D3000A12A000000230360436010330372704730
:102D4000F0B5466893B00400002E33D0036800222B
:102D5000052101250027049300F046F802233200E4
:102D6000019300905B1904990395029706A8FFF759
:102D70001DFA2268667A04926268052105926772DC
:102D80003A00200000F030F8022300900193059AE9
:102D90005B190499039502970CA8FFF707FA2A001C
:102DA000082166720CA8FFF74EFA2A00082106A82F
:102DB000FFF749FA13B0F0BDF7B5060043723820AB
:102DC00017000D0001F0A2F80023040069B201977A
:102DD0000093044A0133FFF742FB74602000FFF7C1
:102DE0005CFBFEBD40420F00037A89B2082B01D97B
:102DF000490011434368002B06D0437A80205B02D0
:102E0000C0011843014389B2080070470723F0B599
:102E10008B42BF4197B07F4205920E003A000021DD
:102E200001240500FFF7E0FF002200900292032337
:102E30006A682968039401940AA8FFF7B7F93A0071
:102E400006212800FFF7D0FF002200900292039491
:102E500006CD0194032310A8FFF7A8F907231E400D
:102E6000330022000AA906A8FFF764FA2200330003
:102E700010A908A8FFF75EFA059B06A8591E4B1E6D
:102E80009941FFF75BFA059B08A8991E4B425941EF
:102E9000FFF754FA17B0F0BDF0B507278FB00592D1
:102EA0008F4292410C005242092101250600FFF792
:102EB0009BFF06CE002300900293039501950333F8
:102EC00008A8FFF773F923002A003B4008A906A8C9
:102ED000FFF730FA059906A84B1E9941FFF72EFA25
:102EE0000FB0F0BD10B5024800F02BFF10BDC0467A
:102EF000E803002010B5024800F023FF10BDC046D3
:102F0000A4010020F7B501240326154F1549380008
:102F100000F04EFB1449154800F04AFB14491548CF
:102F200000F046FB1449154800F042FB14491548CF
:102F300000F03EFB144D1549280000F039FB390024
:102F40000096230001940022114800F073FE0096C1
:102F5000290001941E231F220E4800F06BFEF7BDCE
:102F60002C06002000080042000C0042340600201D
:102F7000001000423C0600200014004244060020DD
:102F8000001800424C06002054060020001C00429D
:102F9000E8030020A4010020FEE70000034B10B569
:102FA0001B68002B00D0984710BDC0465C0600206F
:102FB00070B50F490F4CA14204D100F08BF800F01E
:102FC00091FFFEE70C4D00238D42F6D0CA18E81899
:102FD000A24205D3094B8242EFD00949002204E006
:102FE000006804331060F1E704C38B42FCD3E4E7CC
:102FF00000000020900000206C5500009000002090
:103000007406002010B500F063F8002801D100F02C
:1030100049F810BDF7B51348012284461249134CF4
:103020008E68636805689B0E134001928868626829
:10303000019F920E3A4067463F6893420ED1BD42CF
:103040000CD186420AD35B19FA254868AD00861B6D
:1030500007486B437043000DC018FEBD3D001300D0
:103060000600E3E76006002010E000E000ED00E06D
:103070005555000070B5041E10D0FFF7CBFF0500BA
:1030800000F025F8FFF7C6FF054B401B9842F7D923
:10309000FA23013C9B00ED18002CF3D170BDC04613
:1030A000E703000010B5034A13680133136000F012
:1030B00043FA10BD6006002010B5002806D030236A
:1030C0000321584300F03CFF0138FDD110BD70478B
:1030D000002070471E2270B5464847494368934315
:1030E0001C3A1343436008238C6923438B61434C90
:1030F000434B9C829C8A14439C82DC681442FCD023
:103100000124404A14701578254203D055786DB2D9
:10311000002DF8DB01249460547864B2002CFBDBB2
:10312000394C5460547864B2002CFBDB8224E401F7
:103130005480547864B2002CFBDB02249C840E344F
:10314000DD682542FCD0314CDC621024DD6825426C
:10315000FCD09D8C2E4C2C439C841024DD68254291
:10316000FCD002249D8C80262C439C844024DD6866
:103170003542FCD0DD682542F9D01024DD682542B7
:10318000FCD000249460547864B2002CFBDB214C0A
:103190005460547864B2002CFBDB1C6A1E4D2C403A
:1031A00080251C621C6AAC431C62032393601B4B8A
:1031B000536053785BB2002BFBDB0023FF240B72C0
:1031C000174A4B728B72CB72164B1A60164B174A0A
:1031D0001B6811689A065B01C90E2340520F120248
:1031E0000B431343124A1385802342681343436001
:1031F00070BDC04600400041000400400C060000C5
:1032000000080040000C004001050100B905FF7DE9
:10321000040A000000070300FFFCFFFF0306010093
:10322000006CDC020400002024608000206080002C
:1032300000400042FA21314B10B51868890000F0B7
:103240007FFE2F4B0138984256D82E492E4A4860AF
:10325000C020136A00061B021B0A034313620024EA
:1032600007238C600B608021136A09061B021B0A6E
:103270000B431362FC22254B196A0A431A62FC2293
:10328000196A92010A431A62A022196AD2020A43F9
:103290001A62E0B20021013400F076F8142CF8D163
:1032A0001B4B1C005A7852B2002AFBDB194A5A8089
:1032B000194B1A00597EC9090129FBD0E421C90024
:1032C00099803F21D970537EDB09012BFBD0C023AD
:1032D00000205B011361907000F024F863785BB20A
:1032E000002BFBDB0D4B0E4A6380D379DB09012BEE
:1032F000FBD04123537010BDFEE7C0460400002000
:10330000FFFFFF0010E000E000ED00E000040040DF
:10331000000C00401E400000004000422140000020
:1033200000480042164A00B51300517EC909012920
:10333000FBD00138042816D81969124A0A400F2117
:103340001A615A788A4300F0F1FD0308060B030066
:10335000110001220A435A7000BD11000322F9E74F
:1033600011000222F6E7F02311691B050B430F2120
:10337000136153788B43190002230B435370EBE71F
:1033800000400042FFFFFFF0182330B51D0004008D
:1033900045430820204A55192856013014D00329E6
:1033A00012D808006343D156D31800F0BFFD02289D
:1033B0000E1B5868CB010221184A9B181A1840327C
:1033C0001170012282405A6030BD5868CB0106213D
:1033D000124A9B181A1840321170012282405A601A
:1033E0009A61F1E75868CB0106210C4A9B181A181C
:1033F00040321170012282405A605A61E4E75868F5
:10340000CB010221054A9B181A1840321170012283
:1034100082409A60D8E7C0464C500000004400410A
:103420001823F0B508245843114A13181C570134C7
:103430001BD0012635005F688356BD400D4ADB0175
:103440009A18906805420BD10C00601E8441D21975
:103450004032107834400336A400B043204310704B
:10346000044A9B18002901D15D61F0BD9D61FCE714
:103470004C5000000044004118224243F8B52C4E45
:103480000300B218127A52B2140001320ED0481C56
:1034900000240C280AD800F049FD07202020202015
:1034A0002020200B0B0B0B00012464422000F8BDF0
:1034B000092905D10021D8B2FFF766FF0024F5E7FE
:1034C0000A2902D1D8B20839F6E700240B29EDD138
:1034D000D8B20A39FFF758FFE8E718204343F2183B
:1034E0005568F3562C00134ADB016E0817389B18F9
:1034F000C9B204409E19002C0DD00F24303632780A
:10350000090122401143C9B25B19317040331A7866
:1035100010431870D2E732000F27303216785B194B
:10352000BE433143117040331A7810431870BDE721
:103530004C50000000440041164A10B51368591C55
:1035400026D0013B1360002B22D172B6124B134AD6
:103550000433934213D9124A01211000147D0C4206
:10356000FCD02021148BFF319B085B002143118389
:10357000D3610C4B13800123027D1A42FCD0BFF3B0
:103580004F8F094B094ADA60BFF34F8FC046FDE702
:1035900010BDC0460800002000200000030200000B
:1035A0000040004102A5FFFF00ED00E00400FA0525
:1035B00000230371016070479446F0B59E1E721E91
:1035C00096416246056892072F6836063A433243B1
:1035D0002A60072505AC24780068A401294021430E
:1035E00042680024022B00D05C0311432143416058
:1035F000F0BD30B5C0250368AD031C6812052A4034
:103600002243C0240904A402214011431960036825
:103610005A6814435C6030BD0123026811680B4393
:10362000136003681A68D207FCD4DA69D207F9D4A8
:1036300070470223026811680B4313600268D36964
:103640009B07FCD470470268137E9B0702D4037962
:10365000002BF9D1002303717047002203685A83BD
:1036600070470368187E4007C00F70470368187ED4
:10367000C0097047802302685B42117E0B431376BA
:1036800070470368588B8007C00F70470223026899
:10369000518B0B43538370470368187EC007C00FDC
:1036A00070470368188DC0B2704703681A7ED2074E
:1036B000FCD589B2198501230371180070470122D6
:1036C00003689A757047012203681A7570470000F5
:1036D00070B5012604684B0833403140256809075E
:1036E0005B070B432B43236004685100034800F041
:1036F00027FC0138C0B2207370BDC046006CDC02EC
:103700000123026811680B43136003681A68D2072B
:10371000FCD4DA69D207F9D4704702230268116831
:103720000B4313600268D3699B07FCD4704703689E
:10373000DA699207FCD402211A688A431A6070473A
:10374000036818684000C00F70470268936A5B0AFC
:103750005B021943916203681A7E5207FCD5986A8E
:10376000C0B2704780230268DB02116851680B43C6
:1037700053607047036803491A685A680A405A60E0
:103780007047C046FFFFFBFF032230B503681140BE
:103790001C68074D5A6809042A40E4061143640F67
:1037A0005960052C03D10268D3695B07FCD430BD96
:1037B000FFFFFCFF70B5056804006B8B9B069B0F39
:1037C000022B0DD06B8B00209B069B0F032B32D05E
:1037D0006B8B9B0704D56B8B9B069B0F012B2AD110
:1037E0006B6A49001143DB0AC9B2DB020B436B620F
:1037F0002368002A13D11A7ED207FCD55B8B9B0667
:103800009B0F022B04D0490800222000FFF7D2FFB3
:103810002368588B4007C30F012058400BE0187EE7
:103820008007C00FF4D11A7ED207F8D5C02259689C
:1038300092020A435A6070BD036828331970026807
:10384000107EC007C30F508B002B06D1C007C00FDE
:1038500008D1538B9B07F3D570474007C30F012056
:103860005840F9E71800F7E7036828331970036830
:1038700000201A7E520704D5588B01234007C00F41
:103880005840704703681868C006400F0438434228
:103890005841C0B270470368187E4007C00F704798
:1038A0000368187EC007C00F70470368588BC006B6
:1038B000C00F70470368187E8007C00F7047036809
:1038C000588B0007C00F704703681A68D206520F62
:1038D000052A05D11A7E920702D41A7ED207F9D59D
:1038E00028331878C0B270470368214A30B5934234
:1038F0002FD0204A93422FD01F4A93422FD01F4AE5
:1039000093422FD01E4A93422FD01E4A93421FD17A
:103910000E2319220121032599401B48C024016070
:1039200099082B40AB40FC359D4089000918A40044
:103930000859A843C0259D402B0003430B51802309
:10394000DB011A43114B5A805A7852B2002AFBDB32
:1039500030BD09231422DDE70A231522DAE70B2301
:103960001622D7E70C231722D4E70D231822D1E71C
:1039700000080042000C0042001000420014004207
:1039800000180042001C004200E100E0000C004072
:10399000F8B504000F0016001D00FFF7A5FF20007A
:1039A000FFF73AFE1C21BB000B4071072268090C8F
:1039B0000B431360842322689375012F1AD11021C1
:1039C000012E00D008390C4B69431868C00000F084
:1039D000B7FA0722216802408B895203DB04DB0C13
:1039E00013438B81226803049089DB0C400B400356
:1039F00018439081F8BDC04604000020F7B50600CA
:103A0000019308AB1F780D001400FFF779FE30001A
:103A1000FFF76AFFC022240592031440BA070C275F
:103A200017433C43C0270722BF022D0433683D40A3
:103A300025431D60019B316813401A0080239B02BF
:103A400013434B60F7BD01207047000010B50368B9
:103A5000014A1B6A984710BD13040000FC30006A3D
:103A6000704787239B00C018C36880204000C01A9D
:103A700070470300FC331A6A002A03D0DB69C018C0
:103A8000007D704701204042FBE710B5040000694B
:103A9000FFF7C2FD22000023FC329361D361136261
:103AA00087229200A4186360A360E36010BD87239F
:103AB00010B59B00C218D368002BFCD10069FFF73A
:103AC000C2FD10BD0368002B02D162B6BFF36F8F39
:103AD0007047F02001403039484248417047F02398
:103AE0001B011940802306209B0099420AD0013314
:103AF000FF330130994205D0802302385B009942A0
:103B000000D0002070470F2001400020012903D081
:103B10000239481E8141481C704700008B23F0B5D4
:103B2000182685B002919B000400C05C3300082178
:103B30004343324D1700EB185956FFF79DFC304BAD
:103B40000821E05C33004343EB185956FFF794FC1F
:103B50002C4BE25C0393022A09D11133E05CFF286D
:103B600005D008214643AE197156FFF785FC8C2617
:103B7000B600A05DFF2819D00121FFF705FC18222F
:103B8000A35D21495A43AB56AD18DB0158188D216E
:103B9000890060501D4901225B188E218900635005
:103BA00069688A408F21890062501A600122029B55
:103BB00011002069FFF7ECFE39002000FFF78FFFAE
:103BC000390005002000FFF79EFF390006002000A5
:103BD000FFF77FFF33000090290020690122FFF7E3
:103BE000EBFC0B4B2069E25C039BE15CFFF701FD02
:103BF0002069FFF71EFD05B0F0BDC0464C50000027
:103C00002D0200002F02000018440041144400411E
:103C10002E020000802210B504005200002100F0A6
:103C20006AFA23000022FC335A6020009A60DA60AE
:103C300010BD0000F7B51D0008AB1B780400009311
:103C400009AB1B781600019300234360FA239B0005
:103C50008360114B0F00083303601430FFF7DAFF65
:103C600020002130FF30FFF7D5FF8B236A469B00F1
:103C70002761E654094B1278E554094B2000E254C1
:103C80006A46084B1279E2548C22313BFF3B92008A
:103C9000A3541032A354FEBD9C5400002D0200001A
:103CA0002E0200002F020000F7B5EFF310830093FF
:103CB0000123019372B680260200FF25019BFC328E
:103CC0007600013B5C1C0FD0D4685F1EB44209D063
:103CD00054680155546801342C405460D468013450
:103CE000D460EEE73B00EDE768460193FFF7EAFE9C
:103CF000F7BD13B5EFF3108300930123019372B660
:103D0000019B5A1E0192002B15D00300FC33DA6888
:103D1000002A0DD09A68845C9A680132D2B29A6007
:103D2000DA68013ADA606846FFF7CCFE200016BD7B
:103D300001246442F7E701246846FFF7C3FE6442AA
:103D4000F4E710B504000069FFF79BFC002805D0DC
:103D50002069FFF7A6FC2069FFF798FC2069FFF7B0
:103D600080FC00281BD02069FFF79BFC010020008D
:103D70001430FFF799FF8C239B00E35CFF2B0ED0E0
:103D80002300FC331A6A80235B009B1A092B06DC94
:103D90008D238F229B009200E358A2581A6020695D
:103DA000FFF77AFC00280ED087239B00E318DB681E
:103DB000002B14D020002130FF30FFF79AFFC1B252
:103DC0002069FFF772FC2069FFF750FC002805D03E
:103DD0002069FFF74FFC2069FFF73FFC10BD206909
:103DE000FFF771FCEFE70000F8B5040000690D0073
:103DF000FFF752FC87239B00E618002802D0F368E7
:103E0000002B34D001278022F3685200934223D143
:103E1000EFF310833B4210D1174B5B68DB05DB0DE2
:103E2000F1D0103B5BB2002B10DAF13A1340083BA3
:103E30009B08124A9B009B181B682069FFF72CFC0B
:103E40000028E0D02000FFF77CFFDCE79B08C033B0
:103E50000B4A9B009B58F0E720002130FF302900DF
:103E6000FFF722FF2069FFF72AFC0120F8BD290097
:103E70002069FFF71AFCF8E700ED00E01CED00E018
:103E800000E100E010B504001430FFF732FF8C238E
:103E90009B00E35CFF2B0ED02300FC331A6A8023C7
:103EA0005B009B1A0A2B06DD8E238F229B0092005B
:103EB000E358A2581A6010BDF7B506000D000C00BB
:103EC0008B180193019B671B9C4207D033682178B4
:103ED0001B683000984701340028F3D13800FEBD3C
:103EE0007047000010B5FFF7A5F900F0C3F8FFF721
:103EF000F7FFFEF703F9FEF727F9034B002BFAD083
:103F000000E000BFF7E7C0460000000010B500F079
:103F1000D5F810BD10B500F0DBF810BD0B0010B5E2
:103F20000100180000F098F810BD000002B47146BE
:103F300049084900095C49008E4402BC7047C046EC
:103F4000002243088B4274D303098B425FD3030AD8
:103F50008B4244D3030B8B4228D3030C8B420DD3EB
:103F6000FF22090212BA030C8B4202D31212090279
:103F700065D0030B8B4219D300E0090AC30B8B42B7
:103F800001D3CB03C01A5241830B8B4201D38B0365
:103F9000C01A5241430B8B4201D34B03C01A52410A
:103FA000030B8B4201D30B03C01A5241C30A8B424D
:103FB00001D3CB02C01A5241830A8B4201D38B0238
:103FC000C01A5241430A8B4201D34B02C01A5241DC
:103FD000030A8B4201D30B02C01A5241CDD2C3094E
:103FE0008B4201D3CB01C01A524183098B4201D3CA
:103FF0008B01C01A524143098B4201D34B01C01AB5
:10400000524103098B4201D30B01C01A5241C3082C
:104010008B4201D3CB00C01A524183088B4201D39B
:104020008B00C01A524143088B4201D34B00C01A87
:104030005241411A00D20146524110467047FFE7F3
:1040400001B5002000F006F802BDC0460029F7D0F7
:1040500076E770477047C04610B504000448130067
:10406000002804D00A000220210000E000BF10BD9B
:104070000000000070B500260C4D0D4C641BA41010
:10408000A64209D1002600F095FF0A4D0A4C641B98
:10409000A410A64205D170BDB300EB589847013675
:1040A000EEE7B300EB5898470136F2E770000020C6
:1040B00070000020700000208400002010B5034B29
:1040C0000100186800F06AF810BDC0460C0000201E
:1040D00010B5034B0100186800F016F810BDC0467B
:1040E0000C000020002310B59A4200D110BDCC5C1A
:1040F000C4540133F8E703001218934200D170470B
:1041000019700133F9E7000070B50500002910D0DF
:104110000C1F2368002B00DAE418280000F04BFE87
:104120001D4A1368002B05D163601460280000F05D
:1041300043FE70BDA34209D9216860188342F3D1C0
:1041400018685B6841182160EEE713005A68002A7E
:1041500001D0A242F9D919685818A0420BD12068A1
:104160000918581819608242E0D110685268411845
:1041700019605A60DAE7A04202D90C232B60D5E718
:1041800021686018824203D110685268411821608A
:1041900062605C60CAE7C04664060020032370B515
:1041A000CD1C9D43083506000C2D1ED20C25A942BE
:1041B0001DD8300000F0FFFD254A146821000029B9
:1041C00019D1244C2368002B03D1300000F012FBDE
:1041D00020602900300000F00DFB431C2BD10C2384
:1041E0003000336000F0E8FD03E0002DDFDA0C233F
:1041F0003360002070BD0B685B1B19D40B2B03D9F7
:104200000B60CC18256003E04B688C420DD1136025
:10421000300000F0D1FD200007220B30231D904319
:10422000C31AE7D05A42E250E4E763600C00EFE7BC
:104230000C004968C3E70323C41C9C43A042E1D09F
:10424000211A300000F0D6FA431CDBD1C7E7C04684
:104250006406002068060020936810B5013B936057
:10426000002B04DA9469A34207DB0A2905D01368FE
:10427000581C10601970080010BD00F0CDFA010044
:10428000F9E7F8B506000F001400D518AC4201D1CB
:10429000002007E021783A003000FFF7DDFF01340D
:1042A000431CF3D1F8BD0000F0B59FB002900F00A1
:1042B00016000593002805D083690493002B01D1D3
:1042C00000F06EFC7B4B9F425BD1029B5F68BB8919
:1042D0001B0762D53B69002B5FD0002306AC6361EE
:1042E000203363761033A37635002B78002B01D072
:1042F000252B5CD1AB1B04930CD032003900029803
:10430000FFF7BFFF431C00D1C4E06269049B9446E1
:10431000634463612B78002B00D1BBE001220023B2
:104320005242626002A9543252186E1C2360E3604C
:10433000A3601370A365317805225F4800F030FD5B
:10434000751C002835D12268D30604D5532302A951
:104350005B1820211970130704D5532302A95B1899
:104360002B21197033782A2B2CD0350000210A20FC
:10437000E3682A786E1C303A092A64D900292ED0C5
:1043800026E04E4B9F4202D1029B9F689FE74C4B19
:104390009F429CD1029BDF6899E73900029800F0A8
:1043A00091FA002899D0012040421FB0F0BD01359C
:1043B0009BE7414B2268C01A0123834013432360CB
:1043C0002E00B8E7059B191D1B680591002B01DB2A
:1043D000099304E05B42E3600223134323602B78DC
:1043E0002E2B0AD16B782A2B35D1059B02351A1D4D
:1043F0001B680592002B2BDB0793324E2978032292
:10440000300000F0CDFC002806D04023801B834004
:104410002268013513432360297806222A486E1C3E
:10442000217600F0BDFC00283AD0284B002B25D186
:104430000722059B07339343083305936369039A67
:104440009B18636150E7434301219B18350090E7B7
:1044500001235B42D0E700230A201A000135636084
:1044600029786E1C3039092903D9002BC5D0079251
:10447000C3E74243012352183500F1E705AB00932F
:104480003A00134B2100029800E000BF0390039B09
:104490000133D3D1BB895B0600D584E70B9884E751
:1044A00005AB00933A000A4B2100029800F080F817
:1044B000ECE7C04628550000D454000048550000E1
:1044C00008550000DA540000DE540000000000002F
:1044D00083420000F7B5150001938A680B690090CC
:1044E0000C00934200DA130022002B604332127852
:1044F000002A01D001332B6023689B0602D52B686C
:1045000002332B60062723681F4027D02300433344
:104510001B785A1E93412268920630D422000199DA
:1045200043320098089EB047431C25D006232068DC
:104530002A68E16803400025042B03D18D1AEB4360
:10454000DB171D40A3682269934201DD9B1AED1819
:104550000027BD4220D1002010E00137E3682A681F
:104560009B1ABB42D2DD2200012319320199009827
:10457000089EB047431CF0D101204042FEBD3020D0
:10458000E1184331087021005A1C45310978A218FE
:10459000433202331170C1E7220001231A3201991C
:1045A0000098089EB047431CE6D00137D1E70000D1
:1045B000F0B589B004920A00433205930390029249
:1045C0000A7E0C000E9B6E2A00D186E01FD8632A5B
:1045D00033D008D8002A00D18CE0582A4DD02500CD
:1045E00042352A7030E0642A01D0692AF7D119686F
:1045F00025680A1D280629D508681A60002803DAEC
:104600002D23029A404213706B4E0A274FE0732A03
:1046100074D008D86F2A1FD0702AE0D120220968F0
:104620000A43226003E0752A16D0782AD7D12200E7
:10463000782145321170614E22E025001A6842351A
:10464000111D196013682B70012365E008681A605A
:104650006906D3D500B2D1E719682568081D18602E
:1046600008682E0605D5544E08276F2A1BD00A2746
:1046700019E06D06F7D580B2F5E745314E4E0A7068
:1046800018682268011D00681960150621D5D30736
:1046900002D520231A4322601027002803D12023AB
:1046A00022689A4322602300002243331A70636811
:1046B000A360002B58DB042221689143216000286D
:1046C00054D1029D002B5AD02500337842352B70EF
:1046D00055E05506DBD580B2D9E71A680D68101D84
:1046E0004969186013682E0601D5196002E06D064D
:1046F000FBD519800023029D23614FE01A68111D2C
:104700001960156800216268280000F049FB002844
:1047100001D0401B6060636823610023029A13701C
:104720003CE023692A0004990398059DA847431C8F
:104730003ED023689B0715D4079BE068984239DA7E
:10474000180037E022000123193204990398059ECE
:10475000B047431C2CD00135E368079A9B1AAB4243
:10476000F0DCE9E70025F7E70028ADD0029D39002D
:10477000FFF76CFC735C013D2B700028F7D1082F0C
:1047800009D12368DB0706D563682269934202DCFE
:104790003023013D2B70029B5B1B2361059B07AA05
:1047A00000932100049B0398FFF794FE431CB8D1AB
:1047B0000120404209B0F0BDE5540000F65400006D
:1047C0000FB40B4B13B51C68002C05D0A369002B4C
:1047D00002D1200000F0E4F905AB049AA1682000A2
:1047E0000193FFF761FD16BC08BC04B01847C04632
:1047F0000C000020002370B5064C05000800236063
:1048000000F0C2FB431C03D12368002B00D02B60B7
:1048100070BDC04670060020F8B505000E001400FB
:10482000002804D08369002B01D100F0B9F9224B94
:104830009C422DD16C68A369A360A3891B0731D565
:104840002369002B2ED023682269F7B2981A636976
:10485000F6B2834205DC2100280000F033F900287D
:1048600026D1A3680130013BA36023685A1C226053
:104870001F706369834204D0A389DB071AD50A2E0F
:1048800018D12100280000F01DF9002812D00FE0F7
:104890000A4B9C4201D1AC68CDE7094B9C42CAD17E
:1048A000EC68C8E72100280000F00CF80028CAD006
:1048B000012676423000F8BD28550000485500001A
:1048C00008550000364B70B51D6806000C00002D21
:1048D00005D0AB69002B02D1280000F061F9314B03
:1048E0009C420FD16C680C23E25E93B219072DD461
:1048F000D90611D409230120336037331343A38130
:10490000404270BD284B9C4201D1AC68EBE7274B7D
:104910009C42E8D1EC68E6E75B0713D5616B0029A0
:1049200008D023004433994202D03000FFF7ECFB5B
:10493000002363632422A3899343A381002363603C
:10494000236923600823A2891343A3812369002BD1
:104950000BD1A0218022A389890092000B409342B1
:1049600003D02100300000F0D7F90123A2891340C1
:1049700011D00023A36063695B42A3610020236917
:104980008342BED10C23E25E1306BAD54023134303
:10499000A3810138B5E7920700D46369A360EDE70E
:1049A0000C00002028550000485500000855000064
:1049B000F7B58A8905000C00130760D44B68002BFB
:1049C00004DC0B6C002B01DC0020FEBDE76A002F2D
:1049D000FAD000232E682B6080235B01216A1A40E5
:1049E00034D0606DA3895B0706D56368C01A636B1A
:1049F000002B01D0236CC01A0200216A002328007A
:104A0000E76AB847A189431C06D12B681D2B30D813
:104A10002B4ADA40D3072CD5002363602369236037
:104A2000CB0405D5431C02D12B68002B00D1606557
:104A3000616B2E600029C7D023004433994202D015
:104A40002800FFF761FB00206063BEE70123280018
:104A5000B847431CC6D12B68002BC3D01D2B01D0F7
:104A6000162B01D12E60AFE74023A2891343A38107
:104A7000ABE740230B430120A3814042A5E70F6928
:104A8000002FA1D00B680F60DB1B0193002392075E
:104A900000D14B69A360019B002B00DC94E7019BD4
:104AA0003A00216A2800A66AB047002803DC4023A8
:104AB000A2891343DFE7019B3F181B1A0193EAE722
:104AC000010040200B6970B505000C00002B01D1DE
:104AD000002070BD002804D08369002B01D100F0B4
:104AE0005FF80B4B9C4209D16C680C22A35E002B33
:104AF000EED021002800FFF75BFFEAE7054B9C4260
:104B000001D1AC68F1E7044B9C42EED1EC68ECE7D4
:104B1000285500004855000008550000002310B536
:104B2000040003604360836081814366C281036146
:104B300043618361190008225C30FFF7DCFA054B02
:104B400024626362044BA362044BE362044B23635D
:104B500010BDC046BD4D0000E54D00001D4E0000DB
:104B6000494E000010B5024900F08CF810BDC04657
:104B7000C54A000070B568254A1E55430E0029003D
:104B80007431FFF70BFB041E08D000212A000160DE
:104B900046600C30A0606832FFF7ADFA200070BDAF
:104BA000836913B50400002B28D18364C3640365B3
:104BB000134B144A1B6882620193984201D101236E
:104BC0008361200000F020F86060200000F01CF8F5
:104BD000A060200000F018F80022E0600421606866
:104BE000FFF79CFF01220921A068FFF797FF02222F
:104BF0001221E068FFF792FF0123A36113BDC046B5
:104C0000D0540000654B0000F8B51C4B07001E682F
:104C1000B369002B02D13000FFF7C2FF4836B468F9
:104C20007368013B04D53368002B07D03668F6E77C
:104C30000C22A55E002D0DD06834F2E70421380067
:104C4000FFF798FF30600028F0D10C2304003B6090
:104C50002000F8BD20000A4B656625606560A560F0
:104C6000E36025616561A561082229005C30FFF7DA
:104C700042FA6563A563A564E564E9E7D0540000E2
:104C80000100FFFFF7B5040007000026019148343A
:104C9000002C01D13000FEBD6368A5680093009B25
:104CA000013B009301D52468F2E7AB89012B08D9B9
:104CB0000E22AB5E013304D029003800019B9847D7
:104CC00006436835EBE7000070B50E001D000E23AB
:104CD000C95E96B01400002907DA00232B60B3895F
:104CE0001B0611D48023DB000FE06A4600F0D8F8E1
:104CF0000028F2DBF022019B12021340054A9B18A8
:104D00005A4253412B60EDE740230020236016B048
:104D100070BDC04600E0FFFFF7B502268B89050095
:104D20000C00334206D02300473323602361012364
:104D30006361F7BD01AB6A46FFF7C6FF0099070044
:104D40002800FFF72BFA002808D10C22A35E9A0551
:104D5000EFD4032293431E43A681E4E70F4BAB62DB
:104D60008023A28920601343A381009B206163619B
:104D7000019B002B0DD00E23E15E280000F0A2F86D
:104D8000002806D00322A38993431A00012313436A
:104D9000A381A0893843A081CBE7C046654B0000C2
:104DA000C9B28218904201D10020704703788B422B
:104DB000FBD00130F6E770477047000070B50C007B
:104DC0000E25495F00F0A4F8002803DB636D1B1873
:104DD000636570BDA389024A1340A381F9E7C04609
:104DE000FFEFFFFFF8B51F008B8905000C001600D0
:104DF000DB0505D50E23C95E0022022300F074F8FE
:104E0000A389054A28001340A38132000E23E15EE6
:104E10003B0000F01FF8F8BDFFEFFFFF70B50C007E
:104E20000E25495F00F060F8A389421C03D1054AB2
:104E30001340A38170BD802252011343A38160659A
:104E4000F8E7C046FFEFFFFF10B50E23C95E00F084
:104E500015F810BD70B50500080011000022064CC1
:104E600022601A0000F09EF8431C03D12368002B37
:104E700000D02B6070BDC04670060020002370B5C6
:104E8000064C05000800236000F056F8431C03D1CF
:104E90002368002B00D02B6070BDC0467006002038
:104EA000002370B5064C050008001100236000F0D7
:104EB0004BF8431C03D12368002B00D02B6070BD3E
:104EC00070060020002370B5064C05000800236022
:104ED00000F042F8431C03D12368002B00D02B6064
:104EE00070BDC0467006002070B5050008001100B6
:104EF0000022064C22601A0000F036F8431C03D151
:104F00002368002B00D02B6070BDC04670060020C7
:104F100070B50500080011000022064C22601A003E
:104F200000F02AF8431C03D12368002B00D02B602B
:104F300070BDC0467006002058220120014B40423F
:104F40001A6070477006002058220120014B404231
:104F50001A607047700600205822024B00201A6029
:104F60007047C0467006002058220120014B404285
:104F70001A6070477006002058220120014B404201
:104F80001A60704770060020044A1368002B00D195
:104F9000034B1818106018007047C0466C060020BC
:104FA0007406002058220120014B40421A607047CD
:104FB00070060020F8B5C046F8BC08BC9E46704795
:104FC000F8B5C046F8BC08BC9E4670474D43503209
:104FD00033533137206E6F7420696E697469616C68
:104FE000697365640000000000000000000000001C
:104FF000A7280000712700006D27000099270000F6
:10500000952700004D2900009B27000001020300A6
:105010000000000000000000A12A0000152B000085
:10502000B32A0000BD2A0000812A0000212B0000C5
:10503000652B0000A12C0000A12B00009F2A00007E
:105040009F2A0000512C0000A32A0000000000004D
:105050000B0000000200000004000000FF00FFFF42
:10506000FFFF0B00000000000A000000020000002B
:1050700004000000FF00FFFFFFFF0A000000000027
:105080000E0000000800000004000000FF00FFFF09
:10509000FFFF0E00000000000900000004000000F7
:1050A0001C000000FF0001000100090000000000DA
:1050B00008000000040000001C000000FF000000C9
:1050C00000001000000000000F00000004000000BD
:1050D0001C000000FF00010301030F00000000009E
:1050E00014000000050000002C000000FF0002007A
:1050F0000200040000000000150000000500000090
:105100002C000000FF000300030005000000000069
:1051100006000000040000001C000000FF00000169
:10512000000106000000000007000000040000006D
:105130001C000000FF000101010107000000000049
:1051400012000000040000001C000000FF0000032B
:105150000003020000000000100000000400000036
:105160001C000000FF000002000200000000000020
:1051700013000000050000002C000000FF000300E9
:105180000300030000000000110000000400000004
:105190001C000000FF0001020102010000000000ED
:1051A0000200000001000000020000000000FFFFFC
:1051B000FFFF0200010000000800000001000000E5
:1051C00018000000020000040004080001000000B4
:1051D00009000000010000001800000003000104A5
:1051E00001040900000000000400000001000000AC
:1051F000000000000400FFFFFFFF040000000000AB
:105200000500000001000000000000000500FFFF95
:10521000FFFF050001000000020000000100000087
:10522000000000000A00FFFFFFFF02000000000076
:10523000160000000200000004000000FF00FFFF55
:10524000FFFF060000000000170000000200000041
:1052500004000000FF00FFFFFFFF07000000000048
:105260000C0000000300000004000000FF00FFFF2E
:10527000FFFF0C00010000000A0000000300000016
:1052800004000000FF00FFFFFFFF0A000100000014
:105290000B0000000300000004000000FF00FFFFFF
:1052A000FFFF0B0001000000030000000B000000E6
:1052B00004000000FF00FFFFFFFFFF0000000000F0
:1052C0001B0000000B00000004000000FF00FFFFB7
:1052D000FFFFFF00000000001C00000006000000AF
:1052E00000000000FF00FFFFFFFFFF0000000000C4
:1052F000180000000600000000000000FF00FFFF93
:10530000FFFFFF0000000000190000000600000081
:1053100000000000FF00FFFFFFFFFF000100000092
:10532000160000000300000000000000FF00FFFF67
:10533000FFFFFF0001000000170000000300000055
:1053400000000000FF00FFFFFFFFFF000000000063
:10535000160000000200000000000000FF00FFFF38
:10536000FFFFFF0000000000170000000200000027
:1053700000000000FF00FFFFFFFFFF000000000033
:10538000130000000200000000000000FF00FFFF0B
:10539000FFFFFF00000000001000000002000000FE
:1053A00000000000FF00FFFFFFFFFF000000000003
:1053B000120000000200000000000000FF00FFFFDC
:1053C000FFFFFF00000000001100000002000000CD
:1053D00000000000FF00FFFFFFFFFF0000000000D3
:1053E0000D000000040000000C000000FF000100A0
:1053F000FFFF0D0000000000150000000500000088
:105400000C000000FF000300FFFFFF000000000091
:1054100006000000040000000C000000FF00000176
:10542000FFFFFF0000000000070000000400000074
:105430000C000000FF000101FFFFFF000000000062
:10544000030000000100000002000000FF00FFFF59
:10545000FFFFFF000000000002000000010000004C
:10546000020000001400FFFFFFFF02000000000028
:105470001E0000000400000006000000FF00FFFF07
:1054800000010A00000000001F00000004000000EE
:1054900006000000FF00FFFF01010B0000000000FC
:1054A00000000000E93D0000B93E0000633A000042
:1054B000AF3A00005D3A0000853E0000733A0000FC
:1054C0004D3A00001D3B00008B3A0000473A0000B7
:1054D00010000020232D302B2000686C4C006566E6
:1054E0006745464700303132333435363738394135
:1054F000424344454600303132333435363738394B
:105500006162636465660000000000000000000046
:10551000000000000000000000000000000000008B
:10552000000000000000000000000000000000007B
:10553000000000000000000000000000000000006B
:10554000000000000000000000000000000000005B
:10555000000000000000000000000000000000004B
:10556000000000000000000000000000000000003B
:1055700040420F00FFFFFFFF10000020000000006E
:1055800028550000485500000855000000000000A4
:10559000000000000000000000000000000000000B
:1055A00000000000000000000000000000000000FB
:1055B00000000000000000000000000000000000EB
:1055C00000000000000000000000000000000000DB
:1055D000000000000000000000000000DD200000CE
:1055E0009D210000692A0000D92C0000052F000031
:0C55F000B52000000000000000000000DA
:00000001FF
