:10000000F82200209D0100008D0200008D020000FA
:1000100000000000000000000000000000000000E0
:100020000000000000000000000000008D02000041
:1000300000000000000000008D0200008D020000A2
:100040008D0200008D0200008D0200008D02000074
:100050008D020000012300008D02000005620000F7
:100060008D0200008D0200008D0200008D02000054
:100070008D0200008D0200008D0200008D02000044
:100080008D0200008D020000453E00005D3E000034
:10009000753E000000000000000000008D0200001E
:1000A0008D0200008D0200008D0200008D02000014
:1000B0000000000010B5064C2378002B07D1054B3B
:1000C000002B02D0044800E000BF0123237010BDC4
:1000D0007000002000000000DC7C0000044B10B524
:1000E000002B03D00349044800E000BF10BDC04608
:1000F0000000000074000020DC7C0000B0B588B077
:1001000000AF06F086F83B1D00221421180006F00F
:1001100082FB3B1D180006F0D9FB1E23FB180022B2
:100120001A801E243B191B880F2B0DD83B191B88E6
:10013000D9B23B1D0122180006F07FFC3B191A883A
:100140003B1901321A80ECE71D23FB1801221A70BB
:100150001C23FB1800221A701D257B191A781C24F9
:100160003B1919783B1D180006F019FD20003B18BB
:100170001A783B1801321A703B183A1812780F217E
:100180000A401A703B181B78002BE5D17B197A19AD
:10019000127801214A401A70DEE7000080B582B073
:1001A00000AF2F4B7B602F4B3B607A683B689A42D5
:1001B0000CD007E07A68131D7B603B68191D39601D
:1001C00012681A603A68284B9A42F3D3274B3B6077
:1001D00004E03B681A1D3A6000221A603A68244B1A
:1001E0009A42F6D3234B7B607A68234BFF218A43E4
:1001F0009A60224A90235B000221D150204AD37892
:1002000003218B43191C02230B43D3701C4AD37860
:100210000C218B43191C08230B43D370194A937B81
:1002200030218B43191C20230B439373154A937B76
:100230000C218B43191C08230B439373114A937BA6
:1002400003218B43191C02230B4393730E4A5368FB
:1002500080210B43536007F0B1F9FFF74FFFFEE732
:10026000DC7C0000000000207000002070000020F6
:10027000F40200200000000000ED00E000700041EA
:1002800000500041004800410040004180B500AFEF
:10029000FEE780B584B000AF7860EFF31083FB60B9
:1002A000FA687B681A6072B6C046BFF35F8FC046BB
:1002B000C046BD4604B080BD80B584B000AF786054
:1002C000BFF35F8FC0467B681B68FB60FB6883F3EE
:1002D0001088C046C046BD4604B080BD80B584B01D
:1002E00000AF786039607B68002B04D03B68002B3E
:1002F00001D0012300E000231A1C01231340DBB2CC
:100300000E493822180000F039FB7B683A6811006A
:10031000180001F0ABFF0300FB60FB68002B01D06D
:10032000FB6806E07B68064A1A607B68054A5A60EB
:1003300000231800BD4604B080BDC04628760000EA
:10034000490300006F03000080B584B000AF7860FF
:100350007B68FB60FB685B69002B04D0FB685B6912
:10036000FA6810009847C046BD4604B080BD80B50D
:1003700084B000AF78607B68FB60FB689B69002BF2
:1003800004D0FB689B69FA6810009847C046BD46D8
:1003900004B080BD80B58AB000AFF860B960BB1D05
:1003A0001A80FB68143B7B627B6A9A8B14217B1852
:1003B0001A80BB1D1A887B185A607B180B4A5A801A
:1003C0007B18BA689A607B6A7A181100180002F0EC
:1003D0004BFD03003B623B6A002B01D03B6A01E00E
:1003E000BB1D1B881800BD460AB080BD0180FFFF01
:1003F00080B58AB000AFF860B960BB1D1A80FB6899
:10040000143B7B627B6A9A8B14217B181A80BB1D7C
:100410001A887B185A607B180B4A5A807B18BA6876
:100420009A607B6A7A181100180002F01DFD030023
:100430003B623B6A002B01D03B6A01E0BB1D1B887D
:100440001800BD460AB080BD0080FFFF80B584B0B3
:1004500000AF786039607B685A1E9341DBB20E4969
:100460005E22180000F08AFA7B683A6811001800D2
:1004700002F01EFC0300FB60FB68002B01D0FB6850
:1004800006E07B68054A9A617B68054A5A61002349
:100490001800BD4604B080BD9C76000095030000A6
:1004A000F103000080B584B000AF0200FB1D1A709C
:1004B0000F23FB1800221A7034E00F217B181B78E1
:1004C0005BB21E4A5B01D31801331B78FA1D127808
:1004D0009A4203D17B181B785BB22BE00F203B18AC
:1004E00000229A56154B5201D35C002B11D1FB1DF3
:1004F0001B780F2213403A18127852B20F4952015A
:100500008A1801321278934203D13B181B785BB2F0
:1005100010E00F217B181B785BB2DBB20133DAB23B
:100520007B181A700F23FB181B785BB2032BC4DDFA
:1005300001235B421800BD4604B080BD8C00002042
:1005400090B589B000AFBA607B600F243B19021CE4
:100550001A700E203B180A1C1A7014217B18BA68F6
:100560001A607B187A685A603B181B78002B06D0FB
:100570003B191B78802252421343DBB205E00F2364
:10058000FB181B780F221340DBB214217A18137268
:100590007A18282308201B18DB191B7853727B1844
:1005A000180005F0F9FC03001800BD4609B090BD25
:1005B00080B584B000AFF860B9607A60002318009D
:1005C000BD4604B080BD0000B0B586B000AF0200EB
:1005D000FB1D1A7017257C19FB1D1B781800FFF7EF
:1005E00061FF030023707B191B785BB25A012E4B0D
:1005F000D3183B613B690C33FB60FA68FB1D1B7829
:100600001100180005F06AFC02000B217B181A701B
:100610007B181B78082B10D0FB1D1B7801211800BC
:1006200005F084FBFB1D1B78802252421343DBB292
:100630000121180005F07AFB33E0FB1D1B78002137
:10064000180005F073FBFB1D1B78802252421343F8
:10065000DBB20021180005F069FB3B6901229A70AA
:100660003B695B69F968FA1D12781000984703002E
:100670001A0001235340DBB2002B12D03B69052244
:100680009A70FB1D1B780121180005F04FFBFB1D24
:100690001B78802252421343DBB20121180005F07F
:1006A00045FBBD4606B0B0BD8C000020B0B584B09F
:1006B00000AF02003960FB1D1A700F257C19FB1D6D
:1006C0001B781800FFF7EEFE030023707B191B78E0
:1006D0005BB25A010A4BD318BB60BB689B78032BF3
:1006E00008D1BB689B693968FA1D127810009847D9
:1006F000030000E000231800BD4604B0B0BDC046B2
:100700008C000020F0B587B002AF78600F203B1856
:100710007A6892781A707B681B7B1A0080231A40D3
:100720000E257B19511E8A411A703B181B78032B2A
:1007300040D17B68DB697A6850787A680C320D2684
:10074000BC190121984703002370BB191B78002BAB
:1007500017D07B6805229A707B680222DA707B19B9
:100760001B78002B02D07B685B7805E07B685B78A8
:10077000802252421343DBB20121180005F0D6FA61
:1007800023E07B6804229A707B6858780E23FB185C
:100790001B785A1E9341DBB201225340DBB21A1C74
:1007A00001231340D9B20123009300230022FFF755
:1007B000C7FE0AE07B68DB697A6850787A680C3299
:1007C000002198477B6802229A70C046BD4605B05A
:1007D000F0BD0000B0B586B000AFB9607A600F21FF
:1007E0007B18021C1A7017257C197B181B781800BF
:1007F000FFF758FE030023707B191B785BB25A0188
:100800002E4BD3183B61BB68002B0FD13B690022F4
:10081000DA703B691B78002B04D13B691800FFF7A5
:1008200071FF48E03B6901229A703AE0BB68012BF6
:1008300015D13B690222DA703B691B78002B0AD183
:100840003B6902229A700F23FB181B7800211800C5
:1008500005F06CFA25E03B6905229A7021E0BB683F
:10086000022B0ED13B690422DA703B691B78002B06
:1008700003D13B6902229A701DE03B6901229A7004
:100880000FE0BB68032B06D13B6900229A703B69DD
:100890000522DA7005E03B6906229A703B69062260
:1008A000DA703B69DB693A69D1787C680F22BA1843
:1008B000107822009847BD4606B0B0BD8C000020DD
:1008C00080B582B000AF05F009F903003B603B68DA
:1008D000002B01DA3B6842E0234B80220021180004
:1008E00006F099FEFB1D00221A7024E0FB1D1B7808
:1008F0001D4A5B01D3180133FF221A70FB1D1B78C0
:10090000194A5B01D3181433184A1A60FB1D1B786F
:10091000154A5B01D3181833144A1A60FB1D1B7863
:10092000114A5B01D3181C33104A1A60FB1D1A7858
:10093000FB1D01321A70FB1D1B78032BD6D90C4B03
:100940001900002005F030FC0A4B1900012005F0C9
:100950002BFC094B1900022005F026FC002318008F
:10096000BD4602B080BDC0468C000020B10500002D
:10097000C9050000AD060000D507000080B584B0B1
:1009800000AFB9607A600F217B18021C1A707B18C7
:100990001B7801225340DBB2002B00D000BEC046C2
:1009A000BD4604B080BD80B584B000AF78603960CA
:1009B0007B681B68FB6008E0FA683B689A4201D1DB
:1009C000012306E0FB681B68FB60FB68002BF3D18A
:1009D00000231800BD4604B080BD000080B582B081
:1009E00000AF786039603A687B6811001800FFF743
:1009F000DAFF03005A1E9341DBB201225340DBB2FF
:100A00001A1C01231340DBB2074939221800FFF7F3
:100A1000B5FF7B681A683B681A607B683A681A60A1
:100A2000C046BD4602B080BD1477000080B582B0DC
:100A300000AF786039607B681A683B681A607B6831
:100A40003A681A60C046BD4602B080BD80B584B029
:100A500000AF78607B681B68002B09D07B681B683F
:100A6000FB607B681B681A687B681A60FB6800E0A3
:100A700000231800BD4604B080BD80B582B000AF31
:100A800078600A00BB1C1A807B68BA1C12885A80E6
:100A9000C046BD4602B080BD80B584B000AFF860EE
:100AA0007A600B203B180A1C1A703B181B78FA68F6
:100AB000DB01D31808337A681A60C046BD4604B01B
:100AC00080BD80B584B000AFF8607A600B203B1821
:100AD0000A1C1A703B181B78FA68DB01D318043320
:100AE0007A681A60C046BD4604B080BD80B584B047
:100AF00000AFF8607A600B203B180A1C1A703B1894
:100B00001B78FA68DB01D31818337A681A60C0467C
:100B1000BD4604B080BD80B584B000AFF8607A6097
:100B20000B203B180A1C1A703B181B78FA68DB0173
:100B3000D31814337A681A60C046BD4604B080BD2D
:100B4000B0B584B000AF78600C0010001900FB1C39
:100B5000221C1A70BB1C021C1A707B1C0A1C1A7007
:100B6000FB1C1978BB1C1A780F257B197868302478
:100B7000C90141188A18121912781A702C003B19F1
:100B80003A1912780F218A431A707B1C1B780F22A6
:100B90001340D9B23B193A1912780A431A70FB1C58
:100BA0001A78BB1C1B7879683020D2018A18D318B8
:100BB0001B183A1912781A70C046BD4604B0B0BD71
:100BC000B0B584B000AF78600C0010001900FB1CB9
:100BD000221C1A70BB1C021C1A707B1C0A1C1A7087
:100BE000FB1C1978BB1C1A780F257B1978683024F8
:100BF000C90141188A18121912781A702C003B1971
:100C00003A1912780F210A401A707B1C1B781B01BD
:100C1000D9B23B193A1912780A431A70FB1C1A7898
:100C2000BB1C1B7879683020D2018A18D3181B1896
:100C30003A1912781A70C046BD4604B0B0BDB0B5BE
:100C400084B000AF78600C0010001900FB1C221C5F
:100C50001A70BB1C021C1A707B1C0A1C1A70FB1C2D
:100C60001978BB1C1A780F257B1978684024C901B4
:100C700041188A18121912781A702C003B193A1967
:100C8000127801218A431A707B1C19783B193A1992
:100C900012780A431A70FB1C1A78BB1C1B787968FF
:100CA0004020D2018A18D3181B183A1912781A70EA
:100CB000C046BD4604B0B0BD90B583B000AF78600B
:100CC00008001100FB1C021C1A70BB1C0A1C1A70C5
:100CD000FB1C1A78BB1C1B7879684020D2018A184B
:100CE000D3181B181B78D9B2FB1C1A78BB1C1B78B5
:100CF00004200143CCB279684020D2018A18D3186D
:100D00001B18221C1A70C046BD4603B090BD90B59A
:100D100083B000AF786008001100FB1C021C1A7041
:100D2000BB1C0A1C1A70FB1C1A78BB1C1B78796848
:100D30004020D2018A18D3181B181B78D9B2FB1C8B
:100D40001A78BB1C1B7804208143CCB27968402000
:100D5000D2018A18D3181B18221C1A70C046BD462F
:100D600003B090BD80B584B000AFF8607A600B200E
:100D70003B180A1C1A703B181B78FA68DB01D31861
:100D800028337A681A60C046BD4604B080BD0000B2
:100D900080B582B000AF39601100FB1D021C1A70D3
:100DA000BB1D0A1C1A70BB1D1B78022B43D062DCD2
:100DB000002B02D0012B20D05DE03A68FB1D197892
:100DC000C023DB051800FFF77CFE3B681B041B0CEF
:100DD0008022D2051A43FB1D1B782C481900FFF70F
:100DE000C1FF3B681B0CC02212061A43FB1D1B7877
:100DF00026481900FFF7B6FF44E03A68FB1D197852
:100E0000C023DB051800FFF75CFE3B681B041B0CCE
:100E10001F4A1A43FB1D1B781C481900FFF7A2FF4D
:100E20003B681B0C1B4A1A43FB1D1B781748190013
:100E3000FFF798FF26E03A68FB1D1978C023DB0511
:100E40001800FFF729FE3B681B041B0C8022D2050B
:100E50001A43FB1D1B780D481900FFF783FF3B6801
:100E60001B0CC02212061A43FB1D1B7807481900F1
:100E7000FFF778FF06E0084B452219000020FFF736
:100E80007DFDC046C046BD4602B080BD0044004165
:100E900000000240000002C09077000080B582B0E0
:100EA00000AF39601100FB1D021C1A70BB1D0A1C2B
:100EB0001A70BB1D1B78002B08D03A68FB1D1978EF
:100EC000C023DB051800FFF711FE07E03A68FB1DA1
:100ED0001978C023DB051800FFF71DFEC046BD468C
:100EE00002B080BD90B583B000AF040008001100CF
:100EF000FB1D221C1A70BB1D021C1A707B1D0A1CD4
:100F00001A707B1D1B78022B2DD04BDC002B02D0DE
:100F1000012B09D046E0BB1D1A78FB1D1B78274822
:100F20001900FFF7F4FE44E0BB1D1B7801229A4034
:100F3000FB1D1978C023DB051800FFF7C2FDBB1DA0
:100F40001A78FB1D1B781D481900FFF7B5FEBB1D65
:100F50001B7801229A40FB1D1978C023DB0518007D
:100F6000FFF7C4FD25E0BB1D1B7801229A40FB1D45
:100F70001978C023DB051800FFF7A3FDBB1D1A7805
:100F8000FB1D1B780D481900FFF796FEBB1D1B7853
:100F900001229A40FB1D1978C023DB051800FFF7DA
:100FA000BAFD06E0064B882219000020FFF7E6FC98
:100FB000C046C046BD4603B090BDC0460044004197
:100FC00090770000B0B584B000AF786039607B687E
:100FD0005A090F203B181A707B68DAB20E243B19AD
:100FE0001F210A401A703B68013308D13B191A7857
:100FF0003B1819781A480023FFF721FE2CE00E2435
:101000003B191A780F257B19197815480123FFF72A
:1010100016FE21007B181B78012213400DD07B188F
:101020001B785B08DAB23B68D8B27B1919780C4C94
:1010300003002000FFF7C4FD0EE00E23FB181B7811
:101040005B08DAB23B68D8B20F23FB181978044C5E
:1010500003002000FFF774FDC046BD4604B0B0BDDC
:101060000044004180B582B000AF0200FB1D1A7041
:10107000BB1D0A1C1A70FB1D1B785B09D8B2FB1D37
:101080001B781F221340D9B2BB1D1B781A00FFF733
:1010900029FFC046BD4602B080BD80B582B000AF1A
:1010A000786039603A687B6811001800FFF78AFFA2
:1010B000C046BD4602B080BD80B582B000AF020020
:1010C000FB1D1A70BB1D0A1C1A70FB1D1B785B09E7
:1010D000D8B2FB1D1B781F22134001229A40110039
:1010E000BB1D1B781A00FFF753FEC046BD4602B079
:1010F00080BD80B582B000AF0200FB1D1A70BB1D21
:101100000A1C1A70FB1D1B785B09D8B2FB1D1B78EB
:101110001F22134001229A401100BB1D1B781A00A8
:10112000FFF7BCFEC046BD4602B080BD80B500AF33
:1011300000F098FFC046BD4680BD000080B582B07B
:1011400000AF0200FB1D1A70BB1D0A1C1A70FB1DAC
:101150001B789BB23F2213409AB2BB1D1B789BB2F7
:101160001B0299B2F0231B010B409BB213439BB2AD
:101170008022D20113439BB2044A19001000FFF7EA
:101180007CFCC046BD4602B080BDC046000C00409D
:1011900080B582B000AF78607B68012B01D100235D
:1011A00023E07B68022B01D101231EE07B68032B27
:1011B00001D1022319E07B680E4A934201D1032337
:1011C00013E07B680C4A934201D104230DE07B6855
:1011D0000A4A934201D1052307E07B68084A9342FB
:1011E00001D1062301E00D235B421800BD4602B089
:1011F00080BDC04600200041004000410048004141
:101200000050004180B582B000AF78607A688223D8
:10121000DB059A4201D100231FE07B68114A93420B
:1012200001D1012319E07B680F4A934201D10223C7
:1012300013E07B680D4A934201D103230DE07B68E4
:101240000B4A934201D1042307E07B68094A934289
:1012500001D1052301E00D235B421800BD4602B019
:1012600080BDC046002000410040004100440041D4
:10127000004800410050004180B584B000AF02003A
:101280003960FB1D1A703B689B0A3F221340FB60CC
:10129000FB1D1B78032B41D04BDC022B27D048DCF5
:1012A000002B02D0012B17D043E03B681800FFF75A
:1012B0006FFF031E44DB3B681800FFF769FF030064
:1012C000FB60234B5A690121FB6899400B00190010
:1012D0001F4B0A435A6133E01D4B9A690121FB6899
:1012E00099400B0019001A4B0A439A612BE03B68A6
:1012F0001800FFF787FF031E24DB3B681800FFF789
:1013000081FF0300FB60124BDA690121FB68994001
:101310000B0019000E4B0A43DA6113E00C4B1A6AFA
:101320000121FB6899400B001900094B0A431A621E
:1013300009E0084B9B2219000020FFF71FFB02E089
:10134000C04600E0C046C046BD4604B080BDC046B1
:10135000000400400878000080B500AF00210220A2
:10136000FFF7AAFE1A4B19000220FFF796FE002194
:101370002820FFF7A1FE174B19002820FFF78DFE4C
:1013800000212920FFF798FE134B19002920FFF7B1
:1013900084FE00210420FFF78FFE104B190004206B
:1013A000FFF77BFE00210520FFF786FE0C4B19009E
:1013B0000520FFF772FE00212220FFF77DFE094B7A
:1013C00019002220FFF769FEC046BD4680BDC04619
:1013D00001000200010028000100290001000400B2
:1013E000010005000100220080B500AF054B190087
:1013F0000320FFF741FF00211E20FFF79FFEC0469C
:10140000BD4680BD0040004280B500AFFFF7ECFF55
:10141000FFF7A2FF0449054B0022180000F072F903
:10142000C046BD4680BDC046004000427801002055
:1014300080B500AF034B19000220FFF71DFFC04627
:10144000BD4680BD0040004180B500AFFFF7F0FF12
:10145000044A054B11001800FEF740FFC046BD4688
:1014600080BDC046004000417C01002080B500AF37
:1014700001210C20FFF720FE00210C20FFF7F2FDD8
:10148000104B19000C20FFF708FE00212A20FFF75F
:1014900030FE02212A20FFF70FFE0B4B19002A20F5
:1014A000FFF7FBFD00212B20FFF723FE02212B205D
:1014B000FFF702FE054B19002B20FFF7EEFDC0469B
:1014C000BD4680BD03000C0003002A0003002B0072
:1014D00080B500AF054B19000320FFF7CDFE0021BA
:1014E0001820FFF72BFEC046BD4680BD0018004205
:1014F00080B500AFFFF7ECFF054A064B110018005E
:1015000000F026F9FFF7B2FFC046BD4680BDC046D9
:10151000001800420C01002080B500AF0021162009
:10152000FFF7A0FD084B19001620FFF7B6FD0021BC
:101530001720FFF797FD054B19001720FFF7ADFDAA
:10154000C046BD4680BDC04603001600030017001C
:1015500080B500AF074B19000320FFF78DFE002177
:101560001920FFF7EBFD03211320FFF7E7FDC0462D
:10157000BD4680BD001C004280B500AFFFF7E8FF0C
:10158000054A064B11001800FEF760FFFFF7C4FF85
:10159000C046BD4680BDC046001C004298010020E8
:1015A00080B500AF094B19000320FFF765FE00214D
:1015B0001B20FFF7C3FD02F025FC02000349044B8A
:1015C000180000F0C1F9C046BD4680BD002C0042A5
:1015D0002401002080B500AF094B19000320FFF75C
:1015E0004BFE00211C20FFF7A9FD02F00BFC0200BE
:1015F0000349044B180000F0A7F9C046BD4680BD62
:10160000003000424001002080B500AF094B1900B6
:101610000320FFF731FE00211C20FFF78FFD02F0B1
:10162000F1FB02000349044B180000F08DF9C0469D
:10163000BD4680BD003400425C01002080B500AF93
:1016400002211820FFF738FD00211820FFF751FD77
:1016500000211820FFF706FD0C4B19001820FFF79A
:101660001CFD02211920FFF727FD00211920FFF79B
:1016700040FD00211920FFF7F5FC054B190019204A
:10168000FFF70BFDC046BD4680BDC04606001800F2
:101690000600190080B500AF084B19000220FFF7C3
:1016A000EBFD064B19000020FFF7E6FD00210620A8
:1016B000FFF744FDC046BD4680BDC0460050004116
:1016C00080B500AFFFF7E6FFFFF7FAF8FFF7B6FFC8
:1016D000C046BD4680BD80B500AFFFF727FDFFF7D0
:1016E00093FEFFF7B1FEFFF703FFFFF745FFFFF79C
:1016F00057FFFFF76FFFFFF787FFFFF7E1FFC046D8
:10170000BD4680BD80B584B000AFF860B9607A6036
:10171000FB68002B04D0BB68002B01D0012300E044
:1017200000231A1C01231340DBB208493922180098
:10173000FFF724F9FB68BA681100180000F05CFCA0
:1017400003001800BD4604B080BDC0467C78000090
:1017500080B584B000AF786039600023FB607B689F
:10176000002B04D03B68002B01D0012300E00023B4
:101770001A1C01231340DBB2114940221800FFF765
:10178000FDF87B683A685A607B6804333A68110058
:10179000180001F0B1FD0300FB60FB68002B01DACB
:1017A000FB6809E07B68074A9A827B68064A1A61EF
:1017B0007B68064ADA6000231800BD4604B080BD8D
:1017C000F47800000080FFFF0118000059180000A5
:1017D00080B582B000AF78607B685A1E9341DBB25F
:1017E000064957221800FFF7C9F87B680433180030
:1017F00001F022FEC046BD4602B080BDF478000074
:1018000080B588B000AFF860B960BB1D1A80FB6876
:101810005A1E9341DBB20F4987221800FFF7AEF83A
:10182000FB680C3BFB6110217B18BA685A607B187F
:1018300000221A60BB1D1A887B189A607A18FB690F
:101840001100180000F034F803001800BD4608B07D
:1018500080BDC046F478000080B588B000AFF86065
:10186000B960BB1D1A80FB685A1E9341DBB20F4959
:10187000A3221800FFF782F8FB680C3BFB611021E4
:101880007B1800225A607B18BA681A60BB1D1A8840
:101890007B189A607A18FB691100180000F008F8AC
:1018A00003001800BD4608B080BDC046F4780000B3
:1018B00080B586B000AF786039607B68002B04D0BB
:1018C0003B68002B01D0012300E000231A1C0123F8
:1018D0001340DBB20E49B3221800FFF74FF83B6804
:1018E0001A680C217B181A603B685A687B185A608A
:1018F0003B689A687B189A607B6804337A181100F9
:10190000180001F063FE03001800BD4606B080BD5C
:10191000F478000080B582B000AF78607B681B6807
:101920001800BD4602B080BD80B582B000AF7860BF
:101930007B68002B02D07B681B6800E00023180046
:10194000BD4602B080BD000080B584B000AFF86035
:10195000B9607A60FB68002B04D0BB68002B01D013
:10196000012300E000231A1C01231340DBB20B49C2
:101970003B221800FFF702F8FB68BA681100180054
:1019800002F0FCF8FB6800221A61FB68044A1A6046
:1019900000231800BD4604B080BDC0466C7900002D
:1019A000551A000080B588B000AFF860B9607A6061
:1019B0000023BB61FB681800FFF7ACFF03003B612D
:1019C0003B69002B06D1BA68FB6811001800FFF7CD
:1019D00005F83CE03B69FB6123E0FB695B687A68E2
:1019E0009A4208D3FB699A68FB6959687B68CB1AED
:1019F000D3187B6108E0FB699A68FB695B68D218C1
:101A00007B68D31A01337B61BB689B687A699A4211
:101A10000BD2FB69BB61FB691800FFF785FF030070
:101A2000FB61FB69002BD8D100E0C046FA693B6935
:101A30009A4206D1BA68FB6811001800FEF7CEFF83
:101A400005E0BA68BB6911001800FEF7EFFFBD465C
:101A500008B080BD80B586B000AF78607B683B6120
:101A60003B6914331800FFF755FF03007B613B69A6
:101A70001B695A1C3B691A613B691B69FB603B6926
:101A80001B7EDBB21A000123134006D13B691B7E8B
:101A9000DBB21A000223134029D03B691B7EDBB264
:101AA00002221343DAB23B691A762BE07B69BB60F2
:101AB0003B6914331800FEF7C9FFBB681B7C012B80
:101AC00009D1BB68FA685A603B691433FA68B9688F
:101AD0001800FFF767FF3B6914331800FFF71AFF80
:101AE00003007B61BB68DB68BA68100098477B69BC
:101AF000002B07D07B695B68FA68D21A7B699B6808
:101B00009A42D3D2BD4606B080BD80B582B000AF48
:101B10007860C0467B685B7E1B06DB0FDBB2002B68
:101B2000F8D1C046C046BD4602B080BD80B584B085
:101B300000AF78600A00FB1C1A700F203B187A680F
:101B400012781A703B183A18F91C127809780A4072
:101B50001A703B181B781800BD4604B080BD80B5D4
:101B600082B000AF78600A00FB1C1A707B68FA1C18
:101B700012781A70C046BD4602B080BD80B582B0F2
:101B800000AF78600A00FB1C1A707B68FA1C1278A0
:101B90005A70C046BD4602B080BD80B582B000AF6D
:101BA00078600A00FB1C1A707B68FA1C12789A7025
:101BB000C046BD4602B080BD80B582B000AF78603F
:101BC0000A00FB1C1A707B68FA1C1278DA70C04697
:101BD000BD4602B080BD80B582B000AF78600A001B
:101BE000BB1C1A807B68BA1C12889A807B6818001C
:101BF000FFF78BFFC046BD4602B080BD80B582B006
:101C000000AF78600A00FB1C1A707B68FA1C12781F
:101C10001A727B681800FFF778FFC046BD4602B015
:101C200080BD80B582B000AF786039607B683A686B
:101C30001A617B681800FFF768FFC046BD4602B016
:101C400080BD80B582B000AF78600A00FB1C1A70BE
:101C50007B68FA1C12781A75C046BD4602B080BD7A
:101C600080B582B000AF78600A00BB1C1A807B6828
:101C7000BA1C12889A837B681800FFF746FFC0469B
:101C8000BD4602B080BD80B582B000AF78600A006A
:101C9000BB1C1A807B68BA1C12881A847B681800E7
:101CA000FFF733FFC046BD4602B080BD80B582B0AD
:101CB00000AF78600A00BB1C1A807B68BA1C1288CF
:101CC0009A84C046BD4602B080BD80B582B000AFE8
:101CD00078600A00BB1C1A807B68BA1C1288DA8400
:101CE000C046BD4602B080BD80B582B000AF78600E
:101CF0000A00BB1C1A807B68BA1C12881A85C04671
:101D0000BD4602B080BD80B582B000AF78600A00E9
:101D1000FB1C1A707B68FA1C2A2112785A54C046A0
:101D2000BD4602B080BD80B582B000AF78600023B0
:101D30001800BD4602B080BD90B585B000AF786098
:101D40007B680E22BC181800FFF7EDFF030023701C
:101D50000F23FB1800221A7016E00F203B181A7888
:101D600011491300DB009B1A9B005B5C0E22BA1822
:101D700012789A4202D13B181B7811E00F217B1890
:101D80001A787B1801321A700F23FB181B78002B6E
:101D9000E3D0064B7F2219000020FEF7EFFD002361
:101DA0001800BD4605B090BD00000020E07900009D
:101DB000B0B584B000AF78600A00FB1C1A707B6875
:101DC000884A944663445A425341DBB2864994227E
:101DD0001800FEF7D3FD854B1B68DB089BB21B0286
:101DE0009AB2E023DB00134099B2814B1A685B681A
:101DF0005801D40E0443DD0EA3B2FF2213409AB261
:101E00000E23FB180A431A807B681800FFF77DFE3B
:101E10007B6802211800FFF789FE031E08D07B684B
:101E200000211800FFF79BFE7B681800FFF76DFE8E
:101E30007B6801211800FFF792FE7B681800FFF70E
:101E400064FE0E23FB181A887B6811001800FFF748
:101E50004BFFFB1C1A7867491300DB009B1A9B00A1
:101E6000CB1802331A787B6811001800FFF786FE42
:101E7000FB1C1A785F491300DB009B1A9B00CB18F0
:101E800003331A787B6811001800FFF786FEFB1CED
:101E90001A7858491300DB009B1A9B00CB180433B7
:101EA0001A787B6811001800FFF786FEFB1C1A7871
:101EB00050491300DB009B1A9B00CB1810331A7893
:101EC0007B6811001800FFF7BCFEFB1C1A7849491B
:101ED0001300DB009B1A9B00CB1816331A887B6813
:101EE00011001800FFF7E2FEFB1C1A7841491300AD
:101EF000DB009B1A9B00CB1818331A887B681100F3
:101F00001800FFF7E2FEFB1C1A783A491300DB00C9
:101F10009B1A9B00CB181A331A787B6811001800A3
:101F2000FFF7F1FEFB1C1A7832491300DB009B1A05
:101F30009B00CB1806331A887B6811001800FFF746
:101F40004AFEFB1C1A782B491300DB009B1A9B00EE
:101F5000CB180C331A687B6811001800FFF761FE7C
:101F6000FB1C1A7823491300DB009B1A9B00CB183B
:101F700008331A787B6811001800FFF73FFEFB1C3E
:101F80001A781C491300DB009B1A9B00CB181233F4
:101F90001A887B6811001800FFF762FEFB1C1A7894
:101FA00014491300DB009B1A9B00CB1814331A88CA
:101FB0007B6811001800FFF766FEFB1C1A780D49BC
:101FC0001300DB009B1A9B00CB1801331A787B6847
:101FD00011001800FFF7C3FD00231800BD4604B030
:101FE000B0BDC04600C0FFBDE079000024608000A5
:101FF000206080000000002080B582B000AF7860D3
:1020000039607B685A1E9341DBB20C49C522180027
:10201000FEF7B4FC7B683A681A603B681800FFF76B
:102020008BFE03001A003B6811001800FFF7C0FE8A
:1020300003001800BD4602B080BDC046E079000034
:1020400080B582B000AF786039607B685A683B68C1
:102050005B001E210B401A437B685A60C046BD4698
:1020600002B080BD80B500AF084B00211800FFF71B
:10207000E7FF00F0D7F901F0E3FB01F047FCFF2098
:1020800000F034F8C046BD4680BDC0460040004167
:1020900080B582B000AF7860C0467B685B781B0675
:1020A000DB0FDBB2002BF8D1C046C046BD4602B004
:1020B00080BD80B582B000AF786039607B683A68D7
:1020C0005A607B681800FFF7E3FFC046BD4602B0C8
:1020D00080BD80B582B000AF786039607B683A68B7
:1020E0009A60C046BD4602B080BD000080B582B097
:1020F00000AF78607B68012213400CD080235B0026
:10210000074A19001000FFF7E4FF064A044B1100CC
:102110001800FFF7CEFFC046BD4602B080BDC046E6
:10212000000C00400005010080B582B000AF020045
:10213000FB1D1A70FB1D1B787F2B09D8FB1D1B781C
:102140001A001F231A40044B012191400A001A6013
:10215000C046BD4602B080BD00E100E080B582B05F
:1021600000AF0200FB1D1A70FB1D1B787F2B10D8DF
:10217000FB1D1B781A001F231340084901229A40B7
:10218000130080228B50BFF34F8FC046BFF36F8F79
:10219000C046C046BD4602B080BDC04600E100E07A
:1021A00080B582B000AF0200FB1D1A70FB1D1B78CA
:1021B0007F2B0AD8FB1D1B781A001F2313400549EB
:1021C00001229A40C0235B00CA50C046BD4602B0FF
:1021D00080BDC04600E100E080B582B000AF78600D
:1021E0007B681B7DDBB21A00012313405A1E93410A
:1021F000DBB21800BD4602B080BD80B582B000AF32
:1022000078607B681B7DDBB25B08012213405A1E9D
:102210009341DBB21800BD4602B080BD80B582B0EC
:1022200000AF78607B6802221A75C046BD4602B0D6
:1022300080BD80B584B000AF786039607B685B6832
:10224000FB60FB683A681340FB60FB681800BD4602
:1022500004B080BD80B582B000AF786039607B6823
:102260003A685A60C046BD4602B080BD80B584B0B1
:1022700000AF786039607B68002B05D03B681C4A52
:10228000934201D1012300E000231A1C01231340D3
:10229000DBB2184946221800FEF770FB7B683A68EB
:1022A0001A61154B1B689E229343FB607B681B6978
:1022B0009E211800FFF7BDFF0200FB681343FB607F
:1022C0007B681B69FA6811001800FFF7C3FF0B4B0E
:1022D0007A681A600520FFF741FF0520FFF760FFCD
:1022E0000520FFF721FF00231800BD4604B080BD84
:1022F00000400041507A0000B8010020BC010020DD
:1023000080B582B000AF184B1B681B697B607B688F
:102310001800FFF761FF031E0CD0134B1B681B68EE
:10232000002B1DD0104B1B681A680F4B1B68180040
:10233000904715E07B681800FFF75FFF031E0FD082
:102340007B681800FFF76AFF074B1B685B68002B70
:1023500006D0054B1B685A68034B1B681800904752
:10236000C046BD4602B080BDBC01002080B582B031
:1023700000AF78600A00FB1C1A707B681B7ADAB227
:10238000FB1C1B7807210B40DBB21343DAB27B68DE
:102390001A72C046BD4602B080BD80B582B000AFA3
:1023A00078600A00FB1C1A707B685B7ADAB2FB1C4F
:1023B0001B7807210B40DBB21343DAB27B685A72F9
:1023C000C046BD4602B080BD80B582B000AF786027
:1023D0000A00FB1C1A707B689B7ADAB2FB1C1B7824
:1023E00007210B40DBB21343DAB27B689A72C04616
:1023F000BD4602B080BD80B582B000AF78600A00F3
:10240000FB1C1A707B68DB7ADAB2FB1C1B78072195
:102410000B40DBB21343DAB27B68DA72C046BD46CA
:1024200002B080BD80B500AF0B4B00211800FFF754
:102430009DFF094B00211800FFF7AFFF064B00215D
:102440001800FFF7C1FF044B00211800FFF7D3FF6E
:10245000C046BD4680BDC0460004004080B582B085
:1024600000AF78603960C0467B68DB693A6813402A
:10247000FAD1C046C046BD4602B080BD80B582B02C
:1024800000AF786039607B68DB693A6813405A1E98
:102490009341DBB21800BD4602B080BD80B582B06A
:1024A00000AF78603960C0467B68DB693A681340EA
:1024B000FAD1C046C046BD4602B080BD80B582B0EC
:1024C00000AF786039607B68DB693A6813405A1E58
:1024D0009341DBB21800BD4602B080BD80B582B02A
:1024E00000AF78607B6801221A76C046BD4602B014
:1024F00080BD80B582B000AF78607B6802221A761A
:10250000C046BD4602B080BD80B582B000AF7860E5
:102510007B681B7EDBB21800BD4602B080BD80B573
:1025200084B000AF78600A00FB1C1A700F203B18C3
:102530007A68127E1A703B183A18F91C12780978DA
:102540000A401A703B181B781800BD4604B080BDC5
:1025500080B582B000AF78607B681B7EDBB218006C
:10256000BD4602B080BD80B582B000AF78600A0081
:10257000FB1C1A707B68FA1C12781A76C046BD469E
:1025800002B080BD80B582B000AF78607B681B6808
:10259000022293431A007B681A607B6803211800AB
:1025A000FFF75CFFC046BD4602B080BD80B584B079
:1025B00000AF78607B681B68FB60FB68DB0E012264
:1025C0001340FB60FB685A1E9341DBB21800BD4606
:1025D00004B080BD80B584B000AF786039607B689E
:1025E00003211800FFF73AFF7B681B68FB60FB685C
:1025F0003A681340FB60FB681800BD4604B080BD1C
:1026000080B582B000AF786039607B683A681A6044
:102610007B6803211800FFF721FFC046BD4602B0CA
:1026200080BD80B582B000AF78607B681B680222F5
:102630001A437B681A607B6803211800FFF72EFF9E
:10264000C046BD4602B080BD80B584B000AF7860A2
:102650007B6803211800FFF721FF7B681B68FB6084
:10266000FB685B0801221340FB60FB685A1E934124
:10267000DBB21800BD4604B080BD80B582B000AFAB
:1026800078607B681B68022293431A007B681A609B
:102690007B6803211800FFF701FFC046BD4602B06A
:1026A00080BD80B584B000AF786039607B6803215D
:1026B0001800FFF7F3FE7B681B68FB60FB683A6855
:1026C0001340FB60FB681800BD4604B080BD80B5B8
:1026D00082B000AF786039607B683A681A607B68C6
:1026E00003211800FFF7DAFEC046BD4602B080BDE8
:1026F00080B582B000AF78607B685B688022520052
:102700001A437B685A607B6804211800FFF7A6FE15
:10271000C046BD4602B080BD80B582B000AF7860D3
:102720007B685B68064A1A407B685A607B680421B4
:102730001800FFF793FEC046BD4602B080BDC046FC
:10274000FFFEFFFF80B582B000AF78607B685B68FA
:102750008022D2021A437B685A607B6804211800E9
:10276000FFF77CFEC046BD4602B080BD80B582B09A
:1027700000AF78607B685B68064A1A407B685A60E5
:102780007B6804211800FFF769FEC046BD4602B011
:1027900080BDC046FFFFFBFF80B582B000AF786010
:1027A00039607B685A683B681904C0239B020B4060
:1027B0001A437B685A607B6804211800FFF74EFEBD
:1027C000C046BD4602B080BD80B582B000AF786023
:1027D00039607B683A685A607B6804211800FFF70B
:1027E0003DFEC046BD4602B080BD80B582B000AFA0
:1027F000786039607B683A685A607B680721180006
:10280000FFF74CFEC046BD4602B080BD80B582B029
:1028100000AF786039607B683A68DA60C046BD46D0
:1028200002B080BD80B582B000AF78600A00FB1CAA
:102830001A707B68FA1C12781A73C046BD4602B043
:1028400080BD000080B584B000AF78600A00FB1C3A
:102850001A707B685B6AFB60FB680B4A1340FB6085
:10286000FB1C1B789B031A00FB681343FB607B680F
:10287000FA685A627B6804211800FFF7EFFDC04632
:10288000BD4604B080BDC046FFBFFFFF80B582B02B
:1028900000AF786039607B683A685A627B680421CF
:1028A0001800FFF7DBFDC046BD4602B080BD80B515
:1028B00082B000AF78607B6804211800FFF7CEFD7E
:1028C0007B685B6A1800BD4602B080BD80B582B0EF
:1028D00000AF786039607B683A685A62C046BD468E
:1028E00002B080BD80B582B000AF78600A00FB1CEA
:1028F0001A707B68FA1C282112785A547B680421CC
:102900001800FFF7ABFDC046BD4602B080BD80B5E4
:1029100082B000AF78607B6804211800FFF79EFD4D
:102920007B6828229B5CDBB21800BD4602B080BDEC
:1029300080B582B000AF786039607B683A689A628F
:10294000C046BD4602B080BD80B582B000AF7860A1
:102950007B689B6A1800BD4602B080BD80B582B01E
:1029600000AF78600A00FB1C1A707B68FA1C3021EB
:1029700012785A54C046BD4602B080BD80B582B0C0
:1029800000AF78600A00BB1C1A807B68BA1C1288F2
:102990005A83C046BD4602B080BD80B582B000AF4C
:1029A00078607B6804211800FFF758FD7B685B8B1B
:1029B0009BB21800BD4602B080BD000080B582B059
:1029C00000AF78607B68044A944663449B0ADBB29C
:1029D0001800BD4602B080BD00F8FFBD90B585B0BF
:1029E00000AF78600E23FC187B681800FFF7E6FF45
:1029F000030023700F23FB1800221A7017E00F202A
:102A00003B181A78134913005B009B18DB005B5CD2
:102A10000E22BA1812789A4203D13B181B785BB287
:102A200013E00F217B181A787B1801321A700F23DC
:102A3000FB181B78002BE2D0E6239A00064B190006
:102A40000020FDF79BFF01235B421800BD4605B047
:102A500090BDC0461C000020C87A000080B582B03E
:102A600000AF78607B6803211800FFF795FEC04631
:102A7000BD4602B080BD0000B0B586B000AFF860C2
:102A8000B9607A60FB681800FFF790FD03007B6176
:102A900012257C19FB681800FFF77FFF03002380D5
:102AA000BB680122134000D1A2E02C003B191B8817
:102AB000022213401FD0FB681800FFF70FFD7B6850
:102AC0005B889BB28022520113439AB27B685A8082
:102AD0007B685B889BB2744A13409AB27B685A80C9
:102AE0003B191B880122134002D005235B42D6E02C
:102AF00004235B42D3E01223FB181B8804221340FB
:102B000021D07B685B68002B08DD7B685B889BB20B
:102B10008022520113439AB27B685A807B685B889B
:102B20009BB21BB2002B03DAFB681800FFF796FF7D
:102B30007B685B889BB25C4A13409AB27B685A8080
:102B400002235B42ABE07B685B889BB21A00802368
:102B5000DB00134021D07B681B881B125B001A002E
:102B600006231A401400FB681800FFF7A0FE0200BD
:102B70008023DB0113402343F1221A43FB68110039
:102B80001800FFF783FE7B685B889BB2474A1340BF
:102B90009AB27B685A80002381E07B685B68002BD7
:102BA00012D17B685B889BB21BB2002B03DAFB68F7
:102BB0001800FFF753FF7B685B889BB23A4A1340CB
:102BC0009AB27B685A8011E07B689B681A78FB6830
:102BD00011001800FFF786FE7B689B685A1C7B6813
:102BE0009A607B685B685A1E7B685A60002356E0D7
:102BF000BB680222134051D07B685B68002B46D033
:102C00001223FB181B880422134040D17B685B68A9
:102C10005A1E7B685A607B685B68002B02D17B6917
:102C2000002B06D07B685B68012B06D17B69002BEB
:102C300003D0FB681800FFF785FD7B685B68002BFD
:102C400015D17B685B889BB21BB2002B07DAFB684F
:102C50001800FFF761FDFB681800FFF7FFFE7B68B7
:102C60005B889BB2104A13409AB27B685A807B689B
:102C70009C68621C7B689A60FB681800FFF747FE3F
:102C800003002370FB681800FFF733FC06E0FB68C5
:102C90001800FFF72EFC02235B4200E0002318001F
:102CA000BD4606B0B0BDC046FFFEFFFFFFFBFFFF05
:102CB00080B582B000AF786039607B685A1E93415E
:102CC000DBB2094A09491800FDF758FE7B683A68EB
:102CD0001A617B683A681100180000F057F9030088
:102CE0001800BD4602B080BD07050000C87A00008C
:102CF00080B584B000AF78603960124BFB607B68B0
:102D00001B69BB60BB681800FFF7FEFB03001A00DD
:102D10003B681A60FB685A1EFA60002B02D105233B
:102D20005B420AE03B681B680122134004D13B6808
:102D30001B6802221340E5D000231800BD4604B0F2
:102D400080BDC046FFFF000090B587B000AF78603F
:102D50007B681B697B617B683B617B691800FFF7BF
:102D600025FC0300FB607B685A1E9341DBB23B4AA3
:102D70003B491800FDF702FE3B695B68012B07D158
:102D8000FB68002B04D07B691800FFF7DBFC03E035
:102D90007B691800FFF7EAFC3B691B881A00802357
:102DA000DB00134028D03B695B889BB21A000123EB
:102DB000134008D03B695B889BB28022D20013434A
:102DC0009AB23B695A803B691B885B001A00254B0D
:102DD0001A4014007B691800FFF769FD0200802388
:102DE000DB0113402343802212021A437B69110046
:102DF0001800FFF74BFD1EE03B691B885B00FF22BC
:102E000013403A69528892B2110001220A40511EC1
:102E10008A41D2B213431C007B691800FFF747FDBB
:102E200002008023DB01134022001A437B6911005A
:102E30001800FFF72BFD0823FA187B681100180013
:102E4000FFF756FFB9683A697B691800FFF714FE6F
:102E500003001800BD4607B090BDC04694050000B1
:102E6000C87A0000FE07000090B587B000AF786018
:102E700039607B681B693B617B685A1E9341DBB2FA
:102E80003E4A3F491800FDF779FD7B681B695A1ED1
:102E90009341DBB2B822D20039491800FDF76EFD2C
:102EA0003B685A1E9341DBB2364A35491800FDF79C
:102EB00065FD7B685B889BB21A0080235B00134032
:102EC00002D006235B4254E03B685B889BB28022C1
:102ED000520013439AB23B685A807B683A6813CA1F
:102EE00013C33B691800FFF703FC7B681800FFF76A
:102EF0002BFF03007B617B69002B31D07B685B88F3
:102F00009BB2214A13409AB27B685A807B6930E0B9
:102F10000C23FA187B6811001800FFF7E9FE030084
:102F20007B617B69002B13D03B685B889BB21BB233
:102F3000002B03DA3B691800FFF790FD7B685B8884
:102F40009BB2114A13409AB27B685A807B6910E0A9
:102F5000F9687A683B691800FFF78EFD03007B6112
:102F60007B685B889BB21A0080235B001340CFD143
:102F70007B691800BD4607B090BDC046BF05000084
:102F8000C87A0000C1050000FFFEFFFF90B585B0C4
:102F900000AF786039603B681800FFF71FFD030041
:102FA0001A000F243B191A703B6801211800FFF723
:102FB00065FA03001A0001235340DBB2002B24D032
:102FC0003B191A78414913005B009B18DB00CB18B2
:102FD00004331B681C221340BB603B6802211800AD
:102FE000FFF7F8FA031E08D03B681800FFF7CAFA8B
:102FF0003B6802211800FFF731FABB6801221A432F
:103000003B6811001800FFF7FBFA3B68012118002C
:10301000FFF724FA0F243B191A782C4913005B00A0
:103020009B18DB00CB1804331A683B6811001800AA
:10303000FFF7E6FA3B191A78244913005B009B1846
:10304000DB00CB1808331A683B6811001800FFF743
:10305000BBFB3B191A781D4913005B009B18DB0072
:10306000CB180C331A683B6811001800FFF7CEFB31
:103070003B191A78154913005B009B18DB00CB182D
:1030800004331B681B0E9BB2032213409AB27B6869
:103090009A817B689B8901229A429B415B42DAB20A
:1030A0003B6811001800FFF7CDFB3B191A78074960
:1030B00013005B009B18DB00CB1812331A887B6867
:1030C000DA8100231800BD4605B090BD1C00002029
:1030D00080B582B000AF78607B6801211800FFF7EF
:1030E000EDF9031E02D004235B4204E07B68180064
:1030F000FFF797FA00231800BD4602B080BD00001C
:1031000080B582B000AF786039607B68002B04D056
:103110003B68002B01D0012300E000231A1C01238F
:103120001340DBB21F4A20491800FDF727FC3B681B
:103130001A78597809020A43997809040A43DB7816
:103140001B0613431A00194B1A407B681100180024
:10315000FFF7BDFA3B681A79597909020A43997950
:1031600009040A43DB791B0613431A00104B134072
:10317000802292021A437B6811001800FFF735FB8A
:103180003B681A7B7B6811001800FFF74BFB3B681C
:103190005A7B7B6811001800FFF7E0FBC046BD4674
:1031A00002B080BDEF080000C87A0000FCFEFFFFFF
:1031B000BF1DFDFF80B582B000AF786039607B68CD
:1031C000002B04D03B68002B01D0012300E000233A
:1031D0001A1C01231340DBB2294A2A491800FDF7C3
:1031E000CDFB3B681A78597809020A43997809049B
:1031F0000A43DB781B0613431A00234B1A407B68F3
:1032000011001800FFF763FA3B681A79597909022F
:103210000A43997909040A43DB791B0613431A0010
:103220001A4B13401A4A1A437B6811001800FFF723
:10323000DCFA3B681A7A597A09020A43997A090436
:103240000A43DB7A1B0613431A007B68110018003F
:10325000FFF73CFB3B685A7B7B6811001800FFF7C7
:103260007DFBC04601235A427B6811001800FFF71E
:1032700025F9031EF6D1C046C046BD4602B080BD4A
:1032800003090000C87A0000FCFEFFFFBFDDFDFF60
:103290004002020090B585B000AF78607B680E22D6
:1032A000BC181800FFF78AFB030023700F23FB18DC
:1032B00000221A7014E004220E23FB181B7893429C
:1032C00008D10F23FB181A7813001B019B18094A19
:1032D0009B180BE00F217B181A787B1801321A70AB
:1032E0000F23FB181B78002BE5D000231800BD46E8
:1032F00005B090BD407B000080B584B000AF786021
:1033000039603B681800FFF7C5FF0300FB607B686E
:10331000002B04D03B68002B01D0012300E00023E8
:103320001A1C01231340DBB2414A42491800FDF741
:1033300025FBFB68002B02D10D235B4274E03B6848
:1033400001211800FFF7BAF803001A0001235340C7
:10335000DBB2002B26D0FB681A78597809020A43A1
:10336000997809040A43DB781B0613431A001C23CF
:103370001340BB603B6802211800FFF792F9031E5F
:1033800008D03B681800FFF778F93B680221180065
:10339000FFF784F8BB6801221A433B68110018004C
:1033A000FFF795F93B6801211800FFF777F87B6874
:1033B0003A681A60FB681A78597809020A439978C2
:1033C00009040A43DB781B0613431A001C2313402D
:1033D000082B06D1FA683B6811001800FFF7EAFED7
:1033E00005E0FA683B6811001800FFF789FEFB68EA
:1033F0001A79597909020A43997909040A43DB7950
:103400001B0613431A000723134001D1012200E0D9
:1034100002227B681A71FB689A7BDB7B1B021343D9
:103420009AB27B68DA8000231800BD4604B080BDE4
:1034300025090000C87A000080B582B000AF78602E
:103440007B68002B05D07B681B68002B01D0012313
:1034500000E000231A1C01231340DBB29822120162
:1034600006491800FDF78AFA7B681B681800FFF709
:103470002FFE03001800BD4602B080BDC87A0000D0
:1034800080B582B000AF7860C0467B680321180029
:10349000FFF745F8031EF8D07B6803211800FFF7FB
:1034A00062F8C046BD4602B080BD80B586B000AFB0
:1034B000F860B9607A60BB680422134001D1002330
:1034C00024E0FB681800FFF73FFA03007B617B688C
:1034D0005B68002B14D07B685B68591C7A6851606C
:1034E0007A69D2B21A707B681B7C012B08D97B6980
:1034F000180A7B685B68591C7A685160C2B21A70FE
:103500007B68DB685A1C7B68DA6001231800BD46C3
:1035100006B080BD80B586B000AFF860B9607A6053
:103520001A00BB1C1A80BB68012213402BD07B6899
:103530001B68002B18D07B681B68591C7A681160C7
:103540001B787B617B681B7C012B10D97B681B6817
:103550001B781B021A007B6913437B617B681B6825
:103560005A1C7B681A6002E0BB1C1B887B617B686D
:103570009B685A1C7B689A607A69FB681100180086
:10358000FFF7D6F900E0C046BD4606B080BD00009A
:1035900080B582B000AF786039607B6880221340CC
:1035A0000DD0094A3B6811001800FFF7E7F93B68A6
:1035B00080211800FEF7D7FF13235B4200E00023B1
:1035C0001800BD4602B080BDFFFF000090B58BB073
:1035D00000AF786039607B681B683B6200237B62C8
:1035E0003B681A6808217B181A603B685A687B1888
:1035F0005A607B1800229A607B180022DA607B6890
:103600001A797B181A747B68002B04D03B6A002B54
:1036100001D0012300E000231A1C01231340DBB278
:10362000314A32491800FDF7A9F93B6A0721180011
:10363000FEF744FF031E02D004235B4250E03B6AC6
:103640001800FFF701F803001A0001235340DBB212
:10365000002B02D014235B4242E03B6A1800FEF7C5
:1036600077FF0300FB6108243A19F9693B6A1800E7
:10367000FFF71BFF03001A0001235340DBB2002BAE
:103680000CD03B19DA683B199B689A4206D37B68D9
:10369000DB883A19F969386AFFF73CFF3A6AFB6937
:1036A00011001800FFF774FF03007B627B6A002B98
:1036B00010DB08217B189A683B689B689A42CCD340
:1036C0007B18DA683B689B689A42C6D37B189B6874
:1036D0007B6200E0C0463B6A1800FFF7D1FE7B6AC0
:1036E0001800BD460BB090BD850A0000C87A0000E6
:1036F00080B582B000AF78607B68DB68DB080122B0
:1037000013405A1E9341DBB21800BD4602B080BD83
:1037100080B582B000AF78607B689B6902229343DA
:103720001A007B689A61C046BD4602B080BD80B574
:1037300082B000AF78607B689B6980221A437B6807
:103740009A61C046BD4602B080BD80B584B000AF6E
:1037500078607B689B69FB60FB681B0C7F221340D1
:10376000FB60FB681800BD4604B080BD80B582B028
:1037700000AF786039607B683A689A61C046BD46A0
:1037800002B080BD80B584B000AF78600F203B18D8
:103790007A68127F1A703B183A1812781F210A4073
:1037A0001A703B181B781800BD4604B080BD80B568
:1037B00082B000AF78600A00FB1C1A707B68FA1CAC
:1037C00012781A77C046BD4602B080BD80B582B07F
:1037D00000AF78607B681B6A80221A437B681A629C
:1037E000C046BD4602B080BD80B584B000AF7860F1
:1037F0007B681B6AFB60FB681B0C1B051B0DFB60D9
:10380000FB681800BD4604B080BD80B584B000AF31
:1038100078607B681B6AFB60FB689B0FFB60FB6842
:103820001800BD4604B080BD80B582B000AF78609E
:1038300039607B683A681A62C046BD4602B080BDF6
:1038400080B582B000AF2E4B7B607B681800FFF71D
:10385000CBFF0200BB1C1A807B681800FFF7D5FF66
:1038600003009A07BB1C1B881B041900254B0B4047
:103870001343254A1A437B6811001800FFF7D4FF51
:103880007B681800FFF761FF0200BB1C1A80BB1C9D
:103890001B881B041A00FE23DB03134002221A4379
:1038A0007B6811001800FFF761FF7B681800FFF7C5
:1038B00069FF03001A00BB1C1A80BB1C1B88DBB20B
:1038C0001F221340DAB27B6811001800FFF76FFF68
:1038D0007B681800FFF72BFFC0467B681800FFF7D6
:1038E00007FF03001A0001235340DBB2002BF4D181
:1038F0007B681800FFF76AFFC046BD4602B080BD76
:10390000000800400000FF0F0203000080B582B0F5
:1039100000AF054B7B607B681800FFF7F9FEC046DF
:10392000BD4602B080BDC0460008004080B582B0F0
:1039300000AF0200FB1D1A70FB1D1B787F2B09D8FE
:10394000FB1D1B781A001F231A40044B01219140D4
:103950000A001A60C046BD4602B080BD00E100E02A
:1039600080B582B000AF0200FB1D1A70FB1D1B78F2
:103970007F2B10D8FB1D1B781A001F23134008490A
:1039800001229A40130080228B50BFF34F8FC04614
:10399000BFF36F8FC046C046BD4602B080BDC04673
:1039A00000E100E080B582B000AF0200FB1D1A709C
:1039B000FB1D1B787F2B0AD8FB1D1B781A001F23C9
:1039C0001340054901229A40C0235B00CA50C046FB
:1039D000BD4602B080BDC04600E100E080B582B0C7
:1039E00000AF7860C0467B68DB7B1B06DB0FDBB279
:1039F000002BF8D1C046C046BD4602B080BD80B5A0
:103A000082B000AF78607B689B7BDBB21A00012339
:103A100013405A1E9341DBB21800BD4602B080BD70
:103A200080B582B000AF78607B6801229A73C0468F
:103A3000BD4602B080BD80B582B000AF78607B68C3
:103A400001225A73C046BD4602B080BD80B584B025
:103A500000AF78600A00BB1C1A800E203B187A6801
:103A600012881A803B183A18B91C128809880A4033
:103A70001A803B181B881800BD4604B080BD80B575
:103A800082B000AF78600A00BB1C1A807B68BA1C49
:103A900012881A80C046BD4602B080BD80B582B093
:103AA00000AF78600A00FB1C1A707B68FA1C127861
:103AB0001A72C046BD4602B080BD80B582B000AF6C
:103AC00078600A00BB1C1A807B68BA1C12885A8175
:103AD000C046BD4602B080BD80B582B000AF786000
:103AE0000A00FB1C1A707B68FA1C12781A75C04613
:103AF000BD4602B080BD80B582B000AF78600800DE
:103B00001100FB1C021C1A70BB1C0A1C1A70FB1C47
:103B10001B787A68D318BA1C12781A76C046BD464C
:103B200002B080BD80B582B000AF7860080011009F
:103B3000FB1C021C1A703B000A1C1A80FB1C1A7822
:103B40007B680C32520039000988D152C046BD460C
:103B500002B080BD80B584B000AFF8607A600B2001
:103B60003B180A1C1A703B181A78FB680632920040
:103B70007968D150C046BD4604B080BD90B585B0CF
:103B800000AF786039600F23FC183B68180000F024
:103B90008DF9030023707B683A68DA60974B8F22B7
:103BA00019000120FCF7EAFE3B681800FFF716FF3A
:103BB0003B6802211800FFF749FF031E08D03B684D
:103BC00000211800FFF75BFF3B681800FFF706FFB6
:103BD0003B6801211800FFF752FF3B681800FFF710
:103BE000FDFE0F243B1900229A56854913009B00C5
:103BF0009B189B00CB1802331A883B6811001800F1
:103C0000FFF73DFF3B1900229A567D4913009B00A8
:103C10009B189B00CB1804331A783B6811001800DE
:103C2000FFF73CFF3B1900229A56754913009B0091
:103C30009B189B00CB1806331A883B6811001800AC
:103C4000FFF73BFF20003B1800229A566C491300F7
:103C50009B009B189B00CB1802331B881A000C2377
:103C60001340082B21D104003B1800229A566449C6
:103C700013009B009B189B00CB180C331A683B6801
:103C800000211800FFF766FF3B1900229A565C4995
:103C900013009B009B189B00CB1810331A683B68DD
:103CA00001211800FFF756FF77E00F203B18002294
:103CB0009A56534913009B009B189B00CB18023364
:103CC0001B881A000C23134023D104003B18002248
:103CD0009A564B4913009B009B189B00CB180C3342
:103CE0001B689AB23B6800211800FFF71BFF3B19C5
:103CF00000229A56424913009B009B189B00CB1848
:103D000010331B689AB23B6801211800FFF70AFFC5
:103D100043E00F203B1800229A56394913009B00BC
:103D20009B189B00CB1802331B881A000C231340EE
:103D3000042B32D104003B1900229A56304913005B
:103D40009B009B189B00CB180C331B68DAB23B68B6
:103D500000211800FFF7CFFE3B1900229A56284990
:103D600013009B009B189B00CB1810331B68DAB222
:103D70003B6801211800FFF7BEFE3B1900229A564E
:103D80001F4913009B009B189B00CB1808331A781F
:103D90003B6811001800FFF79FFE3B681800FFF713
:103DA0004AFE7A683B681100180000F0C1F83B68D1
:103DB000180000F06BF803001233DBB25BB218009E
:103DC000FFF7CEFD3B68180000F060F803001233E7
:103DD000DBB25BB21800FFF7E5FD3B68180000F0AE
:103DE00055F803001233DBB25BB21800FFF79EFDFB
:103DF00000231800BD4605B090BDC046547B0000AE
:103E00003400002080B500AF00231800BD4680BDFF
:103E100080B584B000AF78607B68DB68FB60FB68CE
:103E20001800FFF7ECFD031E08D0FB681800FFF731
:103E3000F7FD7B681B687A6810009847C046BD464E
:103E400004B080BD80B500AF034B1B681800FFF7BE
:103E5000DFFFC046BD4680BDC001002080B500AF79
:103E6000034B1B681800FFF7D3FFC046BD4680BD5B
:103E7000C401002080B500AF034B1B681800FFF79A
:103E8000C7FFC046BD4680BDC801002080B582B0D6
:103E900000AF78607B68044A944663449B0ADBB2B7
:103EA0001800BD4602B080BD00D4FFBD80B584B00F
:103EB00000AF78607B681800FFF7E8FF03001A0086
:103EC0000E23FB1803321A700F23FB1800221A70FE
:103ED00017E00F203B181A78134913009B009B181A
:103EE0009B005B5C0E22BA1812789A4203D13B18F1
:103EF0001B785BB213E00F217B181A787B18013214
:103F00001A700F23FB181B78022BE2D9A9235A0041
:103F1000064B19000020FCF731FD01235B4218001D
:103F2000BD4604B080BDC04634000020547B000074
:103F300080B582B000AF786039607B680B4A9342ED
:103F400002D10B4B3A681A607B680A4A934202D14D
:103F5000094B3A681A607B68084A934202D1084BC1
:103F60003A681A60C046BD4602B080BD002C0042CF
:103F7000C001002000300042C40100200034004293
:103F8000C801002080B584B000AF786039607B68DC
:103F9000DB68FB60FB683A681340FB60FB68180055
:103FA000BD4604B080BD80B584B000AF78600A0023
:103FB000FB1C1A700F203B187A685021525C1A7053
:103FC0003B183A18F91C127809780A401A703B1805
:103FD0001B781800BD4604B080BD80B582B000AF2C
:103FE00078600A00FB1C1A70C0467B689B78DBB2C5
:103FF000FA1C12781340DBB2002BF6D1C046C04643
:10400000BD4602B080BD80B582B000AF78600A00C6
:10401000FB1C1A707B689B78DBB2FA1C1278134089
:10402000DBB25A1E9341DBB21800BD4602B080BD20
:1040300080B584B000AF786008001100FB1C021C42
:104040001A70BB1C0A1C1A70FB1C1A780F203B1834
:104050007968083252018A18073212781A703B18B0
:104060003A18B91C127809780A401A703B181B7864
:104070001800BD4604B080BD80B582B000AF786046
:104080000A00FB1C1A70FB1C1B787A6808335B0162
:10409000D31807331B78DBB21800BD4602B080BDD1
:1040A00080B582B000AF786008001100FB1C021CD4
:1040B0001A70BB1C0A1C1A70FB1C1B787A68083328
:1040C0005B01D3180733BA1C12781A70C046BD467C
:1040D00002B080BD80B582B000AF786008001100EA
:1040E000FB1C021C1A70BB1C0A1C1A70FB1C1B78E0
:1040F0007A6808335B01D3180533BA1C12781A703A
:10410000C046BD4602B080BD80B582B000AF7860C9
:104110000A00FB1C1A70FB1C1B787A6808335B01D1
:10412000D31806331B78DBB21800BD4602B080BD41
:1041300080B582B000AF786008001100FB1C021C43
:104140001A70BB1C0A1C1A70FB1C1B787A68083397
:104150005B01D3180433BA1C12781A70C046BD46EE
:1041600002B080BD80B582B000AF78600A00FB1C51
:104170001A70FB1C1A78796884235B0052018A1834
:10418000D31810221A70C046BD4602B080BD80B55B
:1041900082B000AF786008001100FB1C021C1A708E
:1041A000BB1C0A1C1A70FB1C1A7879680A23FF339F
:1041B00052018A18D318BA1C12781A70C046BD462C
:1041C00002B080BD80B582B000AF786008001100F9
:1041D000FB1C021C1A70BB1C0A1C1A70FB1C1A78F0
:1041E000796884235B0052018A18D318BA1C1278AC
:1041F0001A70C046BD4602B080BD80B584B000AF25
:1042000078600A00FB1C1A70FB1C19780F203B1801
:104210007A68083149018A5C1A703B183A1812789A
:1042200007210A401A703B181B781800BD4604B0DD
:1042300080BD80B584B000AF78600A00FB1C1A70A6
:10424000FB1C19780F203B187A68083149018A5CF9
:104250001A7001007B181B781B09DAB208007B1862
:1042600007210A401A703B181B781800BD4604B09D
:1042700080BD80B582B000AF786008001100FB1CE3
:10428000021C1A70BB1C0A1C1A70FB1C1A787B6873
:1042900008325201B91C0978D154C046BD4602B05B
:1042A00080BD80B582B000AF78600A00FB1C1A7038
:1042B000FB1C1A787B6808325201D35CDBB2180011
:1042C000BD4602B080BD80B582B000AF78607B682B
:1042D0009B8B9BB21800BD4602B080BD80B582B0FA
:1042E00000AF78600A00BB1C1A807B68BA1C128879
:1042F0009A83C046BD4602B080BD80B582B000AF93
:1043000078600A00BB1C1A807B68BA1C12881A836A
:10431000C046BD4602B080BD80B582B000AF7860B7
:104320007B681B8B9BB21800BD4602B080BD80B578
:1043300082B000AF78600A00BB1C1A807B68BA1C90
:1043400012889A82C046BD4602B080BD80B582B058
:1043500000AF78607B681B78DBB202229343DAB24D
:104360007B681A707B6803211800FFF736FEC04691
:10437000BD4602B080BD80B584B000AF78600A0051
:10438000FB1C1A707B6803211800FFF726FE0F2024
:104390003B187A6812781A703B183A18F91C127890
:1043A00009780A401A703B181B781800BD4604B003
:1043B00080BD80B582B000AF78600A00FB1C1A7027
:1043C0007B68FA1C12781A707B6803211800FFF7CB
:1043D00004FEC046BD4602B080BD80B582B000AFCD
:1043E00078600A00BB1C1A807B68BA1C12881A818C
:1043F000C046BD4602B080BD80B582B000AF7860D7
:1044000039607B683A685A62C046BD4602B080BDDA
:1044100080B582B000AF7860396000231800BD46D7
:1044200002B080BD80B584B000AF264B3B60264B08
:104430001B685B0B1F221340FB60234B1B689B0C0C
:104440001F221340BB60204B1B68DB0D072213406B
:104450007B60FB681F2B01D10523FB60BB681F2B12
:1044600001D11D23BB607B68072B01D105237B6035
:10447000FB689BB29B019AB2F823DB0013409AB20F
:10448000BB689BB21F210B409BB213439AB27B685F
:104490009BB21B0399B2E023DB010B409BB2134399
:1044A0009AB23B681A853A68D37803210B43D370DC
:1044B0003A68D3780C210B43D370C046BD4604B094
:1044C00080BDC046005000412460800080B500AF30
:1044D000C046064B07211800FFF765FD0300072BB8
:1044E000F7D1C046C046BD4680BDC046000800406A
:1044F00080B500AF0E4B9B8C9BB21A00202313405B
:1045000009D1C0460A4BD0211800FFF73BFD03003C
:10451000D02BF7D108E0C046054B10211800FFF75B
:1045200031FD0300102BF7D1C046BD4680BDC0460B
:104530000008004080B582B000AF0200FB1D1A7079
:10454000FB1D1B78002B02D1FFF7D2FF05E0FB1DFE
:104550001B78012B01D1FFF7B9FFC046BD4602B061
:1045600080BD000080B582B000AF02003960FB1D45
:104570001A703B68DAB2FB1D1B7804481900FFF77C
:104580008FFDC046BD4602B080BDC0460050004110
:1045900080B582B000AF02003960FB1D1A703B6825
:1045A000DAB2FB1D1B7804481900FFF7F0FDC04686
:1045B000BD4602B080BDC0460050004180B582B00B
:1045C00000AF02003960FB1D1A703B68DAB2FB1DB8
:1045D0001B7804481900FFF7F5FDC046BD4602B040
:1045E00080BDC0460050004180B582B000AF0200DF
:1045F000FB1D1A70FB1D1B78064A19001000FFF7FF
:1046000050FE0300113B5A425341DBB21800BD4635
:1046100002B080BD0050004190B583B000AF0400EF
:1046200008001100FB1D221C1A70BB1D021C1A7011
:104630007B1D0A1C1A707B1D1B78002B0CD0BB1D28
:104640001B7810229A401300DAB2FB1D1B780A482F
:104650001900FFF73FFD0BE0BB1D1B7810229A40AD
:104660001300DAB2FB1D1B7803481900FFF760FD49
:10467000C046BD4603B090BD0050004180B584B037
:1046800000AF0200FB1D1A70BB1D0A1C1A700C4BF8
:10469000FB60FB1D1A78FB6811001800FFF734FD62
:1046A00003001900BB1D1B7810229A4013000B4019
:1046B0005A1E9341DBB21800BD4604B080BDC0460F
:1046C0000050004180B584B000AF0200FB1D1A709D
:1046D000BB1D0A1C1A700C4BFB60FB1D1A78FB6893
:1046E00011001800FFF7C8FC03001900BB1D1B7860
:1046F00020229A4013000B405A1E9341DBB218004F
:10470000BD4604B080BDC0460050004180B582B0B7
:1047100000AF0200FB1D1A70BB1D0A1C1A70BB1DE6
:104720001B7820229A40FB1D1B7811001800FFF710
:1047300019FFC046BD4602B080BD90B583B000AF42
:10474000040008001100FB1D221C1A70BB1D021C76
:104750001A707B1D0A1C1A707B1D1B78002B0AD057
:10476000BB1D1B7820229A40FB1D1B7811001800EE
:10477000FFF70EFF09E0BB1D1B7820229A40FB1DAE
:104780001B7811001800FFF719FFC046BD4603B0A3
:1047900090BD000080B582B000AF0200FB1D1A7012
:1047A000FB1D1B78044A19001000FFF7DBFCC04614
:1047B000BD4602B080BDC0460050004180B582B009
:1047C00000AF0200FB1D1A70FB1D1B78064810226B
:1047D0001900FFF72DFC03005A1E9341DBB21800AD
:1047E000BD4602B080BDC0460050004180B582B0D9
:1047F00000AF0200FB1D1A70FB1D1B781021180072
:10480000FFF7B0FEC046BD4602B080BD90B583B094
:1048100000AF040008001100FB1D221C1A70BB1D14
:10482000021C1A707B1D0A1C1A707B1D1B78002B42
:104830000CD0BB1D1B7801229A401300DAB2FB1D7D
:104840001B780A481900FFF745FC0BE0BB1D1B78DD
:1048500001229A401300DAB2FB1D1B7803481900AD
:10486000FFF766FCC046BD4603B090BD0050004156
:1048700080B582B000AF0200FB1D1A70BB1D0A1C80
:104880001A70BB1D1B7801229A40FB1D1B7811007A
:104890001800FFF767FEC046BD4602B080BD0000AD
:1048A00080B584B000AF3A60FB1D021C1A70BB1DBE
:1048B0000A1C1A70FB1D1A78BB1D1B785200D318F6
:1048C0001A01054BD318FB60FB683A681A60C046B2
:1048D000BD4604B080BDC0469402002090B585B0AE
:1048E00000AF040008001100FB1D221C1A70BB1D44
:1048F000021C1A703B1D0A1C1A80FB1D1A78BB1D76
:104900001B785200D3181A010A4BD318FB603B1DC9
:104910001B889B049B0C99B2FB685A688904890C1C
:104920008903054802400A435A60C046BD4605B0A7
:1049300090BDC04694020020FF3F00F090B585B0C6
:1049400000AF040008001100FB1D221C1A70BB1DE3
:10495000021C1A703B1D0A1C1A80FB1D1A78BB1D15
:104960001B785200D3181A01094BD318FB603B1D6A
:104970001B889B049B0C99B2FB685A688904890CBC
:10498000920B92030A435A60C046BD4605B090BDE3
:104990009402002090B585B000AF0400080011001B
:1049A000FB1D221C1A70BB1D021C1A703B1D0A1C29
:1049B0001A80FB1D1A78BB1D1B785200D3181A01F0
:1049C000094BD318FB603B1D1B889B049B0C99B2C1
:1049D000FB685A688904890C920B92030A435A6057
:1049E000C046BD4605B090BD9402002090B585B08C
:1049F00000AF040008001100FB1D221C1A70BB1D33
:104A0000021C1A703B1D0A1C1A80FB1D1A78BB1D64
:104A10001B785200D3181A010A4BD318FB603B1DB8
:104A20001B889B049B0C99B2FB685A688904890C0B
:104A30008903054802400A435A60C046BD4605B096
:104A400090BDC04694020020FF3F00F0B0B584B096
:104A500000AFBA607B600F243B19021C1A700E2550
:104A60007B190A1C1A70BB689AB27B1919783B191A
:104A70001B781800FFF762FF7B689AB27B191978E0
:104A80003B191B781800FFF729FFC046BD4604B04C
:104A9000B0BDB0B584B000AFBA607B600F243B19E5
:104AA000021C1A700E257B190A1C1A70BB689AB278
:104AB0007B1919783B191B781800FFF797FF7B6863
:104AC0009AB27B1919783B191B781800FFF762FF1F
:104AD000C046BD4604B0B0BD80B584B000AF020092
:104AE000FB1D1A70BB1D0A1C1A70FB1D1A78BB1D1A
:104AF0001B785200D3181A01044BD318FB60FB68D3
:104B000000229A72C046BD4604B080BD94020020C7
:104B100090B583B000AF040008001100FB1D221CFB
:104B20001A70BB1D021C1A707B1D0A1C1A707B1D9B
:104B30001B78002B0CD0BB1D1B7840229A40130021
:104B4000DAB2FB1D1B780A481900FFF7C3FA0BE025
:104B5000BB1D1B7840229A401300DAB2FB1D1B7864
:104B600003481900FFF7E4FAC046BD4603B090BD04
:104B70000050004190B583B000AF04000800110060
:104B8000FB1D221C1A70BB1D021C1A707B1D0A1C07
:104B90001A707B1D1B78002B0CD0BB1D1B7840228C
:104BA0009A401300DAB2FB1D1B780A481900FFF780
:104BB000BFFA0BE0BB1D1B7840229A401300DAB20B
:104BC000FB1D1B7803481900FFF784FAC046BD4659
:104BD00003B090BD0050004180B584B000AF02002A
:104BE000FB1D1A70BB1D0A1C1A70FB1D1B78002BC5
:104BF0000BD0BB1D1B78002B04D0FB1D1B78023390
:104C0000DBB203E0FB1D1B7800E000230F217A18C4
:104C100013707B181A7813009B009B189B001033AD
:104C20001A00034BD31804331800BD4604B080BDEE
:104C3000CC01002080B500AF054B04211800FFF720
:104C40004DFB044B1B689847C046BD4680BDC0461F
:104C500000500041CC01002080B584B000AF00239B
:104C6000BB60214A214B11001800FFF737FB1E4A99
:104C70001E4B11001800FFF75AFB1C4B7021180047
:104C8000FFF73BFB0F23FB1800221A701DE00F23D8
:104C9000FB181B785A01164BD3187B607B681B8965
:104CA0001B071B0FDBB2032B09D17B681B895B043D
:104CB0005B0D9BB2BB607B6800221A810AE00F216A
:104CC0007B181A787B1801321A700F23FB181B7897
:104CD000012BDCD9074B5B68BA68110003209847A9
:104CE000C046BD4604B080BD010200000050004136
:104CF00094020020CC01002080B500AF064B80213B
:104D00001800FFF7EBFA054B5B6800210520984778
:104D1000C046BD4680BDC04600500041CC010020C9
:104D200080B500AF0D4B70211800FFF7D7FA0B4B81
:104D300070211800FFF7FBFA094A084B1100180010
:104D4000FFF7DBFA0020FFF7F5FB064B5B6800215D
:104D500002209847C046BD4680BDC0460050004175
:104D600001020000CC01002080B500AF0F4B0022F3
:104D700000211800FFF77DFA0C4B08211800FFF7FF
:104D8000ADFA0A4B70211800FFF7D1FA084A074B19
:104D900011001800FFF7B1FA00F05AFE054B5B68EE
:104DA000002101209847C046BD4680BD005000410B
:104DB00001020000CC01002080B500AF0C4A0D4B71
:104DC00011001800FFF78AFA094A0A4B110018006F
:104DD000FFF7ADFA074B70211800FFF78EFA064B6C
:104DE0005B68002104209847C046BD4680BDC04690
:104DF0000102000000500041CC01002090B583B0BA
:104E000000AFFB1D01221A703C1D264B1800FFF756
:104E10005AFA03002380234B1800FFF77DFA0300A2
:104E200019003B1D3A1D12880A401A803B1D1B8841
:104E30000422134003D0FFF7FDFE01232DE03B1DAC
:104E40001A8880239B00134002D0FFF705FF22E061
:104E50003B1D1B888022134002D0FFF74DFF1AE054
:104E60003B1D1B887022134002D0FFF759FF12E050
:104E70003B1D1B880822134002D0FFF775FF0AE094
:104E80003B1D1B880122134002D0FFF795FF02E073
:104E9000FB1D00221A70FB1D1B781800BD4603B0D5
:104EA00090BDC0460050004180B588B000AF78602A
:104EB0000A00FB1C1A70964BBB617B689A7C17201A
:104EC0003B180F210A401A703B181B785A01914B6E
:104ED000D3183B61FB1C1B78002B07D03B691033B8
:104EE0005B689B049B0C9BB21A0000E000220E231F
:104EF000FB181A807B681B8A874A934203D17B6820
:104F00001B8A1BB204E07B681B8A013B9BB21BB26D
:104F10000E22BA180021525E13401AB20C23FB185D
:104F20001A801D23FB1800221A707B68DB7C072285
:104F30001340DAB20B23FB18013A51424A411A706E
:104F4000FB1C1B78002B06D01723FB181B780121B4
:104F50001800FFF78DFC7B689A680E23FB181B88EE
:104F6000D2187B689A607B689A687B685B689A4213
:104F700055D27B685B6899B27B689B689AB21E20A9
:104F80003B188A1A1A807B68DB7C20221340DBB234
:104F9000002B21D07B681B8A3A1812889A4203D9C9
:104FA0003B187A68128A1A807B68D8687B681A680E
:104FB0007B689B68D1181E23FB181B881A0002F01F
:104FC00021FB7B68DB681A001723FB181B78012183
:104FD0001800FFF765FC17E01E217B181A88802354
:104FE0009B019A4203D97B18802292011A807B6828
:104FF0001A687B689B68D3181A001723FB181B7864
:1050000001211800FFF74CFC1E23FB181A881723F8
:10501000FB18187800230121FFF718FD4BE07B688F
:10502000DB7C10221340DBB2002B0DD07B68DA7CD6
:1050300010218A43DA741723FB1818780023002202
:105040000121FFF703FD36E00B23FB181B78002B33
:1050500008D01723FB181978BB694B221800FFF7FB
:10506000B1F807E01723FB181978BB694A2218002A
:10507000FFF7A8F87B681B8A0C22BA1812889A429C
:1050800013D17B68DA7C40218A43DA74234BDA68D7
:105090007B68987C7B689B6819009047031E32D11F
:1050A0007B68DA7C40210A43DA747B6800211800AF
:1050B00000F094FE28E0FB1C1B7801225340DBB279
:1050C000002B17D00B23FB181B78002B04D01D23BB
:1050D000FB184E221A7003E01D23FB184A221A7097
:1050E0001D23FB181A781723FB181978BB691800C1
:1050F000FFF74DF81723FB181B7801220121180038
:10510000FFF706FD00E0C046BD4608B080BDC046C2
:105110000050004194020020FF030000CC01002059
:10512000B0B58AB000AF78600A00FB1C1A70CC4B97
:105130003B627B689A7C1F203B180F210A401A7043
:105140003B181B785A01C74BD318BB61FB1C1B785B
:10515000002B06D0BB695B681B019B0C9BB21A003D
:1051600000E000221623FB181A80FB1C1B78002B82
:1051700006D0BB695B689B049B0C9BB21A0000E0E5
:1051800000221423FB181A807B681B8AB64A9342BC
:1051900004D07B681B8A013B9AB200E0B24A12211C
:1051A0007B181A801023FB181422BA187918128859
:1051B00009880A401A807B68DB7C07221340DAB238
:1051C0000F23FB18013A51424A411A70FB1C1B780D
:1051D000002B06D01F23FB181B7800211800FFF7B7
:1051E00047FB7B68DB7C20221340DBB2002B23D003
:1051F0007B685B68002B1FD07B685B6899B27B681B
:105200009B689AB20C257B198A1A1A807B681A68E7
:105210007B689B68D0187B68DC687B191022BA1801
:1052200015881B8899B2AAB2914200D92B1C9BB257
:105230001A00210002F0E6F97B685B68002B24D19C
:105240007B68DB7C10221340DBB2002B1DD07B6817
:10525000DA7C10218A43DA747B68DA7C20210A43E5
:10526000DA747B68DB681A001F243B191B78002165
:105270001800FFF715FB7B681B8A1A003B1918788A
:1052800000230021FFF705FCB9E0FB1C1B78002B75
:1052900014D07B681B8A1022BA1812889A420DD249
:1052A0007B68DA7C10218A43DA747B689A6814235D
:1052B000FB181B88D2187B689A6076E07B689A6836
:1052C0001623FB181B88D2187B689A607B689A6843
:1052D0007B685B689A4200D367E07B685B6899B241
:1052E0007B689B689AB226203B188A1A1A807B68D2
:1052F000DB7C20221340DBB2002B14D07B681B8A9E
:105300003A1812889A4203D93B187A68128A1A808E
:105310007B68DB681A001F23FB181B78002118002C
:10532000FFF7BEFA36E07B681B8A26217A181288BE
:105330009A4216D97B181A8880239B019A4204D975
:105340007B18802292011A8017E01223FB181B8819
:10535000DB439AB226217B18791809880A401A8003
:105360000BE07B681B8A2622BA1812889A4204D264
:105370007B68DA7C20210A43DA747B681A687B68D0
:105380009B68D3181A001F23FB181B7800211800F4
:10539000FFF786FA2623FB181A881F23FB181878B4
:1053A00000230021FFF775FB29E00F23FB181B7872
:1053B000002B08D01F23FB1819783B6A2D221800F8
:1053C000FEF700FF07E01F23FB1819783B6A252230
:1053D0001800FEF7F7FE1F217B181B78002B08D161
:1053E0007B68DB681A007B181B7800211800FFF728
:1053F00057FA7B680021180000F0F0FC2DE0FB1C40
:105400001B7801225340DBB2002B1ED00F23FB1868
:105410001B78002B0BD01F23FB181B7801211800D1
:10542000FFF75AFB2523FB182D221A7003E02523D2
:10543000FB1825221A702523FB181A781F23FB1846
:1054400019783B6A1800FEF7A2FE1F23FB181B7891
:10545000012200211800FFF78DFBBD460AB0B0BD48
:105460000050004194020020FF03000090B585B079
:1054700000AF78607B689A7C0F203B180F210A40B0
:105480001A707B68DB7C07221340DAB20E243B19CA
:10549000013A51424A411A703B191B78012253408C
:1054A000DBB2002B0BD004003B181B781800FFF771
:1054B0009DF93B191B781800FFF76CF93EE07B68FB
:1054C000DB7C40221340DBB2002B13D07B68DA7CFC
:1054D00040218A43DA740F243B191B7800220121F2
:1054E0001800FFF715FB3B191B780022002118005C
:1054F000FFF740FB7B68DA7C08218A43DA740F24CB
:105500003B191B7800211800FFF7E6FA3B191B78BE
:1055100001211800FFF7E0FA3B191B786F211800F2
:10552000FFF720F83B191B786F211800FFF746F8AA
:10553000044B9B687A68927C10009847BD4605B082
:1055400090BDC046CC01002090B585B000AF78601A
:105550000A00FB1C1A707B689A7C0F203B180F21F5
:105560000A401A70FB1C19783B181B78002218009F
:10557000FFF7E3F8064B1C697B68987C7B689B68A7
:105580001A000121A047C046BD4605B090BDC046E7
:10559000CC010020B0B588B000AF78600A00FB1CD9
:1055A0001A70734BFB617B689A7C1B203B180F21A0
:1055B0000A401A701023FB186E4A1A8001007B18EB
:1055C0001B785A016C4BD3187B61FB1C1B78002B9A
:1055D00009D07B181A78FB6911001800FEF729FE24
:1055E00003001A0009E01B23FB181A78FB6911005D
:1055F0001800FEF702FE03001A0013203B181A7071
:105600007B68DB7C07221340DAB21223FB18013AD5
:1056100051424A411A70FB1C1B781B017A69D3184E
:105620009B7ADAB20C217B181A703B181B78022B7C
:1056300030D17B181B7801221340DBB2002B29D01C
:10564000FB1C1B781B017A69D218937A01218B43CA
:105650009372FB1C1B7810243A19D25C1B257B1912
:105660001978FB691800FEF71BFDFB1C1B783A1923
:10567000D25C7B191978FB691800FEF7A3FDFB1CAF
:105680001B785A1E9341D9B27B680422180000F09F
:10569000CBFB68E00C23FB181B7802221340DBB223
:1056A000002B42D0FB1C1B781B017A69D218937A1D
:1056B00002218B439372FB1C1B7810243A19D25C95
:1056C0001B257B191978FB691800FEF7E9FCFB1C08
:1056D0001B783A19D25C7B191978FB691800FEF720
:1056E00071FD1223FB181B78002B3CD07B68DB7C00
:1056F00040221340DBB2002B35D07B68DB7C1B06DD
:10570000DB0FDBB21A00FB1C1B7893422BD07B68AB
:10571000DB7C1B06DB0FDBB25A1E9341D9B27B68E0
:105720000022180000F080FB1DE0FB1C1A781B24EF
:105730003B191B7811001800FFF7CEF9FB1C1B78F2
:1057400010257A19D25C3B191978FB691800FEF70D
:10575000A7FCFB1C1B787A19D25C3B191978FB69F2
:105760001800FEF72FFDC046BD4608B0B0BDC046CC
:1057700000500041040800009402002080B582B06F
:1057800000AF78600A00FB1C1A70FB1C1B7810220B
:10579000134004D07B681800FFF768FE14E0FB1C80
:1057A0001B784022134005D07B6801211800FFF7C9
:1057B000CBFE09E0FB1C1B782022134004D07B6841
:1057C00000211800FFF7C0FEC046BD4602B080BDF4
:1057D00080B582B000AF78600A00FB1C1A70FB1C19
:1057E0001B784022134005D07B6801211800FFF789
:1057F000ABFE30E0FB1C1B780822134005D07B6811
:1058000001211800FFF7C6FE25E0FB1C1B780222D1
:10581000134005D07B6801211800FFF745FB1AE013
:105820007B68DB7C07221340DBB2012B13D1FB1C0E
:105830001B780422134005D07B6800211800FFF775
:10584000A9FE08E0FB1C1B781022134003D07B68E4
:105850001800FFF70BFEC046BD4602B080BD80B504
:1058600082B000AF78600A00FB1C1A70FB1C1B782A
:105870002022134005D07B6800211800FFF764FE4A
:1058800030E0FB1C1B780422134005D07B6800210C
:105890001800FFF77FFE25E0FB1C1B780122134058
:1058A00005D07B6801211800FFF73AFC1AE07B68FD
:1058B000DB7C07221340DBB2012B13D1FB1C1B78CE
:1058C0000822134005D07B6801211800FFF762FE13
:1058D00008E0FB1C1B781022134003D07B681800E3
:1058E000FFF7C4FDC046BD4602B080BDB0B584B070
:1058F00000AF78603960334BFB603B689A7C0B20CB
:105900003B180F210A401A703B181B7801229A405D
:1059100013007A68134050D03B181A780A243B19B8
:10592000F968083252018A18073212781A703B1847
:10593000197809257B19F8680A22FF3249014118B4
:105940008A1812781A703B193A197919127809785D
:105950000A401A703B191B78002B2FD03B68DB7C68
:1059600007221340DBB2012B0ED13B68DB7C4022C7
:105970001340DBB2002B07D13B191A783B681100AA
:105980001800FFF7FBFE19E03B68DB7C7F229343A6
:10599000DBB2002B08D00A23FB181A783B681100F1
:1059A0001800FFF715FF09E00A23FB181A783B6877
:1059B00011001800FFF753FF00E0C046BD4604B0D9
:1059C000B0BDC0460050004180B584B000AF1E4B52
:1059D000BB60BB1DBA68128C1A80BB1D1B88002BD4
:1059E00003D1FFF70BFA031E2AD10F23FB18002265
:1059F0001A701FE00F23FB181A7813009B009B18E6
:105A00009B0010331A00114BD31804333B603B68E2
:105A10009B7CFF2B07D0BB1D1B883A681100180028
:105A2000FFF764FF00E0C0460F217B181A787B184F
:105A300001321A700F23FB181B78082BDAD900E00B
:105A4000C046BD4604B080BD00500041CC010020DE
:105A500080B582B000AFFB1D00221A702BE0FB1D49
:105A60001A7813009B009B189B0010331A00194BE7
:105A7000D31804330321180000F0B0F9FB1D1A7885
:105A80001449262013009B009B189B00CB181B1861
:105A9000FF221A70FB1D1A780E49272013009B0065
:105AA0009B189B00CB181B1800221A70FB1D1A783C
:105AB000FB1D01321A70FB1D1B78082BCFD9064B3A
:105AC00060220021180001F0A6FDC046BD4602B0CC
:105AD00080BDC046CC0100209402002080B584B077
