:100000008022002059010000550100005501000028
:1000100000000000000000000000000000000000E0
:10002000000000000000000000000000550100007A
:100030000000000000000000550100005501000014
:100040005501000055010000550100005501000058
:1000500055010000390D0000550100003521000058
:100060005501000055010000550100005501000038
:100070005501000055010000550100005501000028
:1000800055010000550100009D160000B916000042
:10009000D51600000000000000000000550100001F
:1000A00055010000550100005501000055010000F8
:1000B0000000000010B5064C2378002B07D1054B3B
:1000C000002B02D0044800E000BF0123237010BDC4
:1000D000000000200000000008290000044B10B5BB
:1000E000002B03D00349044800E000BF10BDC04608
:1000F000000000000400002008290000F0B587B0CF
:1001000002F0ACF900221421684602F007FA6846B2
:1001100002F07EFA0024E1B2013401226846A4B262
:1001200002F0FCFA102CF6D101220021684602F000
:1001300037FB012501240F260127290022006846EC
:1001400002F02EFB6B1C1D0035403342F5D17C4084
:10015000E4B2F2E7FEE7C04625492648F8B58142F9
:1001600009D0254B984206D2013B1A1A9208013257
:10017000920002F07DFB2148214B984207D2013BBF
:100180001A1A920801320021920002F07AFBFF2233
:100190001C4B022193431C4A0325936090230224A5
:1001A0000C270826194A5B00D150194AD378AB4373
:1001B0002343D370D378BB433343D3703022154BE2
:1001C000987B9043202210439873997BB943314325
:1001D000997380219A7BAA4322439A730E4A5368EB
:1001E0000B43536002F020FBFFF788FFFEE7C04699
:1001F000082900000000002000000020000000206E
:10020000800200200000000000ED00E000700041CE
:10021000005000410048004100400041EFF31083CE
:10022000036072B6BFF35F8F7047C046BFF35F8F46
:10023000036883F310887047436910B5002B00D022
:10024000984710BD836910B5002B00D0984710BDAA
:1002500010B5040000F056FD002803D1024B2360C6
:10026000024B636010BDC046390200004502000029
:1002700010B5030084B06C461B890292A380140061
:100280006A46064B0391143801A9D38000F0EAFDB9
:10029000002800D00400200004B010BD0080FFFF43
:1002A00010B5030084B06C461B890292A380140031
:1002B0006A46064B0391143801A9D38000F0D2FDA1
:1002C000002800D00400200004B010BD0180FFFF12
:1002D00010B5040000F05AFD002803D1024BA361C1
:1002E000024B636110BDC046A10200007102000014
:1002F00010B50368984710BD0020704710B5274B14
:1003000002005878904227D01C78002C20D0212061
:10031000185C824226D020241C5D002C1ED0412077
:10032000185C824224D040241C5D002C1CD061202B
:10033000185C82422FD060241C5D002C1AD0012052
:10034000404240011B189C780020032C1FD010BD98
:100350000F341440A042DAD10020F2E70F341440E9
:10036000A042DCD10120ECE70F341440A042DED1E2
:100370000220E6E70F341440001B44426041800035
:10038000013840011B189C780020032CDFD110009D
:100390009B699847DBE70320D3E7C0461C00002099
:1003A000F0B5C64600B5664C05006378170084B00A
:1003B000984200D190E02278002A3CD02123E35CCF
:1003C0009D4200D1A1E02022A25C002A4BD0412313
:1003D000E35C9D4200D19AE04022A25C002A48D012
:1003E0006123E35C9D4200D193E06022A25C002A7D
:1003F00045D001267642002911D17601A319D97082
:10040000A25D002A21D0012200219A70A4193A008D
:100410002800E369984704B080BCB846F0BD760177
:10042000012932D0022942D0464B03293AD0464A0C
:1004300006219A53EAE70F3202409342BED10026CA
:100440000029ECD17601A319D970A519AB78032B3B
:1004500044D032000C32EB6900216878A21898472A
:100460000223AB70D7E70F322A409342AFD1012667
:10047000E6E70F322A409342B2D10226E0E70F327C
:100480002A409342B5D10326DAE7A31998460223FE
:100490004246D370A25D002A13D0052342460221B2
:1004A0009370B3E7A022D2009A530231AEE7042240
:1004B000A319DA70A25D002A0CD0012204219A70DF
:1004C000A4E7424600219370280001F06DFC4346EA
:1004D000D9789BE799709EE700268CE732000C27BD
:1004E0000C3201216878EB69A218EF579847002871
:1004F00011D0164B0234A3536878002F01DB802300
:100500001843012101F050FC85E7012673E702261C
:1005100071E703266FE704230190AB7002906B78BC
:10052000002F09DB802213436A461373012301A8BD
:10053000537301F011FD6EE70F221340F4E7C0463C
:100540001C0000201E00002006060000050200001E
:10055000F0B5C64600B5394D04006B78984256D0C8
:100560002A78002A4FD02123EB5C9C4257D02022CE
:10057000AA5C002A4FD04123EB5C9C4255D040221C
:10058000AA5C002A4DD06123EB5C9C4253D06022D0
:10059000AA5C002A4BD01426012776427F42AE196E
:1005A0003100200001F0A2FCC0B208280BD00121CC
:1005B000200001F0F9FB80200121204301F0F4FB31
:1005C00080BCB846F0BD0021200001F0EDFB802387
:1005D000234300211800984601F0E6FB01237F0128
:1005E000ED19AB70310020006B6998470028E7D106
:1005F000052301212000AB7001F0D6FB012140460C
:1006000001F0D2FBDCE70F3202409A42ABD1002767
:100610007E010C36C3E70F3222409342ABD1012753
:10062000F6E70F3222409342ADD10227F0E70F32B6
:1006300022409342AFD10327EAE7C0461C000020C6
:1006400010B501F045FB002827DB144C7422002173
:10065000200002F016F9FF222121114B62542031B3
:1006600062542031625462706361A361E361636329
:10067000A363E3636365A365E3656367A367E367F8
:100680000020084901F03EFD0120074901F03AFD34
:100690000220064901F036FD002010BD1C0000209C
:1006A000F902000051050000FD020000A103000056
:1006B00003680B600160704703680B60016070475E
:1006C00003000068002801D002681A607047C04625
:1006D000F0B557464E464546DE46E0B5C0270423F2
:1006E000C026FF0542207B609946434A434B0124C4
:1006F0009A620122312536069E62195CA14311439C
:10070000C9B21954595D333881431143C9B259559F
:1007100080215335490079513949A846243559512A
:10072000C8218C4660465E51595CA1431143C9B251
:10073000195414388446195CA53881436046114326
:10074000C9B2195480214046890039502D4945309D
:1007500059515E51195CA1431143C9B21954604605
:10076000195CA5380140102082465046014360467E
:10077000C9B21954102179602349703899629E6278
:10078000195CA1431143C9B2195412388446195C4B
:100790002338814360461143C9B21954202179603E
:1007A0001A49133099629E62195CA1431143C9B280
:1007B00019546046195C2338014050460143604695
:1007C000C9B219544046494639500B4975385951F8
:1007D0005E511A35595DA1431143C9B25955B03420
:1007E000195D81430A43D2B21A55F0BCBB46B246EA
:1007F000A946A046F0BDC0460400004000440041A8
:1008000000010040000200401000004020000040B5
:10081000F0B557464E464546DE46E0B50325C024B2
:1008200080234C2104200127AA46E4055B01636074
:10083000284A294B55469A62284AA8269A625A5C49
:1008400082435A545A5C033882433A43D2B25A54D0
:100850000F2284463530195C91432943C9B219549B
:100860009421894680214846C90021500C382150E6
:100870001B49CA259951C021090699518B466146E9
:100880008046585D884351463843C0B25855153D9F
:10089000585D90430843C0B2585580204946000136
:1008A0006050414660500F4859469851CB206446ED
:1008B0009951195CA1433943C9B21954595D0A4091
:1008C00030210A435A55F0BCBB46B246A946A04661
:1008D000F0BDC0460010024000440041000002C0CC
:1008E0000004004000080040F8B5DE4657464E467A
:1008F0004546E0B500F0E6F98023644D5B022A6AC4
:10090000634F13432B62634B634C7B80FFF7E0FE26
:1009100000226249624800F0EDF80422EB69614967
:100920001343EB6160489046FFF792FC40222B6A2C
:100930005E4913432B625E4B5E487B8000F0F6F805
:10094000FFF766FF80222B6A5B4913432B625B4BE8
:100950005B487B805B4B0F267B80FFF7B9FC562200
:100960004146A35C40468B4303398946A354A35CAC
:100970008A468B4349460B430321DBB2A3541B3AFF
:10098000A35CB3430B43A3545431635C834350468D
:100990006354635C834348460343DBB26354A35C04
:1009A000273933400B43A35480232A6A1B01134386
:1009B0002B62454B7B8000F06FFE444902004448A7
:1009C00000F02EF980232A6A5B0113432B62414B0E
:1009D0007B809B4600F060FE3F4902003F4800F0EC
:1009E0001FF980232A6A9B0113432B625B467B809D
:1009F00000F052FE3A4902003A4800F011F9202274
:100A0000EB691343EB616B69203213436B61364B27
:100A100045467B80FFF714FEC02180238020334AA7
:100A2000C9055B04C0058B60A062A26258224B61BD
:100A3000A35CAB435546A354A35CAB434D462B4349
:100A40000625DBB2A3541C3AA35CB3432B43A35447
:100A500080239B048B60A0622548A0624B615921D2
:100A60004046635C834350466354635C834348461B
:100A70000343DBB26354A35C1E4060231E43A654B1
:100A8000F0BCBB46B246A946A046F8BD00040040F3
:100A9000000C00401E4000000044004100400042A5
:100AA0009C00002000400041A000002000180042EF
:100AB00018400000DC000020001C0042194000002B
:100AC000BC000020134300001B400000002C00422B
:100AD000100100201C400000003000422C010020CA
:100AE00000340042F400002006400000000100C075
:100AF000000200C010B500F09FF810BD002300B543
:100B000085B00191083801A90293039200F06CFCB2
:100B100005B000BD002300B585B00291083801A9D9
:100B20000193039200F060FC05B000BD10B5040015
:100B30004160043000F0FCFB002806DB0020034B82
:100B4000A382034B2361034BE36010BD0080FFFFD2
:100B5000150B0000FD0A000010B5043000F032FC57
:100B600010BDC0460C30086000207047F0B54F46FD
:100B70004646D646C0B5036906005D1C9946037E0D
:100B800044690561DB073DD4037E9B073AD41423F7
:100B900098468044002C07D138E077692000E3684C
:100BA0009847002F32D03C006368A268EB1A93424A
:100BB0002CD34046FFF784FD237C012BEDD17369D4
:100BC00065609A46002B18D018000021A26808E042
:100BD00063445B1B9A420ED903680100002B1BD0B3
:100BE000180087684368BC469D42F1D24F46634473
:100BF000DB1B9A42F0D882450DD121004046FFF719
:100C000057FDCAE70222337E13433376E0BCBA466F
:100C1000B146A846F0BD08002100FFF74DFDBCE736
:100C200010B5040000F0A6FC00232361014B002056
:100C3000236010BD6D0B00000160E0201F4BC00061
:100C40001B685A01024058011D4B1B68DB0E034311
:100C5000FF2003401A434B7EDB09FCD10878800754
:100C600003D50B704B7EDB09FCD101230B704B7E4F
:100C7000DB09FCD10A85032200204A7027328B70E1
:100C8000CB700B758B84CB8488548B804B7EDB09B7
:100C9000FCD10B614B7EDB09FCD10B724B7EDB0977
:100CA000FCD18B834B7EDB09FCD10B844B7EDB09B3
:100CB000FCD1023300200B707047C04624608000D6
:100CC00020608000064B10B55A685A6000F04EF85C
:100CD00000F01EFC00F046FCFF2000F003F810BD01
:100CE00000400041C30708D58023044A5B0093609D
:100CF000034B53605378DB09FCD17047000C004074
:100D0000000501009E234A68016113404B602022C8
:100D10008021074B1860074B5A50BFF34F8FBFF32A
:100D20006F8F0131FF3100205A501A607047C04662
:100D30004801002000E100E001220B4B10B51868CB
:100D40000369197D0A4204D00368002B00D098473C
:100D500010BD197D49080A42FAD002221A7543686B
:100D6000002BF4D1F4E7C04648010020064B1A7A64
:100D7000D2B21A725A7AD2B25A729A7AD2B29A729B
:100D8000DA7AD2B2DA72704700040040324BF0B522
:100D9000CA18920AD2B2053A531E9A41CB695242FE
:100DA000D2B22E4E01615500DB074FD4AB18DB00E9
:100DB000F3185C681C2323409C460327CB691F4221
:100DC000FCD102230F683B420AD00F689F430F609B
:100DD0000327CB691F42FCD10227CB691F42FCD1FC
:100DE000012367461F430F600327CB691F42FCD1D5
:100DF0000127CB691F42FCD103270C60CB691F423E
:100E0000FCD10427AB18DB00F3189B684B60CB695F
:100E10001F42FCD1AB18DB00F318DB68240ECB605B
:100E20000323234083810E4F4B6AA407E40F3B400A
:100E3000A4031C434C620424CB691C42FCD1AD18B2
:100E4000ED0075196B8AC3810020F0BDAB18DB0083
:100E5000F3185C68CCE7C04600F8FFBD942800009A
:100E6000FFBFFFFFF0B5DE464E465746454680239E
:100E7000E0B542885B008B46060001691A4200D04B
:100E800025E25A46584652881A4342803200B0C87A
:100E9000B0C24A68134304224B60CB691A42FCD1AA
:100EA00075680B68012D00D145E14B68B24A1340CB
:100EB00004224B60CB691A42FCD180233788DB00C7
:100EC00072881F4249D0D20702D5728813437380BB
:100ED0000422AA4C7B001C40CB691A42FCD1802220
:100EE0004B6AD2011340802223431202134304228F
:100EF0004B62CB691A42FCD10B7E0324A04ADBB2C1
:100F000004E00B7E013ADBB2002A01D01C42F8D08B
:100F100004240868CA691442FCD101244A8B92B2A5
:100F20001C422FD0930700D440E1802304200C768C
:100F300071885B010B4373807388924922400B4098
:100F400040427380801A73888E4A13407380F0BCCD
:100F5000BB46B246A946A046F0BDFF237C00234015
:100F60000124144004221C43CB691A42FCD1802284
:100F70004B6AD2011340042223434B62CB691A42CD
:100F8000FCD1B9E79B072ED5002D00D1A2E1530774
:100F900000D59FE1C30E013D23407560002D00D0B8
:100FA0004AE1002B0AD180234A68DB021343042262
:100FB0004B60CB691A42FCD1002D08D173881BB25B
:100FC000002B00DA56E173886E4A134073800422C6
:100FD000B468631CB360CB691A42FCD12823CB5C94
:100FE000237002230B767388DB0500D455E10223BE
:100FF0009C46263398468023DB0203250424994629
:1010000030695F4A037EDBB205E0037E013ADBB262
:10101000002A00D1A4E01D42F7D00A689246CA69AE
:101020001442FCD101274A8B92B21F4213D063466F
:10103000134244D080230F7670885B010343738092
:10104000738850483A400340FD307380801A73889B
:10105000DB05D5D47BE7674600201F42F7D07068D8
:10106000002800D11BE1144200D018E15346DA0EEB
:10107000012301381A40706000284AD1002A08D1A3
:101080004A464B6813434B60CB691C42FCD1002895
:1010900008D173881BB2002B00DA77E07388394AD5
:1010A00013407380B268531CB360CB691C42FCD1FF
:1010B0004346CB5C0020137063460B76C7E71442AF
:1010C00000D0F1E073885B0517D506223388DB0971
:1010D0001A40CB691C42FCD180204B6AC0010340FE
:1010E0001343F12213434B62CB691C42FCD173883A
:1010F000254A002013407380A9E7706800280DD1AD
:1011000073881BB2002B6FDB73881E4A13407380F9
:101110009DE70128C6D1002AC4D0B1E74746B2688E
:101120001378CB55CB691C42FCD101380132706079
:10113000B26000208BE7DB0E1D4200D1B5E68023B4
:101140004A68DB02134304224B60CB691A42FCD18C
:1011500080233788DB0072881F4200D1FDE6B2E6AB
:101160005B465B881BB2002B4BDB05207388054A6E
:10117000404213407380EAE6FFFFFBFFFE070000DA
:10118000FFFF0000FFFEFFFFFFFBFFFF4B68664A0B
:1011900013404B60CB691C42FCD1C0234A689B02C0
:1011A00013434B60CB691C42FCD177E7530700D552
:1011B0009EE073885B0534D506230422FF091F4097
:1011C000CB691A42FCD180224B6AD20113401F43E3
:1011D000F12304221F434F62CB691A42FCD173886A
:1011E000524A13407380FEE6C0234A689B021343B1
:1011F0004B60CB691C42FCD173884B4A134073800F
:1012000025E7C0234A689B02134304224B60CB6945
:101210001A42FCD105207388434A40421340738030
:1012200095E6002D0FD173881BB2002B18DB738855
:101230003D4A13407380D6E6012D00D0C7E6002B4F
:1012400000D1C4E6AFE62823B4682278CA54042249
:10125000CB691A42FCD10134013DB4607560C2E62D
:10126000C0234A689B02134304224B60CB691A4295
:10127000FCD1DCE74B682C4A134006324B60FF324E
:10128000CB691A42FCD1C0234A689B021343042253
:101290004B60CB691A42FCD195E6002057E66346C5
:1012A00002200B764042D2E67368002B04DD8023D7
:1012B00072885B011343738073881BB2002B0EDBB3
:1012C00002207388184A404213407380BFE606200C
:1012D00040423CE6022302200B76404233E6C02324
:1012E0004A689B0213434B60CB691C42FCD1E7E781
:1012F000002D04DD802372885B01134373807388A3
:101300001BB2002B06DB02207388074A40421340C1
:10131000738018E6C0234A689B0213434B60042382
:10132000CA691342FCD1EEE7FFFEFFFFFFFBFFFFA0
:10133000214B10B5CB189B0ADBB2042B39D1CB69FA
:10134000DB0718D40322CB691A42FCD102230A68B6
:1013500013420AD00A689A430A600322CB691A42F0
:10136000FCD10222CB691A42FCD10D2303220B606F
:10137000CB691A42FCD10122CB691A42FCD103226B
:101380000E4B01600B60CB691A42FCD1802307220F
:101390009B024B601400CB691C401A42FAD1FF2318
:1013A0000B73CF3BCC542F3B0371054BC380002004
:1013B00010BD0D204042FBE700F8FFBD0C0001000E
:1013C000FF0100000268D369DB0709D4022113681A
:1013D0000B4313600131D3691942FCD100207047DF
:1013E00004204042FBE7C046F0B5DE4657464E4675
:1013F0004546E0B50A6803689446DA6983464C6856
:101400000779520700D080E003252800DA691040F0
:101410001542FAD11A68920700D473E00026012F12
:1014200042D90122914604271D7EEAB22F421AD0EA
:101430009D6A002C03D025702D0A65700234013698
:1014400052B2002A28DB8A688242ECD8B242EAD83B
:1014500003211A7E1142FCD01976F0BCBB46B2467D
:10146000A946A046F0BD8642EAD34D461542E7D0D4
:101470005D46EF886546002D09D02D78AA46654661
:1014800057466D782D022F430225A846C44452B218
:1014900001309F62002AD6DA0122132052425A8379
:1014A00081321A764042D3E704229046033A00265E
:1014B000914647461D7EEAB22F4212D09D6A002C0B
:1014C00001D025700134013652B2002AE4DB8A686B
:1014D0009042EED39642BBD247461D7EEAB22F42DF
:1014E000ECD18642F0D34D461542EDD05D466746BD
:1014F000ED88002F03D03D780127BA46D44401304F
:101500009D62E1E714204042A7E704204042A4E79F
:10151000114A106A116A890F8B07104901400B4369
:101520000F490B43FE2113629369C9030B4002214B
:101530000B4393611F23117F0B4080211377936925
:101540000B4393617F39D368DB081942FBD08021BC
:10155000136A0B4313627047000800400000FF0F3E
:10156000020300000221024A93698B439361704792
:10157000000800403F4BF0B5CB189B0ADAB2D31CF1
:10158000DBB2032B00D16EE0042B00D170E002250A
:10159000052B00D168E00125002400266D42C160C2
:1015A000CB7BDB09FCD10F88BF0703D50B80CB7B3E
:1015B000DB09FCD101230B80CB7BDB09FCD10E8046
:1015C0000B724B81082C41D0002C2AD1AB005D1945
:1015D000294BAD005D19AB890B832B8A4B8301230B
:1015E0004B73264B99422ED0254B994238D0254B30
:1015F000994201D1244B18601232D1B213060ED495
:101600001F2201230A4093408021204A5350BFF3F8
:101610004F8FBFF36F8F0131FF31535013600020A4
:10162000F0BD042CDBD1AB005B19134D9B00ED1812
:101630002B7B0B762B7C4B762B7A0B7501234B7314
:101640000E4B9942D0D1124B1860D5E7AB005D1913
:10165000094BAD005D19EB688B612B69CB61BEE76F
:101660000C4B1860C8E70025DA260824B60096E778
:101670000125F9E700D4FFBDAC280000002C004292
:1016800000300042003400425401002000E100E03C
:101690004C01002050010020002070470122054B22
:1016A00010B51868C368997B0A4202D09A73036820
:1016B000984710BD4C0100200122054B10B5186859
:1016C000C368997B0A4202D09A730368984710BD99
:1016D000500100200122054B10B51868C368997BA2
:1016E0000A4202D09A730368984710BD5401002043
:1016F00000207047FF23F0B5C646134C0025270095
:101700004026984600B51C3FA07AFF280ED0E37A09
:101710001E420BD0AB005B199B00FB182033DA791B
:101720000321B243DA7122683B6998474346013589
:1017300063811434092DE7D160220021034801F0B0
:10174000A0F880BCB846F0BD740100202002002043
:10175000F8B557464546DE464E46E0B50F2504002F
:10176000807C0F000540002942D06B0198465E4BFB
:101770005E4A43445969238A89048E0C31009C4691
:10178000934200D184E0013B33409BB20726E27CC8
:1017900099461640B346564E6B01B2460226534454
:1017A000DE71A3689A4663685144A160994231D2C0
:1017B0005B1A9BB2920600D583E080201A1C800140
:1017C000834268D893B24246994623685B184649DB
:1017D0008A1813614A4641444B6992049B0B920C50
:1017E0009B0313434B614B69424A13404B613DE0FD
:1017F000238A07269C46002399466B019846A368D6
:1018000000219A46E27C636816405144B346A160C9
:101810009942CDD3102313421BD15B46012B4BD0F1
:101820004A22354B43441A70CC4536D0FF280AD0A3
:101830004022E37C1A4206D09343E3742F4B0021ED
:10184000A2681B699847F0BCBB46B246A946A046B1
:10185000F8BDE27C27499A43234BE27443445A691A
:10186000920B92035A615A690A405A61002F08D1BB
:101870005E46013E73425E41214BB6004A36434408
:101880001E701B4B6D019C46802365446B71DAE72B
:10189000B3059B0D7AE7021C94E74022E37C934357
:1018A000E374164BDB6898470028CCD14022E37CD8
:1018B000A07C1343E374B9E74B220F4B43441A70E7
:1018C000B2E71A1C634500D9624693B29946236871
:1018D0004A469C46E068614400F0CAFF434602491C
:1018E000E268CB181A6175E720020020FF030000B0
:1018F00000510041FF3F00F0085100415801002015
:1019000009510041F0B54E464546DE465746E0B522
:101910000F25837C04000E0083B01D40002960D099
:10192000804B6F01DB195A681201920C01925B68BF
:101930009B049B0C9A46038A98467B4B984500D1A2
:10194000A4E04346013B9AB2904652461A40934661
:101950000722C37C1A40914674496A018C460121D2
:101960006244D1719A0650D46368002B00D19AE08A
:10197000002E00D076E0A268019988180200A060CD
:1019800083424ED9E27C1B1A9BB2910600D4AEE092
:10199000228A111C9A4200D9191CE268614B890401
:1019A000DA51890CD81942688903614C22400A43F4
:1019B00042604268920B92034260002E0AD149466F
:1019C0002522012902D1DB199E760832594B9C460B
:1019D00067443A70554B6D019C46402365442B711A
:1019E00039E0038A9846504B984503D04346013B63
:1019F0009BB298460722E37C6F011A409146002271
:101A00009346924601929A06AED56268002A5CD14E
:101A1000DB064BD4002E42D1019BA2689C46624457
:101A2000A2604B46012B2BD0434B9C462523674499
:101A30003B70002D02D13B4BE1681960A07CFF2870
:101A400009D04021E37C194205D08B43E3743B4B22
:101A500000211B69984703B0F0BCBB46B246A946BB
:101A6000A046F0BD228A5A4500D884E71022E37CC4
:101A70009343E3744B46A2685244A260012BD3D136
:101A80002D4B9C462D2367443B70D2E753460722DB
:101A90009B059B0D9B46C37C1A4091465CE7238ABD
:101AA0005B45E3D8B8E7E37CDB06B3D53022E37CC3
:101AB000934320221343E374E2681A4BDA51218ADC
:101AC000D8198904426809096FE7A3682168D21A06
:101AD000C818131C92B25A4500D95B469AB2E16805
:101AE00000F0C6FE6368002B00D041E7DBE7218AE7
:101AF000994209D280229201110093420CD92368A5
:101B00001818084BD8514DE7994202D920210A43B1
:101B1000E2749B04990CF2E7424693439904890CC2
:101B2000EDE7C04620020020FF0300000051004105
:101B3000FF3F00F0095100410851004158010020C9
:101B4000F0B54E464546DE465746E0B5837C83B049
:101B50009C460F23624613406C461E00564A0836C8
:101B60002280564A7401A25C5D01002965D05206AC
:101B7000520F9046C27C47469146514A93460A010D
:101B800052195A44947AE4B2022F5AD00227BA4624
:101B90002740B8465746274217D142465B005B189C
:101BA0001B015B449A726B46595C444B72019C4624
:101BB000444B62449C466544D171297003B0F0BC2B
:101BC000BB46B246A946A046F0BD937A0824BB4363
:101BD00093726B46394A5B5CFF34AA181355394C33
:101BE0002C19237007234C462340012BE6D14026B5
:101BF0002642E3D0C47CE4098C42DFD0324901ABF9
:101C000019806146FF29D9D0002C50D0822140365E
:101C100049005654195D0823FF33D154294B402203
:101C20009846C37C454493432970C374274B82680C
:101C3000002160461B699847C0E707241440A0466E
:101C400098E7013F2742A1D0937A0824BB439372BF
:101C50006B461A4A5B5CFF34AA181355194C2C19B1
:101C60002370194C01AB1C806446FF2CA6D0402485
:101C70004E463442A2D0002915D10626FF3694558F
:101C8000595C0823FF33D1540E4B40229846C37C45
:101C9000454493432970C3740C4B82680421604609
:101CA0001B6998478AE78026C4341655E8E7062161
:101CB000FF315654AEE7C046040800000050004112
:101CC0002002002008510041254A00005801002050
:101CD00010B5304A03219378DB0738D501222D490E
:101CE0008B781A42FCD12C4B2C4A1A605A609A60AD
:101CF000DA601A61FFF7FEFC1F21294B1B685A0BA3
:101D0000980C9B010A405B0F01401F2A3BD09201B7
:101D10001F2900D1023989B2072B37D01B030A4390
:101D2000032113431B4A1385D3780B430C21D37033
:101D3000D3780B43D3700423032113709378194293
:101D4000FCD1184B002053620123138110BD9378FE
:101D50001942FCD1022311780B420CD0117899431F
:101D6000117003220B498B781A42FCD102220949D7
:101D70008B781A42FCD101230321064A1370937811
:101D80001942FCD1AAE7A0225200C1E7A023DB013F
:101D9000C5E7C0460050004158010020F116000080
:101DA00024608000200200200F23F0B51A00CE46E8
:101DB0004746024080B545B2C409034208D013002B
:101DC000002D00DA931C022A03D91220404217E0AA
:101DD0000023012957D0002916D09A00D2183E4B73
:101DE00092009B1826331A780F2313403B4A5B015D
:101DF0009446634498791023A3401840431E9841A9
:101E0000C0BCB946B046F0BD9D003349EA18920007
:101E10008A18263210780F220240314852011618D3
:101E200083204000375CF638A040384229D0822712
:101E3000C0B27F00F0552020A040B946C7B2BC46D2
:101E4000284FB8466746424417700822FF32B75CF5
:101E5000384207D06046B054073AFF3AA24048469D
:101E6000D2B23254EB189B00C9180B0027331A78F2
:101E700007231340012B27D008222031CB7993432D
:101E8000CB710020BCE79A00D318134A9B00D318EB
:101E90001A0026321078114D0F220F31AC46A140A6
:101EA000024050016044C9B2417120210E48A14056
:101EB00084465201C9B26244117008212033DA7994
:101EC00000200A43DA719BE730220633FF33F35CCC
:101ED0001A42D1D0002093E7580100200051004160
:101EE000005000410851004109510041F0B5C6467B
:101EF0000F2300B5164A03405C0112190E00116849
:101F000052689204950C022B1FD8002E1DD0114B45
:101F10009C46802364445B00E35C112B12D10827AC
:101F20001022FF37E35D904600201A4202D180BCA8
:101F3000B846F0BD3000083A00F09AFC434628004D
:101F4000E355F4E713204042F1E712204042EEE768
:101F500020020020005000410F21F0B5DE4645462A
:101F600057464E460A00E0B5037A050058B283464C
:101F700085B01A40194215D01600002800DA961CC8
:101F8000711C8B005B185C499B0088464344994652
:101F9000B3009B199B004344998C58480B00814225
:101FA0000BD10CE0544B9846998C544B994200D17C
:101FB00078E014234344994600264B1E9BB2686880
:101FC00003400193022A00D990E080222B689205F9
:101FD000934205D34A4C1A18A24201D89B076AD0F3
:101FE000B700BB199B0043441B6A002B00D180E063
:101FF0000123009327239A46BC19A4004444A24419
:1020000053461B781B0746D403A8FEF707F9402266
:10201000534611001B7819408A461A423DD12200CE
:1020200040212032D37903A80B43D371FEF7FEF889
:102030002B68009A63616B682720A3615346E361B4
:102040005B46DB0F5201DB0113435F22215C0A4038
:10205000134323546A7A0023002A03D0019B5A4277
:102060005341DBB21021BF19BF00474420371A018A
:10207000FB7948468B431343FB715B460021002BE1
:102080002CDBFFF73FFC002005B0F0BCBB46B2469E
:10209000A946A046F0BD0220F6E703A8FEF7C6F861
:1020A0000120F1E76868002683059B0D0193142346
:1020B0004344994689E75B46002B13DB814200D9F4
:1020C0008EE7019B002B0DD0B700BB199B0043444A
:1020D0001B6A002B0AD0002300938BE7FFF738FB25
:1020E0000020D1E70023B700009383E7122040428D
:1020F000CAE713204042C7E758010020FF03000051
:10210000FF7F002000290BD0002802D1074B9960E7
:102110007047012806D00228FAD1044B1961F7E76D
:102120000349F1E7014BD960F2E7C04658010020AE
:10213000F1160000F0B55746DE464E464546E0B57E
:10214000BE4B85B01A8C91B28A46002A00D1A0E01D
:1021500014235B429B4653460024B94D0193AB4484
:10216000A87CFF2845D001220F231100034099408D
:10217000019E0E423DD0B34EB049B0465B015F18A0
:10218000984408214646FF318C46795C3678B04643
:102190000E40B14646460E422BD01026A1000291B9
:1021A0000919890059448A46B046D04446460391ED
:1021B000F67DB246472651460E40012E5ED051466E
:1021C00049B2002920DB20214E4631422ED149461A
:1021D000490749D4324200D077E0072251460A40ED
:1021E000012A06D14A46120765D44A46D20600D5CE
:1021F000F6E001341435092CB2D105B0F0BCBB4671
:10220000B246A946A046F0BD402249460A421CD02B
:102210008D4901348C4663441A705B46AA680121DB
:102220001B6998471435092C9AD1E6E7864A013490
:102230009446634419705B46AA681B691F39984726
:102240001435092C00D08BE7D7E74A46120732D461
:102250004A46920700D57DE0072251460A40012AEE
:10226000C7D14A465207C0D5280000210134FFF7E4
:1022700067FC1435092C00D072E7BEE749460F32DF
:102280000A4240D140220A42C2D120220A42B0D0A2
:10229000BEE7998B1A8B0A400421114240D1910567
:1022A00018D48021114240D09983684B0021052029
:1022B0005B689847A1E7280001210134FFF740FC43
:1022C0001435092C00D04BE797E701212800FFF7D0
:1022D00019FB8EE75E4A9A839A82923AFF3A1A83F2
:1022E0005C4A13891B071B0F032B00D1A4E0138D3D
:1022F00000211B071B0F032B00D194E0534B03203D
:102300005B68984779E75146093A0A40012A26D086
:10231000614610227A544C498C4663441A7068E72F
:1023200099834A4B1B68984767E770210C0014405B
:1023300011423DD10820104266D1D20700D407E7F0
:10234000434A04209A839A821983404B00215B6898
:10235000984752E701212800FFF7FAF949E74022A0
:102360000A420BD003992031CE799643CE71822157
:10237000802649007E540621FF317A540826029AAD
:10238000121992005A442032D179B143D1710021FF
:10239000304AD2189172917608216F22FF317A5417
:1023A00029498C4663441A705B469B68984720E72E
:1023B000274A998399821A83274A6039938C9B060E
:1023C0000AD4D021D3680B40D02BFBD11F4B002166
:1023D00002205B68984710E7D3681942FCD0F5E704
:1023E000402152461142C9D0029A121992005A4411
:1023F0002032D6798E43D671822280265200BE5476
:102400000622FF32B954B9E7802252009C54104A88
:10241000988399821A83FFF76DF90C4B00210120F4
:102420005B689847E9E6023B5B01D21800231189FB
:1024300013814904490D61E70023F5E7005000418D
:102440006C01002009510041085100415801002051
:1024500001020000200200200008004010B5FEF735
:1024600043FA10BDF0B5C6460E2200B543781F26CC
:102470005B001A4040230F0031001A430400037828
:1024800001201940804688400100C020C0058446D4
:102490005B09DB0182B0634459616B461E4DDA7003
:1024A00001A92800FEF75EFB2800FEF755FB6B46EE
:1024B0000122D91C0198FDF71BFF6B4601A9DF70B3
:1024C0002800FEF74FFB2800FEF746FB6B46012273
:1024D000D91C0198FDF70CFF6A46E719BB7801A9E2
:1024E000D3702800FEF73EFB2800FEF735FB6B4655
:1024F0000122D91C0198FDF7FBFEC0224546237836
:10250000D2051E409446B5405B09DB0163449D61E2
:1025100002B080BCB846F0BDDC000020FF23427052
:1025200083701822C370002301700371437183719B
:10253000C371037243728372C372027342738373F3
:10254000C373037443748374C374037543758375D1
:10255000C3757047F0B5C6460E2200B54378804675
:102560005B001A4040231A4303781F2001211840C2
:102570008140C020C00584465B09DB0182B0634412
:1025800059616B46214E01A9DA703000DD1CFEF75F
:10259000E9FA3000FEF7E0FA012229000198FDF780
:1025A000A7FE002301A92B703000FEF7DBFA3000F4
:1025B000FEF7D2FA012229000198FDF799FE47465D
:1025C000434618379C1C237801A92B703000FEF776
:1025D000C9FA3000FEF7C0FA01340122290001983F
:1025E000FDF786FEBC42EED143461F2101221B7837
:1025F00019408A40C021C9058C465B09DB01634450
:102600009A6102B080BCB846F0BDC046DC00002034
:102610000221F0B51F2601253D4B040019731A68ED
:1026200083B00A431A600278300029001040520932
:10263000D301C0228140D2059A18916080220F04F4
:102640003F0CD2053A43334F090CBC4663449A62AF
:10265000C02212061143996204211B1840331A78D4
:102660002D4F8A431A7032002900237838001A400F
:1026700091400A00C021C9058C465B09DB01634417
:102680009A613200290023781A4091405B09DB01EE
:1026900063446A465961402301A9D370FEF762FA88
:1026A0003800FEF759FA6B460122D91C0198FDF754
:1026B0001FFE6A460A2301A9D3703800FEF752FABA
:1026C0003800FEF749FA6B460122D91C0198FDF744
:1026D0000FFE6A46182301A9D3703800FEF742FAAC
:1026E0003800FEF739FA6B460122D91C0198FDF734
:1026F000FFFDC0222378D20594461E40B5405B09F9
:10270000DB01634420009D61FFF724FF03B0F0BDAF
:102710000018004200440041DC000020F0B5C6462D
:1027200005000B00140000B50F290CD807290DD89F
:102730000C210C27884600220021012C0FD00220FA
:102740002600864314D080BCB846F0BD0D21083B5E
:1027500088460D270122DBB20C39012CEFD19C40B9
:10276000AA1893782800A3439370FFF77BFEEAE74B
:1027700001269E40AA18937876B2334393702800BE
:10278000EF19FFF76FFEBB78022C06D0B343BB7086
:1027900041462800FFF766FED5E71E43BE70F7E707
:1027A000F8B50B000F2918D8072917D800240419E9
:1027B000A57814211D4101248C460C2614270839C4
:1027C0002C4219D1002A27D062469C408218937867
:1027D0001C4394703900FFF745FEF8BD012404192D
:1027E000A578083BDBB215211D4101248C460D263E
:1027F000152708392C42E5D0002A07D09C408619BD
:10280000B3781C43B470FFF72DFEE6E79C408619B1
:10281000B378A343B370F6E762469C40821893787E
:10282000A3439370D6E7C04670B500260C4D0D4CFF
:10283000641BA410A64209D1002600F055F80A4DE9
:102840000A4C641BA410A64205D170BDB300EB581E
:1028500098470136EEE7B300EB5898470136F2E7A8
:10286000F4280000F4280000F4280000F8280000F4
:10287000002310B59A4200D110BDCC5CC454013382
:10288000F8E703008218934200D1704719700133B2
:10289000F9E700000500000014002000000100001E
:1028A000FF0000000000D700008000000300680364
:1028B0000000000000000000040000000000000014
:1028C0000400680300000000000000000400000095
:1028D0000000000005006803000000000000000088
:1028E0000400000000000000F8B5C046F8BC08BCB9
:1028F0009E467047DD000000F8B5C046F8BC08BC35
:082900009E467047B50000007F
:04000003000001599F
:00000001FF
