:10200000008000207D6100006561000065610000C6
:1020100000000000000000000000000000000000C0
:1020200000000000000000000000000065610000EA
:10203000000000000000000065610000D1610000A8
:102040006561000065610000656100006561000078
:102050006561000065610000656100006961000064
:1020600065610000B160000065610000656100000D
:10207000414A000065610000C16000006561000028
:102080006561000065610000656100006561000038
:1020900000000000656100006561000065610000EE
:1020A0006561000065610000656100006561000018
:1020B0000000000010B5064C2378002B07D1054B1B
:1020C000002B02D0044800E000BF0123237010BDA4
:1020D0009000002000000000CC830000044B10B5ED
:1020E000002B03D00349044800E000BF10BDC046E8
:1020F0000000000094000020CC83000010B52C30BC
:10210000044A0378D2689B00985803681B68984774
:1021100010BDC046EC00002010B5072004F066FAA0
:1021200010BD000010B50121072004F013FA064C81
:10213000012220000F2102F05DFE01220E2120006D
:1021400002F058FE10BDC046DC00002010B5064C61
:10215000012220000D2102F04DFE00220D21200061
:1021600002F08EFE10BDC046DC00002010B502005B
:102170000D21024802F084FE10BDC046DC000020A4
:1021800010B502000F21024802F07AFE10BDC046D1
:10219000DC00002010B502000E21024802F070FEA3
:1021A00010BDC046DC00002010B5074C002904D14A
:1021B0000131200002F0E0FE10BD0179200002F0A4
:1021C000CAFE0021F5E7C0460401002010B5040056
:1021D000C068002801D004F09BFF200010BD0369F7
:1021E00010B5002B0DD04369002B0AD00400036802
:1021F000083421001B68984710220021200005F0B8
:10220000C6FB10BDF0B5012189B0062004F0A2F98B
:10221000254C0323254A0621200002F0C1FD2000A1
:1022200002F082FD224802F078FE224802F075FE9C
:10223000214802F072FE602300240493403B059382
:1022400010330693103307931C4B1D4D03931D4F02
:102250001D4B164E21000134019302970096049AFB
:10226000059B2800E4B203F0DBF8062CECD1174BF9
:10227000069A0393144B210001932800079B0297B1
:10228000009603F0CDF8114B069A03930E4B0721ED
:1022900001932800079B0297009603F0C1F82800DD
:1022A00003F031F809B0F0BDDC000020D0010020BF
:1022B00004010020BC000020CC000020DE7C0000D7
:1022C000EC00002019210000A9210000CF7C0000B3
:1022D00070B504000D000020896804F0DEFEE96896
:1022E0002060002004F0D9FEA9686060002004F09E
:1022F000D4FEE968A060002004F0CFFEE06020007A
:1023000070BD70B5040005684668AE4204D0280070
:1023100004F03AFF1835F8E72068002801D004F0EF
:10232000F7FE200070BD0000F0B50400A7B007AEB6
:1023300002F0E9FE21003000FFF7CAFF0DA8144AA1
:10234000144927790B9004F077FF022300220C93A5
:102350000B9B01219A702300059203920E4A0BAD4C
:1023600008330491029239000C4A0195009611A895
:1023700003F076FD280004F007FF11A8FFF72FFFF8
:10238000074B21A81193FFF7BCFF27B0F0BDC04653
:10239000CE7C0000CC7C0000FD200000AC000020C2
:1023A0009C7D000010B50024044BDB6818590434F0
:1023B000FFF7BAFF202CF7D110BDC046EC0000207B
:1023C00010B5FA2401210620640004F00FF9FFF78C
:1023D000E9FF200003F034FF0021062004F006F995
:1023E000FFF7E0FF200003F02BFF10BDC020F0B589
:1023F00040008BB004F088FE06001020002404F09A
:1024000083FE047044708470C470047144718471DC
:10241000C471047244728472C4720473447384730A
:10242000C4733060102004F06FFE0B21FE23C172D4
:10243000047044708470C370047144718471C471F9
:10244000047244728472047344738473C47370603E
:10245000102004F059FE0425062304704570837093
:10246000C470057143718471C471047244728472C2
:10247000C472047344738473C473B060102004F096
:1024800043FED021BE22902381700171C939C270F0
:102490004271047043708371C4710472447281721A
:1024A000C472017344738473C473F060102004F029
:1024B0002BFE182747702227C770C2272623477193
:1024C000032108278370D9330371C03B0373333B67
:1024D00004708571C471047245728772C772437348
:1024E0008173C4733061102004F00EFEC0224221BB
:1024F0003C25C2234170C2702239C271B93A0570BD
:102500008570057143718171047244728772C27261
:10251000047342738773C2737061102004F0F4FD7A
:1025200080231A0003705C234370A2236221C370CE
:10253000863B037109238170032182717C3A4272C8
:1025400003730232043B017283734471C471877256
:10255000C7724273C773B061102004F0D5FD062224
:10256000047044708470C270047144718471C471C9
:10257000047244728472C472047344738473C473A7
:10258000F061102004F0C0FDC021022307228170F9
:10259000037178218023C172827204704470C57007
:1025A00044718471C47104724472037344738473FC
:1025B000C4733062102004F0A7FDC5708435057126
:1025C0008025857278250223C57207250470447022
:1025D000837044718471C4710472447205734473CE
:1025E0008473C4737062102004F08EFD0E251423D2
:1025F0000470837003714470C57044718471C47138
:10260000047244728472C472047344738473C47316
:10261000B062102004F078FDE0220125C270D13AAA
:10262000047044708470047144718471C4710472C4
:1026300045728572C272057345738473C473F06208
:10264000102004F061FD18220470C272447084707E
:10265000C470047144718471C471047244728472D0
:10266000047344738473C4733063102004F04CFD0E
:10267000047044708470C470047144718471C471B6
:10268000047244728572C572057345738473C47392
:102690007063102004F038FD047044708470C470BE
:1026A000047144718471C471047244728472C4727E
:1026B000077344738473C473B063102004F024FD63
:1026C0001E23E0224371A2338372823B0470447064
:1026D0008470C47002718471C47104724472C372D4
:1026E000057344738473C473F063102004F00CFD0D
:1026F0000621817006210223F82241710321C37053
:1027000003710A3341728173047042708271C47123
:1027100004728372C77207734373C47330641020EA
:1027200004F0F2FC04228270FE22022302710F22C6
:10273000047002734470C37044718471C471047274
:1027400044728472C47244738473C47370641020BE
:1027500004F0DAFC0C2319004370022383708223F7
:10276000C37066230371182343710B00023B83720D
:10277000013B04708471C47104724172C3720773A7
:1027800047738473C473B064102004F0BDFC0C2341
:10279000062143700A3B622283709C2341724919CF
:1027A0000470C270027143718471C47104728772C3
:1027B000C772077341738473C473F064102004F00C
:1027C000A3FC70220E23802182700F22C370B233CB
:1027D000417003717D39BE3B047044718471C471D2
:1027E000047241728372C372027343738473C4733D
:1027F0003065102004F088FC42227E238270222261
:1028000043704233C27002714271837106220C23FD
:1028100003210470C471047242728772C772077315
:1028200043738173C4737065102004F06DFC2C2316
:1028300080217022C37034334170827043714E3AEC
:10284000543B81717D3902710470C471047241720C
:102850008372C772077343738173C473B0651020AA
:1028600004F052FC0E23437002238370C370E223F2
:102870000371C43B437103210C2304708471C47140
:10288000047244728372C172047344738473C47398
:10289000F065102004F038FC4222C270422264210C
:1028A0009823027104228170417161390470437070
:1028B0008371C471047241728272C772077342736A
:1028C0008173C4733066102004F01EFC38239C46CC
:1028D000C62282214370634682704271C03AC17041
:1028E0000171C27204708371C47104724472877280
:1028F000057344738473C4737066102004F004FC81
:102900001023047044708470C37004714471847126
:10291000C471047244728472C77204734473847302
:10292000C473B066180004F0EFFB1023C3701823C3
:10293000047044708470047144718471C4710472B1
:1029400044728472C372047344738473C473F066F4
:10295000102004F0D9FB4023102280218370203BFB
:10296000C370037142711E3B0C3A4170C272027314
:1029700004708471C47104724572837247738473E6
:10298000C4733067102004F0BFFB40234370837092
:10299000C370037143713E3B04708471C47104724F
:1029A00043728372C372037343738473C473706717
:1029B000102004F0A9FB202310228370C370DB18C1
:1029C00042700371042280210223047041718471DA
:1029D000C471047247728272C27203734573847346
:1029E000C473B067102004F08FFB0C236621837042
:1029F0000A3BC3708222417118230B21047044707A
:102A000002718371C471047244728472C47201735E
:102A100044738473C473F067102004F075FBE223E1
:102A200083701223C370E03303711F23F821042243
:102A300003724723017081710721427042718372D2
:102A400003731C321F3B427243732832331DC4711F
:102A5000C2728173C473D867102004F055FB0E2135
:102A6000C1700E2180237022017103214370837194
:102A70008572743BC57205734573F51904708270D5
:102A80004271C471037241728173C373E86710208D
:102A900004F03AFBFE25457022258570C57005714E
:102AA0006425042245719825427385711500320012
:102AB0000F23032188320470C47104724372877239
:102AC000C77207738173C4731060102004F01CFB7D
:102AD000F822857042700C212A0033000225817192
:102AE0008272093952198C330470C57005714571B1
:102AF000C47104724172C772077347738273C473DF
:102B00001860102004F000FBF82383710F23FE22CD
:102B100043723300032142709033FA3A0470857097
:102B2000C57005714271C47104728772C7720773F0
:102B300042738173C4731860102004F0E5FA857144
:102B40000F256B4603951D7B87724572C7723D004A
:102B500007734773877337004221FE229437427010
:102B600004708170C17001714171C4710472C473C9
:102B70003860102004F0C8FA42216B460691197E95
:102B8000FE278170C1700171417102210491197C8D
:102B900004708171197B4770417231009831C471A2
:102BA00004728472C472047344738473C4730860BF
:102BB000102004F0A9FA04216B460591197DF82232
:102BC0004170197C02708170197ED82303228371B1
:102BD0006B4608921D329B181A786B4602721A7D5A
:102BE000C1704272427320229B181A78017182735D
:102BF000320044219C324171C4718572C5720573E3
:102C0000C4731060102004F07FFA6B461A7B4021D9
:102C1000427282733200A0328170C17001714171C1
:102C2000047047708771C47104728472C472047333
:102C30004473C4731060102004F066FA6B461A7B6C
:102C40000470C2723200A43244708470C770047180
:102C500044718471C4710472447284720473447345
:102C60008473C4731060102004F04EFA6B461A7D12
:102C700004704272027320229B181A7844704273C7
:102C80003200A8328470C470047147718471C471B9
:102C900004728572C5728473C4731060102004F0CE
:102CA00033FA202230238270C37006229C330371D2
:102CB0006B4607921A7F402142711A7B4170027263
:102CC00020229B181A786B4642730C220992183204
:102CD0009B181A78077082733200AC328471C47109
:102CE00044728472C4720473C4731060102004F0C0
:102CF0000BFA6B461A7B047042723200B032477096
:102D00008470C470047144718471C47104728572DA
:102D1000C572057345738573C4731060102004F089
:102D2000F3F96B461A7D6B461B7D382183716B4628
:102D30001B7B427081700A000372C0216B46C17018
:102D40000171197B33004271B433373A0770C77190
:102D500044728472C272027344738473C1731860C4
:102D6000102004F0D1F96B4624229B181978102307
:102D700083706023C3706B461B7B41700372012319
:102D800003736B461A7F802142731A7B3300B8337A
:102D90000770017144718771C47144728472C47286
:102DA0008273C4731860102004F0AEF924216B46BE
:102DB0005B181B78F02243706B461B7C027083709B
:102DC0006B461B7C8271C3706B461B7C6A46037129
:102DD0006B465B181B78117F437101230372837369
:102DE0003300BC33C47141728572C572057341737F
:102DF000C4731860102004F087F98223382283708E
:102E0000C37003716B4682711A7B44214272320097
:102E1000C032047047704171C47104728472C4720C
:102E2000047344738473C4731060102004F06CF94D
:102E30006B4624215B1819786B464170197CF0228F
:102E40008170C170017124215B181978012303720C
:102E50006B46027082711A7F092342720A22027342
:102E60006A46127F417142733200C432C471857266
:102E7000C3728373C4731060102004F045F9822379
:102E80008370C3700371442343710C3B83716B46A1
:102E90001A7B0470427220229B181A786B46427388
:102EA00024229B181A78477082733200C83210604F
:102EB000C47104728472C4720473C473102004F069
:102EC00023F9382303700C3343706B461B7E8471E7
:102ED00083706B461B7EC471C3706B461B7E45724C
:102EE0000371842343716B461B7D85720372072334
:102EF00043733300CC33C57205738473C473186095
:102F0000102004F001F96B461A7C04704270827044
:102F1000027142711A7B3300D033C7708471C4715F
:102F2000047244728472C272047344738473C473EF
:102F30001860102004F0E8F86B4620229B181A78DD
:102F40006B4642721A7D04708272427320229B1873
:102F50001A783300D43347708470C470047144719C
:102F60008771C4710472C57205738273C47318606B
:102F7000102004F0C9F86B461A7F78234370437120
:102F80006B461B7FC5723500802183710723D835BE
:102F900002708170C4700171C471047244728372D2
:102FA000037344738473C4732860102004F0ACF876
:102FB000C77001276B46F0224772477337000E2512
:102FC0008021C4710472C4720024427042711A7B61
:102FD000DC370570817001718571827202738473B0
:102FE000C4733860102004F08FF8062707708771CB
:102FF0000C27A023077287733700182140228370A3
:103000000371E0379D3BC27043724373417041715D
:10301000C4718472C4720473C4733860102004F0E5
:1030200073F83027457045713500C02187700771EE
:103030000F27E435C17004708471C4710472447246
:103040008472C772047344738473C473286010203D
:1030500004F05AF8C2230C278370603BC370483BCE
:1030600003710F3B437233000225062207720827C3
:10307000E8330570457042718471C4718772C772FC
:10308000077347738473C4731860102004F03CF80E
:10309000FE2383707E3BC37203733300FF22EC3345
:1030A00004704470C570057144718471C4710472F8
:1030B0004472827244738473C4731860102004F0E5
:1030C00023F8E021C1704173310001221E23F03149
:1030D000C272837003730860047044700471447199
:1030E0008471C4710472447284728473C473102036
:1030F00004F00AF88570C570FE250571802585727B
:10310000C572FF2505733500F435047044704471B1
:103110008471C4710472447244738473C4732860EC
:10312000102003F0F1FF0C25C57205733500C02196
:10313000CC23F83541708170C37003714171817186
:103140000470C47104724472847244738473C473CF
:103150002860102003F0D8FF202505724572857283
:10316000C5720573457385733500FC350470447072
:103170008470C470047144718471C471C473286014
:10318000102003F0C1FF02230621042204704470C2
:103190008370C170027144718471C471047244728D
:1031A0008472C472047344738473C473686010209F
:1031B00003F0AAFF10214823882241700F2182705A
:1031C000C370037143716832413B04708271C471F2
:1031D000047243728772C772077347738173C47333
:1031E000A860102003F090FF0F21FF2341720422FA
:1031F00003214370EF3B83704371D03381730470BC
:10320000C77007718371C47104728772C7720773C4
:103210004273C473E860102003F076FFC0223023AD
:103220004270BF3A4272053283708272203B023A8A
:103230000470C770077147718371C4710472C772DB
:10324000077347738273C4732861180003F05CFF2F
:10325000E0220321FF234270D03A82704271417212
:103260000C3A0C310470C77007718371C471047219
:103270008272C772077347738173C47368611020C9
:1032800003F042FFE0214170E02190238822817108
:1032900003218370C27002714371843A8E3B417284
:1032A0000470C47104728272C772077342738373AD
:1032B000C473A861102003F027FF1022FC23827042
:1032C0000F22C370EA3BC2720470447003714371F1
:1032D0008471C4710472447284720473447384737D
:1032E000C473E861102003F00FFF1823E0218370FE
:1032F000E0338371B53B437249338372043BC3723D
:1033000003733C334373853B41700470C77007718E
:103310004771C47104728373C4732862102003F070
:10332000F3FE10228270F022FF2342710F224370BD
:103330000470C77007718471C47104724272847220
:10334000C472047342738473C4736862102003F000
:10335000DBFEF4220271E53A047044708470C4709C
:1033600044718471C471047244728472C4720273B1
:1033700044738473C473A862102003F0C5FEF42262
:10338000027180226B4606921A7E7F23047044707D
:103390008470C47044718471C47104724472827206
:1033A000C272037344738473C473E862102003F021
:1033B000ABFEFF226B4607921A7F202142701A7ED5
:1033C00004708270C02204921A7C0171C2701022B3
:1033D00005921A7D877142710F2242720122039277
:1033E0001A7B062302734373C47104728472C4721D
:1033F0008773C4732863102003F086FEFE2181705A
:10340000F739817204704470C4700471447184711E
:10341000C47104724472C772077344738473C473B3
:103420006863102003F070FEF022F823C2708271EE
:103430000F2203704770877007714771C471027261
:1034400044728472C272047344738273C473A86337
:10345000102003F059FEF022F82342710F2204706D
:1034600043708770C77007718471C47104724272AF
:103470008472C472047342738473C473E86310204B
:1034800003F042FE6B46E0211A7D042341708171F6
:10349000DD3904708270C77007714271C4710472A3
:1034A00041728372C772077343738173C473286454
:1034B000102003F029FEF8226B4642701822E0210A
:1034C00042711A7F04238171DD3904708770C770DF
:1034D0000771C471047242728372C77207734373B7
:1034E0008173C4736864102003F00EFE0423E0218E
:1034F00083724373F8226B4641708271C8391A7F18
:103500008170153941720470C77007714771C471B9
:103510000472C77207738273C473A864102003F027
:10352000F3FD6B46F82242701A7D047042710F223F
:103530008770C77007718471C4710472427284729B
:10354000C472047344738473C473E864102003F07A
:10355000DBFD702343706B4688211A7D0423817044
:10356000C170017141718139437282710470C471FB
:1035700004728772C772077347738173C4732865B7
:10358000102003F0C1FDFE21C170072104704470BA
:103590008770077144718471C471047244728472BB
:1035A000C172077344738473C4736865102003F099
:1035B000ABFDF8220721427042710F220470847023
:1035C000C47004718471C471047241728772C772CD
:1035D000077342738473C473A865102003F094FDCD
:1035E00038216B460591197D6A464170197C04703B
:1035F00081700171197D032341710C2108911431EF
:1036000052181178C4708471C47104724472837248
:10361000C172037344738473C473E865102003F0AC
:1036200073FD6B46197D84700170197C04714170C3
:10363000F821C170197CC4714171197D04728171C6
:10364000197B0F2341728372C172037341738473B8
:10365000C4732866102003F057FD6B461A7C302196
:10366000C27002716A46062381704171117B047039
:1036700047708771C471047247728372C17201739B
:1036800043738773C4736866102003F03DFD6B4677
:10369000197D04704170197CC47081704171197D6D
:1036A000812383726133C372C43B03736B468171A0
:1036B000197B0471C4710472447241738473C473BE
:1036C000A866102003F020FDC82303716B4620225A
:1036D000197D9B18417119780A238372013B04708C
:1036E00047708770C7708471C47104724172C3726D
:1036F000077347738473C473E866102003F004FDF6
:103700006B46197E1F7B81707E210771477187721E
:103710001F7EC170C172047044708471C4710472E0
:103720004472077347738473C4732867102003F0CF
:10373000EBFC6B4637000470447084700471447174
:103740008471C47104724472847200241D7FFC373A
:10375000C570C572047344738473C4737867102092
:1037600003F0D2FC80257E210123017101730470D6
:1037700044708370C37045718471C4710472447263
:103780008572C57243738473C473B867102003F0E5
:10379000BBFC4023C370C3713F3B04704470857011
:1037A000057144718571047243728472C47204732A
:1037B00043738473C473F867102003F0A5FCBE2321
:1037C0005B00F050214B224A1E6005267D3D0470AF
:1037D00044708470C470047144718471C471047243
:1037E00044728472C472047344738473C473043463
:1037F0009A809D60DC60174801F090FA2A00210051
:1038000000960223144801F061FB07232A0001936C
:1038100021000096053B114801F065FB104B2A0082
:103820000193104B210000930F48022301F069FB24
:103830000E4C0F4B0F4A1049200001F05CFD0F4A5F
:103840000F49200003F06CFC0BB0F0BDAC00002071
:1038500020600000DC00002004010020BC000020EB
:103860006D2100004D210000CC000020EC00002064
:10387000952100008121000025210000000000208A
:10388000CD2100000368F7B5002B04DA8468E31843
:103890008360002303604368002B04DAC468E318E4
:1038A000C3600023436006681468350025414368FF
:1038B000A5401C005768761B3C41BC4087681B1B19
:1038C000F619C7688660DB191768C3603E418660D9
:1038D00017680560BE40576886603B41C360576803
:1038E0004460BB400193C36001231768BB400127BC
:1038F0009E4200DA83605268019B9740BB4200DA27
:10390000C76082680B68AD189D4201DD9B1A036099
:10391000C2684B68A4189C4201DD9B1A4360F7BD46
:1039200000B5042805D803F03DFE14050A0F030076
:10393000002000BD7720CB07FBD46630F9E7AA2032
:10394000CB07F6D45538F4E78820CB07F1D4663896
:10395000EFE7FF20EDE700B50300072A0BD81000C2
:1039600003F020FE0804070A0D0F1214C943C9B260
:1039700000E01940080000BD8B431900FAE7194325
:10398000F8E7C9431943F2E75940F3E7C9435940FF
:10399000EDE770B5160004AA15780269C468D21064
:1039A00062438A420BD9046818006418FFF7B8FF15
:1039B00001002A0020783140FFF7CDFF207070BD54
:1039C00073B54C68C5681600E2106A43096851185F
:1039D00008D4072525400124AC400093E2B233000F
:1039E000FFF7D7FF73BD000084B0F8B5040009935A
:1039F0000CAB08921D7800222300079104C307A88E
:103A000046C846C30268201D1A600B990E4AFFF78C
:103A100039FF2369D810E368584303F075FB0600AB
:103A200023692060DF10E3685F43C719BE4206D0F8
:103A300031002800FFF774FF30700136F6E72000F0
:103A4000F8BC08BC04B01847F07C000010B50400B6
:103A50000068002801D003F05FFB200010BD0000CB
:103A6000F0B587B01F000CAB1B78060002930DABBE
:103A70001B7804910393002A01DABF1800223369EE
:103A8000D119994201DD9F1A013F93424ADD002F6F
:103A900048DD0499002945DBF3688B4242DD0724A9
:103AA000D5105D4314406D18002C15D008221E4B14
:103AB000141BE4B21A5DBC4203DDFF23E11B0B4182
:103AC0001A40002D06DB039B290000933000029B67
:103AD000FFF75FFFF368ED18BC4223DC3C1B072CAB
:103AE00011DD2700002D07DB039BFF220093290037
:103AF000029B3000FFF74DFFF368083FED18072FDA
:103B0000F0DC07231C40002C0CD0002D0ADB072220
:103B1000064B14401A5D039B290000933000029B62
:103B2000FFF737FF07B0F0BDF87C0000007D000014
:103B300084B0F0B506000D000C0087B00F9311ABF8
:103B40001B780D91029312AB1F780E920F9B03937B
:103B5000EB18A3420ADD029B210000930E9A019705
:103B6000109B3000FFF77CFF0134EFE707B0F0BC9B
:103B700008BC04B01847F0B599B01C001EAB1B7808
:103B8000070004931FAB1B780E00019320AB1B783A
:103B90000025029301231B1B039363005B420092E9
:103BA0000593A54278DA039B002B08DB059B013CBB
:103BB00002330593059A039B9446634403930135AE
:103BC000039A6B000133D31804220393049B13421E
:103BD00015D073190A93009B019AE3180B930AA955
:103BE000029B3800FFF7ECFEA3190893009B019A93
:103BF0005B19099308A9029B3800FFF7E1FE022236
:103C0000049B134215D073190E93009B019A1B1B42
:103C10000F930EA9029B3800FFF7D2FEA3190C9355
:103C2000009B019A5B1B0D930CA9029B3800FFF7C8
:103C3000C7FE049B1B0715D5331B1293009B019AEB
:103C40005B19139312A9029B3800FFF7B9FE731B8F
:103C50001093009B019AE318119310A9029B38005E
:103C6000FFF7AEFE049BDB079BD5331B1693009B2F
:103C7000019A5B1B179316A9029B3800FFF7A0FE61
:103C8000731B1493009B019A1B1B159314A9029B91
:103C90003800FFF795FE84E719B0F0BDF0B597B096
:103CA0001C001CAB1B78002505931EAB1B780392F0
:103CB00006931FAB1B7862000793012352420892C0
:103CC0001D9A0490D21802911F1B09920B93A542D2
:103CD0005EDA2600002F04DB089B661E0233089381
:103CE000FF1801356B000A930133FF18AE4223DB46
:103CF000059B0B9A13420DD0029B09985919039BFF
:103D00009A1B73001B18079801900698009004985E
:103D1000FFF7A6FE0222059B13420DD0029B0998D5
:103D2000591B039B9A1B73001B1807980190069858
:103D300000900498FFF794FEB44227D0059B0B9A9D
:103D400013420FD0029B0A98E118039B5A1C1D9B3B
:103D5000521B013B1B18079801900698009004988D
:103D6000FFF77EFE0222059B13420FD0029B0A98AA
:103D7000191B039B5A1C1D9B521B013B1B180798C8
:103D80000190069800900498FFF76AFE34009EE7C1
:103D900017B0F0BD84B0F0B50600080093B01F0066
:103DA0001B931EAB1B781C9D05931FAB1B781991B1
:103DB0001A92069308900992AF423DDAFC0FE4197B
:103DC00064101D9B24B29C4200DD1C00069A089BD7
:103DD00002921B19059A07936300FB1A0192009542
:103DE0000799099A3000FFF7A3FE089B3000DF19FE
:103DF000099B391B1F196300ED1A069B013D0393B4
:103E0000059B3A0002930123013900930195230099
:103E1000FFF744FF069B01950393059B07990293C7
:103E200002233A00009330002300FFF737FF13B05E
:103E3000F0BC08BC04B01847EC0F6419C0E7F7B534
:103E4000009308AB1F7809AB1B780193002919DB9D
:103E500003695518C268DB1053439D4212D80468A9
:103E6000651964180E1BA119A5420BD03800FFF785
:103E700057FD0099019A01402078FFF76CFD2070F2
:103E80000134F0E7F7BDF0B587B005921A000CAB2E
:103E90001B7803930DAB1E78002901DA521800211C
:103EA000C4688B18A34201DD621A013A8C4216DD08
:103EB000002A14DD059F002F11DB0369BB420EDDD4
:103EC00007233B409C4601236546AB40FF107C43E3
:103ED0006118039CDBB201960094FFF7B0FF07B0B6
:103EE000F0BD84B0F0B58BB00290129210001A00B1
:103EF000139315AB1E7816AB1F78119113000200B7
:103F00001498994211D1824201DD12901492149BAF
:103F1000129A01979B1A009611990298FFF7A0FD3B
:103F20000BB0F0BC08BC04B0184782420FD19942D4
:103F300001DD11931391119A139B110003930197C3
:103F40009B1A0096129A0298FFF79DFFE8E7841AE1
:103F5000E51764196C4003945C1AE51764196C400A
:103F60000494039C2500049CA54203DD1192129148
:103F700013901493119B139A934205DD1299139396
:103F8000149B119212931491139B119A05939B1AEF
:103F90001D00149A129BEC0FD11AC8170918414042
:103FA0006419069164109A4221DD01230593139A46
:103FB000119B07929342B3DC039A04998A4219DD5C
:103FC000129A099308923B00320008A90298FFF761
:103FD000F7FC069BE41A06D5059A129B94460793B4
:103FE000634412936419119B01331193DFE701239A
:103FF0005B42DBE73B00320011A9E7E7F0B589B08F
:104000000C000EA940C90978039110A90978049100
:10401000002C28DB0169C568C910694312198A425E
:1040200021D805689E19AA1801921A1B05950692B7
:104030000792059B019A1B199A4214D0069B1B19E3
:104040009E4210D02B5D21000293079B03981F5DB9
:10405000FFF766FC0100049A39400298FFF77BFCE9
:1040600028550134E5E709B0F0BDF0B58FB01C006C
:1040700014AB1B781600099315AB1B780D920A93AD
:1040800016AB1B78E2680B9301239340099A0893BF
:1040900023790700D31A62790C910791A56893429E
:1040A00005DC22689B009B580593002B15D10898CE
:1040B000A840C01003F028F80123E26800219340D3
:1040C000A268049093400200DB10C318934202D010
:1040D00011700132FAE7049B0593079B002B3EDB2E
:1040E00001221300AB400799FD680693EB1A8B423F
:1040F00035DB002E33DB3B6908995B1AB3422EDBBC
:10410000F6107543079B059EED180792E268079B22
:104110009340A2689340059ADB10B21A934210DDD7
:104120000B9B290002930A9B069A0193069B380079
:1041300000933300FFF762FFFB68ED18069BF6184B
:10414000E4E7099A2379D31A6279934204DC22685E
:104150009B009B58002B02D1049802F0DDFF0FB0AA
:10416000F0BD0000F8B51D0003001600040085C96D
:1041700085C30A6820001A603100054AFFF782FBF8
:104180002A00310020000832FFF77CFB2000F8BD38
:10419000F07C0000F7B50192002208AC26880AAD39
:1041A00009AC0BAF2D783F7824784261019A4773B0
:1041B000468185734260016003720473FEBDF0B5F1
:1041C000478985B005000068FCB203AB3F0A1C704C
:1041D0005F70002807D06C7B00930194012300F0EE
:1041E000B8F805B0F0BD6E68301EFAD0287A844663
:1041F000687B6546032D09D1023DAF431F705C709B
:1042000040190090300000F061FAEAE7002D03D178
:104210007F352C401C70F4E7022D02D1823D2C43E7
:10422000F8E7012DEDD17E352C403F3DF7E770B525
:104230000300002A00D1027B0020042A15D85C006C
:1042400059619818141983420AD09E7BCDB2002E72
:1042500004D1261AF573090A0138F4E78573FAE7E1
:10426000190018000F31FFF7AAFF70BDF0B546899D
:1042700085B004000068F5B20B00360A03A9944625
:104280000D704E70002808D0627B002401946446B3
:10429000009400F0C3F805B0F0BD6768381EFAD08E
:1042A000207A627B03280CD1023806430E704D70D1
:1042B0001218FF20019060460090380000F026FAA6
:1042C000E9E7002802D18038054303E0022803D142
:1042D0007D3005400D70ECE70128EAD14138F3E765
:1042E000010010B50F31027B0400FFF7BFFF00286B
:1042F00011D00020227B6100A31852189C420CD0E0
:10430000A17B0002002903D1997B0843013BF5E71B
:10431000D11AC97BF9E70120404210BD016002714A
:104320004371704770B5050000680C00FFF7D8FFB7
:1043300001212B796E79994001390B00B34021405E
:1043400098430300B14028681943027BFFF76FFFD1
:1043500070BDF7B5099D160001935319C26804009A
:104360000F00934201D90020FEBD0178406800F0A3
:1043700041FA002D0FD160683200036839005B6894
:1043800098478642EFD10199606800F0A2FA434253
:104390005841C0B2E8E7089B002BECD060682A00C7
:1043A000036808995B689847A842DCD1E3E7F8B551
:1043B00005000F0016000178D2B2406800F037FA0D
:1043C000002486420AD1A64207D9686803685B695F
:1043D000984738550134A4B2F5E701242000F8BD10
:1043E000F7B507001600002400910193B44213D2E0
:1043F000FB68351B9D4200D91D00721B019BA24228
:1044000000D90023009A380011192A00FFF7CFFFC6
:10441000002802D06419E9E70120FEBD73B504004D
:1044200000201D0006AB40CB1B78019000902000BF
:10443000FFF78FFF002805D001233200290020005C
:10444000FFF7CEFF76BDF8B51E0006AB1D78FF2343
:1044500043740374C373079B1700036003000022B7
:1044600034330400426081731A70082002F048FE61
:104470000760057146716060A76026736573200050
:10448000F8BD70B504000E202056431C07D0C0B202
:10449000012102F05FF8A07B012102F0A7F8256856
:1044A000002D07D02B682800DB6A984701203434A0
:1044B000207070BDE07B012102F04CF8637BE07B53
:1044C0002900012B00D9012102F090F8102020567C
:1044D000431C07D0C0B2012102F03CF8207C01212E
:1044E00002F084F811202056431CDFD0C0B2002116
:1044F00002F030F8DAE70000F0B50400006889B097
:104500000E001500002804D003681B69984709B005
:10451000F0BD8022237B0292002B01D10133029354
:10452000029A3378A16813405A4253414948DBB29A
:10453000059303F041F86B4601901B7903937319BF
:104540000793079BB342E2D000273378029D06937E
:10455000039B002B04D0FF230198184001F092FE2A
:104560000221627BA3698A4346D11022A2560132FE
:1045700012D0069929400A00501E824105980491E4
:10458000824209D0606A6269844600292ED011688F
:1045900001431160012205921A68E16A0A431A6018
:1045A000039B002B04D0FF230198184001F06AFE02
:1045B0001123E356013306D0E369A26A1B681A424D
:1045C00001D02F43FFB2A269E16A13688B431360E5
:1045D0001123E356013300D03770237B002B37D1F2
:1045E0006D00EDB2002DB3D10136AAE76146106827
:1045F00088431060049ACEE71A68E16A0A431A6099
:10460000039B002B04D0FF230198184001F03AFED1
:104610001023E356013307D0069A6369616A154295
:1046200013D01A680A431A60A269E16A13688B43BF
:1046300013601123E3560133CAD0E369A26A1B68F1
:104640001A42C5D02F43FFB2C2E71A688A43EAE78D
:104650006D10C6E720A1070013B56B46DC1DD971AC
:1046600001222100FFF748FF207816BD036810B52E
:10467000002B06D0426819681800CC69116852688E
:10468000A04710BD006810B5002802D003681B6A5F
:10469000984710BD10B5807B40B2431C03D0C9B20F
:1046A000C0B201F0A3FF10BD10B50400FFF7DEFF9C
:1046B00000212000FFF7EEFF10BD10B5040001211E
:1046C000FFF7E8FF2000FFF7DDFF10BDF7B51D0085
:1046D00006000C000192FFF7E7FF089BEF18BD42B0
:1046E00009D1019BE518AC420BD021783000FFF7CF
:1046F000B3FF0134F7E729783000FFF7ADFF01354C
:10470000EDE73000FFF7D9FF0120FEBDF7B50093BC
:1047100008AB40CB0C001B78170005000193FFF796
:10472000C3FFE719BC420AD1009CA619B4420CD0C1
:1047300001992800FFF790FF20700134F6E72178F7
:104740002800FFF789FF0134ECE72800FFF7B5FFE9
:104750000120FEBD00207047F8B505000E001700CF
:104760000024BC4208D02B68315D1B6828009847A4
:10477000002801D00134F4E72000F8BD006E704736
:104780007047036E002B03D0C36DC018007E7047C6
:1047900001204042FBE70000F7B50193FA23002512
:1047A000402604009B008360114B0F0008334560D6
:1047B0000360290000921830320003F0E8F820006E
:1047C000A5653200E56529002566643003F0DFF851
:1047D0002300A4331D605D609D606B461B782761DC
:1047E00023756B461B79A57520006375FEBDC04619
:1047F000087D0000837D002B01D00020704702005F
:10480000B03211700C3A13605360936001238375CA
:10481000F4E7836C402B09D03F22036CC154036C36
:10482000013313400364836C013383647047F7B52D
:1048300000250400170001932800AA4226D0A56590
:104840000122E5652069256602F09AF8A8421CD08D
:1048500026001836206902F01DF9013501003000EC
:10486000FFF7D7FF2069AF4206D002F069F80221B6
:10487000206902F06FF8EDE702F05AF8019B002B77
:1048800003D00321206902F065F8E8B2FEBD0023E1
:1048900010B5827D9A4208D00200AC321268402ADC
:1048A00003D06430FFF7B5FF0123180010BD836CFF
:1048B000002B0BD03F21436CC25C436C01330B4097
:1048C0004364836C013B83641000704701204042C5
:1048D000FBE70300002270B5B033827504000E00C0
:1048E0000069197802F04CF8002806D103212069EC
:1048F00002F030F80225280070BD2300AC331D689B
:10490000002D10D0200064302569FFF7D0FFC1B220
:10491000280002F077F80028EFD10321206902F087
:1049200019F80325E7E7002EE5D00321206902F0FE
:1049300011F8E0E710B51830FFF7B9FF10BD70B5FA
:104940000400006902F084F8002814D0206902F005
:104950008DF8002810D0206901F0F2FF03212069B2
:1049600001F0F8FF2300B8331D68002D32D1002379
:10497000A365E365236670BD206902F081F8002815
:1049800009D0206902F077F8002804D0206902F0ED
:104990007CF80028DFD0206902F072F800281FD1CF
:1049A000206902F05EF80028E5D0206902F06DF879
:1049B00000282FD02300AC331B68FF21002B04D02C
:1049C00020006430FFF773FFC1B2206902F032F8B3
:1049D000A075D0E7236820001B699847A847C6E761
:1049E000206901F0ADFF2069032101F0B3FF2069C8
:1049F00002F04BF80028BED022000023A43213603E
:104A0000536093600133A375B4342368002BB2D094
:104A10009847B0E7236E2069402B06D101F088FF4C
:104A20000321206901F096FFA5E702F033F80100A9
:104A300020001830FFF7EDFE206901F081FFEFE75D
:104A400010B50248FFF77BFF10BDC04614010020DF
:104A500010B51523142202490248FFF79DFE10BD30
:104A6000980600201401002070B506000C008D1877
:104A7000AC4207D0336821789B683000984720709B
:104A80000134F5E770BD7047704710B50400406809
:104A900001F01CFF0023237610BD10B5406801F023
:104AA0003AFF10BDF8B5050040680C0001F02EFF7C
:104AB0002B68E7B2260A9B68012810D1390028002C
:104AC000FF2798472B68BC4304439B6831002800AC
:104AD0009847030220003840184380B2F8BD3100E7
:104AE00028009847FF262B680002344004439B6847
:104AF000390028009847B4432043EEE710B504007E
:104B000002F006FB200010BD10B54B1C0BD0102985
:104B100009D0EFF3108472B6102905DD0223437625
:104B2000002C00D162B610BD0123427E1A434276AA
:104B300018224A430449891816228A569340C269AA
:104B40001343C361ECE7C046B47D00004B1C17D093
:104B5000102915D0437E9B0712D4EFF3108272B652
:104B600018234B430749C9180123897D49B28B405B
:104B7000C1699943C16100D14176002A00D162B672
:104B80007047C046B47D0000437E002B05D09A07D5
:104B900004D5837E002B00D062B67047DB07FCD5BE
:104BA000C369024A9BB2D360F7E7C04600180040D1
:104BB000037E002B04D143768376C36101330376F1
:104BC000704700007FB5036902AE04000D0002913A
:104BD00072608B4203D1828AB3889A4226D0200029
:104BE00006223100103002F0B6FE606801F085FE4A
:104BF0007379E17A013B581E8341227B0093606800
:104C0000002301F0E1FF33790021013BDBB2022BED
:104C100001D8074AD15C074B2A009D4200D91A00EF
:104C2000606801F03BFE606801F05DFE7FBDC0463C
:104C30002C7D0000001BB70070B518260400FFF79C
:104C4000B7FF33000821207A0D4D4343EB18595626
:104C500001F0F8FC33000821A07A4343EB185956C1
:104C600001F0F0FC0821607A4643AD19695601F065
:104C7000E9FC044B200006CBFFF7A4FF70BDC04643
:104C8000B47D0000F001002007B5437E0091019241
:104C9000002B07D09A070AD5EFF310835A425341ED
:104CA000837672B60099019AFFF78CFF07BDDB0788
:104CB000F8D5C369014A9BB29360F3E7001800403E
:104CC0000E490F4B10B501220B6000234A710B7186
:104CD0000C490D48083101600C49427541600C498E
:104CE000C27201811821036181720375094A0A4960
:104CF0000376037302F014FA10BDC046F0010020E1
:104D000000093D00307D0000D0010020A0060020F9
:104D10001617000000000020894A000000230360ED
:104D20004360103303727047F0B5466893B00400D7
:104D3000002E33D0036800220521012500270493AB
:104D400000F046F802233200019300905B190499A9
:104D50000395029706A8FFF71DFA2268667A049267
:104D600062680521059267723A00200000F030F871
:104D7000022300900193059A5B1904990395029709
:104D80000CA8FFF707FA2A00082166720CA8FFF7A3
:104D90004EFA2A00082106A8FFF749FA13B0F0BD21
:104DA000F7B506004372382017000D0002F0A8F98D
:104DB0000023040069B201970093044A0133FFF70E
:104DC00042FB74602000FFF75CFBFEBD40420F0019
:104DD000037A89B2082B01D9490011434368002B9B
:104DE00006D0437A80205B02C0011843014389B298
:104DF000080070470723F0B58B42BF4197B07F4250
:104E000005920E003A00002101240500FFF7E0FFA3
:104E100000220090029203236A6829680394019497
:104E20000AA8FFF7B7F93A0006212800FFF7D0FFDC
:104E3000002200900292039406CD0194032310A84F
:104E4000FFF7A8F907231E40330022000AA906A88D
:104E5000FFF764FA2200330010A908A8FFF75EFAF2
:104E6000059B06A8591E4B1E9941FFF75BFA059B4F
:104E700008A8991E4B425941FFF754FA17B0F0BDEC
:104E8000F0B507278FB005928F4292410C00524235
:104E9000092101250600FFF79BFF06CE00230090A5
:104EA000029303950195033308A8FFF773F92300D4
:104EB0002A003B4008A906A8FFF730FA059906A882
:104EC0004B1E9941FFF72EFA0FB0F0BD30B503AC81
:104ED0002578FF2404710024C5708460C4600170CB
:104EE0004270837030BD70B504AC267805AC25786F
:104EF0000024C67005718460C460017042708370C4
:104F000070BD10B5FF248370029BC4708360039B47
:104F1000047101704270C36010BD70B504000500DB
:104F2000C61C2878FF2802D0012101F013FB0135AF
:104F3000B542F6D1E078FF2802D0012101F00AFB4A
:104F40002079FF2802D0012101F004FBA368002B87
:104F500000D0984770BDF8B505000E000024012769
:104F6000285DFF2804D031002141394001F03EFB8B
:104F70000134032CF4D1F8BD10B5C368002B02D066
:104F80000800984710BDC078FF28FBD001F02EFB29
:104F9000F8E7000082600022C360084B82B008334B
:104FA0000360059B01710361039B4361049B836163
:104FB000029BC361431CDA7702B070476C7D00002E
:104FC00070B504000D004369002198472000A369D3
:104FD000012198472000636901219847E069290071
:104FE00003689B689847636900212000984770BD5B
:104FF0004B1E994110B5AE31FFF7E2FF10BD70B501
:105000000D0004008121FFF7DBFF29002000FFF7DE
:10501000D7FF70BD70B5040016000D004369002174
:1050200098472000A3690021984720006369012167
:105030009847E0693200036829001B699847636953
:1050400000212000984770BDCB68F7B5DDB20400A1
:105050000E00002D37D00B69DA10D3B20093002B6D
:1050600031D00369DF794B68DF198B68FFB2D91043
:10507000CBB221210193FFF7A3FF7F21200039400C
:10508000FFF79EFF7F23691E79180727194020002C
:10509000FFF796FF22212000FFF792FF01992000E1
:1050A0003940FFF78DFF009A019B94466344190035
:1050B000013939402000FFF783FF009A31686A43C5
:1050C0002000FFF7A7FFF7BDF8B5040043690E0005
:1050D00000211700984700212000A369984701216B
:1050E0002000636998470025BD4207D0E069310080
:1050F000036801359B689847ADB2F5E76369002105
:1051000020009847F8BD10B504002121FFF758FF93
:1051100020000021FFF754FF20007F21FFF750FF00
:1051200020002221FFF74CFF20000021FFF748FF5D
:1051300020000721FFF744FF80220021D200200039
:10514000FFF7C2FF10BD3F230B40402110B51943AC
:10515000FFF736FF10BD70B50D0004002021FFF7EA
:105160002FFF29002000FFF72BFF70BD4B1E994138
:1051700010B5A031FFF724FF10BD4B1E994110B5AB
:10518000A631FFF71DFF10BD70B50C00A82105006A
:10519000FFF716FF3F2128002140FFF711FF70BDE8
:1051A00010B5C823002900D1083B1900FFF708FFFC
:1051B00010BD70B50C00D3210500FFF701FF3F21A2
:1051C00028002140FFF7FCFE70BD70B50C00D52112
:1051D00016000500FFF7F4FE0F210C4031012143BA
:1051E0002800C9B2FFF7ECFE70BD70B50D000400D9
:1051F000D921FFF7E5FE29002000FFF7E1FE70BD91
:1052000070B50E00DA2105001400FFF7D9FE122157
:10521000002E00D11039631E9C41640128002143F7
:10522000FFF7CEFE70BD10B50400DB21FFF7C8FE0E
:1052300040212000FFF7C4FE10BD70B50D008D2188
:105240000400FFF7BDFE5021002D00D140392000A1
:10525000FFF7B6FE70BD10B50400AE21FFF7B0FE3B
:10526000236920005A7A197AFFF7AFFF23692000DB
:105270001979FFF789FF236920009979FFF799FFD2
:10528000236920001978FFF75EFF23692000997BCE
:10529000FFF7D3FF20000021FFF75DFF2369200007
:1052A0009978FFF763FF236920005979FFF778FFAA
:1052B000236920001A7BD97AFFF7A2FF2369200017
:1052C000997AFFF792FF23692000597BFFF7ABFF24
:1052D0002000A421FFF774FE23692000D978FFF78E
:1052E0004CFF236920005978FFF789FE2E2120000A
:1052F000FFF766FE10BD8360002301604260C3605B
:1053000003614361704770B504000368984700204B
:1053100063689847A36801209847012000F090FF38
:10532000A368002098470A2000F08AFF0120A368A4
:1053300098472669E568AE4203D001CDFFF78BFFA1
:10534000F9E7012000F07CFF012063689847012005
:1053500000F076FF2669E568AE4204D0012101CD58
:10536000FFF746FEF8E7642000F06AFF2569E4686D
:10537000A54203D001CCFFF7C6FEF9E770BD0000DF
:10538000F0B54368076885B0DB1B05000291140087
:105390009B100126002B00D01E00029A9E19D71BDD
:1053A0001E4AB34233D8964231D8002E30D10196EE
:1053B000019BDF19002F01D023683B602F68029BFF
:1053C000DC1B9F4204D022003900019802F0CCFA85
:1053D000019B04341C19029A6B689A1A0392029A70
:1053E000934204D0039A0299200002F0B4FA039B7E
:1053F000E418002F02D0380001F08AFE019B019AC8
:105400002B60B300D3186C60AB6005B0F0BD160024
:10541000B00001F075FE0190CAE7C046FFFFFF3FF4
:10542000F0B58BB008AD05932B0004920F0004A9D2
:10543000040005C905C3242001F062FE0600139B89
:1054400039000393129B089A0293119B0193109BBE
:1054500000936B68FFF79EFD216963690796994287
:1054600006D0002900D00E60043121610BB0F0BDE0
:10547000200007AA0C30FFF783FFF7E773B58468B5
:10548000C368002C07D1002B05D1013301604260B5
:105490008360C36073BD056846686419F318013CF6
:1054A000013B8D420BDD01600168641A01348460A8
:1054B000964208DD426042689B1A0133E9E78C425C
:1054C000F2DA0C00F0E79342F5DA1300F3E7F0B5F7
:1054D0000B6891B005000C00026B002B04DA8968A0
:1054E000CB18A360002323606368002B04DAE16813
:1054F000CB18E360002363602668916830000841A0
:10550000636888401900D768361A3941B940A768DE
:105510005B1AF619E768A660DB199768E3603E41FD
:10552000A66097682060BE40D768A6603B41E360F4
:10553000D7686160BB400593E36001239768BB4077
:1055400001279E4200DAA360D268059B9740BB42C8
:1055500000DAE760A2686B6A8018984201DD9B1A46
:105560002360E268AB6A8918994201DD9B1A636087
:105570002000EB692268083099182B6A626807914D
:105580009A18089209ABC0C8C0C32B004E331B78D1
:105590000BA80293AB6901930A9B05930093099BA7
:1055A000FEF722FA2B680BAA210028005B689847B7
:1055B0006B680BA9280098470BA8FEF747FA11B0B3
:1055C000F0BD826870B5C368002A08D1002B06D1EF
:1055D000030014C914C301238360C36070BD056850
:1055E00044680E685219E318013A013BB5420CDDDC
:1055F00006600568521B013282604A68944208DDE9
:10560000426042689B1A0133E7E7B242F1DA3200A6
:10561000EFE79342F5DA1300F3E70000F7B5060071
:105620001700040015000191019B9C4208D0002D39
:1056300003D02100280001F01BFE18341835F3E7D1
:105640001820A41B034EE4087443E400E4086043FC
:105650003818FEBDABAAAA0A030050331A788A4252
:1056600007D0197000238360C360436A0361836AB3
:1056700043617047F0B597B01D0005931C9B060071
:105680000F0014000492002B13D1036B0692D9680B
:1056900001238B40042102911C995B19099301910C
:1056A00000932A0021002300380007950894FEF794
:1056B00018FC736B1C9A013B934217D10122316B8A
:1056C00013008868C96883408A4004210291002140
:1056D0001B19013B52190D920191009219002A00E9
:1056E00038000A930B950C93FEF7FBFB1D9B002BD8
:1056F00012D1336B2A00996801238B400421029157
:105700001D991B1901910095210038000E940F95E9
:1057100010931195FEF7E5FBB36B1D9A013B934285
:1057200014D10123316B1A00C868896882408B400C
:105730000421029100215219013A01911B19009292
:105740002100380012941392FEF7CBFB17B0F0BD86
:10575000F0B50F00016B8FB006927B68CA68040039
:105760001341DBB20A938B68B96800251941FB68C5
:105770000791134108930A9BEB18DBB20493089B33
:10578000AB4242DD236B3A689B6800261A41D3B2D4
:105790000B931823049A534309930B9BF318DBB222
:1057A0000593079BB3422DDD3100236B9A68D868BF
:1057B00091402A00824020000C910D9250300078D8
:1057C0009C46029020004F300078099B0190206C8D
:1057D000C058059BC05C634600900698FEF745FCE8
:1057E00023003C331B78002B09D0049B0C9A0193B7
:1057F000059B0699009320000D9BFFF73BFF0136A8
:10580000F6B2CAE70135EDB2B5E70FB0F0BD000062
:10581000436810B504681C1B094BE4106343094C32
:10582000E01A884202D2100001F0FCFD994200D239
:105830001900C818834201D8A04200D9014810BD00
:10584000ABAAAAAAAAAAAA0AF7B58368466804005E
:1058500000919E4208D0002E02D0300001F008FDD9
:10586000636818336360F7BD204A0121FFF7D0FF5A
:1058700023680500F31A0193002827D01C4B984297
:1058800001D901F0C9FD1820684301F039FC070077
:10589000019BF818002802D0009901F0E9FC3100C2
:1058A0003A002068FFF7BAFE020061683000183243
:1058B000FFF7B4FE6368266801900093009BB34233
:1058C00006D0300001F060FC1836F7E70700DFE78C
:1058D0002068002801D001F01BFC019B2760636059
:1058E00018235D437D19A560BDE7C046787D0000A3
:1058F000AAAAAA0AF0B5A3B00191002107001022BC
:1059000018A815911691179102F041F800220A216A
:10591000019801F0E5FC0400431C12D003000022B2
:1059200001991CA801F064FD1CA915A8FFF78CFFC4
:105930001CA801F029FC621C0021019801F0B2FCB6
:10594000E4E7179B169E03939E424DD0002E03D092
:105950000199300001F0FCFC169B0193183316935B
:105960003A00159B169C4D32E41AAB4BE41063438E
:1059700004931278BB6B012A7AD0141E01D0022A3C
:105980007CD00025BB6BAC427BDCE343DB171C40C7
:10599000002306940193019A069B9C181300049A15
:1059A000934200DA8AE0D4431825E417069B14409A
:1059B000E4186543BB6BA34200DCFEE000267B6B72
:1059C000B34200DCF6E03B6C5B599B191A78002A65
:1059D00008D0002231001A7018A8220011961294E3
:1059E000FFF74CFD0136EAE78C4A012115A8FFF7C5
:1059F0000FFF159B0500F31A0393002829D0884B4D
:105A0000984201D901F008FD1820684301F078FBA5
:105A10000400039BE018002802D0019901F098FCD3
:105A2000310022001598FFF7F9FD0200169B3000A7
:105A3000190018320193FFF7F1FD169B159E039094
:105A40000193019BB34206D0300001F09DFB183654
:105A5000F7E70400DDE71598002801D001F058FBB6
:105A6000039B1594169318235D436419179477E7E5
:105A7000049A9B1ADC0FE418641082E7049A9C1ABB
:105A80007FE79D4218DA182300266B4301937B6B56
:105A9000B34211DD019A3B6C9B589B191A78002A7E
:105AA00008D0002231001A7018A82A0009960A9519
:105AB000FFF7E4FC0136EAE7013563E7002C76DB0B
:105AC000BB6B9C4273DA1823019A53430793079ADE
:105AD000159B9B183A005B684C32039312787B6BE2
:105AE000012A2DD0002A35D0022A30D018230025D3
:105AF00063430593029A7B6BAA422DDCD5430026B3
:105B0000ED171540039BA9199E4239DBDB43039A2D
:105B1000DB1713405D197B6BAB4248DD059A3B6C8C
:105B20009B585B191A78002A08D0002229001A70A5
:105B300018A822000F951094FFF7A0FC0135EAE7A2
:105B4000039A9B1ADA0FD3185B100293CEE7039ADD
:105B50009B1AFAE70292C9E79D420FDA059A3B6C5D
:105B60009B585B191A78002A08D0002229001A7065
:105B700018A822000B950C94FFF780FC0135B9E7BB
:105B80007B6B994211DA059A3B6C07989B58159AE2
:105B90005B1812581878925D904206D01A7018A8B7
:105BA00022000D910E94FFF769FC0136AAE7019BD4
:105BB0000133EFE601341835FCE6189A396B13000F
:105BC0008868C96883401393199B3C001D008D4071
:105BD00014951A9D0834521982401C921B9A200079
:105BE0009B188B4013A901951D93FFF7EAFC200039
:105BF0001CA9FFF7E6FC159C169DA54204D02000C9
:105C000001F0C2FA1834F8E71598002801D001F025
:105C10007FFA23B0F0BDC046ABAAAAAA787D0000E7
:105C2000AAAAAA0AF0B597B01F001FAB1B781600EE
:105C3000019320AB1B7808AA029321AB1B780400C8
:105C4000039322AB1B780091049323AB1B781C9920
:105C5000059351239B18DB7F08A8069355239B18B7
:105C6000DB7F3A0007930CAD3300FEF77BFA10227E
:105C700008A9280001F06FFE20001E9B102263601F
:105C80000021083001F083FE2300A7611C3307CDFB
:105C900007C32A6825001A606A46127840351A71CF
:105CA0006A46127F5A71234BB26808332360636AD5
:105CB000266313416363F368A26A00261A41A26354
:105CC0006A462300127B3C331A706B4622001B7914
:105CD0004C3226646664A66413706B461B7A53705C
:105CE0006B461B7C93706B461B7DD3706B461B7E93
:105CF0001371A36BB3420FDD12AB0722616B10A8C7
:105D0000109301F07AFA10A92800FFF79DFD10A862
:105D100001F03AFA0136ECE71D9910A801F018FBE2
:105D200010A92000FFF7E6FD10A801F02DFA2000D1
:105D300017B0F0BD947D0000F0B50E680568002333
:105D4000AE4212DB4A684468A2420EDB8F68F61945
:105D50008768ED19AE4208DCCB68C168D2186118BB
:105D6000D30FC81791424341DBB21800F0BDF0B524
:105D70000B6891B005000C00026B002B04DA8968F7
:105D8000CB18A360002323606368002B04DAE1686A
:105D9000CB18E360002363602668916830000841F7
:105DA000636888401900D768361A3941B940A76836
:105DB0005B1AF619E768A660DB199768E3603E4155
:105DC000A66097682060BE40D768A6603B41E3604C
:105DD000D7686160BB400593E36001239768BB40CF
:105DE00001279E4200DAA360D268059B9740BB4220
:105DF00000DAE760A2686B6A8018984201DD9B1A9E
:105E00002360E268AB6A8918994201DD9B1A6360DE
:105E10002000EB692268083099182B6A62680791A4
:105E20009A18089209ABC0C8C0C304230293AB6997
:105E30000BA801930A9B05930093099BFDF7D4FDE2
:105E40002B680BAA210028005B6898476B680BA998
:105E5000280098470BA8FDF7F9FD11B0F0BD000030
:105E6000F0B50400260097B00C931FAB1B7810AD63
:105E70000D9320AB1B780F000E9321AB1B781D995F
:105E8000513628000B920F9301F062FA3378062204
:105E9000581E83415B421A400F9B00210993042343
:105EA0000693033B049303931E9B089202931C9B4F
:105EB0000B9A07910591009339000C9B01952000E6
:105EC000FFF7B0FE280001F05FF9094B34220833D8
:105ED00023606B469B181B786A4638213370230079
:105EE00020005218127852331A7017B0F0BDC04615
:105EF000A47D0000F0B59BB008920200059010ABA5
:105F000024320C0003CA03C3059B00211F00513734
:105F10005D6A9E6A3B788B4200D006310598FFF798
:105F20009BFB3F78002F1ED02368002B19D162689D
:105F3000002A16D1A368AB4213D1E368B34210D153
:105F40000421029203910191089811002B00009600
:105F500010951196FDF71EFF089A21000598FFF78E
:105F6000F7FB1BB0F0BD089A21000598FFF7F0FB86
:105F70006B1F083D099504250B972F000793731F8E
:105F8000083E06930A9600262B1F0C93F3B2012BB2
:105F90003BD0002B03D0022B3FD00C9B37E00C9A58
:105FA00012951392099A149212A920001593FFF7E3
:105FB000C3FE002817D0082212A916A801F0CBFCB6
:105FC000129A15999446139A149B52180B990D9393
:105FD000199263440191009202971699179A0898B2
:105FE0001893FDF77EFF0136042ECFD10026F3B2C1
:105FF000012B4FD0002B18D0022B52D0069B1295AC
:10600000139304235B42149350E0079B04331293D1
:106010000023139514930A9BC6E7069B129504333D
:106020001393099B14930023BEE704235B4212954C
:1060300013951493159312A92000FFF77DFE0028F5
:106040000CD00B9B029701930123B340DBB200936A
:1060500012990423139A0898FDF78DFD0136042E3A
:10606000C5D1059B52331B78002B00D179E7079BE4
:10607000013B0793069B013B06930A9B023B0A9355
:10608000099B023B099302230B93052D00D168E77E
:10609000052578E7079B13951293042314975B4219
:1060A000C8E7079B14971293069B13931597C2E7B3
:1060B00010B5024800F02BFF10BDC0463C04002084
:1060C00010B5024800F023FF10BDC046F8010020C3
:1060D000F7B501240326154F1549380000F04EFB93
:1060E0001449154800F04AFB1449154800F046FBD6
:1060F0001449154800F042FB1449154800F03EFBD6
:10610000144D1549280000F039FB39000096230092
:1061100001940022114800F073FE009629000194BA
:106120001E231F220E4800F06BFEF7BD80060020E4
:1061300000080042000C00428806002000100042C7
:10614000900600200014004298060020001800422B
:10615000A0060020A8060020001C00423C040020ED
:10616000F8010020FEE70000034B10B51B68002B70
:1061700000D0984710BDC046B006002070B50F494A
:106180000F4CA14204D100F08BF800F0A5FFFEE710
:106190000C4D00238D42F6D0CA18E818A24205D350
:1061A000094B8242EFD00949002204E00068043321
:1061B0001060F1E704C38B42FCD3E4E70000002049
:1061C00090000020D083000090000020C80600202E
:1061D00010B500F063F8002801D100F049F810BDB7
:1061E000F7B51348012284461249134C8E68636840
:1061F00005689B0E1340019288686268019F920EA9
:106200003A4067463F6893420ED1BD420CD1864268
:106210000AD35B19FA254868AD00861B07486B4313
:106220007043000DC018FEBD3D0013000600E3E7FB
:10623000B406002010E000E000ED00E0555500003D
:1062400070B5041E10D0FFF7CBFF050000F025F855
:10625000FFF7C6FF054B401B9842F7D9FA23013CD4
:106260009B00ED18002CF3D170BDC046E703000081
:1062700010B5034A13680133136000F043FA10BDF0
:10628000B406002010B5002806D03023032158435F
:1062900001F092F90138FDD110BD70470020704720
:1062A0001E2270B546484749436893431C3A13433E
:1062B000436008238C6923438B61434C434B9C828E
:1062C0009C8A14439C82DC681442FCD00124404A1E
:1062D00014701578254203D055786DB2002DF8DB87
:1062E00001249460547864B2002CFBDB394C546078
:1062F000547864B2002CFBDB8224E401548054788F
:1063000064B2002CFBDB02249C840E34DD68254241
:10631000FCD0314CDC621024DD682542FCD09D8C21
:106320002E4C2C439C841024DD682542FCD0022492
:106330009D8C80262C439C844024DD683542FCD013
:10634000DD682542F9D01024DD682542FCD0002408
:106350009460547864B2002CFBDB214C5460547878
:1063600064B2002CFBDB1C6A1E4D2C4080251C6295
:106370001C6AAC431C62032393601B4B536053782D
:106380005BB2002BFBDB0023FF240B72174A4B721E
:106390008B72CB72164B1A60164B174A1B6811682A
:1063A0009A065B01C90E2340520F12020B4313439E
:1063B000124A1385802342681343436070BDC04670
:1063C00000400041000400400C06000000080040AE
:1063D000000C004001050100B905FF7D040A000022
:1063E00000070300FFFCFFFF03060100006CDC0256
:1063F00004000020246080002060800000400042F3
:10640000FA21314B10B51868890001F0D5F82F4BEF
:106410000138984256D82E492E4A4860C020136A47
:1064200000061B021B0A03431362002407238C602F
:106430000B608021136A09061B021B0A0B431362BF
:10644000FC22254B196A0A431A62FC22196A92013E
:106450000A431A62A022196AD2020A431A62E0B2FF
:106460000021013400F076F8142CF8D11B4B1C00ED
:106470005A7852B2002AFBDB194A5A80194B1A008B
:10648000597EC9090129FBD0E421C90099803F2127
:10649000D970537EDB09012BFBD0C02300205B01A8
:1064A0001361907000F024F863785BB2002BFBDB83
:1064B0000D4B0E4A6380D379DB09012BFBD04123BE
:1064C000537010BDFEE7C04604000020FFFFFF0030
:1064D00010E000E000ED00E000040040000C00408F
:1064E0001E400000004000422140000000480042E1
:1064F000164A00B51300517EC9090129FBD00138A5
:10650000042816D81969124A0A400F211A615A78CC
:106510008A4301F047F80308060B0300110001222B
:106520000A435A7000BD11000322F9E7110002224C
:10653000F6E7F02311691B050B430F211361537814
:106540008B43190002230B435370EBE700400042DA
:10655000FFFFFFF0182330B51D000400454308205D
:10656000204A55192856013014D0032912D80800A2
:106570006343D156D31801F015F802280E1B586852
:10658000CB010221184A9B181A18403211700122BF
:1065900082405A6030BD5868CB010621124A9B18D0
:1065A0001A1840321170012282405A609A61F1E754
:1065B0005868CB0106210C4A9B181A1840321170FA
:1065C000012282405A605A61E4E75868CB010221F7
:1065D000054A9B181A1840321170012282409A60B5
:1065E000D8E7C046B47D0000004400411823F0B550
:1065F00008245843114A13181C5701341BD0012694
:1066000035005F688356BD400D4ADB019A189068DB
:1066100005420BD10C00601E8441D2194032107823
:1066200034400336A400B04320431070044A9B1842
:10663000002901D15D61F0BD9D61FCE7B47D0000E2
:106640000044004118224243F8B52C4E0300B21812
:10665000127A52B2140001320ED0481C00240C28C9
:106660000AD800F09FFF0720202020202020200BA8
:106670000B0B0B00012464422000F8BD092905D151
:106680000021D8B2FFF766FF0024F5E70A2902D1FE
:10669000D8B20839F6E700240B29EDD1D8B20A396F
:1066A000FFF758FFE8E718204343F2185568F35600
:1066B0002C00134ADB016E0817389B18C9B204403E
:1066C0009E19002C0DD00F2430363278090122405B
:1066D0001143C9B25B19317040331A7810431870F6
:1066E000D2E732000F27303216785B19BE433143B0
:1066F000117040331A7810431870BDE7B47D000064
:1067000000440041164A10B51368591C26D0013BBD
:106710001360002B22D172B6124B134A04339342FA
:1067200013D9124A01211000147D0C42FCD0202103
:10673000148BFF319B085B0021431183D3610C4B09
:1067400013800123027D1A42FCD0BFF34F8F094B07
:10675000094ADA60BFF34F8FC046FDE710BDC0465F
:10676000080000200020000003020000004000415B
:1067700002A5FFFF00ED00E00400FA05002303710D
:10678000016070479446F0B59E1E721E96416246A7
:10679000056892072F6836063A4332432A60072578
:1067A00005AC24780068A4012940214342680024F4
:1067B000022B00D05C03114321434160F0BD30B592
:1067C000C0250368AD031C6812052A402243C0247B
:1067D0000904A40221401143196003685A68144354
:1067E0005C6030BD0123026811680B4313600368CD
:1067F0001A68D207FCD4DA69D207F9D470470223A9
:10680000026811680B4313600268D3699B07FCD4CC
:1068100070470268137E9B0702D40379002BF9D1DD
:10682000002303717047002203685A83704703688E
:10683000187E4007C00F70470368187EC009704774
:10684000802302685B42117E0B4313767047036816
:10685000588B8007C00F704702230268518B0B438F
:10686000538370470368187EC007C00F70470368E2
:10687000188DC0B2704703681A7ED207FCD589B262
:1068800019850123037118007047012203689A7566
:106890007047012203681A757047000070B5012621
:1068A00004684B0833403140256809075B070B43F8
:1068B0002B43236004685100034800F07DFE01383B
:1068C000C0B2207370BDC046006CDC0201230268B8
:1068D00011680B43136003681A68D207FCD4DA69A5
:1068E000D207F9D470470223026811680B43136082
:1068F0000268D3699B07FCD470470368DA69920782
:10690000FCD402211A688A431A6070470368186829
:106910004000C00F70470268936A5B0A5B0219432C
:10692000916203681A7E5207FCD5986AC0B270471C
:1069300080230268DB02116851680B435360704783
:10694000036803491A685A680A405A607047C0468B
:10695000FFFFFBFF032230B5036811401C68074DA1
:106960005A6809042A40E4061143640F5960052C53
:1069700003D10268D3695B07FCD430BDFFFFFCFF85
:1069800070B5056804006B8B9B069B0F022B0DD026
:106990006B8B00209B069B0F032B32D06B8B9B07CE
:1069A00004D56B8B9B069B0F012B2AD16B6A490088
:1069B0001143DB0AC9B2DB020B436B622368002A76
:1069C00013D11A7ED207FCD55B8B9B069B0F022B43
:1069D00004D0490800222000FFF7D2FF2368588B1B
:1069E0004007C30F012058400BE0187E8007C00FFE
:1069F000F4D11A7ED207F8D5C022596892020A4310
:106A00005A6070BD0368283319700268107EC00791
:106A1000C30F508B002B06D1C007C00F08D1538B7A
:106A20009B07F3D570474007C30F01205840F9E793
:106A30001800F7E7036828331970036800201A7EEE
:106A4000520704D5588B01234007C00F58407047A8
:106A500003681868C006400F043843425841C0B26A
:106A600070470368187E4007C00F70470368187EA0
:106A7000C007C00F70470368588BC006C00F70472F
:106A80000368187E8007C00F70470368588B0007A3
:106A9000C00F704703681A68D206520F052A05D145
:106AA0001A7E920702D41A7ED207F9D528331878B5
:106AB000C0B270470368214A30B593422FD0204AB4
:106AC00093422FD01F4A93422FD01F4A93422FD078
:106AD0001E4A93422FD01E4A93421FD10E231922E1
:106AE0000121032599401B48C024016099082B40CF
:106AF000AB40FC359D4089000918A4000859A84303
:106B0000C0259D402B0003430B518023DB011A431A
:106B1000114B5A805A7852B2002AFBDB30BD092350
:106B20001422DDE70A231522DAE70B231622D7E722
:106B30000C231722D4E70D231822D1E700080042C6
:106B4000000C0042001000420014004200180042F5
:106B5000001C004200E100E0000C0040F8B5040019
:106B60000F0016001D00FFF7A5FF2000FFF73AFEFB
:106B70001C21BB000B4071072268090C0B431360FA
:106B8000842322689375012F1AD11021012E00D081
:106B900008390C4B69431868C00000F00DFD07224E
:106BA000216802408B895203DB04DB0C13438B8189
:106BB000226803049089DB0C400B4003184390814A
:106BC000F8BDC04604000020F7B50600019308ABED
:106BD0001F780D001400FFF779FE3000FFF76AFF01
:106BE000C022240592031440BA070C2717433C43E4
:106BF000C0270722BF022D0433683D4025431D6096
:106C0000019B316813401A0080239B0213434B60A1
:106C1000F7BD01207047000010B50368014A1B6AE8
:106C2000984710BD13040000FC30006A70478723AA
:106C30009B00C018C36880204000C01A7047030042
:106C4000FC331A6A002A03D0DB69C018007D704744
:106C500001204042FBE710B504000069FFF7C2FDC8
:106C600022000023FC329361D361136287229200D9
:106C7000A4186360A360E36010BD872310B59B0078
:106C8000C218D368002BFCD10069FFF7C2FD10BD0C
:106C90000368002B02D162B6BFF36F8F7047F020FC
:106CA00001403039484248417047F0231B011940E8
:106CB000802306209B0099420AD00133FF33013024
:106CC000994205D0802302385B00994200D0002011
:106CD00070470F2001400020012903D00239481ECF
:106CE0008141481C704700008B23F0B5182685B001
:106CF00002919B000400C05C330008214343324DE5
:106D00001700EB185956FFF79DFC304B0821E05C4B
:106D100033004343EB185956FFF794FC2C4BE25CCD
:106D20000393022A09D11133E05CFF2805D0082122
:106D30004643AE197156FFF785FC8C26B600A05D60
:106D4000FF2819D00121FFF705FC1822A35D214976
:106D50005A43AB56AD18DB0158188D21890060509D
:106D60001D4901225B188E218900635069688A40A1
:106D70008F21890062501A600122029B1100206954
:106D8000FFF7ECFE39002000FFF78FFF3900050008
:106D90002000FFF79EFF390006002000FFF77FFF6D
:106DA00033000090290020690122FFF7EBFC0B4B18
:106DB0002069E25C039BE15CFFF701FD2069FFF7BE
:106DC0001EFD05B0F0BDC046B47D00002D020000E0
:106DD0002F02000018440041144400412E0200001C
:106DE000802210B504005200002100F0D0FD2300E5
:106DF0000022FC335A6020009A60DA6010BD000067
:106E0000F7B51D0008AB1B780400009309AB1B7895
:106E10001600019300234360FA239B008360114B0B
:106E20000F00083303601430FFF7DAFF2000213031
:106E3000FF30FFF7D5FF8B236A469B002761E6549E
:106E4000094B1278E554094B2000E2546A46084B7E
:106E50001279E2548C22313BFF3B9200A354103252
:106E6000A354FEBD048200002D0200002E0200008B
:106E70002F020000F7B5EFF3108300930123019375
:106E800072B680260200FF25019BFC327600013B92
:106E90005C1C0FD0D4685F1EB44209D05468015501
:106EA000546801342C405460D4680134D460EEE757
:106EB0003B00EDE768460193FFF7EAFEF7BD13B527
:106EC000EFF3108300930123019372B6019B5A1EC6
:106ED0000192002B15D00300FC33DA68002A0DD094
:106EE0009A68845C9A680132D2B29A60DA68013A90
:106EF000DA606846FFF7CCFE200016BD012464422C
:106F0000F7E701246846FFF7C3FE6442F4E710B5D3
:106F100004000069FFF79BFC002805D02069FFF7FB
:106F2000A6FC2069FFF798FC2069FFF780FC002889
:106F30001BD02069FFF79BFC010020001430FFF7F5
:106F400099FF8C239B00E35CFF2B0ED02300FC33C6
:106F50001A6A80235B009B1A092B06DC8D238F2283
:106F60009B009200E358A2581A602069FFF77AFC50
:106F700000280ED087239B00E318DB68002B14D079
:106F800020002130FF30FFF79AFFC1B22069FFF7E0
:106F900072FC2069FFF750FC002805D02069FFF73C
:106FA0004FFC2069FFF73FFC10BD2069FFF771FC23
:106FB000EFE70000F8B5040000690D00FFF752FC90
:106FC00087239B00E618002802D0F368002B34D0FA
:106FD00001278022F3685200934223D1EFF31083FC
:106FE0003B4210D1174B5B68DB05DB0DF1D0103B4A
:106FF0005BB2002B10DAF13A1340083B9B08124AAF
:107000009B009B181B682069FFF72CFC0028E0D030
:107010002000FFF77CFFDCE79B08C0330B4A9B0096
:107020009B58F0E720002130FF302900FFF722FFB6
:107030002069FFF72AFC0120F8BD29002069FFF72D
:107040001AFCF8E700ED00E01CED00E000E100E0D4
:1070500010B504001430FFF732FF8C239B00E35C73
:10706000FF2B0ED02300FC331A6A80235B009B1A8F
:107070000A2B06DD8E238F229B009200E358A25834
:107080001A6010BD10B5041E05D000F031FD2100BE
:1070900000F002FC0C00200010BD10B50400884276
:1070A00003DA081AFFF7EEFF2418200010BDF7B529
:1070B00006000D000C008B180193019B671B9C427E
:1070C00007D0336821781B683000984701340028C6
:1070D000F3D13800FEBD704710B5FFF791F900F00D
:1070E000F7FBFFF7F8FFFBF78DF8FBF769F9034BA8
:1070F000002BFAD000E000BFF7E7C0460000000018
:1071000010B500F009FC10BD10B500F005FC10BD75
:1071100010B500F00BFC10BD10B500F007FC10BD61
:107120000B0010B50100180000F0C4FB10BD10B535
:107130000B1E04D011781A0000F002FC01000800B8
:1071400010BD10B5002A01D000F005FC10BD0000F4
:107150000B6810B5002B02DA094800F063F993427E
:1071600005D95200934202D2002A05DB0A60086862
:107170000130FFF7C5FF10BD024B0B60F7E7C046BB
:10718000C2820000FFFFFF7F030010B500680833D4
:10719000984201D0FFF7BCFF10BD000010B5436856
:1071A0001400994204D90A000248210000F03EF977
:1071B000080010BD4D82000010B5012A02D10B78E5
:1071C000037010BDFFF7BDFFFBE710B5012A02D128
:1071D0000B78037010BD002AFCD000F0C5FBF9E766
:1071E0000B0010B51100012B01D1027010BD002B56
:1071F000FCD01A0000F0CBFBF8E737B50400019192
:1072000015000F2906D9002201A9FFF7A1FF019B54
:107210002060A3600199002903D02A002068FFF7AD
:10722000DFFF0021019B22686360D15437BD10B598
:10723000521AFFF7C1FF10BD10B5521AFFF7BCFF7D
:1072400010BD70B51500436804005A1A521B08D0CF
:10725000002D06D000684B19C31840181900FFF71D
:10726000B4FF002163685D1B23686560595570BDDC
:1072700070B505000E00083028600B6808360C0059
:107280009E420BD110223100FFF75BFF636828009C
:107290006B60002326606360237270BD2B608B6877
:1072A000AB60F3E770B516000C4A04000D00FFF761
:1072B00075FF731C05D100232268656053552000BB
:1072C00070BD002EFBD063685A1BB24200D9320059
:1072D00029002000FFF7B5FFF1E7C046AE820000AD
:1072E00013B56B46D971416807338A4209D20468E5
:1072F000891AA0181A00FFF71AFF002801D0001BF6
:1073000016BD01204042FBE773B504000D001600D6
:10731000002904D1002A02D00C4800F080F8731B29
:1073200001930F2B07D9002201A92000FFF710FFBE
:10733000019B2060A360320029002068FFF777FFDF
:107340000021019B22686360D15473BD84820000D8
:1073500002000B0010B504000832026006CB0023C7
:107360008A18FFF7D1FF200010BD000073B504009C
:107370000D001600002904D1002A02D00C4800F0AC
:107380004EF8731B01930F2B07D9002201A920008F
:10739000FFF7DEFE019B2060A36032002900206819
:1073A000FFF74AFF0021019B22686360D15473BD3F
:1073B00084820000F8B51E0003000D00170008339A
:1073C00003600A4A390004002800FFF7E7FE2B6833
:1073D0006A681918D21BB24200D9320020008A18FC
:1073E0000023FFF7C3FF2000F8BDC046DA8200008B
:1073F00070B50D00040011002800064A1E00FFF7BA
:10740000CDFE3300020029002000FFF7D3FF20004B
:1074100070BDC0463882000010B500F043FA10B5C8
:1074200000F040FA10B500F03DFA00000FB4182348
:10743000B3B500AFFC1820CC280000F0E7FB802398
:107440009B00C118074B2A00C0186B46C008C0003B
:107450001B1A9D46230068467C6000F05FF800F030
:1074600021FAC0460E020000F0B50C1A9FB000AF22
:10747000631C7B600C23060069221049F81800F099
:107480006AFA23006A467733DB08DB00D31A9D468D
:107490000C236D46F9186822280000F05CFA2800D9
:1074A00022006830310000F056FA00227B68280084
:1074B000EB1867331A70FFF7B2FFC0460083000075
:1074C000F0B585B000AF86B06B461E000C361500D7
:1074D0003400B8607960FB6028000A2100F0F2F8FF
:1074E0000D4B013C5B5C280023700A2100F064F81E
:1074F000051EF1D17B68341B9C420AD8FB68220030
:10750000191B0C31B86800F026FA2000BD4605B002
:10751000F0BD01246442F8E7F5820000F7B50700EA
:1075200015000400013946182A78002A37D0B442E1
:1075300033D2252A08D16A78732A0AD07A2A15D03C
:10754000253A51424A41AD182A780135227001345A
:10755000EAE7181D1A68230011781C00002919D0C9
:107560009E4213D0197001320133F5E7AA78752ACB
:10757000EAD11A1D0192311B1A682000FFF7A0FF03
:1075800000280ADD24180335019BCDE731003800BF
:10759000FFF76AFF02350300C6E72100F7E7E01BAB
:1075A0002270FEBD02B4714649084900095C4900D9
:1075B0008E4402BC7047C046002243088B4274D3FD
:1075C00003098B425FD3030A8B4244D3030B8B42E4
:1075D00028D3030C8B420DD3FF22090212BA030CED
:1075E0008B4202D31212090265D0030B8B4219D3CE
:1075F00000E0090AC30B8B4201D3CB03C01A5241EE
:10760000830B8B4201D38B03C01A5241430B8B4235
:1076100001D34B03C01A5241030B8B4201D30B031E
:10762000C01A5241C30A8B4201D3CB02C01A524145
:10763000830A8B4201D38B02C01A5241430A8B4208
:1076400001D34B02C01A5241030A8B4201D30B02F1
:10765000C01A5241CDD2C3098B4201D3CB01C01A0B
:10766000524183098B4201D38B01C01A5241430915
:107670008B4201D34B01C01A524103098B4201D303
:107680000B01C01A5241C3088B4201D3CB00C01A70
:10769000524183088B4201D38B00C01A52414308E8
:1076A0008B4201D34B00C01A5241411A00D201460D
:1076B000524110467047FFE701B5002000F0F0F896
:1076C00002BDC0460029F7D076E7704703460B435A
:1076D0007FD4002243088B4274D303098B425FD3CB
:1076E000030A8B4244D3030B8B4228D3030C8B42F7
:1076F0000DD3FF22090212BA030C8B4202D31212DD
:10770000090265D0030B8B4219D300E0090AC30BB1
:107710008B4201D3CB03C01A5241830B8B4201D35E
:107720008B03C01A5241430B8B4201D34B03C01A47
:107730005241030B8B4201D30B03C01A5241C30ABF
:107740008B4201D3CB02C01A5241830A8B4201D330
:107750008B02C01A5241430A8B4201D34B02C01A1A
:107760005241030A8B4201D30B02C01A5241CDD2BF
:10777000C3098B4201D3CB01C01A524183098B420A
:1077800001D38B01C01A524143098B4201D34B01F3
:10779000C01A524103098B4201D30B01C01A524156
:1077A000C3088B4201D3CB00C01A524183088B42DD
:1077B00001D38B00C01A524143088B4201D34B00C6
:1077C000C01A5241411A00D2014652411046704738
:1077D0005DE0CA0F00D04942031000D3404253403D
:1077E00000229C4603098B422DD3030A8B4212D3FD
:1077F000FC22890112BA030A8B420CD3890192112F
:107800008B4208D3890192118B4204D389013AD06B
:10781000921100E08909C3098B4201D3CB01C01A40
:10782000524183098B4201D38B01C01A5241430953
:107830008B4201D34B01C01A524103098B4201D341
:107840000B01C01A5241C3088B4201D3CB00C01AAE
:10785000524183088B4201D38B00C01A5241D9D2C6
:1078600043088B4201D34B00C01A5241411A00D247
:107870000146634652415B10104601D34042002B43
:1078800000D54942704763465B1000D3404201B5C2
:10789000002000F005F802BD0029F8D016E7704777
:1078A0007047C04610B5062000F090F9012000F0A6
:1078B000FFF9000010B5040004481300002804D0AC
:1078C0000A000220210000E000BF10BD00000000FF
:1078D00070B500260C4D0D4C641BA410A64209D1B6
:1078E000002600F0E7F90A4D0A4C641BA410A642DA
:1078F00005D170BDB300EB5898470136EEE7B300F1
:10790000EB5898470136F2E7700000207000002025
:10791000700000208400002010B5034B010018689F
:1079200000F088F810BDC0460C00002010B5034BD5
:107930000100186800F034F810BDC0460C000020AB
:10794000C9B28218904201D10020704703788B425F
:10795000FBD00130F6E7002310B59A4200D110BDEC
:10796000CC5CC4540133F8E710B5884202D98B18B7
:10797000984203D3002307E08B5C8354013AFBD287
:1079800010BDCC5CC45401339A42FAD1F8E703002D
:107990001218934200D1704719700133F9E70000C3
:1079A00070B50500002910D00C1F2368002B00DAE9
:1079B000E418280000F031F91D4A1368002B05D1A6
:1079C00063601460280000F029F970BDA34209D952
:1079D000216860188342F3D118685B684118216000
:1079E000EEE713005A68002A01D0A242F9D91968BB
:1079F0005818A0420BD12068091858181960824203
:107A0000E0D110685268411819605A60DAE7A04264
:107A100002D90C232B60D5E721686018824203D17C
:107A2000106852684118216062605C60CAE7C04615
:107A3000B8060020032370B5CD1C9D430835060011
:107A40000C2D1ED20C25A9421DD8300000F0E5F8FF
:107A5000254A14682100002919D1244C2368002BE1
:107A600003D1300000F076F820602900300000F0EB
:107A700071F8431C2BD10C233000336000F0CEF89A
:107A800003E0002DDFDA0C233360002070BD0B68AB
:107A90005B1B19D40B2B03D90B60CC18256003E0BA
:107AA0004B688C420DD11360300000F0B7F8200015
:107AB00007220B30231D9043C31AE7D05A42E250ED
:107AC000E4E763600C00EFE70C004968C3E70323B9
:107AD000C41C9C43A042E1D0211A300000F03AF8C7
