:102000000080002099540000815400008154000099
:1020100000000000000000000000000000000000C0
:1020200000000000000000000000000081540000DB
:10203000000000000000000081540000ED5400008A
:10204000815400008154000081540000815400003C
:102050008154000081540000815400008554000028
:1020600081540000CD5300008154000081540000D1
:102070002546000081540000DD530000815400001B
:1020800081540000815400008154000081540000FC
:1020900000000000815400008154000081540000C1
:1020A00081540000815400008154000081540000DC
:1020B0000000000010B5064C2378002B07D1054B1B
:1020C000002B02D0044800E000BF0123237010BDA4
:1020D00090000020000000004C700000044B10B580
:1020E000002B03D00349044800E000BF10BDC046E8
:1020F00000000000940000204C700000044A0378A7
:10210000D2689B0010B5985803681B68984710BDAB
:10211000EC00002010B5072003F0F6FB10BD000016
:1021200010B50121072003F0A3FB064C012220007B
:102130000F2102F051FC01220E21200002F04CFC84
:1021400010BDC046DC00002010B5064C0122200066
:102150000D2102F041FC00220D21200002F082FC42
:1021600010BDC046DC00002010B502000D21024861
:1021700002F078FC10BDC046DC00002010B5020063
:102180000F21024802F06EFC10BDC046DC000020AA
:1021900010B502000E21024802F064FC10BDC046DA
:1021A000DC00002010B5074C002904D101312000CB
:1021B00002F0D4FC10BD0179200002F0BEFC002129
:1021C000F5E7C0460401002010B50400C0680028EF
:1021D00001D004F02BF9200010BD0000F0B5012162
:1021E00089B0062003F044FB254C0323254A062131
:1021F000200002F0C7FB200002F088FB224802F01A
:102200007EFC224802F07BFC214802F078FC60232F
:1022100000240493403B0593103306931033079337
:102220001C4B1D4D03931D4F1D4B164E21000134B9
:10223000019302970096049A059B2800E4B202F0ED
:10224000E1FE062CECD1174B069A0393144B2100A8
:1022500001932800079B0297009602F0D3FE114BD2
:10226000069A03930E4B072101932800079B0297C0
:10227000009602F0C7FE280002F037FE09B0F0BD5C
:10228000DC000020D001002004010020BC00002060
:10229000CC000020D86A0000EC00002015210000CE
:1022A000A5210000C96A000070B504000D000020DF
:1022B000896804F080F8E9682060002004F07BF869
:1022C000A9686060002004F076F8E968A06000204A
:1022D00004F071F8E060200070BD0000F0B505006A
:1022E000A7B00EAC02F001FD290020002F79FFF706
:1022F000DBFF14A81649174A129004F0BEF80C230D
:1023000013930023129A12AE137304220D930B93AE
:1023100008930793104B0C920A92033A0992069382
:10232000059601AB07CC07C31A0023683900136078
:10233000EB680A4A009318A8AB6802F0C9FF3000A6
:1023400004F089F818A802F08BFE27B0F0BDC04653
:10235000BC6A0000C86A0000FD200000AC0000203C
:1023600010B50024044BDB6818590434FFF7B6FF9E
:10237000202CF7D110BDC046EC00002010B5FA2487
:1023800001210620640003F0BFFAFFF7E9FF2000F7
:1023900003F0E4F80021062003F0B6FAFFF7E0FFAF
:1023A000200003F0DBF810BDC020F0B540008BB07A
:1023B00004F038F806001020002404F033F804700C
:1023C00044708470C470047144718471C471047267
:1023D00044728472C472047344738473C47330602F
:1023E000102004F01FF80B21FE23C172047044700A
:1023F0008470C370047144718471C4710472447236
:102400008472047344738473C4737060102004F086
:1024100009F804250623047045708370C4700571A3
:1024200043718471C471047244728472C4720473FF
:1024300044738473C473B060102003F0F3FFD021A1
:10244000BE22902381700171C939C270427104703B
:1024500043708371C471047244728172C4720173D7
:1024600044738473C473F060102003F0DBFF1827FB
:1024700047702227C770C2272623477103210827E8
:102480008370D9330371C03B0373333B0470857190
:10249000C471047245728772C77243738173C473C7
:1024A0003061102003F0BEFFC02242213C25C22330
:1024B0004170C2702239C271B93A057085700571D8
:1024C00043718171047244728772C27204734273E1
:1024D0008773C2737061102003F0A4FF80231A0079
:1024E00003705C234370A2236221C370863B037197
:1024F00009238170032182717C3A42720373023294
:10250000043B017283734471C4718772C772427352
:10251000C773B061102003F085FF06220470447079
:102520008470C270047144718471C4710472447205
:102530008472C472047344738473C473F061102092
:1025400003F070FFC02102230722817003717821FC
:102550008023C172827204704470C57044718471AA
:10256000C47104724472037344738473C47330621D
:10257000102003F057FFC5708435057180258572E2
:1025800078250223C5720725047044708370447156
:102590008471C47104724472057344738473C47388
:1025A0007062102003F03EFF0E2514230470837028
:1025B00003714470C57044718471C47104724472B3
:1025C0008472C472047344738473C473B062102041
:1025D00003F028FFE0220125C270D13A0470447054
:1025E0008470047144718471C4710472457285727F
:1025F000C272057345738473C473F062102003F0D4
:1026000011FF18220470C27244708470C470047187
:1026100044718471C471047244728472047344738B
:102620008473C4733063102003F0FCFE04704470A4
:102630008470C470047144718471C47104724472F2
:102640008572C572057345738473C47370631020FB
:1026500003F0E8FE047044708470C4700471447127
:102660008471C471047244728472C47207734473B7
:102670008473C473B063102003F0D4FE1E23E022E1
:102680004371A2338372823B047044708470C470BF
:1026900002718471C47104724472C372057344730D
:1026A0008473C473F063102003F0BCFE06218170B4
:1026B00006210223F82241710321C37003710A33FA
:1026C00041728173047042708271C47104728372AA
:1026D000C77207734373C4733064102003F0A2FE03
:1026E00004228270FE22022302710F220470027300
:1026F0004470C37044718471C471047244728472F2
:10270000C47244738473C4737064102003F08AFE2F
:102710000C2319004370022383708223C370662345
:102720000371182343710B00023B8372013B047059
:102730008471C47104724172C372077347738473E6
:10274000C473B064102003F06DFE0C2306214370A7
:102750000A3B622283709C23417249190470C27043
:10276000027143718471C47104728772C7720773F6
:1027700041738473C473F064102003F053FE70221D
:102780000E23802182700F22C370B2334170037117
:102790007D39BE3B047044718471C471047241720E
:1027A0008372C372027343738473C47330651020E1
:1027B00003F038FE42227E2382702222437042338D
:1027C000C27002714271837106220C2303210470CE
:1027D000C471047242728772C77207734373817344
:1027E000C4737065102003F01DFE2C23802170221D
:1027F000C37034334170827043714E3A543B8171DF
:102800007D3902710470C471047241728372C7729F
:10281000077343738173C473B065102003F002FE25
:102820000E23437002238370C370E2230371C43B01
:10283000437103210C2304708471C47104724472C7
:102840008372C172047344738473C473F06510207F
:1028500003F0E8FD4222C2704222642198230271F3
:102860000422817041716139047043708371C471B5
:10287000047241728272C772077342738173C473A8
:102880003066102003F0CEFD38239C46C6228221FC
:102890004370634682704271C03AC1700171C27266
:1028A00004708371C4710472447287720573447337
:1028B0008473C4737066102003F0B4FD1023047099
:1028C00044708470C370047144718471C471047263
:1028D00044728472C772047344738473C473B066A1
:1028E000180003F09FFD1023C37018230470447078
:1028F0008470047144718471C4710472447284726E
:10290000C372047344738473C473F066102003F0BD
:1029100089FD4023102280218370203BC370037106
:1029200042711E3B0C3A4170C27202730470847192
:10293000C47104724572837247738473C4733067C1
:10294000102003F06FFD402343708370C370037148
:1029500043713E3B04708471C4710472437283728C
:10296000C372037343738473C4737067102003F0DE
:1029700059FD202310228370C370DB18427003714D
:10298000042280210223047041718471C471047295
:1029900047728272C272037345738473C473B067E3
:1029A000102003F03FFD0C23662183700A3BC370A7
:1029B0008222417118230B210470447002718371CB
:1029C000C471047244728472C47201734473847358
:1029D000C473F067102003F025FDE22383701223F7
:1029E000C370E03303711F23F821042203724723CD
:1029F00001708171072142704271837203731C322E
:102A00001F3B427243732832331DC471C2728173FB
:102A1000C473D867102003F005FD0E21C1700E218C
:102A20008023702201710321437083718572743B8E
:102A3000C57205734573F519047082704271C471D3
:102A4000037241728173C373E867102003F0EAFCDC
:102A5000FE25457022258570C57005716425042208
:102A60004571982542738571150032000F230321AB
:102A700088320470C471047243728772C77207731C
:102A80008173C4731060102003F0CCFCF8228570B1
:102A900042700C212A0033000225817182720939AB
:102AA00052198C330470C57005714571C47104727C
:102AB0004172C772077347738273C4731860102022
:102AC00003F0B0FCF82383710F23FE22437233001E
:102AD000032142709033FA3A04708570C570057115
:102AE0004271C47104728772C77207734273817333
:102AF000C4731860102003F095FC85710F256B4698
:102B000003951D7B87724572C7723D00077347733B
:102B1000877337004221FE2294374270047081701F
:102B2000C17001714171C4710472C47338601020A6
:102B300003F078FC42216B460691197EFE278170D6
:102B4000C1700171417102210491197C047081717D
:102B5000197B4770417231009831C47104728472DC
:102B6000C472047344738473C4730860102003F048
:102B700059FC04216B460591197DF8224170197C9E
:102B800002708170197ED823032283716B460892EC
:102B90001D329B181A786B4602721A7DC170427200
:102BA000427320229B181A780171827332004421EB
:102BB0009C324171C4718572C5720573C473106013
:102BC000102003F02FFC6B461A7B40214272827367
:102BD0003200A0328170C170017141710470477080
:102BE0008771C47104728472C47204734473C473B1
:102BF0001060102003F016FC6B461A7B0470C27242
:102C00003200A43244708470C770047144718471BE
:102C1000C471047244728472047344738473C47301
:102C20001060102003F0FEFB6B461A7D04704272A8
:102C3000027320229B181A78447042733200A83223
:102C40008470C470047147718471C4710472857298
:102C5000C5728473C4731060102003F0E3FB20225C
:102C600030238270C37006229C3303716B46079237
:102C70001A7F402142711A7B4170027220229B18F8
:102C80001A786B4642730C22099218329B181A78F4
:102C9000077082733200AC328471C47144728472E2
:102CA000C4720473C4731060102003F0BBFB6B4646
:102CB0001A7B047042723200B03247708470C47064
:102CC000047144718471C47104728572C572057394
:102CD00045738573C4731060102003F0A3FB6B462B
:102CE0001A7D6B461B7D382183716B461B7B4270BE
:102CF00081700A000372C0216B46C1700171197B9B
:102D000033004271B433373A0770C771447284722A
:102D1000C272027344738473C1731860102003F08D
:102D200081FB6B4624229B18197810238370602343
:102D3000C3706B461B7B41700372012303736B46A8
:102D40001A7F802142731A7B3300B83307700171F8
:102D500044718771C47144728472C4728273C47383
:102D60001860102003F05EFB24216B465B181B7873
:102D7000F02243706B461B7C027083706B461B7C99
:102D80008271C3706B461B7C6A4603716B465B188D
:102D90001B78117F43710123037283733300BC33AB
:102DA000C47141728572C57205734173C473186032
:102DB000102003F037FB822338228370C370037125
:102DC0006B4682711A7B442142723200C032047019
:102DD00047704171C47104728472C4720473447385
:102DE0008473C4731060102003F01CFB6B46242115
:102DF0005B1819786B464170197CF0228170C170A4
:102E0000017124215B181978012303726B4602704B
:102E100082711A7F092342720A2202736A46127F64
:102E2000417142733200C432C4718572C3728373BC
:102E3000C4731060102003F0F5FA82238370C3700E
:102E40000371442343710C3B83716B461A7B0470FE
:102E5000427220229B181A786B46427324229B18D8
:102E60001A78477082733200C8321060C4710472DD
:102E70008472C4720473C473102003F0D3FA38232D
:102E800003700C3343706B461B7E847183706B46FA
:102E90001B7EC471C3706B461B7E45720371842315
:102EA00043716B461B7D85720372072343733300A6
:102EB000CC33C57205738473C4731860102003F09B
:102EC000B1FA6B461A7C04704270827002714271D2
:102ED0001A7B3300D033C7708471C471047244729A
:102EE0008472C272047344738473C47318601020B4
:102EF00003F098FA6B4620229B181A786B464272B0
:102F00001A7D04708272427320229B181A78330053
:102F1000D43347708470C470047144718771C47174
:102F20000472C57205738273C4731860102003F0B5
:102F300079FA6B461A7F7823437043716B461B7F87
:102F4000C5723500802183710723D83502708170E6
:102F5000C4700171C4710472447283720373447348
:102F60008473C4732860102003F05CFAC7700127D3
:102F70006B46F0224772477337000E258021C471DB
:102F80000472C4720024427042711A7BDC370570EF
:102F9000817001718571827202738473C4733860A9
:102FA000102003F03FFA0627077087710C27A02333
:102FB0000772877337001821402283700371E0374E
:102FC0009D3BC2704372437341704171C4718472FE
:102FD000C4720473C4733860102003F023FA3027DE
:102FE000457045713500C021877007710F27E435A2
:102FF000C17004708471C471047244728472C772A7
:10300000047344738473C4732860102003F00AFAB5
:10301000C2230C278370603BC370483B03710F3B96
:10302000437233000225062207720827E833057031
:10303000457042718471C4718772C7720773477398
:103040008473C4731860102003F0ECF9FE238370BE
:103050007E3BC37203733300FF22EC330470447071
:10306000C570057144718471C471047244728272B6
:1030700044738473C4731860102003F0D3F9E02103
:10308000C1704173310001221E23F031C27283707E
:103090000373086004704470047144718471C471D6
:1030A0000472447284728473C473102003F0BAF9FA
:1030B0008570C570FE25057180258572C572FF2556
:1030C00005733500F4350470447044718471C47123
:1030D0000472447244738473C4732860102003F034
:1030E000A1F90C25C57205733500C021CC23F83534
:1030F00041708170C3700371417181710470C4713A
:1031000004724472847244738473C4732860102000
:1031100003F088F92025057245728572C572057322
:10312000457385733500FC35047044708470C47039
:10313000047144718471C471C4732860102003F059
:1031400071F9022306210422047044708370C17057
:10315000027144718471C471047244728472C472C5
:10316000047344738473C4736860102003F05AF9C5
:1031700010214823882241700F218270C37003718F
:1031800043716832413B04708271C47104724372AE
:103190008772C772077347738173C473A860102066
:1031A00003F040F90F21FF234172042203214370F1
:1031B000EF3B83704371D03381730470C770077124
:1031C0008371C47104728772C77207734273C473C8
:1031D000E860102003F026F9C02230234270BF3A85
:1031E0004272053283708272203B023A0470C770CB
:1031F000077147718371C4710472C7720773477393
:103200008273C4732861180003F00CF9E0220321D3
:10321000FF234270D03A8270427141720C3A0C31F5
:103220000470C77007718371C47104728272C772AF
:10323000077347738173C4736861102003F0F2F859
:10324000E0214170E0219023882281710321837065
:10325000C27002714371843A8E3B41720470C47132
:1032600004728272C772077342738373C473A86156
:10327000102003F0D7F81022FC2382700F22C370B5
:10328000EA3BC27204704470037143718471C4716B
:10329000047244728472047344738473C473E86167
:1032A000102003F0BFF81823E0218370E03383710E
:1032B000B53B437249338372043BC37203733C339F
:1032C0004373853B41700470C77007714771C471C7
:1032D00004728373C4732862102003F0A3F81022D1
:1032E0008270F022FF2342710F2243700470C77076
:1032F00007718471C471047242728472C47204735F
:1033000042738473C4736862102003F08BF8F42254
:103310000271E53A047044708470C4704471847121
:10332000C471047244728472C472027344738473ED
:10333000C473A862102003F075F8F4220271802291
:103340006B4606921A7E7F23047044708470C470AA
:1033500044718471C471047244728272C2720373C4
:1033600044738473C473E862102003F05BF8FF2297
:103370006B4607921A7F202142701A7E0470827079
:10338000C02204921A7C0171C270102205921A7D2B
:10339000877142710F224272012203921A7B062327
:1033A00002734373C47104728472C4728773C473EA
:1033B0002863102003F036F8FE218170F7398172FE
:1033C00004704470C470047144718471C4710472D7
:1033D0004472C772077344738473C47368631020A4
:1033E00003F020F8F022F823C27082710F220370DC
:1033F0004770877007714771C4710272447284729A
:10340000C272047344738273C473A863102003F000
:1034100009F8F022F82342710F220470437087707C
:10342000C77007718471C471047242728472C4726D
:10343000047342738473C473E863102002F0F2FFD4
:103440006B46E0211A7D042341708171DD390470DF
:103450008270C77007714271C471047241728372C5
:10346000C772077343738173C4732864102002F01A
:10347000D9FFF8226B4642701822E02142711A7F70
:1034800004238171DD3904708770C7700771C471BE
:10349000047242728372C772077343738173C47379
:1034A0006864102002F0BEFF0423E021837243739E
:1034B000F8226B4641708271C8391A7F81701539C4
:1034C00041720470C77007714771C4710472C7728A
:1034D00007738273C473A864102002F0A3FF6B46C5
:1034E000F82242701A7D047042710F228770C770F3
:1034F00007718471C471047242728472C47204735D
:1035000044738473C473E864102002F08BFF70234B
:1035100043706B4688211A7D04238170C17001714C
:1035200041718139437282710470C471047287726F
:10353000C772077347738173C4732865102002F044
:1035400071FFFE21C17007210470447087700771FC
:1035500044718471C471047244728472C1720773BD
:1035600044738473C4736865102002F05BFFF82213
:103570000721427042710F2204708470C47004717C
:103580008471C471047241728772C7720773427387
:103590008473C473A865102002F044FF38216B4681
:1035A0000591197D6A464170197C04708170017122
:1035B000197D032341710C2108911431521811789F
:1035C000C4708471C471047244728372C1720373D3
:1035D00044738473C473E865102002F023FF6B46C4
:1035E000197D84700170197C04714170F821C170DB
:1035F000197CC4714171197D04728171197B0F238B
:1036000041728372C172037341738473C4732866F9
:10361000102002F007FF6B461A7C3021C270027145
:103620006A46062381704171117B0470477087716F
:10363000C471047247728372C172017343738773DA
:10364000C4736866102002F0EDFE6B46197D0470AD
:103650004170197CC47081704171197D812383721E
:103660006133C372C43B03736B468171197B047170
:10367000C4710472447241738473C473A8661020C9
:1036800002F0D0FEC82303716B462022197D9B18DF
:10369000417119780A238372013B04704770877067
:1036A000C7708471C47104724172C3720773477327
:1036B0008473C473E866102002F0B4FE6B46197E72
:1036C0001F7B81707E210771477187721F7EC170D9
:1036D000C172047044708471C471047244720773BF
:1036E00047738473C4732867102002F09BFE6B46F7
:1036F0003700047044708470047144718471C47123
:1037000004724472847200241D7FFC37C570C57238
:10371000047344738473C4737867102002F082FECC
:1037200080257E2101230171017304704470837030
:10373000C37045718471C471047244728572C5721C
:1037400043738473C473B867102002F06BFE402388
:10375000C370C3713F3B0470447085700571447140
:103760008571047243728472C472047343738473E8
:10377000C473F867102002F055FEBE235B00F050C2
:10378000214B224ADE6005267D3D04704470847022
:10379000C470047144718471C4710472447284727F
:1037A000C472047344738473C47304341A805D60F8
:1037B0009C60174801F0A4F82A002100009602231B
:1037C000144801F075F907232A000193210000969F
:1037D000053B114801F079F9104B2A000193104B79
:1037E000210000930F48022301F07DF90E4C0F4B8E
:1037F0000F4A1049200001F070FB0F4A0F492000CA
:1038000002F01CFE0BB0F0BDAC00002020600000F8
:10381000DC00002004010020BC0000206921000021
:1038200049210000CC000020EC0000209121000084
:103830007D2100002121000000000020C92100009E
:1038400000B50300072A0BD8100002F01BFE080485
:10385000070A0D0F1214C943C9B200E0194008004D
:1038600000BD8B431900FAE71943F8E7C943194330
:10387000F2E75940F3E7C9435940EDE700B50428A2
:1038800005D802F0FFFD14050A0F0300002000BD5B
:103890007720CB07FBD46630F9E7AA20CB07F6D414
:1038A0005538F4E78820CB07F1D46638EFE7FF20DE
:1038B000EDE770B5150004AA1478C6680269724372
:1038C000D2108A420BD9066818007618FFF7D6FF87
:1038D0000100220030782940FFF7B2FF307070BD40
:1038E00073B54C68C5681600E2106A430968511840
:1038F00008D4072525400124AC400093E2B23300F0
:10390000FFF7D7FF73BD10B504000068002801D091
:1039100002F090FD200010BDF7B508AC277809AC87
:1039200024780194002901DA5B180021C468CD18BD
:10393000A54201DD631A013B8C4227DD002B25DD0A
:10394000002A23DB0569954220DDD61066436543D6
:1039500076189B19ED10AB4218D80568EC180723B0
:103960001A40063B9340AD19DBB20093761BA919B0
:10397000AC420BD03800FFF781FF0099019A01405B
:103980002878FFF75DFF28700135F0E7F7BD0000EC
:10399000F0B585B01F000AAB1B78060002930BAB95
:1039A0001B780393002A01DABF1800223369D0196B
:1039B000984201DD9F1A013F934249DD002F47DD08
:1039C000002945DBF3688B4242DD0724D5105D43B7
:1039D00014406D18002C15D008221E4B141BE4B2A5
:1039E0001A5DBC4203DDFF23E11B0B411A40002D91
:1039F00006DB039B290000933000029BFFF759FF71
:103A0000F368ED18BC4223DC3C1B072C11DD2700BA
:103A1000002D07DB039BFF2200932900029B30004F
:103A2000FFF747FFF368083FED18072FF0DC072387
:103A30001C40002C0CD0002D0ADB0722064B144042
:103A40001A5D039B290000933000029BFFF731FFB2
:103A500005B0F0BDE76A0000EF6A000082B0F0B583
:103A60008FB01C00159317AB1B780600049318AB9E
:103A70001F780A910B92169BA14210D1934201DA52
:103A80000B93130004980B9A00909B1A0197300037
:103A9000FFF77EFF0FB0F0BC08BC02B0184793429E
:103AA0000ED1A14201DD0A940C00042101910021F4
:103AB0000A9B0091E31A0A993000FFF72DFFE9E70E
:103AC000981AC517401968400590601AC517401923
:103AD00068400690069D0598A84204DD0A922200DF
:103AE0001C0013000B910A9AA24204DD0B990A9460
:103AF0000B9314000B000A9AA21A03920B9A991ABC
:103B0000C8170918414008910399CD0F6D186D1021
:103B10009A4220DA012307930A9BA342BADC059A52
:103B200006998A421ADD0D933B000B9A0CA90C9260
:103B3000049A3000FFF7D4FE089BED1A07D5079AC8
:103B40000B9B9446099363440B93039BED180A9BCC
:103B500001330A93E0E701235B42DCE73B00049A70
:103B60000AA9E6E7F0B591B00F9217AA12781D00E6
:103B7000099218AA127816AB06000F000E911B7856
:103B80000A9200296DDB012422006968C0688A401E
:103B90000292821ABA4264DB0F9A002A61DBA9689A
:103BA0008C4031690C1B94425BDB00212C78049122
:103BB0001B1B6C78A34203DCE9689B005B580493F1
:103BC000D2104243049BD71901930123AA68049998
:103BD00093406A689340019ADB10521A934240DD89
:103BE000002F37DB029BF168FA1833694B43DB1077
:103BF0009A422FD833683C0003939B18029A05938E
:103C00009446019B63440893039B0B93019BDB1B2E
:103C10000C93019BDB1B0D930B9B059A1B199A427E
:103C200018D00C9B089A1B199A4213D0039B2100B1
:103C30001B5D099806930D9B1B5D0793FFF71EFE06
:103C400007990A9A01400698FFF7FAFD039B185559
:103C50000134E1E7029AF3689446FF18019B63443C
:103C6000B2E711B0F0BD82B0F0B585B00192026844
:103C70000B939C460C9B002A04DA8468A21882608D
:103C8000002202604268002A04DAC468A218C260F6
:103C9000002242600468654626002E414268AE401C
:103CA00015001D419D40C768521BD2198768A41B8F
:103CB000E4191A4167469A403C410092BC40C260F8
:103CC00001220660BA40456084600127944200DA10
:103CD00082609F40009BBB4200DAC7608368F61891
:103CE0008E4201DDC91A0160C268019BAD189D4278
:103CF00001DD9A1A426005B0F0BC08BC02B018475A
:103D000084B0F0B5040089B0119315AB1B78109204
:103D100003932200002304AE370008C20F9113A9B9
:103D20009C4628C928C70FA82AC82AC2016863462A
:103D300011600322201D00920499059AFFF793FF5A
:103D4000E36820695843C01002F06CFB0600E76886
:103D5000236920605F43FF10C719BE4206D03100BF
:103D60000398FFF78BFD30700136F6E7200009B0AD
:103D7000F0BC08BC04B01847F7B50192002208ACAB
:103D800026880AAD09AC0BAF2D783F7824784261C4
:103D9000019A477346818573426001600372047320
:103DA000FEBDF0B5478985B005000068FCB203ABE5
:103DB0003F0A1C705F70002807D06C7B0093019451
:103DC000012300F0B8F805B0F0BD6E68301EFAD0DF
:103DD000287A8446687B6546032D09D1023DAF43AE
:103DE0001F705C7040190090300000F061FAEAE743
:103DF000002D03D17F352C401C70F4E7022D02D139
:103E0000823D2C43F8E7012DEDD17E352C403F3D1E
:103E1000F7E770B50300002A00D1027B0020042AD6
:103E200015D85C0059619818141983420AD09E7BFA
:103E3000CDB2002E04D1261AF573090A0138F4E731
:103E40008573FAE7190018000F31FFF7AAFF70BD5C
:103E5000F0B5468985B004000068F5B20B00360A5B
:103E600003A994460D704E70002808D0627B002490
:103E700001946446009400F0C3F805B0F0BD676893
:103E8000381EFAD0207A627B03280CD10238064310
:103E90000E704D701218FF2001906046009038009F
:103EA00000F026FAE9E7002802D18038054303E054
:103EB000022803D17D3005400D70ECE70128EAD1DE
:103EC0004138F3E7010010B50F31027B0400FFF722
:103ED000BFFF002811D00020227B6100A3185218D8
:103EE0009C420CD0A17B0002002903D1997B08439E
:103EF000013BF5E7D11AC97BF9E70120404210BD2B
:103F0000016002714371704770B5050000680C00D4
:103F1000FFF7D8FF01212B796E79994001390B0009
:103F2000B340214098430300B14028681943027B05
:103F3000FFF76FFF70BDF7B5099D16000193531988
:103F4000C26804000F00934201D90020FEBD017831
:103F5000406800F041FA002D0FD16068320003681C
:103F600039005B6898478642EFD10199606800F09C
:103F7000A2FA43425841C0B2E8E7089B002BECD0BC
:103F800060682A00036808995B689847A842DCD1FA
:103F9000E3E7F8B505000F0016000178D2B24068DB
:103FA00000F037FA002486420AD1A64207D9686891
:103FB00003685B69984738550134A4B2F5E70124DA
:103FC0002000F8BDF7B5070016000024009101930A
:103FD000B44213D2FB68351B9D4200D91D00721BF1
:103FE000019BA24200D90023009A380011192A002F
:103FF000FFF7CFFF002802D06419E9E70120FEBDDA
:1040000073B5040000201D0006AB40CB1B78019067
:1040100000902000FFF78FFF002805D00123320019
:1040200029002000FFF7CEFF76BDF8B51E0006ABD5
:104030001D78FF2343740374C373079B1700036049
:104040000300002234330400426081731A70082098
:1040500002F0E4F90760057146716060A76026739D
:1040600065732000F8BD70B504000E202056431C77
:1040700007D0C0B2012101F0FBFBA07B012101F0C0
:1040800043FC2568002D07D02B682800DB6A984781
:1040900001203434207070BDE07B012101F0E8FB89
:1040A000637BE07B2900012B00D9012101F02CFC6E
:1040B00010202056431C07D0C0B2012101F0D8FBCC
:1040C000207C012101F020FC11202056431CDFD070
:1040D000C0B2002101F0CCFBDAE70000F0B504002B
:1040E000006889B00E001500002804D003681B6921
:1040F000984709B0F0BD8022237B0292002B01D1AA
:1041000001330293029A3378A16813405A42534113
:104110004948DBB2059302F0BFF96B4601901B7969
:10412000039373190793079BB342E2D000273378B8
:10413000029D0693039B002B04D0FF230198184097
:1041400001F02EFA0221627BA3698A4346D1102234
:10415000A256013212D0069929400A00501E82410F
:1041600005980491824209D0606A626984460029F8
:104170002ED0116801431160012205921A68E16A8C
:104180000A431A60039B002B04D0FF2301981840B8
:1041900001F006FA1123E356013306D0E369A26A5F
:1041A0001B681A4201D02F43FFB2A269E16A13686B
:1041B0008B4313601123E356013300D03770237B08
:1041C000002B37D16D00EDB2002DB3D10136AAE737
:1041D0006146106888431060049ACEE71A68E16A65
:1041E0000A431A60039B002B04D0FF230198184058
:1041F00001F0D6F91023E356013307D0069A63691C
:10420000616A154213D01A680A431A60A269E16A0A
:1042100013688B4313601123E3560133CAD0E3695B
:10422000A26A1B681A42C5D02F43FFB2C2E71A68C0
:104230008A43EAE76D10C6E720A1070013B56B4675
:10424000DC1DD97101222100FFF748FF207816BD3F
:10425000036810B5002B06D0426819681800CC69B5
:1042600011685268A04710BD006810B5002802D040
:1042700003681B6A984710BD10B5807B40B2431C91
:1042800003D0C9B2C0B201F03FFB10BD10B50400AD
:10429000FFF7DEFF00212000FFF7EEFF10BD10B595
:1042A00004000121FFF7E8FF2000FFF7DDFF10BD4C
:1042B000F7B51D0006000C000192FFF7E7FF089B11
:1042C000EF18BD4209D1019BE518AC420BD0217813
:1042D0003000FFF7B3FF0134F7E729783000FFF72C
:1042E000ADFF0135EDE73000FFF7D9FF0120FEBD3E
:1042F000F7B5009308AB40CB0C001B781700050006
:104300000193FFF7C3FFE719BC420AD1009CA6192D
:10431000B4420CD001992800FFF790FF20700134BF
:10432000F6E721782800FFF789FF0134ECE7280041
:10433000FFF7B5FF0120FEBD00207047F8B505006E
:104340000E0017000024BC4208D02B68315D1B68AA
:1043500028009847002801D00134F4E72000F8BD78
:10436000006E70477047036E002B03D0C36DC018FA
:10437000007E704701204042FBE70000F7B5019343
:10438000FA230025402604009B008360114B0F0098
:10439000083345600360290000921830320002F0B3
:1043A00053FA2000A5653200E565290025666430D2
:1043B00002F04AFA2300A4331D605D609D606B46E5
:1043C0001B78276123756B461B79A57520006375E3
:1043D000FEBDC046F86A0000837D002B01D000209E
:1043E00070470200B03211700C3A13605360936052
:1043F00001238375F4E7836C402B09D03F22036CC3
:10440000C154036C013313400364836C0133836430
:104410007047F7B500250400170001932800AA4251
:1044200026D0A5650122E5652069256601F036FCE8
:10443000A8421CD026001836206901F0B9FC0135CD
:1044400001003000FFF7D7FF2069AF4206D001F02E
:1044500005FC0221206901F00BFCEDE701F0F6FB01
:10446000019B002B03D00321206901F001FCE8B27D
:10447000FEBD002310B5827D9A4208D00200AC3206
:104480001268402A03D06430FFF7B5FF01231800FB
:1044900010BD836C002B0BD03F21436CC25C436C7E
:1044A00001330B404364836C013B8364100070470D
:1044B00001204042FBE70300002270B5B033827553
:1044C00004000E000069197801F0E8FB002806D10D
:1044D0000321206901F0CCFB0225280070BD2300D8
:1044E000AC331D68002D10D0200064302569FFF723
:1044F000D0FFC1B2280001F013FC0028EFD1032146
:10450000206901F0B5FB0325E7E7002EE5D0032184
:10451000206901F0ADFBE0E710B51830FFF7B9FFF7
:1045200010BD70B50400006901F020FC002814D013
:10453000206901F029FC002810D0206901F08EFBD1
:104540000321206901F094FB2300B8331D68002D7E
:1045500032D10023A365E365236670BD206901F0B5
:104560001DFC002809D0206901F013FC002804D0AC
:10457000206901F018FC0028DFD0206901F00EFC52
:1045800000281FD1206901F0FAFB0028E5D020693E
:1045900001F009FC00282FD02300AC331B68FF2159
:1045A000002B04D020006430FFF773FFC1B22069F4
:1045B00001F0CEFBA075D0E7236820001B69984767
:1045C000A847C6E7206901F049FB2069032101F0F3
:1045D0004FFB206901F0E7FB0028BED0220000233A
:1045E000A4321360536093600133A375B43423681D
:1045F000002BB2D09847B0E7236E2069402B06D13C
:1046000001F024FB0321206901F032FBA5E701F052
:10461000CFFB010020001830FFF7EDFE206901F00C
:104620001DFBEFE710B50248FFF77BFF10BDC0464A
:104630001401002010B51523142202490248FFF787
:104640009DFE10BD980600201401002070B50600E4
:104650000C008D18AC4207D0336821789B6830007D
:10466000984720700134F5E770BD7047704710B56A
:104670000400406801F0B8FA0023237610BD10B59D
:10468000406801F0D6FA10BDF8B5050040680C008E
:1046900001F0CAFA2B68E7B2260A9B68012810D1FC
:1046A00039002800FF2798472B68BC4304439B68C8
:1046B000310028009847030220003840184380B298
:1046C000F8BD310028009847FF262B6800023440CF
:1046D00004439B68390028009847B4432043EEE721
:1046E00010B5040001F0A2FE200010BD10B54B1C57
:1046F0000BD0102909D0EFF3108472B6102905DD14
:1047000002234376002C00D162B610BD0123427E05
:104710001A43427618224A430449891816228A56B7
:104720009340C2691343C361ECE7C046686B000065
:104730004B1C17D0102915D0437E9B0712D4EFF3E2
:10474000108272B618234B430749C9180123897D8B
:1047500049B28B40C1699943C16100D14176002AB9
:1047600000D162B67047C046686B0000437E002BE4
:1047700005D09A0704D5837E002B00D062B670471F
:10478000DB07FCD5C369024A9BB2D360F7E7C0469A
:1047900000180040037E002B04D143768376C3616A
:1047A00001330376704700007FB5036902AE040051
:1047B0000D00029172608B4203D1828AB3889A42C3
:1047C00026D0200006223100103002F021F8606867
:1047D00001F021FA7379E17A013B581E8341227B73
:1047E00000936068002301F07DFB33790021013BD9
:1047F000DBB2022B01D8074AD15C074B2A009D424D
:1048000000D91A00606801F0D7F9606801F0F9F981
:104810007FBDC0461C6B0000001BB70070B518269A
:104820000400FFF7B7FF33000821207A0D4D434302
:10483000EB18595601F094F833000821A07A43434D
:10484000EB18595601F08CF80821607A4643AD19EF
:10485000695601F085F8044B200006CBFFF7A4FF52
:1048600070BDC046686B0000F001002007B5437EB4
:1048700000910192002B07D09A070AD5EFF310831D
:104880005A425341837672B60099019AFFF78CFF22
:1048900007BDDB07F8D5C369014A9BB29360F3E714
:1048A000001800400E490F4B10B501220B60002389
:1048B0004A710B710C490D48083101600C49427571
:1048C00041600C49C2720181182103618172037534
:1048D000094A0A490376037301F0B0FD10BDC046D2
:1048E000F001002000093D00206B0000D0010020F5
:1048F000A006002016170000000000206D460000F2
:10490000002303604360103303727047F0B54668BC
:1049100093B00400002E33D0036800220521012546
:104920000027049300F046F8022332000193009020
:104930005B1904990395029706A8FFF71DFA2268F0
:10494000667A049262680521059267723A00200037
:1049500000F030F8022300900193059A5B19049946
:10496000039502970CA8FFF707FA2A000821667240
:104970000CA8FFF74EFA2A00082106A8FFF749FA0B
:1049800013B0F0BDF7B506004372382017000D00D4
:1049900001F044FD0023040069B201970093044A2A
:1049A0000133FFF742FB74602000FFF75CFBFEBDA4
:1049B00040420F00037A89B2082B01D94900114304
:1049C0004368002B06D0437A80205B02C001184365
:1049D000014389B2080070470723F0B58B42BF41FD
:1049E00097B07F4205920E003A0000210124050095
:1049F000FFF7E0FF00220090029203236A68296813
:104A0000039401940AA8FFF7B7F93A000621280099
:104A1000FFF7D0FF002200900292039406CD01948C
:104A2000032310A8FFF7A8F907231E403300220034
:104A30000AA906A8FFF764FA2200330010A908A803
:104A4000FFF75EFA059B06A8591E4B1E9941FFF71A
:104A50005BFA059B08A8991E4B425941FFF754FA8F
:104A600017B0F0BDF0B507278FB005928F42924185
:104A70000C005242092101250600FFF79BFF06CEDC
:104A800000230090029303950195033308A8FFF7D4
:104A900073F923002A003B4008A906A8FFF730FA63
:104AA000059906A84B1E9941FFF72EFA0FB0F0BDED
:104AB00030B503AC2578FF2404710024C5708460F0
:104AC000C46001704270837030BD70B504AC26784C
:104AD00005AC25780024C67005718460C46001703F
:104AE0004270837070BD10B5FF248370029BC47048
:104AF0008360039B047101704270C36010BD70B588
:104B000004000500C61C2878FF2802D0012100F00F
:104B1000AFFE0135B542F6D1E078FF2802D0012181
:104B200000F0A6FE2079FF2802D0012100F0A0FEAF
:104B3000A368002B00D0984770BDF8B505000E00A3
:104B400000240127285DFF2804D03100214139408D
:104B500000F0DAFE0134032CF4D1F8BD10B5C368BF
:104B6000002B02D00800984710BDC078FF28FBD06A
:104B700000F0CAFEF8E7000082600022C360084B24
:104B800082B008330360059B01710361039B43619D
:104B9000049B8361029BC361431CDA7702B07047B8
:104BA0005C6B000070B504000D004369002198475C
:104BB0002000A369012198472000636901219847DB
:104BC000E069290003689B68984763690021200019
:104BD000984770BD4B1E994110B5AE31FFF7E2FF0B
:104BE00010BD70B50D0004008121FFF7DBFF290027
:104BF0002000FFF7D7FF70BD70B5040016000D0050
:104C00004369002198472000A369002198472000AC
:104C1000636901219847E0693200036829001B6934
:104C20009847636900212000984770BDCB68F7B5AD
:104C3000DDB204000E00002D37D00B69DA10D3B2BC
:104C40000093002B31D00369DF794B68DF198B6843
:104C5000FFB2D910CBB221210193FFF7A3FF7F212F
:104C600020003940FFF79EFF7F23691E7918072730
:104C700019402000FFF796FF22212000FFF792FF46
:104C8000019920003940FFF78DFF009A019B94465F
:104C900063441900013939402000FFF783FF009A6F
:104CA00031686A432000FFF7A7FFF7BDF8B504009D
:104CB00043690E0000211700984700212000A369D6
:104CC000984701212000636998470025BD4207D01D
:104CD000E0693100036801359B689847ADB2F5E79C
:104CE0006369002120009847F8BD10B50400212118
:104CF000FFF758FF20000021FFF754FF20007F211D
:104D0000FFF750FF20002221FFF74CFF2000002179
:104D1000FFF748FF20000721FFF744FF8022002112
:104D2000D2002000FFF7C2FF10BD3F230B404021FF
:104D300010B51943FFF736FF10BD70B50D00040024
:104D40002021FFF72FFF29002000FFF72BFF70BD68
:104D50004B1E994110B5A031FFF724FF10BD4B1E2B
:104D6000994110B5A631FFF71DFF10BD70B50C00BD
:104D7000A8210500FFF716FF3F2128002140FFF77B
:104D800011FF70BD10B5C823002900D1083B1900E0
:104D9000FFF708FF10BD70B50C00D3210500FFF729
:104DA00001FF3F2128002140FFF7FCFE70BD70B5D8
:104DB0000C00D52116000500FFF7F4FE0F210C4072
:104DC000310121432800C9B2FFF7ECFE70BD70B578
:104DD0000D000400D921FFF7E5FE29002000FFF7B0
:104DE000E1FE70BD70B50E00DA2105001400FFF77A
:104DF000D9FE1221002E00D11039631E9C4164019E
:104E000028002143FFF7CEFE70BD10B50400DB2162
:104E1000FFF7C8FE40212000FFF7C4FE10BD70B5AB
:104E20000D008D210400FFF7BDFE5021002D00D1A3
:104E300040392000FFF7B6FE70BD10B50400AE216A
:104E4000FFF7B0FE236920005A7A197AFFF7AFFF07
:104E5000236920001979FFF789FF236920009979D8
:104E6000FFF799FF236920001978FFF75EFF236998
:104E70002000997BFFF7D3FF20000021FFF75DFFA3
:104E8000236920009978FFF763FF2369200059798F
:104E9000FFF778FF236920001A7BD97AFFF7A2FF7A
:104EA00023692000997AFFF792FF23692000597B3C
:104EB000FFF7ABFF2000A421FFF774FE2369200059
:104EC000D978FFF74CFF236920005978FFF789FE56
:104ED0002E212000FFF766FE10BD836000230160D5
:104EE0004260C36003614361704770B504000368AA
:104EF0009847002063689847A368012098470120DD
:104F000000F02CFBA368002098470A2000F026FB45
:104F10000120A36898472669E568AE4203D001CD19
:104F2000FFF78BFFF9E7012000F018FB0120636811
:104F30009847012000F012FB2669E568AE4204D0D4
:104F4000012101CDFFF746FEF8E7642000F006FBE3
:104F50002569E468A54203D001CCFFF7C6FEF9E756
:104F600070BD0000F0B54368076885B0DB1B050025
:104F7000029114009B100126002B00D01E00029A03
:104F80009E19D71B1E4AB34233D8964231D8002E01
:104F900030D10196019BDF19002F01D023683B60BF
:104FA0002F68029BDC1B9F4204D02200390001982D
:104FB00001F037FC019B04341C19029A6B689A1AA1
:104FC0000392029A934204D0039A0299200001F0BE
:104FD0001FFC039BE418002F02D0380001F026FAD2
:104FE000019B019A2B60B300D3186C60AB6005B0D5
:104FF000F0BD1600B00001F011FA0190CAE7C046FA
:10500000FFFFFF3FF0B58BB008AD05932B00049276
:105010000F0004A9040005C905C3242001F0FEF90E
:105020000600139B39000393129B089A0293119B6D
:105030000193109B00936B68FFF79EFD21696369E4
:105040000796994206D0002900D00E6004312161F4
:105050000BB0F0BD200007AA0C30FFF783FFF7E785
:1050600070B505000024AB6A686AA34207DDA3009F
:105070001858002801D001F0DDF90134F3E70028C9
:1050800001D001F0D7F9280070BDF0B593B01D0034
:105090000593189B06000F0014000492002B11D1F9
:1050A000836806929A680123934004220292189A18
:1050B0005B19079301920093210023002A00380016
:1050C000FEF7CCFCB36A189A013B934217D1012337
:1050D000B26819005068926881409340042202929D
:1050E0000022091901395B190B93019200932A00E0
:1050F0000B003800089109950A91FEF7AFFC199B47
:10510000002B10D1B36804995A68012393400422FC
:105110000292199A1B1901920095059A38000C9376
:105120000D95FEF79BFCF36A199A013B934214D14B
:105130000123B1681A008868496882408B400421C5
:10514000029100215219013A01911B19009221008C
:1051500038000E940F92FEF781FC13B0F0BD84B0BE
:10516000F0B5040099B02193C36920920D93036AAE
:105170001F910E9383689A680092C169026A5B6806
:105180001FA8FEF770FDA069636984461F9A229DDF
:105190009918209B0F91634410931A00219B12953C
:1051A00005931193230033331B7801A80393230045
:1051B0000C33C0CBC0C00095059B13A8FEF7A0FD23
:1051C000A168209B8A6800251341DBB20693219BCE
:1051D00005934B6805991941CBB20793229B134164
:1051E000DBB20893069AEBB2D218D2B20592089AB3
:1051F0009A423BD9A3681F9A5B6800261A41D3B232
:105200000993099AF3B2D718079AFFB29A422BD999
:105210003100A3685A68986891402A0082402000B3
:105220000B910C92353000789C460290200034306F
:105230000078636A0190B800C058059BC05C634663
:10524000009013A8FEF78EFC230030331B78002B50
:1052500008D0059B009701930B9A0C9B13A9200083
:10526000FFF713FF0136CCE70135BBE7636813A9ED
:105270002000984713A8FEF746FB19B0F0BC08BC05
:1052800004B01847F0B587B014000B0002AA0E0056
:1052900011000C33050081CB81C10321002305914E
:1052A0000091039A029920000493FEF7DCFCB36896
:1052B000F1689A68200000925B683269FEF7D3FCBF
:1052C0002B0007CC07C3280022681A6007B0F0BD86
:1052D00082B0F0B58BB011933523040004A81B18DD
:1052E000DB7F150002931AAB1B78217003931BAB75
:1052F0001F781CAB1B78A56004931DAB1B7811AA0B
:1053000005931EAB1E781FAB1B786370189B636000
:1053100023000C3303CA03C3200013AA1430210056
:10532000FFF7B0FF0023E06963626B68226A1841EF
:10533000AB68A0621A41E2626A462300127A3033F7
:105340005A706A46127B1F709A706A46127C5E71B0
:10535000DA706A46127D1A711B4B984210D8800091
:1053600001F060F800256062A36AE06AAB420ADDE2
:10537000636AAE009E1901F055F801353060F3E71D
:1053800001204042ECE70022E36A93420EDD002157
:10539000A36A8B4208DD5343656A88004059613334
:1053A0005B1883540131F3E70132EDE70021236AF2
:1053B000200000930A00E369FFF7D1FE20000BB044
:1053C000F0BC08BC02B01847FEFFFF1F10B5024832
:1053D00000F02BFF10BDC0463C04002010B5024871
:1053E00000F023FF10BDC046F8010020F7B50124EE
:1053F0000326154F1549380000F04EFB1449154897
:1054000000F04AFB1449154800F046FB14491548C2
:1054100000F042FB1449154800F03EFB144D1549BD
:10542000280000F039FB3900009623000194002287
:10543000114800F073FE0096290001941E231F22DC
:105440000E4800F06BFEF7BD800600200008004209
:10545000000C004288060020001000429006002048
:10546000001400429806002000180042A006002008
:10547000A8060020001C00423C040020F801002087
:10548000FEE70000034B10B51B68002B00D09847C7
:1054900010BDC046B006002070B50F490F4CA142A8
:1054A00004D100F08BF800F0A5FFFEE70C4D0023BF
:1054B0008D42F6D0CA18E818A24205D3094B8242A1
:1054C000EFD00949002204E0006804331060F1E7DE
:1054D00004C38B42FCD3E4E70000002090000020CE
:1054E0005070000090000020C806002010B500F0A9
:1054F00063F8002801D100F049F810BDF7B5134852
:10550000012284461249134C8E68636805689B0E1D
:105510001340019288686268019F920E3A40674684
:105520003F6893420ED1BD420CD186420AD35B192B
:10553000FA254868AD00861B07486B437043000D91
:10554000C018FEBD3D0013000600E3E7B4060020CE
:1055500010E000E000ED00E05555000070B5041EBD
:1055600010D0FFF7CBFF050000F025F8FFF7C6FFCE
:10557000054B401B9842F7D9FA23013C9B00ED18DC
:10558000002CF3D170BDC046E703000010B5034AFC
:1055900013680133136000F043FA10BDB406002015
:1055A00010B5002806D030230321584300F074FFC3
:1055B0000138FDD110BD7047002070471E2270B524
:1055C00046484749436893431C3A134343600823C2
:1055D0008C6923438B61434C434B9C829C8A1443CC
:1055E0009C82DC681442FCD00124404A1470157877
:1055F000254203D055786DB2002DF8DB012494606C
:10560000547864B2002CFBDB394C5460547864B29B
:10561000002CFBDB8224E4015480547864B2002C1B
:10562000FBDB02249C840E34DD682542FCD0314C27
:10563000DC621024DD682542FCD09D8C2E4C2C436E
:105640009C841024DD682542FCD002249D8C802699
:105650002C439C844024DD683542FCD0DD68254223
:10566000F9D01024DD682542FCD0002494605478E1
:1056700064B2002CFBDB214C5460547864B2002CE3
:10568000FBDB1C6A1E4D2C4080251C621C6AAC434F
:105690001C62032393601B4B536053785BB2002B57
:1056A000FBDB0023FF240B72174A4B728B72CB7209
:1056B000164B1A60164B174A1B6811689A065B0155
:1056C000C90E2340520F12020B431343124A138593
:1056D000802342681343436070BDC04600400041D0
:1056E000000400400C06000000080040000C0040D0
:1056F00001050100B905FF7D040A00000007030051
:10570000FFFCFFFF03060100006CDC020400002028
:10571000246080002060800000400042FA21314B6C
:1057200010B51868890000F0B7FE2F4B0138984279
:1057300056D82E492E4A4860C020136A00061B0224
:105740001B0A03431362002407238C600B60802133
:10575000136A09061B021B0A0B431362FC22254B2A
:10576000196A0A431A62FC22196A92010A431A62F0
:10577000A022196AD2020A431A62E0B2002101345F
:1057800000F076F8142CF8D11B4B1C005A7852B25A
:10579000002AFBDB194A5A80194B1A00597EC909A5
:1057A0000129FBD0E421C90099803F21D970537EA3
:1057B000DB09012BFBD0C02300205B01136190703B
:1057C00000F024F863785BB2002BFBDB0D4B0E4A34
:1057D0006380D379DB09012BFBD04123537010BDCB
:1057E000FEE7C04604000020FFFFFF0010E000E0DD
:1057F00000ED00E000040040000C00401E400000EE
:10580000004000422140000000480042164A00B516
:105810001300517EC9090129FBD00138042816D88C
:105820001969124A0A400F211A615A788A4300F016
:1058300029FE0308060B0300110001220A435A70D7
:1058400000BD11000322F9E711000222F6E7F02360
:1058500011691B050B430F21136153788B4319000A
:1058600002230B435370EBE700400042FFFFFFF0C1
:10587000182330B51D00040045430820204A55195F
:105880002856013014D0032912D808006343D1569A
:10589000D31800F0F7FD02280E1B5868CB01022137
:1058A000184A9B181A1840321170012282405A601F
:1058B00030BD5868CB010621124A9B181A18403295
:1058C0001170012282405A609A61F1E75868CB0159
:1058D00006210C4A9B181A1840321170012282408E
:1058E0005A605A61E4E75868CB010221054A9B18C7
:1058F0001A1840321170012282409A60D8E7C046DF
:10590000686B0000004400411823F0B50824584398
:10591000114A13181C5701341BD0012635005F684B
:105920008356BD400D4ADB019A18906805420BD1A1
:105930000C00601E8441D219403210783440033686
:10594000A400B04320431070044A9B18002901D1E1
:105950005D61F0BD9D61FCE7686B000000440041A3
:1059600018224243F8B52C4E0300B218127A52B2F4
:10597000140001320ED0481C00240C280AD800F074
:1059800081FD0720202020202020200B0B0B0B0066
:10599000012464422000F8BD092905D10021D8B2B4
:1059A000FFF766FF0024F5E70A2902D1D8B20839CB
:1059B000F6E700240B29EDD1D8B20A39FFF758FFDA
:1059C000E8E718204343F2185568F3562C00134AB1
:1059D000DB016E0817389B18C9B204409E19002CD1
:1059E0000DD00F2430363278090122401143C9B25C
:1059F0005B19317040331A7810431870D2E73200C7
:105A00000F27303216785B19BE4331431170403393
:105A10001A7810431870BDE7686B0000004400411D
:105A2000164A10B51368591C26D0013B1360002B91
:105A300022D172B6124B134A0433934213D9124A3D
:105A400001211000147D0C42FCD02021148BFF3169
:105A50009B085B0021431183D3610C4B138001230E
:105A6000027D1A42FCD0BFF34F8F094B094ADA601E
:105A7000BFF34F8FC046FDE710BDC04608000020B1
:105A800000200000030200000040004102A5FFFFCB
:105A900000ED00E00400FA05002303710160704787
:105AA0009446F0B59E1E721E9641624605689207A6
:105AB0002F6836063A4332432A60072505AC24781E
:105AC0000068A4012940214342680024022B00D031
:105AD0005C03114321434160F0BD30B5C02503682C
:105AE000AD031C6812052A402243C0240904A40205
:105AF00021401143196003685A6814435C6030BD4B
:105B00000123026811680B43136003681A68D20707
:105B1000FCD4DA69D207F9D470470223026811680D
:105B20000B4313600268D3699B07FCD4704702687B
:105B3000137E9B0702D40379002BF9D10023037154
:105B40007047002203685A8370470368187E400735
:105B5000C00F70470368187EC00970478023026831
:105B60005B42117E0B43137670470368588B8007A6
:105B7000C00F704702230268518B0B435383704759
:105B80000368187EC007C00F70470368188DC0B245
:105B9000704703681A7ED207FCD589B219850123A4
:105BA000037118007047012203689A75704701223B
:105BB00003681A757047000070B5012604684B0829
:105BC00033403140256809075B070B432B432360B3
:105BD00004685100034800F05FFC0138C0B2207334
:105BE00070BDC046006CDC020123026811680B43E3
:105BF000136003681A68D207FCD4DA69D207F9D4B3
:105C000070470223026811680B4313600268D3696E
:105C10009B07FCD470470368DA699207FCD4022121
:105C20001A688A431A607047036818684000C00FFA
:105C300070470268936A5B0A5B02194391620368CA
:105C40001A7E5207FCD5986AC0B27047802302685A
:105C5000DB02116851680B435360704703680349C6
:105C60001A685A680A405A607047C046FFFFFBFF37
:105C7000032230B5036811401C68074D5A680904B7
:105C80002A40E4061143640F5960052C03D10268D1
:105C9000D3695B07FCD430BDFFFFFCFF70B505681E
:105CA00004006B8B9B069B0F022B0DD06B8B00208F
:105CB0009B069B0F032B32D06B8B9B0704D56B8B02
:105CC0009B069B0F012B2AD16B6A49001143DB0A0B
:105CD000C9B2DB020B436B622368002A13D11A7E20
:105CE000D207FCD55B8B9B069B0F022B04D0490887
:105CF00000222000FFF7D2FF2368588B4007C30F14
:105D0000012058400BE0187E8007C00FF4D11A7EA6
:105D1000D207F8D5C022596892020A435A6070BD72
:105D20000368283319700268107EC007C30F508BB8
:105D3000002B06D1C007C00F08D1538B9B07F3D5AA
:105D400070474007C30F01205840F9E71800F7E7F4
:105D5000036828331970036800201A7E520704D59F
:105D6000588B01234007C00F5840704703681868DC
:105D7000C006400F043843425841C0B27047036820
:105D8000187E4007C00F70470368187EC007C00F19
:105D900070470368588BC006C00F70470368187EB1
:105DA0008007C00F70470368588B0007C00F70470B
:105DB00003681A68D206520F052A05D11A7E920787
:105DC00002D41A7ED207F9D528331878C0B27047AA
:105DD0000368214A30B593422FD0204A93422FD0F6
:105DE0001F4A93422FD01F4A93422FD01E4A9342FC
:105DF0002FD01E4A93421FD10E23192201210325C1
:105E000099401B48C024016099082B40AB40FC35E9
:105E10009D4089000918A4000859A843C0259D4049
:105E20002B0003430B518023DB011A43114B5A8093
:105E30005A7852B2002AFBDB30BD09231422DDE779
:105E40000A231522DAE70B231622D7E70C231722A1
:105E5000D4E70D231822D1E700080042000C0042CD
:105E6000001000420014004200180042001C0042D2
:105E700000E100E0000C0040F8B504000F0016003F
:105E80001D00FFF7A5FF2000FFF73AFE1C21BB0015
:105E90000B4071072268090C0B43136084232268AE
:105EA0009375012F1AD11021012E00D008390C4B07
:105EB00069431868C00000F0EFFA07222168024029
:105EC0008B895203DB04DB0C13438B8122680304B0
:105ED0009089DB0C400B400318439081F8BDC0460D
:105EE00004000020F7B50600019308AB1F780D00F1
:105EF0001400FFF779FE3000FFF76AFFC022240587
:105F000092031440BA070C2717433C43C0270722CB
:105F1000BF022D0433683D4025431D60019B31685D
:105F200013401A0080239B0213434B60F7BD0120EE
:105F30007047000010B50368014A1B6A984710BDFE
:105F400013040000FC30006A704787239B00C018D0
:105F5000C36880204000C01A70470300FC331A6AEF
:105F6000002A03D0DB69C018007D70470120404241
:105F7000FBE710B504000069FFF7C2FD2200002313
:105F8000FC329361D361136287229200A41863608C
:105F9000A360E36010BD872310B59B00C218D368CF
:105FA000002BFCD10069FFF7C2FD10BD0368002B78
:105FB00002D162B6BFF36F8F7047F02001403039D5
:105FC000484248417047F0231B01194080230620B6
:105FD0009B0099420AD00133FF330130994205D02A
:105FE000802302385B00994200D0002070470F20C8
:105FF00001400020012903D00239481E8141481C7C
:10600000704700008B23F0B5182685B002919B00E5
:106010000400C05C330008214343324D1700EB18E5
:106020005956FFF79DFC304B0821E05C3300434399
:10603000EB185956FFF794FC2C4BE25C0393022AB1
:1060400009D11133E05CFF2805D008214643AE1981
:106050007156FFF785FC8C26B600A05DFF2819D08D
:106060000121FFF705FC1822A35D21495A43AB56D5
:10607000AD18DB0158188D21890060501D4901229F
:106080005B188E218900635069688A408F218900DE
:1060900062501A600122029B11002069FFF7ECFE9A
:1060A00039002000FFF78FFF390005002000FFF7BF
:1060B0009EFF390006002000FFF77FFF33000090AD
:1060C000290020690122FFF7EBFC0B4B2069E25C01
:1060D000039BE15CFFF701FD2069FFF71EFD05B0A2
:1060E000F0BDC046686B00002D0200002F020000CA
:1060F00018440041144400412E020000802210B5D3
:1061000004005200002100F09FFB23000022FC331A
:106110005A6020009A60DA6010BD0000F7B51D00DB
:1061200008AB1B780400009309AB1B7816000193A1
:1061300000234360FA239B008360114B0F00083358
:1061400003601430FFF7DAFF20002130FF30FFF743
:10615000D5FF8B236A469B002761E654094B1278D2
:10616000E554094B2000E2546A46084B1279E25488
:106170008C22313BFF3B9200A3541032A354FEBD4E
:10618000B86F00002D0200002E0200002F02000058
:10619000F7B5EFF3108300930123019372B68026C5
:1061A0000200FF25019BFC327600013B5C1C0FD0F6
:1061B000D4685F1EB44209D0546801555468013454
:1061C0002C405460D4680134D460EEE73B00EDE726
:1061D00068460193FFF7EAFEF7BD13B5EFF31083AE
:1061E00000930123019372B6019B5A1E0192002B6A
:1061F00015D00300FC33DA68002A0DD09A68845C5D
:106200009A680132D2B29A60DA68013ADA60684676
:10621000FFF7CCFE200016BD01246442F7E70124FD
:106220006846FFF7C3FE6442F4E710B50400006956
:10623000FFF79BFC002805D02069FFF7A6FC20692A
:10624000FFF798FC2069FFF780FC00281BD020692D
:10625000FFF79BFC010020001430FFF799FF8C230F
:106260009B00E35CFF2B0ED02300FC331A6A8023D3
:106270005B009B1A092B06DC8D238F229B0092006A
:10628000E358A2581A602069FFF77AFC00280ED064
:1062900087239B00E318DB68002B14D020002130FB
:1062A000FF30FFF79AFFC1B22069FFF772FC206947
:1062B000FFF750FC002805D02069FFF74FFC20694C
:1062C000FFF73FFC10BD2069FFF771FCEFE700000E
:1062D000F8B5040000690D00FFF752FC87239B000E
:1062E000E618002802D0F368002B34D00127802262
:1062F000F3685200934223D1EFF310833B4210D155
:10630000174B5B68DB05DB0DF1D0103B5BB2002B5C
:1063100010DAF13A1340083B9B08124A9B009B1885
:106320001B682069FFF72CFC0028E0D02000FFF755
:106330007CFFDCE79B08C0330B4A9B009B58F0E7CF
:1063400020002130FF302900FFF722FF2069FFF7EE
:106350002AFC0120F8BD29002069FFF71AFCF8E7A4
:1063600000ED00E01CED00E000E100E010B50400ED
:106370001430FFF732FF8C239B00E35CFF2B0ED021
:106380002300FC331A6A80235B009B1A0A2B06DD6C
:106390008E238F229B009200E358A2581A6010BDF2
:1063A00010B5041E05D000F0FFFA210000F0E4F95A
:1063B0000C00200010BD10B50400884203DA081A52
:1063C000FFF7EEFF2418200010BDF7B506000D0002
:1063D0000C008B180193019B671B9C4207D033680C
:1063E00021781B683000984701340028F3D1380029
:1063F000FEBD704710B5FFF791F900F0D1F9FFF736
:10640000F8FFFBF7EBFEFBF7B9FF034B002BFAD0CD
:1064100000E000BFF7E7C0460000000010B500F044
:10642000E3F910BD10B500F0DFF910BD10B500F0B4
:10643000E5F910BD10B500F0E1F910BD0B0010B585
:106440000100180000F09EF910BD10B5002A01D01F
:1064500000F0DEF910BD030010B500680833984263
:1064600001D0FFF7E3FF10BD10B5012A02D10B7870
:10647000037010BDFFF7E9FFFBE710B5521AFFF7F5
:10648000F3FF10BD02B4714649084900095C490098
:106490008E4402BC7047C046002243088B4274D32E
:1064A00003098B425FD3030A8B4244D3030B8B4215
:1064B00028D3030C8B420DD3FF22090212BA030C1E
:1064C0008B4202D31212090265D0030B8B4219D3FF
:1064D00000E0090AC30B8B4201D3CB03C01A52411F
:1064E000830B8B4201D38B03C01A5241430B8B4267
:1064F00001D34B03C01A5241030B8B4201D30B0350
:10650000C01A5241C30A8B4201D3CB02C01A524176
:10651000830A8B4201D38B02C01A5241430A8B4239
:1065200001D34B02C01A5241030A8B4201D30B0222
:10653000C01A5241CDD2C3098B4201D3CB01C01A3C
:10654000524183098B4201D38B01C01A5241430946
:106550008B4201D34B01C01A524103098B4201D334
:106560000B01C01A5241C3088B4201D3CB00C01AA1
:10657000524183088B4201D38B00C01A5241430819
:106580008B4201D34B00C01A5241411A00D201463E
:10659000524110467047FFE701B5002000F0F0F8C7
:1065A00002BDC0460029F7D076E7704703460B438B
:1065B0007FD4002243088B4274D303098B425FD3FC
:1065C000030A8B4244D3030B8B4228D3030C8B4228
:1065D0000DD3FF22090212BA030C8B4202D312120E
:1065E000090265D0030B8B4219D300E0090AC30BE3
:1065F0008B4201D3CB03C01A5241830B8B4201D390
:106600008B03C01A5241430B8B4201D34B03C01A78
:106610005241030B8B4201D30B03C01A5241C30AF0
:106620008B4201D3CB02C01A5241830A8B4201D361
:106630008B02C01A5241430A8B4201D34B02C01A4B
:106640005241030A8B4201D30B02C01A5241CDD2F0
:10665000C3098B4201D3CB01C01A524183098B423B
:1066600001D38B01C01A524143098B4201D34B0124
:10667000C01A524103098B4201D30B01C01A524187
:10668000C3088B4201D3CB00C01A524183088B420E
:1066900001D38B00C01A524143088B4201D34B00F7
:1066A000C01A5241411A00D2014652411046704769
:1066B0005DE0CA0F00D04942031000D3404253406E
:1066C00000229C4603098B422DD3030A8B4212D32E
:1066D000FC22890112BA030A8B420CD38901921160
:1066E0008B4208D3890192118B4204D389013AD09D
:1066F000921100E08909C3098B4201D3CB01C01A72
:10670000524183098B4201D38B01C01A5241430984
:106710008B4201D34B01C01A524103098B4201D372
:106720000B01C01A5241C3088B4201D3CB00C01ADF
:10673000524183088B4201D38B00C01A5241D9D2F7
:1067400043088B4201D34B00C01A5241411A00D278
:106750000146634652415B10104601D34042002B74
:1067600000D54942704763465B1000D3404201B5F3
:10677000002000F005F802BD0029F8D016E77047A8
:106780007047C04610B5040004481300002804D028
:106790000A000220210000E000BF10BD0000000040
:1067A00070B500260C4D0D4C641BA410A64209D1F7
:1067B000002600F077F90A4D0A4C641BA410A6428B
:1067C00005D170BDB300EB5898470136EEE7B30032
:1067D000EB5898470136F2E7700000207000002067
:1067E000700000208400002010B5034B01001868E1
:1067F00000F07CF810BDC0460C00002010B5034B23
:106800000100186800F028F810BDC0460C000020F8
:10681000002310B59A4200D110BDCC5CC4540133A2
:10682000F8E710B5884202D98B18984203D30023A9
:1068300007E08B5C8354013AFBD210BDCC5CC4549E
:1068400001339A42FAD1F8E703001218934200D1BB
:10685000704719700133F9E770B50500002910D0B1
:106860000C1F2368002B00DAE418280000F0E0F881
:106870001D4A1368002B05D163601460280000F0E6
:10688000D8F870BDA34209D9216860188342F3D1BA
:1068900018685B6841182160EEE713005A68002A07
:1068A00001D0A242F9D919685818A0420BD120682A
:1068B0000918581819608242E0D1106852684118CE
:1068C00019605A60DAE7A04202D90C232B60D5E7A1
:1068D00021686018824203D1106852684118216013
:1068E00062605C60CAE7C046B8060020032370B54A
:1068F000CD1C9D43083506000C2D1ED20C25A94247
:106900001DD8300000F094F8254A146821000029B1
:1069100019D1244C2368002B03D1300000F076F805
:1069200020602900300000F071F8431C2BD10C23AB
:106930003000336000F07DF803E0002DDFDA0C2337
:106940003360002070BD0B685B1B19D40B2B03D97F
:106950000B60CC18256003E04B688C420DD11360AE
:10696000300000F066F8200007220B30231D904312
:10697000C31AE7D05A42E250E4E763600C00EFE745
:106980000C004968C3E70323C41C9C43A042E1D028
:10699000211A300000F03AF8431CDBD1C7E7C046AB
:1069A000B8060020BC060020124B10B51C68A36B73
:1069B000002B0FD11820FFF717FF0F4BA0630360C8
:1069C0000E4B012243600E4B83600B238381002317
:1069D00002614361A46B0B4A206961690A4B00F0B4
:1069E00029F8012200238018594120616161480083
:1069F000400810BD0C0000200E33CDAB34126DE604
:106A0000ECDE05002D7F954C2DF45158002370B518
:106A1000064C05000800236000F036F8431C03D143
:106A20002368002B00D02B6070BDC046C406002038
:106A300070477047F0B5CE46474615042D0C2E0022
:106A400080B50704140C3F0C9946030C7E435D434C
:106A5000674363437F19340CE4199C46A54203D96C
:106A600080235B029846C4444B4643435143250C64
:106A700036046544360C2404A4195B195918200007
:106A80000CBC90469946F0BD044A1368002B00D117
:106A9000034B1818106018007047C046C00600204D
:106AA000C8060020F8B5C046F8BC08BC9E46704732
:106AB000F8B5C046F8BC08BC9E46704748454C4CEB
:106AC0004F20574F524C442100408001003F0100AD
:106AD000280008F101002000408001001F01001083
:106AE00000081F010020000080C0E0F0F8FCFE005C
:106AF0000103070F1F3F7F0000000000000000009F
:106B0000734400003D43000039430000654300002A
:106B100061430000194500006743000001020300C3
:106B200000000000000000006D460000E14600008B
:106B30007F460000894600004D460000ED460000FB
:106B4000314700006D4800006D4700006B460000B3
:106B50006B4600001D4800006F460000000000006A
:106B6000000000002D4C0000000000000B000000A1
:106B70000200000004000000FF00FFFFFFFF0B0009
:106B8000000000000A0000000200000004000000F5
:106B9000FF00FFFFFFFF0A00000000000E000000E2
:106BA0000800000004000000FF00FFFFFFFF0E00D0
:106BB0000000000009000000040000001C000000AC
:106BC000FF000100010009000000000008000000B3
:106BD000040000001C000000FF0000000000100086
:106BE000000000000F000000040000001C00000076
:106BF000FF00010301030F0000000000140000006B
:106C0000050000002C000000FF000200020004004C
:106C10000000000015000000050000002C0000002E
:106C2000FF00030003000500000000000600000054
:106C3000040000001C000000FF000001000106002D
:106C40000000000007000000040000001C0000001D
:106C5000FF00010101010700000000001200000018
:106C6000040000001C000000FF00000300030200FD
:106C70000000000010000000040000001C000000E4
:106C8000FF000002000200000000000013000000EE
:106C9000050000002C000000FF00030003000300BB
:106CA0000000000011000000040000001C000000B3
:106CB000FF000102010201000000000002000000CC
:106CC00001000000020000000000FFFFFFFF0200C3
:106CD0000100000008000000010000001800000092
:106CE0000200000400040800010000000900000088
:106CF0000100000018000000030001040104090065
:106D0000000000000400000001000000000000007E
:106D10000400FFFFFFFF040000000000050000006A
:106D200001000000000000000500FFFFFFFF05005C
:106D3000010000000200000001000000000000004F
:106D40000A00FFFFFFFF0200000000001600000025
:106D50000200000004000000FF00FFFFFFFF06002C
:106D60000000000017000000020000000400000006
:106D7000FF00FFFFFFFF0700000000000C00000005
:106D80000300000004000000FF00FFFFFFFF0C00F5
:106D9000010000000A0000000300000004000000E1
:106DA000FF00FFFFFFFF0A00010000000B000000D2
:106DB0000300000004000000FF00FFFFFFFF0B00C6
:106DC00001000000030000000B00000004000000B0
:106DD000FF00FFFFFFFFFF00000000001B0000009E
:106DE0000B00000004000000FF00FFFFFFFFFF009A
:106DF000000000001C000000060000000000000071
:106E0000FF00FFFFFFFFFF00000000001800000070
:106E10000600000000000000FF00FFFFFFFFFF0072
:106E20000000000019000000060000000000000043
:106E3000FF00FFFFFFFFFF00010000001600000041
:106E40000300000000000000FF00FFFFFFFFFF0045
:106E50000100000017000000030000000000000017
:106E6000FF00FFFFFFFFFF00000000001600000012
:106E70000200000000000000FF00FFFFFFFFFF0016
:106E800000000000170000000200000000000000E9
:106E9000FF00FFFFFFFFFF000000000013000000E5
:106EA0000200000000000000FF00FFFFFFFFFF00E6
:106EB00000000000100000000200000000000000C0
:106EC000FF00FFFFFFFFFF000000000012000000B6
:106ED0000200000000000000FF00FFFFFFFFFF00B6
:106EE000000000001100000002000000000000008F
:106EF000FF00FFFFFFFFFF00000000000D0000008B
:106F0000040000000C000000FF000100FFFF0D0066
:106F10000000000015000000050000000C0000004B
:106F2000FF000300FFFFFF0000000000060000005C
:106F3000040000000C000000FF000001FFFFFF0044
:106F40000000000007000000040000000C0000002A
:106F5000FF000101FFFFFF00000000000300000030
:106F60000100000002000000FF00FFFFFFFFFF0024
:106F7000000000000200000001000000020000000C
:106F80001400FFFFFFFF0200000000001E000000D1
:106F90000400000006000000FF00FFFF00010A00DF
:106FA000000000001F0000000400000006000000B8
:106FB000FF00FFFF01010B000000000000000000C7
:106FC000D1620000CB6300004B5F0000975F0000C0
:106FD000455F00006D6300005B5F0000355F0000EF
:106FE00005600000735F00002F5F000000000000DC
:106FF0000000000000000000000000000000000091
:107000000000000000000000000000000000000080
:107010000000000000000000000000000000000070
:107020000000000000000000000000000000000060
:107030000000000000000000000000000000000050
:107040000000000000000000000000000000000040
:107050000000000040420F00FFFFFFFF1000002073
:10706000000000000C7000002C700000EC6F0000AD
:107070000000000000000000000000000000000010
:107080000000000000000000000000000000000000
:1070900000000000000000000000000000000000F0
:1070A00000000000000000000000000000000000E0
:1070B00000000000000000000000000000000000D0
:1070C000DD200000A923000035460000A54800008F
:1070D000ED530000B520000000000000000000009B
:04000003000054990C
:00000001FF
