:1020000000800020696400005164000051640000F9
:1020100000000000000000000000000000000000C0
:1020200000000000000000000000000051640000FB
:10203000000000000000000051640000BD640000CA
:1020400051640000516400005164000051640000BC
:1020500051640000516400005164000055640000A8
:10206000516400009D630000516400005164000051
:10207000394B000051640000AD6300005164000062
:10208000516400005164000051640000516400007C
:102090000000000051640000516400005164000021
:1020A000516400005164000051640000516400005C
:1020B0000000000010B5064C2378002B07D1054B1B
:1020C000002B02D0044800E000BF0123237010BDA4
:1020D0009000002000000000908F0000044B10B51D
:1020E000002B03D00349044800E000BF10BDC046E8
:1020F0000000000094000020908F00000368F7B5F6
:10210000002B04DA8468E3188360002303604368CB
:10211000002B04DAC468E318C36000234360066838
:102120001468350025414368A5401C005768761B9C
:102130003C41BC4087681B1BF619C7688660DB19E9
:102140001768C3603E41866017680560BE405768E7
:1021500086603B41C36057684460BB400193C360E5
:1021600001231768BB4001279E4200DA8360526852
:10217000019B9740BB4200DAC76082680B68AD18CC
:102180009D4201DD9B1A0360C2684B68A4189C4203
:1021900001DD9B1A4360F7BD10B5044A037CD26889
:1021A0009B00985803681B68984710BDEC000020FE
:1021B00010B5072004F090FB10BD000010B5012100
:1021C000072004F03DFB064C012220000F2102F005
:1021D0008DFE01220E21200002F088FE10BDC046B7
:1021E000DC00002010B5064C012220000D2102F079
:1021F0007DFE00220D21200002F0BEFE10BDC04673
:10220000DC00002010B502000D21024802F0B4FEEF
:1022100010BDC046DC00002010B502000F210248AE
:1022200002F0AAFE10BDC046DC00002010B502007E
:102230000E21024802F0A0FE10BDC046DC000020C6
:1022400010B5074C002904D10131200002F010FF25
:1022500010BD0179200002F0FAFE0021F5E7C0462A
:102260000401002010B50400C068002801D005F06A
:10227000C5F8200010BDF0B5C36A91B00400002B72
:1022800032D0036B002B2FD0050024358268C16843
:102290002800FFF733FF20006369626A2C30991829
:1022A000A369A26A07919A18089209ABC0C8C0C373
:1022B00004230293E3680BA801930A9B0593009300
:1022C000099B01F01BFC23680BA91B6820009847A1
:1022D00063680BA92000984710220021280005F010
:1022E000CEFD0BA801F03CFC11B0F0BD10B5040010
:1022F00000210822243005F0C2FD230022002C33E7
:102300001C3203CA03C32000FFF7B5FF10BD10B590
:10231000FA2401216400062004F0DEFA200004F013
:1023200005F90021062004F0D7FA200004F0FEF899
:1023300010BD70B504000D000020896805F023F879
:10234000E9682060002005F01EF8A96860600020A0
:1023500005F019F8E968A060002005F014F8E060C5
:10236000200070BD70B58AB005790100040006A890
:10237000FFF7DFFF642005F039F8322103910B49A4
:102380000023029122006421060008320493019187
:102390000093290006AB03F055FE054BAD0030005D
:1023A000EE50FFF7A3FF0AB070BDC04699210000B0
:1023B0001401002010B50024044BDB6818590434C4
:1023C000FFF7D0FF202CF7D110BDC046EC00002055
:1023D000F0B5012189B0062004F032FA264C03231F
:1023E000264A0621200002F057FD200002F018FDC9
:1023F000234802F00EFE234802F00BFE224802F0B2
:1024000008FE602300240493403B05931033069399
:10241000103307931D4B1E4D03931E4F1E4B174E3B
:1024200021000134019302970096049A059B28002D
:10243000E4B203F071F8062CECD1184B069A039322
:10244000154B210001932800079B0297009603F08B
:1024500063F8124B069A03930F4B07210193280050
:10246000079B0297009603F057F8280002F0C7FF79
:10247000FFF7A0FF09B0F0BDDC000020F001002054
:1024800004010020BC000020CC0000203F88000098
:10249000EC000020B1210000412200003088000043
:1024A000C020F0B540008BB004F0A4FF060010205F
:1024B000002404F09FFF047044708470C4700471A1
:1024C00044718471C471047244728472C47204735E
:1024D00044738473C4733060102004F08BFF0B21AD
:1024E000FE23C172047044708470C370047144711F
:1024F0008471C4710472447284720473447384736B
:10250000C4737060102004F075FF04250623047066
:1025100045708370C470057143718471C471047215
:1025200044728472C472047344738473C473B0605D
:10253000102004F05FFFD021BE2290238170017132
:10254000C939C2704271047043708371C4710472DE
:1025500044728172C472017344738473C473F060F3
:10256000102004F047FF182747702227C770C227A2
:1025700026234771032108278370D9330371C03B99
:102580000373333B04708571C471047245728772A2
:10259000C77243738173C4733061102004F02AFF43
:1025A000C02242213C25C2234170C2702239C2712F
:1025B000B93A057085700571437181710472447276
:1025C0008772C272047342738773C2737061102082
:1025D00004F010FF80231A0003705C234370A223D1
:1025E0006221C370863B03710923817003218271CC
:1025F0007C3A427203730232043B0172837344716A
:10260000C4718772C7724273C773B061102004F03F
:10261000F1FE0622047044708470C270047144712B
:102620008471C471047244728472C47204734473FA
:102630008473C473F061102004F0DCFEC021022317
:1026400007228170037178218023C1728272047025
:102650004470C57044718471C47104724472037310
:1026600044738473C4733062102004F0C3FEC570D9
:10267000843505718025857278250223C57207256A
:1026800004704470837044718471C4710472447224
:10269000057344738473C4737062102004F0AAFE3F
:1026A0000E2514230470837003714470C570447147
:1026B0008471C471047244728472C472047344736A
:1026C0008473C473B062102004F094FEE0220125EC
:1026D000C270D13A04704470847004714471847182
:1026E000C471047245728572C27205734573847336
:1026F000C473F062102004F07DFE18220470C272D0
:1027000044708470C470047144718471C471047223
:1027100044728472047344738473C47330631020EE
:1027200004F068FE047044708470C47004714471D5
:102730008471C471047244728572C57205734573E5
:102740008473C4737063102004F054FE04704470EA
:102750008470C470047144718471C47104724472D1
:102760008472C472077344738473C473B06310209B
:1027700004F040FE1E23E0224371A2338372823BA9
:10278000047044708470C47002718471C4710472E6
:102790004472C372057344738473C473F06310206E
:1027A00004F028FE0621817006210223F8224171DF
:1027B0000321C37003710A33417281730470427044
:1027C0008271C47104728372C77207734373C473D6
:1027D0003064102004F00EFE04228270FE220223D8
:1027E00002710F22047002734470C37044718471CB
:1027F000C471047244728472C47244738473C47367
:102800007064102004F0F6FD0C23190043700223BD
:1028100083708223C37066230371182343710B00F6
:10282000023B8372013B04708471C4710472417273
:10283000C372077347738473C473B064102004F0C9
:10284000D9FD0C23062143700A3B622283709C232E
:10285000417249190470C270027143718471C4716C
:1028600004728772C772077341738473C473F06410
:10287000102004F0BFFD70220E23802182700F22F1
:10288000C370B233417003717D39BE3B0470447133
:102890008471C471047241728372C3720273437390
:1028A0008473C4733065102004F0A4FD42227E239B
:1028B0008270222243704233C2700271427183716E
:1028C00006220C2303210470C471047242728772C1
:1028D000C772077343738173C4737065102004F06B
:1028E00089FD2C2380217022C370343341708270A3
:1028F00043714E3A543B81717D3902710470C47149
:10290000047241728372C772077343738173C47315
:10291000B065102004F06EFD0E2343700223837017
:10292000C370E2230371C43B437103210C23047081
:102930008471C471047244728372C17204734473EB
:102940008473C473F065102004F054FD4222C270F9
:1029500042226421982302710422817041716139FD
:10296000047043708371C471047241728272C772C1
:10297000077342738173C4733066102004F03AFD0C
:1029800038239C46C622822143706346827042717E
:10299000C03AC1700171C27204708371C471047253
:1029A00044728772057344738473C4737066102015
:1029B00004F020FD1023047044708470C37004710F
:1029C00044718471C471047244728472C772047356
:1029D00044738473C473B066180004F00BFD1023B5
:1029E000C37018230470447084700471447184713E
:1029F000C471047244728472C37204734473847326
:102A0000C473F066102004F0F5FC402310228021EE
:102A10008370203BC370037142711E3B0C3A4170BE
:102A2000C272027304708471C4710472457283723D
:102A300047738473C4733067102004F0DBFC4023B9
:102A400043708370C370037143713E3B04708471A3
:102A5000C471047243728372C372037343738473C9
:102A6000C4737067102004F0C5FC2023102283700B
:102A7000C370DB18427003710422802102230470AA
:102A800041718471C471047247728272C27203739D
:102A900045738473C473B067102004F0ABFC0C233F
:102AA000662183700A3BC3708222417118230B2177
:102AB0000470447002718371C47104724472847230
:102AC000C472017344738473C473F067102004F0FC
:102AD00091FCE22383701223C370E03303711F2340
:102AE000F82104220372472301708171072142708B
:102AF0004271837203731C321F3B4272437328324C
:102B0000331DC471C2728173C473D867102004F07E
:102B100071FC0E21C1700E218023702201710321EE
:102B2000437083718572743BC57205734573F519E3
:102B3000047082704271C471037241728173C373F5
:102B4000E867102004F056FCFE25457022258570AC
:102B5000C5700571642504224571982542738571FD
:102B6000150032000F23032188320470C4710472EF
:102B700043728772C77207738173C4731060102029
:102B800004F038FCF822857042700C212A003300D2
:102B9000022581718272093952198C330470C57013
:102BA00005714571C47104724172C772077347732E
:102BB0008273C4731860102004F01CFCF823837126
:102BC0000F23FE2243723300032142709033FA3AFE
:102BD00004708570C57005714271C471047287728A
:102BE000C772077342738173C4731860102004F0B6
:102BF00001FC85710F256B4603951D7B877245721D
:102C0000C7723D0007734773877337004221FE2266
:102C10009437427004708170C17001714171C47148
:102C20000472C4733860102004F0E4FB42216B4648
:102C30000691197EFE278170C170017141710221D8
:102C40000491197C04708171197B477041723100C5
:102C50009831C47104728472C472047344738473AF
:102C6000C4730860102004F0C5FB04216B46059175
:102C7000197DF8224170197C02708170197ED82369
:102C8000032283716B4608921D329B181A786B469B
:102C900002721A7DC1704272427320229B181A7808
:102CA00001718273320044219C324171C47185727A
:102CB000C5720573C4731060102004F09BFB6B4653
:102CC0001A7B4021427282733200A0328170C1703F
:102CD00001714171047047708771C471047284720C
:102CE000C47204734473C4731060102004F082FB38
:102CF0006B461A7B0470C2723200A4324470847036
:102D0000C770047144718471C47104724472847216
:102D1000047344738473C4731060102004F06AFB5E
:102D20006B461A7D04704272027320229B181A7837
:102D3000447042733200A8328470C47004714771C9
:102D40008471C47104728572C5728473C473106017
:102D5000102004F04FFB202230238270C370062223
:102D60009C3303716B4607921A7F402142711A7B94
:102D70004170027220229B181A786B4642730C2213
:102D8000099218329B181A78077082733200AC329D
:102D90008471C47144728472C4720473C473106009
:102DA000102004F027FB6B461A7B0470427232003D
:102DB000B03247708470C470047144718471C471FE
:102DC00004728572C572057345738573C473106090
:102DD000102004F00FFB6B461A7D6B461B7D3821DB
:102DE00083716B461B7B427081700A000372C021A5
:102DF0006B46C1700171197B33004271B433373AAD
:102E00000770C77144728472C27202734473847310
:102E1000C1731860102004F0EDFA6B4624229B1851
:102E20001978102383706023C3706B461B7B41703D
:102E30000372012303736B461A7F802142731A7B4E
:102E40003300B8330770017144718771C4714472E3
:102E50008472C4728273C4731860102004F0CAFABA
:102E600024216B465B181B78F02243706B461B7C59
:102E7000027083706B461B7C8271C3706B461B7C37
:102E80006A4603716B465B181B78117F43710123FF
:102E9000037283733300BC33C47141728572C5728F
:102EA00005734173C4731860102004F0A3FA8223E1
:102EB00038228370C37003716B4682711A7B442180
:102EC00042723200C032047047704171C4710472A2
:102ED0008472C472047344738473C47310601020CA
:102EE00004F088FA6B4624215B1819786B46417010
:102EF000197CF0228170C170017124215B1819784E
:102F0000012303726B46027082711A7F0923427299
:102F10000A2202736A46127F417142733200C43240
:102F2000C4718572C3728373C4731060102004F07F
:102F300061FA82238370C3700371442343710C3B95
:102F400083716B461A7B0470427220229B181A7898
:102F50006B46427324229B181A78477082733200A2
:102F6000C8321060C47104728472C4720473C47372
:102F7000102004F03FFA382303700C3343706B4683
:102F80001B7E847183706B461B7EC471C3706B465D
:102F90001B7E45720371842343716B461B7D8572D2
:102FA0000372072343733300CC33C57205738473F4
:102FB000C4731860102004F01DFA6B461A7C04706C
:102FC00042708270027142711A7B3300D033C77035
:102FD0008471C471047244728472C2720473447343
:102FE0008473C4731860102004F004FA6B46202226
:102FF0009B181A786B4642721A7D04708272427373
:1030000020229B181A783300D43347708470C47020
:10301000047144718771C4710472C572057382733F
:10302000C4731860102004F0E5F96B461A7F78230A
:10303000437043716B461B7FC572350080218371DD
:103040000723D83502708170C4700171C471047295
:1030500044728372037344738473C47328601020B2
:1030600004F0C8F9C77001276B46F0224772477316
:1030700037000E258021C4710472C472002442708E
:1030800042711A7BDC370570817001718571827223
:1030900002738473C4733860102004F0ABF9062700
:1030A000077087710C27A0230772877337001821D8
:1030B000402283700371E0379D3BC27043724373BB
:1030C00041704171C4718472C4720473C4733860F6
:1030D000102004F08FF93027457045713500C0216C
:1030E000877007710F27E435C17004708471C47153
:1030F000047244728472C772047344738473C47319
:103100002860102004F076F9C2230C278370603BFE
:10311000C370483B03710F3B437233000225062204
:1031200007720827E8330570457042718471C471D5
:103130008772C772077347738473C4731860102053
:1031400004F058F9FE2383707E3BC372037333008F
:10315000FF22EC3304704470C570057144718471B2
:10316000C47104724472827244738473C4731860AD
:10317000102004F03FF9E021C170417331000122B9
:103180001E23F031C27283700373086004704470B0
:10319000047144718471C4710472447284728473C2
:1031A000C473102004F026F98570C570FE250571E2
:1031B00080258572C572FF2505733500F4350470CE
:1031C000447044718471C471047244724473847392
:1031D000C4732860102004F00DF90C25C572057326
:1031E0003500C021CC23F83541708170C370037164
:1031F000417181710470C4710472447284724473A9
:103200008473C4732860102004F0F4F8202505723C
:1032100045728572C5720573457385733500FC353B
:10322000047044708470C470047144718471C471FA
:10323000C4732860102004F0DDF802230621042264
:10324000047044708370C170027144718471C471E0
:10325000047244728472C472047344738473C473BA
:103260006860102004F0C6F81021482388224170BD
:103270000F218270C370037143716832413B047047
:103280008271C471047243728772C7720773477385
:103290008173C473A860102004F0ACF80F21FF23E1
:1032A0004172042203214370EF3B83704371D0339A
:1032B00081730470C77007718371C471047287725F
:1032C000C77207734273C473E860102004F092F869
:1032D000C02230234270BF3A42720532837082723C
:1032E000203B023A0470C770077147718371C47143
:1032F0000472C772077347738273C473286118001E
:1033000004F078F8E0220321FF234270D03A827063
:10331000427141720C3A0C310470C77007718371AD
:10332000C47104728272C772077347738173C47366
:103330006861102004F05EF8E0214170E0219023E4
:103340008822817103218370C27002714371843AB3
:103350008E3B41720470C47104728272C77207732B
:1033600042738373C473A861102004F043F81022E1
:10337000FC2382700F22C370EA3BC2720470447057
:10338000037143718471C471047244728472047352
:1033900044738473C473E861102004F02BF818237D
:1033A000E0218370E0338371B53B4372493383720C
:1033B000043BC37203733C334373853B4170047019
:1033C000C77007714771C47104728373C473286234
:1033D000102004F00FF810228270F022FF234271B7
:1033E0000F2243700470C77007718471C471047236
:1033F00042728472C472047342738473C4736862C9
:10340000102003F0F7FFF4220271E53A04704470D3
:103410008470C47044718471C47104724472847283
:10342000C472027344738473C473A862102003F0DF
:10343000E1FFF422027180226B4606921A7E7F23FE
:10344000047044708470C47044718471C4710472D7
:1034500044728272C272037344738473C473E862E9
:10346000102003F0C7FFFF226B4607921A7F20212E
:1034700042701A7E04708270C02204921A7C01711C
:10348000C270102205921A7D877142710F2242721A
:10349000012203921A7B062302734373C4710472E0
:1034A0008472C4728773C4732863102003F0A2FF70
:1034B000FE218170F739817204704470C470047108
:1034C00044718471C47104724472C7720773447387
:1034D0008473C4736863102003F08CFFF022F82318
:1034E000C27082710F220370477087700771477135
:1034F000C471027244728472C27204734473827320
:10350000C473A863102003F075FFF022F823427102
:103510000F22047043708770C77007718471C47183
:10352000047242728472C472047342738473C473EB
:10353000E863102003F05EFF6B46E0211A7D042350
:1035400041708171DD3904708270C77007714271FA
:10355000C471047241728372C772077343738173BB
:10356000C4732864102003F045FFF8226B464270B4
:103570001822E02142711A7F04238171DD39047021
:103580008770C7700771C471047242728372C77208
:10359000077343738173C4736864102003F02AFFB8
:1035A0000423E02183724373F8226B4641708271D9
:1035B000C8391A7F8170153941720470C77007715C
:1035C0004771C4710472C77207738273C473A864AD
:1035D000102003F00FFF6B46F82242701A7D047032
:1035E00042710F228770C77007718471C4710472B1
:1035F00042728472C472047344738473C473E86443
:10360000102003F0F7FE702343706B4688211A7D6B
:1036100004238170C17001714171813943728271DB
:103620000470C47104728772C77207734773817321
:10363000C4732865102003F0DDFEFE21C170072150
:10364000047044708770077144718471C47104728E
:1036500044728472C172077344738473C47368655F
:10366000102003F0C7FEF8220721427042710F229A
:1036700004708470C47004718471C47104724172E6
:103680008772C772077342738473C473A86510206E
:1036900003F0B0FE38216B460591197D6A464170F2
:1036A000197C047081700171197D032341710C2113
:1036B0000891143152181178C4708471C471047265
:1036C00044728372C172037344738473C473E86574
:1036D000102003F08FFE6B46197D84700170197CF9
:1036E00004714170F821C170197CC4714171197D58
:1036F00004728171197B0F2341728372C17203734B
:1037000041738473C4732866102003F073FE6B4604
:103710001A7C3021C27002716A46062381704171A1
:10372000117B047047708771C47104724772837291
:10373000C172017343738773C4736866102003F00A
:1037400059FE6B46197D04704170197CC4708170FC
:103750004171197D812383726133C372C43B03734A
:103760006B468171197B0471C47104724472417398
:103770008473C473A866102003F03CFEC823037151
:103780006B462022197D9B18417119780A23837298
:10379000013B047047708770C7708471C4710472F4
:1037A0004172C372077347738473C473E866102051
:1037B00003F020FE6B46197E1F7B81707E2107710E
:1037C000477187721F7EC170C1720470447084712A
:1037D000C47104724472077347738473C473286797
:1037E000102003F007FE6B463700047044708470AD
:1037F000047144718471C47104724472847200242F
:103800001D7FFC37C570C572047344738473C47321
:103810007867102003F0EEFD80257E2101230171E1
:103820000173047044708370C37045718471C471F6
:10383000047244728572C57243738473C473B8672B
:10384000102003F0D7FD4023C370C3713F3B0470C9
:10385000447085700571447185710472437284727D
:10386000C472047343738473C473F867102003F045
:10387000C1FDBE235B00F050394B3A4A1E6005265D
:103880007D3D047044708470C4700471447184710F
:10389000C471047244728472C47204734473847376
:1038A000C47304349A809D60DC603C2003F0A2FD68
:1038B000102003F09FFD102003F09CFD102003F06A
:1038C00099FD102003F096FD102003F093FD1020C9
:1038D00003F090FD102003F08DFD102003F08AFD11
:1038E000102003F087FD102003F084FD102003F06A
:1038F00081FD102003F07EFD102003F07BFD1020E1
:1039000003F078FD102003F075FD174801F082FAEE
:103910002A00210000960223144801F053FB0723DC
:103920002A00019321000096053B114801F057FB46
:10393000104B2A000193104B210000930F480223E3
:1039400001F05BFB0E4C0F4B0F4A1049200001F0B9
:103950004EFD0F4A0F49200003F058FD0BB0F0BD9B
:10396000AC00002020600000DC00002004010020EA
:10397000BC00002005220000E5210000CC00002052
:10398000EC0000202D22000019220000BD210000C3
:1039900000000020652200000368F7B5002B04DA60
:1039A0008468E3188360002303604368002B04DA13
:1039B000C468E318C36000234360066814683500D8
:1039C00025414368A5401C005768761B3C41BC401C
:1039D00087681B1BF619C7688660DB191768C36008
:1039E0003E41866017680560BE40576886603B416F
:1039F000C36057684460BB400193C36001231768EC
:103A0000BB4001279E4200DA83605268019B9740C9
:103A1000BB4200DAC76082680B68AD189D4201DDC9
:103A20009B1A0360C2684B68A4189C4201DD9B1A74
:103A30004360F7BD00B5042805D804F02BF8140541
:103A40000A0F0300002000BD7720CB07FBD46630AF
:103A5000F9E7AA20CB07F6D45538F4E78820CB073E
:103A6000F1D46638EFE7FF20EDE700B50300072A41
:103A70000BD8100004F00EF80804070A0D0F1214FA
:103A8000C943C9B200E01940080000BD8B431900CA
:103A9000FAE71943F8E7C9431943F2E75940F3E756
:103AA000C9435940EDE770B5160004AA15780269BC
:103AB000C468D21062438A420BD9046818006418A3
:103AC000FFF7B8FF01002A0020783140FFF7CDFF53
:103AD000207070BD73B54C68C5681600E2106A436B
:103AE0000968511808D4072525400124AC400093EB
:103AF000E2B23300FFF7D7FF73BD000084B0F8B522
:103B0000040009930CAB08921D7800222300079152
:103B100004C307A846C846C30268201D1A600B9953
:103B20000E4AFFF739FF2369D810E368584303F0C2
:103B300061FC060023692060DF10E3685F43C7195A
:103B4000BE4206D031002800FFF774FF3070013606
:103B5000F6E72000F8BC08BC04B018475088000005
:103B600010B504000068002801D003F04BFC2000D1
:103B700010BD0000F0B587B01F000CAB1B7806002D
:103B800002930DAB1B7804910393002A01DABF184E
:103B900000223369D119994201DD9F1A013F9342F6
:103BA0004ADD002F48DD0499002945DBF3688B428C
:103BB00042DD0724D5105D4314406D18002C15D04C
:103BC00008221E4B141BE4B21A5DBC4203DDFF2326
:103BD000E11B0B411A40002D06DB039B29000093DB
:103BE0003000029BFFF75FFFF368ED18BC4223DC57
:103BF0003C1B072C11DD2700002D07DB039BFF2258
:103C000000932900029B3000FFF74DFFF368083F47
:103C1000ED18072FF0DC07231C40002C0CD0002DE2
:103C20000ADB0722064B14401A5D039B2900009310
:103C30003000029BFFF737FF07B0F0BD5888000047
:103C40006088000084B0F0B506000D000C0087B05D
:103C50000F9311AB1B780D91029312AB1F780E924C
:103C60000F9B0393EB18A3420ADD029B21000093F4
:103C70000E9A0197109B3000FFF77CFF0134EFE7AD
:103C800007B0F0BC08BC04B01847F0B599B01C00F0
:103C90001EAB1B78070004931FAB1B780E0001932B
:103CA00020AB1B780025029301231B1B03936300A9
:103CB0005B4200920593A54278DA039B002B08DB58
:103CC000059B013C02330593059A039B944663448C
:103CD00003930135039A6B000133D3180422039335
:103CE000049B134215D073190A93009B019AE318A1
:103CF0000B930AA9029B3800FFF7ECFEA319089367
:103D0000009B019A5B19099308A9029B3800FFF7F1
:103D1000E1FE0222049B134215D073190E93009BFF
:103D2000019A1B1B0F930EA9029B3800FFF7D2FECE
:103D3000A3190C93009B019A5B1B0D930CA9029B8A
:103D40003800FFF7C7FE049B1B0715D5331B1293E2
:103D5000009B019A5B19139312A9029B3800FFF78D
:103D6000B9FE731B1093009B019AE318119310A9DD
:103D7000029B3800FFF7AEFE049BDB079BD5331B8D
:103D80001693009B019A5B1B179316A9029B3800A0
:103D9000FFF7A0FE731B1493009B019A1B1B159346
:103DA00014A9029B3800FFF795FE84E719B0F0BD17
:103DB000F7B5009308AB1F7809AB1B780193002976
:103DC00019DB03695518C268DB1053439D4212D8B2
:103DD0000468651964180E1BA119A5420BD03800A0
:103DE000FFF728FE0099019A01402078FFF73DFE79
:103DF00020700134F0E7F7BDF0B587B005921A00E6
:103E00000CAB1B7803930DAB1E78002901DA521816
:103E10000021C4688B18A34201DD621A013A8C426A
:103E200016DD002A14DD059F002F11DB0369BB425C
:103E30000EDD07233B409C4601236546AB40FF1047
:103E40007C436118039CDBB201960094FFF7B0FF3E
:103E500007B0F0BD8C4684B0F0B58BB011911393D0
:103E6000190015AB1D7816AB1E780400634604914B
:103E7000039320000B00019661460095149F129257
:103E80000592FFF7B9FF059B0399DA192000049BFF
:103E9000013A01960095FFF7AFFF3B001199129A86
:103EA000200001960095FFF765FE049A039B944657
:103EB000634419000196013900953B00059A2000E2
:103EC000FFF758FE0BB0F0BC08BC04B0184784B034
:103ED000F0B58BB00290129210001A00139315AB3C
:103EE0001E7816AB1F7811911300020014989942A6
:103EF00011D1824201DD12901492149B129A019703
:103F00009B1A009611990298FFF734FE0BB0F0BC93
:103F100008BC04B0184782420FD1994201DD1193C9
:103F20001391119A139B1100039301979B1A00960A
:103F3000129A0298FFF760FFE8E7841AE517641900
:103F40006C4003945C1AE51764196C400494039C5C
:103F50002500049CA54203DD119212911390149345
:103F6000119B139A934205DD12991393149B11929E
:103F700012931491139B119A05939B1A1D00149A86
:103F8000129BEC0FD11AC817091841406419069109
:103F900064109A4221DD01230593139A119B079225
:103FA0009342B3DC039A04998A4219DD129A099369
:103FB00008923B00320008A90298FFF78BFD069B90
:103FC000E41A06D5059A129B94460793634412930C
:103FD0006419119B01331193DFE701235B42DBE797
:103FE0003B00320011A9E7E784B0F0B595B01500A9
:103FF0001C921A001D9320AB1B7809900A9321ABE9
:104000001B780E000B931E9B1B9106920593934207
:104010001BDD1300DC0FE41864101F9B24B29C42CC
:1040200000DD1C000027069A6300D21A0892059A48
:10403000D31A0793F8B2012825D0002807D0022808
:1040400028D062190798310022E0059BE2E72A0098
:10405000089BA119101884460420029000200190AA
:104060006046CB18009001370998FFF730FF042F06
:10407000E0D10027FBB2012B2DD0002B11D0022B59
:104080002ED0A31930E0069B0798991901396219BF
:104090000023DFE7059BA1195A19013A089B00206C
:1040A000D8E7A3190C9363190D930B9B0C990293FA
:1040B0000A9B0D9A01930123BB40DBB20093099840
:1040C00023000137FFF7E1FD042FD3D115B0F0BC79
:1040D00008BC04B01847069B9B191B1B013BE1E77A
:1040E000069B9B191B1B013B0C93059B5B191B1B20
:1040F000013BD9E7F0B589B00C000EA940C9097899
:10410000039110A909780491002C28DB0169C56886
:10411000C910694312198A4221D805689E19AA1844
:1041200001921A1B059506920792059B019A1B198D
:104130009A4214D0069B1B199E4210D02B5D210081
:104140000293079B03981F5DFFF774FC0100049A1C
:1041500039400298FFF789FC28550134E5E709B09A
:10416000F0BDF0B58FB01C0014AB1B78160009939E
:1041700015AB1B780D920A9316AB1B78E2680B9374
:1041800001239340099A089323790700D31A62798F
:104190000C910791A568934205DC22689B009B580F
:1041A0000593002B15D10898A840C01003F022F900
:1041B0000123E26800219340A2680490934002002A
:1041C000DB10C318934202D011700132FAE7049B4E
:1041D0000593079B002B3EDB01221300AB400799A0
:1041E000FD680693EB1A8B4235DB002E33DB3B690F
:1041F00008995B1AB3422EDBF6107543079B059EA8
:10420000ED180792E268079B9340A2689340059AD5
:10421000DB10B21A934210DD0B9B290002930A9B1C
:10422000069A0193069B380000933300FFF762FF64
:10423000FB68ED18069BF618E4E7099A2379D31A70
:104240006279934204DC22689B009B58002B02D1C8
:10425000049803F0D7F80FB0F0BD0000F8B51D00CA
:1042600003001600040085C985C30A6820001A608F
:104270003100054AFFF790FB2A0031002000083288
:10428000FFF78AFB2000F8BD50880000F7B50192C7
:10429000002208AC26880AAD09AC0BAF2D783F7818
:1042A00024784261019A47734681857342600160B8
:1042B00003720473FEBDF0B5478985B00500006840
:1042C000FCB203AB3F0A1C705F70002807D06C7B08
:1042D00000930194012300F0B8F805B0F0BD6E68BA
:1042E000301EFAD0287A8446687B6546032D09D1B2
:1042F000023DAF431F705C7040190090300000F029
:1043000061FAEAE7002D03D17F352C401C70F4E7F9
:10431000022D02D1823D2C43F8E7012DEDD17E35EF
:104320002C403F3DF7E770B50300002A00D1027B27
:104330000020042A15D85C0059619818141983428A
:104340000AD09E7BCDB2002E04D1261AF573090A3D
:104350000138F4E78573FAE7190018000F31FFF709
:10436000AAFF70BDF0B5468985B004000068F5B2BB
:104370000B00360A03A994460D704E70002808D031
:10438000627B002401946446009400F0C3F805B0F9
:10439000F0BD6768381EFAD0207A627B03280CD102
:1043A000023806430E704D701218FF2001906046CF
:1043B0000090380000F026FAE9E7002802D18038A2
:1043C000054303E0022803D17D3005400D70ECE782
:1043D0000128EAD14138F3E7010010B50F31027B23
:1043E0000400FFF7BFFF002811D00020227B6100EE
:1043F000A31852189C420CD0A17B0002002903D1C3
:10440000997B0843013BF5E7D11AC97BF9E7012005
:10441000404210BD016002714371704770B50500E4
:1044200000680C00FFF7D8FF01212B796E799940C5
:1044300001390B00B340214098430300B140286884
:104440001943027BFFF76FFF70BDF7B5099D16009A
:1044500001935319C26804000F00934201D9002050
:10446000FEBD0178406800F041FA002D0FD1606870
:104470003200036839005B6898478642EFD10199A2
:10448000606800F0A2FA43425841C0B2E8E7089BD6
:10449000002BECD060682A00036808995B68984795
:1044A000A842DCD1E3E7F8B505000F00160001785B
:1044B000D2B2406800F037FA002486420AD1A64200
:1044C00007D9686803685B69984738550134A4B216
:1044D000F5E701242000F8BDF7B507001600002419
:1044E00000910193B44213D2FB68351B9D4200D961
:1044F0001D00721B019BA24200D90023009A3800C4
:1045000011192A00FFF7CFFF002802D06419E9E74C
:104510000120FEBD73B5040000201D0006AB40CB9A
:104520001B78019000902000FFF78FFF002805D036
:104530000123320029002000FFF7CEFF76BDF8B539
:104540001E0006AB1D78FF2343740374C373079BDF
:1045500017000360030000223433040042608173BB
:104560001A70082002F042FF076005714671606012
:10457000A760267365732000F8BD70B504000E2097
:104580002056431C07D0C0B2012102F059F9A07B8C
:10459000012102F0A1F92568002D07D02B68280021
:1045A000DB6A984701203434207070BDE07B012124
:1045B00002F046F9637BE07B2900012B00D9012141
:1045C00002F08AF910202056431C07D0C0B2012106
:1045D00002F036F9207C012102F07EF911202056EC
:1045E000431CDFD0C0B2002102F02AF9DAE7000054
:1045F000F0B50400006889B00E001500002804D052
:1046000003681B69984709B0F0BD8022237B0292A2
:10461000002B01D101330293029A3378A168134031
:104620005A4253414948DBB2059303F03DFA6B46C9
:1046300001901B79039373190793079BB342E2D050
:1046400000273378029D0693039B002B04D0FF23A1
:104650000198184001F08CFF0221627BA3698A4314
:1046600046D11022A256013212D0069929400A00E2
:10467000501E824105980491824209D0606A6269A5
:10468000844600292ED01168014311600122059251
:104690001A68E16A0A431A60039B002B04D0FF23C7
:1046A0000198184001F064FF1123E356013306D04E
:1046B000E369A26A1B681A4201D02F43FFB2A269C4
:1046C000E16A13688B4313601123E356013300D072
:1046D0003770237B002B37D16D00EDB2002DB3D1A5
:1046E0000136AAE76146106888431060049ACEE755
:1046F0001A68E16A0A431A60039B002B04D0FF2367
:104700000198184001F034FF1023E356013307D01D
:10471000069A6369616A154213D01A680A431A60DF
:10472000A269E16A13688B4313601123E3560133D6
:10473000CAD0E369A26A1B681A42C5D02F43FFB2F0
:10474000C2E71A688A43EAE76D10C6E720A10700AE
:1047500013B56B46DC1DD97101222100FFF748FF1C
:10476000207816BD036810B5002B06D04268196882
:104770001800CC6911685268A04710BD006810B5D8
:10478000002802D003681B6A984710BD10B5807BD3
:1047900040B2431C03D0C9B2C0B202F09DF810BDB4
:1047A00010B50400FFF7DEFF00212000FFF7EEFF49
:1047B00010BD10B504000121FFF7E8FF2000FFF74E
:1047C000DDFF10BDF7B51D0006000C000192FFF7DC
:1047D000E7FF089BEF18BD4209D1019BE518AC42E9
:1047E0000BD021783000FFF7B3FF0134F7E72978C9
:1047F0003000FFF7ADFF0135EDE73000FFF7D9FFDF
:104800000120FEBDF7B5009308AB40CB0C001B7830
:10481000170005000193FFF7C3FFE719BC420AD157
:10482000009CA619B4420CD001992800FFF790FF14
:1048300020700134F6E721782800FFF789FF013462
:10484000ECE72800FFF7B5FF0120FEBD0020704710
:10485000F8B505000E0017000024BC4208D02B68F4
:10486000315D1B6828009847002801D00134F4E727
:104870002000F8BD006E70477047036E002B03D018
:10488000C36DC018007E704701204042FBE7000066
:10489000F7B50193FA230025402604009B008360AE
:1048A000114B0F0008334560036029000092183057
:1048B000320003F0E4FA2000A5653200E565290026
:1048C0002566643003F0DBFA2300A4331D605D60CD
:1048D0009D606B461B78276123756B461B79A57518
:1048E00020006375FEBDC04668880000837D002BF4
:1048F00001D0002070470200B03211700C3A1360F2
:104900005360936001238375F4E7836C402B09D0D7
:104910003F22036CC154036C013313400364836C66
:10492000013383647047F7B5002504001700019335
:104930002800AA4226D0A5650122E56520692566E2
:1049400002F094F9A8421CD026001836206902F023
:1049500017FA013501003000FFF7D7FF2069AF4299
:1049600006D002F063F90221206902F069F9EDE74F
:1049700002F054F9019B002B03D00321206902F0BF
:104980005FF9E8B2FEBD002310B5827D9A4208D0DF
:104990000200AC321268402A03D06430FFF7B5FF42
:1049A0000123180010BD836C002B0BD03F21436CFA
:1049B000C25C436C01330B404364836C013B8364F2
:1049C0001000704701204042FBE70300002270B551
:1049D000B033827504000E000069197802F046F9C0
:1049E000002806D10321206902F02AF902252800B7
:1049F00070BD2300AC331D68002D10D02000643042
:104A00002569FFF7D0FFC1B2280002F071F9002834
:104A1000EFD10321206902F013F90325E7E7002E07
:104A2000E5D00321206902F00BF9E0E710B518305A
:104A3000FFF7B9FF10BD70B50400006902F07EF900
:104A4000002814D0206902F087F9002810D02069CE
:104A500002F0ECF80321206902F0F2F82300B833E9
:104A60001D68002D32D10023A365E365236670BD68
:104A7000206902F07BF9002809D0206902F071F961
:104A8000002804D0206902F076F90028DFD02069E0
:104A900002F06CF900281FD1206902F058F90028B3
:104AA000E5D0206902F067F900282FD02300AC334D
:104AB0001B68FF21002B04D020006430FFF773FF38
:104AC000C1B2206902F02CF9A075D0E7236820005C
:104AD0001B699847A847C6E7206902F0A7F8206934
:104AE000032102F0ADF8206902F045F90028BED09C
:104AF00022000023A4321360536093600133A37536
:104B0000B4342368002BB2D09847B0E7236E2069F5
:104B1000402B06D102F082F80321206902F090F8C0
:104B2000A5E702F02DF9010020001830FFF7EDFE97
:104B3000206902F07BF8EFE710B50248FFF77BFF32
:104B400010BDC0463401002010B5152314220249BF
:104B50000248FFF79DFE10BDC8060020340100206A
:104B600070B506000C008D18AC4207D03368217870
:104B70009B683000984720700134F5E770BD70479E
:104B8000704710B50400406802F016F80023237641
:104B900010BD10B5406802F034F810BDF8B505003E
:104BA00040680C0002F028F82B68E7B2260A9B68E0
:104BB000012810D139002800FF2798472B68BC43F3
:104BC00004439B68310028009847030220003840C6
:104BD000184380B2F8BD310028009847FF262B68A3
:104BE0000002344004439B68390028009847B443CE
:104BF0002043EEE710B5040002F000FC200010BDD9
:104C000010B54B1C0BD0102909D0EFF3108472B6ED
:104C1000102905DD02234376002C00D162B610BDB9
:104C20000123427E1A43427618224A4304498918D6
:104C300016228A569340C2691343C361ECE7C0460B
:104C4000148900004B1C17D0102915D0437E9B07F8
:104C500012D4EFF3108272B618234B430749C918D8
:104C60000123897D49B28B40C1699943C16100D15B
:104C70004176002A00D162B67047C0461489000010
:104C8000437E002B05D09A0704D5837E002B00D0ED
:104C900062B67047DB07FCD5C369024A9BB2D3609A
:104CA000F7E7C04600180040037E002B04D143768E
:104CB0008376C36101330376704700007FB50369D3
:104CC00002AE04000D00029172608B4203D1828A11
:104CD000B3889A4226D0200006223100103003F01B
:104CE000B2F8606801F07FFF7379E17A013B581EEA
:104CF0008341227B00936068002302F0DBF8337964
:104D00000021013BDBB2022B01D8074AD15C074BE3
:104D10002A009D4200D91A00606801F035FF6068E2
:104D200001F057FF7FBDC0468C880000001BB70014
:104D300070B518260400FFF7B7FF33000821207A6A
:104D40000D4D4343EB18595601F0F2FD3300082195
:104D5000A07A4343EB18595601F0EAFD0821607A26
:104D60004643AD19695601F0E3FD044B200006CB24
:104D7000FFF7A4FF70BDC046148900001002002098
:104D800007B5437E00910192002B07D09A070AD500
:104D9000EFF310835A425341837672B60099019A19
:104DA000FFF78CFF07BDDB07F8D5C369014A9BB24B
:104DB0009360F3E7001800400E490F4B10B5012235
:104DC0000B6000234A710B710C490D4808310160DA
:104DD0000C49427541600C49C2720181182103617E
:104DE00081720375094A0A490376037302F00EFBC8
:104DF00010BDC0461002002000093D009088000050
:104E0000F0010020D006002016170000000000204E
:104E1000814B00000023036043601033037270472E
:104E2000F0B5466893B00400002E33D0036800222A
:104E3000052101250027049300F046F802233200E3
:104E4000019300905B1904990395029706A8FFF758
:104E50001DFA2268667A04926268052105926772DB
:104E60003A00200000F030F8022300900193059AE8
:104E70005B190499039502970CA8FFF707FA2A001B
:104E8000082166720CA8FFF74EFA2A00082106A82E
:104E9000FFF749FA13B0F0BDF7B5060043723820AA
:104EA00017000D0002F0A2FA0023040069B2019776
:104EB0000093044A0133FFF742FB74602000FFF7C0
:104EC0005CFBFEBD40420F00037A89B2082B01D97A
:104ED000490011434368002B06D0437A80205B02CF
:104EE000C0011843014389B2080070470723F0B599
:104EF0008B42BF4197B07F4205920E003A000021DD
:104F000001240500FFF7E0FF002200900292032336
:104F10006A682968039401940AA8FFF7B7F93A0070
:104F200006212800FFF7D0FF002200900292039490
:104F300006CD0194032310A8FFF7A8F907231E400C
:104F4000330022000AA906A8FFF764FA2200330002
:104F500010A908A8FFF75EFA059B06A8591E4B1E6C
:104F60009941FFF75BFA059B08A8991E4B425941EE
:104F7000FFF754FA17B0F0BDF0B507278FB00592D0
:104F80008F4292410C005242092101250600FFF791
:104F90009BFF06CE002300900293039501950333F7
:104FA00008A8FFF773F923002A003B4008A906A8C8
:104FB000FFF730FA059906A84B1E9941FFF72EFA24
:104FC0000FB0F0BD30B503AC2578FF240471002488
:104FD000C5708460C46001704270837030BD70B56C
:104FE00004AC267805AC25780024C6700571846071
:104FF000C46001704270837070BD10B5FF2483706F
:10500000029BC4708360039B047101704270C36093
:1050100010BD70B504000500C61C2878FF2802D01A
:10502000012101F00DFC0135B542F6D1E078FF28F1
:1050300002D0012101F004FC2079FF2802D00121D7
:1050400001F0FEFBA368002B00D0984770BDF8B5B7
:1050500005000E0000240127285DFF2804D0310040
:105060002141394001F038FC0134032CF4D1F8BD62
:1050700010B5C368002B02D00800984710BDC07857
:10508000FF28FBD001F028FCF8E700008260002236
:10509000C360084B82B008330360059B0171036154
:1050A000039B4361049B8361029BC361431CDA77CA
:1050B00002B07047CC88000070B504000D00436951
:1050C000002198472000A3690121984720006369C7
:1050D00001219847E069290003689B689847636944
:1050E00000212000984770BD4B1E994110B5AE318C
:1050F000FFF7E2FF10BD70B50D0004008121FFF73E
:10510000DBFF29002000FFF7D7FF70BD70B504005A
:1051100016000D004369002198472000A369002173
:1051200098472000636901219847E06932000368CD
:1051300029001B699847636900212000984770BDCA
:10514000CB68F7B5DDB204000E00002D37D00B6937
:10515000DA10D3B20093002B31D00369DF794B68AA
:10516000DF198B68FFB2D910CBB221210193FFF771
:10517000A3FF7F2120003940FFF79EFF7F23691E98
:105180007918072719402000FFF796FF22212000F9
:10519000FFF792FF019920003940FFF78DFF009A39
:1051A000019B944663441900013939402000FFF700
:1051B00083FF009A31686A432000FFF7A7FFF7BD1D
:1051C000F8B5040043690E0000211700984700213C
:1051D0002000A369984701212000636998470025B2
:1051E000BD4207D0E0693100036801359B689847EC
:1051F000ADB2F5E76369002120009847F8BD10B50E
:1052000004002121FFF758FF20000021FFF754FF81
:1052100020007F21FFF750FF20002221FFF74CFFE5
:1052200020000021FFF748FF20000721FFF744FF7F
:1052300080220021D2002000FFF7C2FF10BD3F23D3
:105240000B40402110B51943FFF736FF10BD70B574
:105250000D0004002021FFF72FFF29002000FFF799
:105260002BFF70BD4B1E994110B5A031FFF724FFF5
:1052700010BD4B1E994110B5A631FFF71DFF10BDA3
:1052800070B50C00A8210500FFF716FF3F2128008C
:105290002140FFF711FF70BD10B5C823002900D1D0
:1052A000083B1900FFF708FF10BD70B50C00D321B3
:1052B0000500FFF701FF3F2128002140FFF7FCFE1A
:1052C00070BD70B50C00D52116000500FFF7F4FE87
:1052D0000F210C40310121432800C9B2FFF7ECFE39
:1052E00070BD70B50D000400D921FFF7E5FE29005F
:1052F0002000FFF7E1FE70BD70B50E00DA21050059
:105300001400FFF7D9FE1221002E00D11039631EC0
:105310009C41640128002143FFF7CEFE70BD10B50B
:105320000400DB21FFF7C8FE40212000FFF7C4FE88
:1053300010BD70B50D008D210400FFF7BDFE50219A
:10534000002D00D140392000FFF7B6FE70BD10B52A
:105350000400AE21FFF7B0FE236920005A7A197AC3
:10536000FFF7AFFF236920001979FFF789FF236951
:1053700020009979FFF799FF236920001978FFF73A
:105380005EFF23692000997BFFF7D3FF20000021F7
:10539000FFF75DFF236920009978FFF763FF23691A
:1053A00020005979FFF778FF236920001A7BD97A0A
:1053B000FFF7A2FF23692000997AFFF792FF236984
:1053C0002000597BFFF7ABFF2000A421FFF774FEFC
:1053D00023692000D978FFF74CFF23692000597812
:1053E000FFF789FE2E212000FFF766FE10BD8360C7
:1053F000002301604260C36003614361704770B580
:10540000040003689847002063689847A368012058
:105410009847012001F08AF8A368002098470A20E5
:1054200001F084F80120A36898472669E568AE4238
:1054300003D001CDFFF78BFFF9E7012001F076F8EB
:10544000012063689847012001F070F82669E5683B
:10545000AE4204D0012101CDFFF746FEF8E76420FB
:1054600001F064F82569E468A54203D001CCFFF798
:10547000C6FEF9E770BD0000F0B54368076885B067
:10548000DB1B0500029114009B100126002B00D0AD
:105490001E00029A9E19D71B1E4AB34233D8964269
:1054A00031D8002E30D10196019BDF19002F01D099
:1054B00023683B602F68029BDC1B9F4204D02200C4
:1054C0003900019802F0C8FC019B04341C19029AAF
:1054D0006B689A1A0392029A934204D0039A029933
:1054E000200002F0B0FC039BE418002F02D038002B
:1054F00001F084FF019B019A2B60B300D3186C600C
:10550000AB6005B0F0BD1600B00001F06FFF019078
:10551000CAE7C046FFFFFF3FF0B58BB008AD05936B
:105520002B0004920F0004A9040005C905C3242020
:1055300001F05CFF0600139B39000393129B089A4D
:105540000293119B0193109B00936B68FFF79EFDE4
:10555000216963690796994206D0002900D00E6040
:10556000043121610BB0F0BD200007AA0C30FFF719
:1055700083FFF7E773B58468C368002C07D1002B5D
:1055800005D10133016042608360C36073BD05686B
:1055900046686419F318013C013B8D420BDD016044
:1055A0000168641A01348460964208DD42604268F2
:1055B0009B1A0133E9E78C42F2DA0C00F0E79342E0
:1055C000F5DA1300F3E7826870B5C368002A08D1E2
:1055D000002B06D1030014C914C301238360C360E8
:1055E00070BD056844680E685219E318013A013B22
:1055F000B5420CDD06600568521B013282604A68C4
:10560000944208DD426042689B1A0133E7E7B242E8
:10561000F1DA3200EFE79342F5DA1300F3E7000026
:10562000F7B506001700040015000191019B9C428C
:1056300008D0002D03D02100280001F0E7FF183426
:105640001835F3E71820A41B034EE4087443E40064
:10565000E40860433818FEBDABAAAA0AF0B597B0BB
:105660001D0005931C9B06000F0014000492002BE4
:1056700013D1436B0692D96801238B400421029118
:105680001C995B190993019100932A0021002300C2
:10569000380007950894FEF71AFCB36B1C9A013B7F
:1056A000934217D10122716B13008868C968834047
:1056B0008A400421029100211B19013B52190D92CD
:1056C0000191009219002A0038000A930B950C935F
:1056D000FEF7FDFB1D9B002B12D1736B2A0099680E
:1056E00001238B40042102911D991B190191009502
:1056F000210038000E940F9510931195FEF7E7FBEB
:10570000F36B1D9A013B934214D10123716B1A0074
:10571000C868896882408B40042102910021521997
:10572000013A01911B190092210038001294139242
:10573000FEF7CDFB17B0F0BD8368F0B51A680F0017
:10574000416A8FB011410991C16A5B681141026BD6
:1057500004001A410B92826A00251A41D3B20A91C1
:105760000693069BEB18DBB205930B9B9D4241DA37
:1057700024226B469B181B78002607931823059A52
:1057800053430893079BF318DBB204930A9B9E4292
:105790002DDA3100636B9A68D86891402A00824004
:1057A00020000C910D92543000789C46029020000D
:1057B00053300078089B0190606CC058049BC05C1B
:1057C000634600903800FEF7CCFC230040331B7882
:1057D000002B09D0059B0C9A0193049B3900009380
:1057E00020000D9BFFF73AFF0136F6B2CAE70135FC
:1057F000EDB2B6E70FB0F0BD436810B504681C1BEE
:10580000094BE4106343094CE01A884202D21000AD
:1058100002F080F8994200D21900C818834201D8DA
:10582000A04200D9014810BDABAAAAAAAAAAAA0AF6
:10583000F7B583684668040000919E4208D0002EA8
:1058400002D0300001F0E2FE636818336360F7BDF8
:10585000204A0121FFF7D0FF23680500F31A0193C6
:10586000002827D01C4B984201D902F04DF818208F
:10587000684301F0BBFD0700019BF818002802D027
:10588000009901F0C3FE31003A002068FFF7C8FE1E
:105890000200616830001832FFF7C2FE63682668B4
:1058A00001900093009BB34206D0300001F0E2FD6E
:1058B0001836F7E70700DFE72068002801D001F07D
:1058C0009DFD019B2760636018235D437D19A560E2
:1058D000BDE7C046D8880000AAAAAA0AF0B5A3B0BE
:1058E000019100210700102218A815911691179117
:1058F00002F0C5FA00220A21019801F068FF0400B5
:10590000431C12D00300002201991CA801F0E8FFFB
:105910001CA915A8FFF78CFF1CA801F0ABFD621CA9
:105920000021019801F08CFEE4E7179B169E03937B
:105930009E424DD0002E03D00199300001F080FF2F
:10594000169B0193183316933A00159B169C5132FF
:10595000E41AAB4BE410634304931278FB6B012A07
:105960007AD0141E01D0022A7CD00025FB6BAC42F9
:105970007BDCE343DB171C40002306940193019A70
:10598000069B9C181300049A934200DA8AE0D443E1
:105990001825E417069B1440E4186543FB6BA342EB
:1059A00000DCFEE00026BB6BB34200DCF6E07B6C63
:1059B0005B599B191A78002A08D0002231001A700E
:1059C00018A8220011961294FFF7D4FD0136EAE7D9
:1059D0008C4A012115A8FFF70FFF159B0500F31A4C
:1059E0000393002829D0884B984201D901F08CFFFD
:1059F0001820684301F0FAFC0400039BE01800281B
:105A000002D0019901F01CFF310022001598FFF728
:105A100007FE0200169B3000190018320193FFF7B1
:105A2000FFFD169B159E03900193019BB34206D088
:105A3000300001F01FFD1836F7E70400DDE7159888
:105A4000002801D001F0DAFC039B1594169318236B
:105A50005D436419179477E7049A9B1ADC0FE418E6
:105A6000641082E7049A9C1A7FE79D4218DA182393
:105A700000266B430193BB6BB34211DD019A7B6C33
:105A80009B589B191A78002A08D0002231001A70FE
:105A900018A82A0009960A95FFF76CFD0136EAE777
:105AA000013563E7002C76DBFB6B9C4273DA18232D
:105AB000019A53430793079A159B9B183A005B681A
:105AC000503203931278BB6B012A2DD0002A35D0B7
:105AD000022A30D01823002563430593029ABB6B3A
:105AE000AA422DDCD5430026ED171540039BA919CA
:105AF0009E4239DBDB43039ADB1713405D19BB6B16
:105B0000AB4248DD059A7B6C9B585B191A78002ADA
:105B100008D0002229001A7018A822000F951094AE
:105B2000FFF728FD0135EAE7039A9B1ADA0FD3182D
:105B30005B100293CEE7039A9B1AFAE70292C9E739
:105B40009D420FDA059A7B6C9B585B191A78002AE4
:105B500008D0002229001A7018A822000B950C9476
:105B6000FFF708FD0135B9E7BB6B994211DA059AD9
:105B70007B6C07989B58159A5B1812581878925DA1
:105B8000904206D01A7018A822000D910E94FFF7CB
:105B9000F1FC0136AAE7019B0133EFE60134183529
:105BA000FCE6189AB96813000868496883401393A3
:105BB000199B3C001D008D4014951A9D24345219E8
:105BC00082401C921B9A20009B188B4013A90195C0
:105BD0001D93FFF7F8FC20001CA9FFF7F4FC159CAF
:105BE000169DA54204D0200001F044FC1834F8E7CB
:105BF0001598002801D001F001FC23B0F0BDC0468B
:105C0000ABAAAAAAD8880000AAAAAA0AF0B597B097
:105C10001F001FAB1B781600019320AB1B7808AA4E
:105C2000029321AB1B780400039322AB1B780091F5
:105C3000049323AB1B781C99059351239B18DB7F9E
:105C400008A8069355239B18DB7F3A0007930CADF9
:105C50003300FEF703FB102208A9280002F0F3F836
:105C60001E9BE760636033000833A3606B461B78BC
:105C700023746B461B7F63742300143307CD07C363
:105C800020002A6824301A600021102202F0F7F860
:105C9000244BB26808332360E36966631341226AC8
:105CA000A363F36800261A41E2636A462300127B6D
:105CB00040331A706B4622001B7950326664A6642A
:105CC000E66413706B461B7A250053706B461B7C91
:105CD000443593706B461B7DD3706B461B7E1371EE
:105CE000E36BB3420FDD12AB0022A16B10A810933F
:105CF00001F012FC10A92800FFF79AFD10A801F08E
:105D0000B9FB0136ECE71D9910A801F099FD10A927
:105D10002000FFF7E3FD10A801F0ACFB200017B056
:105D2000F0BDC046F4880000F0B50E680568002399
:105D3000AE4212DB4A684468A2420EDB8F68F61955
:105D40008768ED19AE4208DCCB68C168D2186118CB
:105D5000D30FC81791424341DBB21800F0BD8268EF
:105D600070B5C368002A08D1002B06D1030014C9FE
:105D700014C301238360C36070BD056844680E6866
:105D80005219E318013A013BB5420CDD0660056883
:105D9000521B013282604A68944208DD42604268C8
:105DA0009B1A0133E7E7B242F1DA3200EFE79342A0
:105DB000F5DA1300F3E703680A6810B5934204DAD2
:105DC00084689B1AE318836002604B68022B05DD30
:105DD0000222C468D21AA218C26043608A680B68A3
:105DE00004689B188268A2189A4201DD1B1B83601D
:105DF000CA684B6844689B18C268A2189A4201DDC1
:105E00001B1BC3608368002B01DA00238360C36817
:105E1000002B01DA0023C36010BDF0B50400036E4F
:105E2000C2690E00816D901E5B1A5843E36D8FB0FE
:105E3000591A01F0C3FE012325000693DB180793CE
:105E4000236A24350890043B2900070006A809931B
:105E5000FFF7B1FF06A92800FFF766FF00280CD066
:105E60000023029302330193099B06990593009343
:105E7000079A089B3000FDF7E5FE0221E369226ADC
:105E8000DB1B013B043A079106A8290006970893FB
:105E90000992FFF790FF06A92800FFF745FF0028A9
:105EA0000CD00023029304330193099B06990593B8
:105EB0000093079A089B3000FDF7CCFF636A002B24
:105EC0001CD1A26A002A19D1E36AE1698B4215D17B
:105ED000236B216A8B4211D10A920B920CAB1C34BA
:105EE00003CC03C30423039301930D9B02920593F8
:105EF000009311000C9B3000FEF776F80FB0F0BD58
:105F000008B4F3B50D001100040008006E461C2310
:105F10000E30C008C000301A00AF8546FB1804CB15
:105F20006E463B60A847230008333518236078602D
:105F30000F2807D90022391D200001F07FFA7B6865
:105F40002060A3602A003100206801F0FFFABD46FE
:105F500000227B68216863602000CA54F6BC08BC3C
:105F600001B0184710B50400886D88B00F4B104978
:105F70000092002814DA002A12DD102202A8FFF78E
:105F8000BFFF0C4A002102A801F012FC0100200012
:105F900001F03CFB02A801F06DFA200008B010BD32
:105FA00010222000FFF7ACFFF7E7C0460089000091
:105FB0004D84000003890000F0B504008DB00A0094
:105FC0000091010006A8FFF7CDFF06A92000FFF70A
:105FD00085FC06A801F04EFAE369A66D023B019329
:105FE000E36D9F1B236E3900981B019B584301F002
:105FF000E5FD009B0500981B019B3900584301F00B
:10600000DDFD461B01D505007642002327000793DE
:10601000236A082206A9013502A8019324370695B0
:1060200001F011FF019B02A93800AD1905930495F9
:10603000FFF795FE04A93800FFF791FE009B236649
:106040000DB0F0BDF0B595B00C931EAB1B780EAD46
:106050000D93194B04001B680E00170001001D9AD8
:1060600028000B93FFF77EFF0D9B04220993062364
:10607000089300230793059303931C9B06920293B6
:106080000C9B033A3100049200930B9A3B0001955C
:106090002000FFF7BBFD280001F0ECF9074B2000C2
:1060A000083323601A9B1D99A3651B9BE365FFF7CB
:1060B00083FF200015B0F0BD040000200889000017
:1060C000F8B53C2001F096F906001020002401F0FC
:1060D00091F901250F22E02302733060037185726C
:1060E000C57245738573047044708470C4704471C4
:1060F0008471C47104724472C473102001F07AF97F
:10610000182370600373047044708470C470047149
:1061100044718471C471047244728472C472447391
:106120008473C473102001F065F9B0608572C57284
:1061300005734573047044708470C47004714471B5
:106140008471C471047244728473C473102001F0AA
:1061500051F90827F0600773047044708470C470AC
:10616000047144718471C471047244728472C47283
:1061700044738473C473102001F03CF98021417191
:10618000602181715A393061C7720173457304709F
:1061900044708470C4700471C47104724472847257
:1061A0008473C473102001F025F92025C022072133
:1061B00070618270C5700571457182718172C7729C
:1061C00007734773817304704470C471047244721E
:1061D000C473102001F00EF94021E0230F22B061BA
:1061E000C17005714371427304704470847084718E
:1061F000C471047244728472C47204738473C4736D
:10620000102001F0F7F80C23C0224021C3720A23AA
:106210008271B73AF0618170C570057145718772FE
:1062200003734273877304704470C47104724472C0
:10623000C473102001F0DEF8042340210922837288
:106240000623817080313062C5700571457181719E
:10625000C77202734273837304704470C471047212
:106260004472C473102001F0C5F80323C021A0229A
:1062700083720223C170B139C37203738373417394
:106280007062057142710470447084708471C471CD
:1062900004724472C473102001F0ACF8E0228270E2
:1062A000A022C270027142710522C7720773477340
:1062B000013F8272B0628571877304704470C4714B
:1062C00004724472C473102001F094F88027C770E0
:1062D0004027062107710927F062C77207734773C9
:1062E0004571817281730470447084708471C471CB
:1062F00004724472C473102001F07CF86021A02263
:106300008170427181710C2202210123017330637B
:10631000C5700571C272437304704470C471047215
:10632000447284728473C473102001F063F8C02334
:106330000622C7720773477370638370C570057157
:10634000457183718272827304704470C4710472E7
:106350004472C473102001F04DF8C0230D4A8370BD
:1063600083710D4B0321C570057145719A80052518
:106370000422C7720573B0631E6004704470C47158
:1063800004724472847241738473C4739960DA60D6
:10639000F8BDC0462B0F00001802002010B50248BF
:1063A00000F02BFF10BDC0466C04002010B5024861
:1063B00000F023FF10BDC04628020020F7B50124DD
:1063C0000326154F1549380000F04EFB14491548B7
:1063D00000F04AFB1449154800F046FB14491548E3
:1063E00000F042FB1449154800F03EFB144D1549DE
:1063F000280000F039FB39000096230001940022A8
:10640000114800F073FE0096290001941E231F22FC
:106410000E4800F06BFEF7BDB006002000080042F9
:10642000000C0042B806002000100042C006002008
:1064300000140042C806002000180042D0060020C8
:10644000D8060020001C00426C0400202802002016
:10645000FEE70000034B10B51B68002B00D09847E7
:1064600010BDC046E006002070B50F490F4CA14298
:1064700004D100F08BF800F0A5FFFEE70C4D0023DF
:106480008D42F6D0CA18E818A24205D3094B8242C1
:10649000EFD00949002204E0006804331060F1E7FE
:1064A00004C38B42FCD3E4E70000002090000020EE
:1064B000948F000090000020F806002010B500F036
:1064C00063F8002801D100F049F810BDF7B5134872
:1064D000012284461249134C8E68636805689B0E3E
:1064E0001340019288686268019F920E3A406746A5
:1064F0003F6893420ED1BD420CD186420AD35B194C
:10650000FA254868AD00861B07486B437043000DB1
:10651000C018FEBD3D0013000600E3E7E4060020BE
:1065200010E000E000ED00E05555000070B5041EDD
:1065300010D0FFF7CBFF050000F025F8FFF7C6FFEE
:10654000054B401B9842F7D9FA23013C9B00ED18FC
:10655000002CF3D170BDC046E703000010B5034A1C
:1065600013680133136000F043FA10BDE406002005
:1065700010B5002806D030230321584301F094FAC7
:106580000138FDD110BD7047002070471E2270B544
:1065900046484749436893431C3A134343600823E2
:1065A0008C6923438B61434C434B9C829C8A1443EC
:1065B0009C82DC681442FCD00124404A1470157897
:1065C000254203D055786DB2002DF8DB012494608C
:1065D000547864B2002CFBDB394C5460547864B2BC
:1065E000002CFBDB8224E4015480547864B2002C3C
:1065F000FBDB02249C840E34DD682542FCD0314C48
:10660000DC621024DD682542FCD09D8C2E4C2C438E
:106610009C841024DD682542FCD002249D8C8026B9
:106620002C439C844024DD683542FCD0DD68254243
:10663000F9D01024DD682542FCD000249460547801
:1066400064B2002CFBDB214C5460547864B2002C03
:10665000FBDB1C6A1E4D2C4080251C621C6AAC436F
:106660001C62032393601B4B536053785BB2002B77
:10667000FBDB0023FF240B72174A4B728B72CB7229
:10668000164B1A60164B174A1B6811689A065B0175
:10669000C90E2340520F12020B431343124A1385B3
:1066A000802342681343436070BDC04600400041F0
:1066B000000400400C06000000080040000C0040F0
:1066C00001050100B905FF7D040A00000007030071
:1066D000FFFCFFFF03060100006CDC020800002045
:1066E000246080002060800000400042FA21314B8D
:1066F00010B51868890001F0D7F92F4B013898427E
:1067000056D82E492E4A4860C020136A00061B0244
:106710001B0A03431362002407238C600B60802153
:10672000136A09061B021B0A0B431362FC22254B4A
:10673000196A0A431A62FC22196A92010A431A6210
:10674000A022196AD2020A431A62E0B2002101347F
:1067500000F076F8142CF8D11B4B1C005A7852B27A
:10676000002AFBDB194A5A80194B1A00597EC909C5
:106770000129FBD0E421C90099803F21D970537EC3
:10678000DB09012BFBD0C02300205B01136190705B
:1067900000F024F863785BB2002BFBDB0D4B0E4A54
:1067A0006380D379DB09012BFBD04123537010BDEB
:1067B000FEE7C04608000020FFFFFF0010E000E0F9
:1067C00000ED00E000040040000C00401E4000000E
:1067D000004000422140000000480042164A00B537
:1067E0001300517EC9090129FBD00138042816D8AD
:1067F0001969124A0A400F211A615A788A4301F036
:1068000049F90308060B0300110001220A435A70DC
:1068100000BD11000322F9E711000222F6E7F02380
:1068200011691B050B430F21136153788B4319002A
:1068300002230B435370EBE700400042FFFFFFF0E1
:10684000182330B51D00040045430820204A55197F
:106850002856013014D0032912D808006343D156BA
:10686000D31801F017F902280E1B5868CB0102213A
:10687000184A9B181A1840321170012282405A603F
:1068800030BD5868CB010621124A9B181A184032B5
:106890001170012282405A609A61F1E75868CB0179
:1068A00006210C4A9B181A184032117001228240AE
:1068B0005A605A61E4E75868CB010221054A9B18E7
:1068C0001A1840321170012282409A60D8E7C046FF
:1068D00014890000004400411823F0B508245843EF
:1068E000114A13181C5701341BD0012635005F686C
:1068F0008356BD400D4ADB019A18906805420BD1C2
:106900000C00601E8441D2194032107834400336A6
:10691000A400B04320431070044A9B18002901D101
:106920005D61F0BD9D61FCE71489000000440041F9
:1069300018224243F8B52C4E0300B218127A52B214
:10694000140001320ED0481C00240C280AD801F093
:10695000A1F80720202020202020200B0B0B0B006B
:10696000012464422000F8BD092905D10021D8B2D4
:10697000FFF766FF0024F5E70A2902D1D8B20839EB
:10698000F6E700240B29EDD1D8B20A39FFF758FFFA
:10699000E8E718204343F2185568F3562C00134AD1
:1069A000DB016E0817389B18C9B204409E19002CF1
:1069B0000DD00F2430363278090122401143C9B27C
:1069C0005B19317040331A7810431870D2E73200E7
:1069D0000F27303216785B19BE43314311704033B4
:1069E0001A7810431870BDE7148900000044004174
:1069F000164A10B51368591C26D0013B1360002BB2
:106A000022D172B6124B134A0433934213D9124A5D
:106A100001211000147D0C42FCD02021148BFF3189
:106A20009B085B0021431183D3610C4B138001232E
:106A3000027D1A42FCD0BFF34F8F094B094ADA603E
:106A4000BFF34F8FC046FDE710BDC0460C000020CD
:106A500000200000030200000040004102A5FFFFEB
:106A600000ED00E00400FA050023037101607047A7
:106A70009446F0B59E1E721E9641624605689207C6
:106A80002F6836063A4332432A60072505AC24783E
:106A90000068A4012940214342680024022B00D051
:106AA0005C03114321434160F0BD30B5C02503684C
:106AB000AD031C6812052A402243C0240904A40225
:106AC00021401143196003685A6814435C6030BD6B
:106AD0000123026811680B43136003681A68D20728
:106AE000FCD4DA69D207F9D470470223026811682E
:106AF0000B4313600268D3699B07FCD4704702689C
:106B0000137E9B0702D40379002BF9D10023037174
:106B10007047002203685A8370470368187E400755
:106B2000C00F70470368187EC00970478023026851
:106B30005B42117E0B43137670470368588B8007C6
:106B4000C00F704702230268518B0B435383704779
:106B50000368187EC007C00F70470368188DC0B265
:106B6000704703681A7ED207FCD589B219850123C4
:106B7000037118007047012203689A75704701225B
:106B800003681A757047000070B5012604684B0849
:106B900033403140256809075B070B432B432360D3
:106BA00004685100034800F07FFF0138C0B2207331
:106BB00070BDC046006CDC020123026811680B4303
:106BC000136003681A68D207FCD4DA69D207F9D4D3
:106BD00070470223026811680B4313600268D3698F
:106BE0009B07FCD470470368DA699207FCD4022142
:106BF0001A688A431A607047036818684000C00F1B
:106C000070470268936A5B0A5B02194391620368EA
:106C10001A7E5207FCD5986AC0B27047802302687A
:106C2000DB02116851680B435360704703680349E6
:106C30001A685A680A405A607047C046FFFFFBFF57
:106C4000032230B5036811401C68074D5A680904D7
:106C50002A40E4061143640F5960052C03D10268F1
:106C6000D3695B07FCD430BDFFFFFCFF70B505683E
:106C700004006B8B9B069B0F022B0DD06B8B0020AF
:106C80009B069B0F032B32D06B8B9B0704D56B8B22
:106C90009B069B0F012B2AD16B6A49001143DB0A2B
:106CA000C9B2DB020B436B622368002A13D11A7E40
:106CB000D207FCD55B8B9B069B0F022B04D04908A7
:106CC00000222000FFF7D2FF2368588B4007C30F34
:106CD000012058400BE0187E8007C00FF4D11A7EC7
:106CE000D207F8D5C022596892020A435A6070BD93
:106CF0000368283319700268107EC007C30F508BD9
:106D0000002B06D1C007C00F08D1538B9B07F3D5CA
:106D100070474007C30F01205840F9E71800F7E714
:106D2000036828331970036800201A7E520704D5BF
:106D3000588B01234007C00F5840704703681868FC
:106D4000C006400F043843425841C0B27047036840
:106D5000187E4007C00F70470368187EC007C00F39
:106D600070470368588BC006C00F70470368187ED1
:106D70008007C00F70470368588B0007C00F70472B
:106D800003681A68D206520F052A05D11A7E9207A7
:106D900002D41A7ED207F9D528331878C0B27047CA
:106DA0000368214A30B593422FD0204A93422FD016
:106DB0001F4A93422FD01F4A93422FD01E4A93421C
:106DC0002FD01E4A93421FD10E23192201210325E1
:106DD00099401B48C024016099082B40AB40FC350A
:106DE0009D4089000918A4000859A843C0259D406A
:106DF0002B0003430B518023DB011A43114B5A80B4
:106E00005A7852B2002AFBDB30BD09231422DDE799
:106E10000A231522DAE70B231622D7E70C231722C1
:106E2000D4E70D231822D1E700080042000C0042ED
:106E3000001000420014004200180042001C0042F2
:106E400000E100E0000C0040F8B504000F0016005F
:106E50001D00FFF7A5FF2000FFF73AFE1C21BB0035
:106E60000B4071072268090C0B43136084232268CE
:106E70009375012F1AD11021012E00D008390C4B27
:106E800069431868C00000F00FFE07222168024025
:106E90008B895203DB04DB0C13438B8122680304D0
:106EA0009089DB0C400B400318439081F8BDC0462D
:106EB00008000020F7B50600019308AB1F780D000D
:106EC0001400FFF779FE3000FFF76AFFC0222405A7
:106ED00092031440BA070C2717433C43C0270722EC
:106EE000BF022D0433683D4025431D60019B31687E
:106EF00013401A0080239B0213434B60F7BD01200F
:106F00007047000010B50368014A1B6A984710BD1E
:106F100013040000FC30006A704787239B00C018F0
:106F2000C36880204000C01A70470300FC331A6A0F
:106F3000002A03D0DB69C018007D70470120404261
:106F4000FBE710B504000069FFF7C2FD2200002333
:106F5000FC329361D361136287229200A4186360AC
:106F6000A360E36010BD872310B59B00C218D368EF
:106F7000002BFCD10069FFF7C2FD10BD0368002B98
:106F800002D162B6BFF36F8F7047F02001403039F5
:106F9000484248417047F0231B01194080230620D6
:106FA0009B0099420AD00133FF330130994205D04A
:106FB000802302385B00994200D0002070470F20E8
:106FC00001400020012903D00239481E8141481C9C
:106FD000704700008B23F0B5182685B002919B0006
:106FE0000400C05C330008214343324D1700EB1806
:106FF0005956FFF79DFC304B0821E05C33004343BA
:10700000EB185956FFF794FC2C4BE25C0393022AD1
:1070100009D11133E05CFF2805D008214643AE19A1
:107020007156FFF785FC8C26B600A05DFF2819D0AD
:107030000121FFF705FC1822A35D21495A43AB56F5
:10704000AD18DB0158188D21890060501D490122BF
:107050005B188E218900635069688A408F218900FE
:1070600062501A600122029B11002069FFF7ECFEBA
:1070700039002000FFF78FFF390005002000FFF7DF
:107080009EFF390006002000FFF77FFF33000090CD
:10709000290020690122FFF7EBFC0B4B2069E25C21
:1070A000039BE15CFFF701FD2069FFF71EFD05B0C2
:1070B000F0BDC046148900002D0200002F02000020
:1070C00018440041144400412E020000802210B5F3
:1070D00004005200002100F0D2FE23000022FC3305
:1070E0005A6020009A60DA6010BD0000F7B51D00FC
:1070F00008AB1B780400009309AB1B7816000193C2
:1071000000234360FA239B008360114B0F00083378
:1071100003601430FFF7DAFF20002130FF30FFF763
:10712000D5FF8B236A469B002761E654094B1278F2
:10713000E554094B2000E2546A46084B1279E254A8
:107140008C22313BFF3B9200A3541032A354FEBD6E
:10715000648D00002D0200002E0200002F020000AE
:10716000F7B5EFF3108300930123019372B68026E5
:107170000200FF25019BFC327600013B5C1C0FD016
:10718000D4685F1EB44209D0546801555468013474
:107190002C405460D4680134D460EEE73B00EDE746
:1071A00068460193FFF7EAFEF7BD13B5EFF31083CE
:1071B00000930123019372B6019B5A1E0192002B8A
:1071C00015D00300FC33DA68002A0DD09A68845C7D
:1071D0009A680132D2B29A60DA68013ADA60684697
:1071E000FFF7CCFE200016BD01246442F7E701241E
:1071F0006846FFF7C3FE6442F4E710B50400006977
:10720000FFF79BFC002805D02069FFF7A6FC20694A
:10721000FFF798FC2069FFF780FC00281BD020694D
:10722000FFF79BFC010020001430FFF799FF8C232F
:107230009B00E35CFF2B0ED02300FC331A6A8023F3
:107240005B009B1A092B06DC8D238F229B0092008A
:10725000E358A2581A602069FFF77AFC00280ED084
:1072600087239B00E318DB68002B14D0200021301B
:10727000FF30FFF79AFFC1B22069FFF772FC206967
:10728000FFF750FC002805D02069FFF74FFC20696C
:10729000FFF73FFC10BD2069FFF771FCEFE700002E
:1072A000F8B5040000690D00FFF752FC87239B002E
:1072B000E618002802D0F368002B34D00127802282
:1072C000F3685200934223D1EFF310833B4210D175
:1072D000174B5B68DB05DB0DF1D0103B5BB2002B7D
:1072E00010DAF13A1340083B9B08124A9B009B18A6
:1072F0001B682069FFF72CFC0028E0D02000FFF776
:107300007CFFDCE79B08C0330B4A9B009B58F0E7EF
:1073100020002130FF302900FFF722FF2069FFF70E
:107320002AFC0120F8BD29002069FFF71AFCF8E7C4
:1073300000ED00E01CED00E000E100E010B504000D
:107340001430FFF732FF8C239B00E35CFF2B0ED041
:107350002300FC331A6A80235B009B1A0A2B06DD8C
:107360008E238F229B009200E358A2581A6010BD12
:1073700010B5041E05D000F0A9FF210000F004FDA7
:107380000C00200010BD10B50400884203DA081A72
:10739000FFF7EEFF2418200010BDF7B506000D0022
:1073A0000C008B180193019B671B9C4207D033682C
:1073B00021781B683000984701340028F3D1380049
:1073C000FEBD704710B5FFF791F900F0F9FCFFF72B
:1073D000F8FFFAF7FDFFFAF79AFF034B002BFAD0FC
:1073E00000E000BFF7E7C0460000000010B500F065
:1073F0000BFD10BD10B500F007FD10BD10B500F07D
:107400000DFD10BD10B500F009FD10BD0B0010B54D
:107410000100180000F0C6FC10BD10B50B1E04D012
:1074200011781A0000F004FD0100080010BD10B52D
:10743000002A01D000F007FD10BD00000B6810B558
:10744000002B02DA094800F065FA934205D9520090
:10745000934202D2002A05DB0A6008680130FFF778
:10746000C5FF10BD024B0B60F7E7C046518E000010
:10747000FFFFFF7F030010B500680833984201D07A
:10748000FFF7BCFF10BD000010B54368140099421F
:1074900004D90A000248210000F040FA080010BD9B
:1074A000AD8D000010B5054C40680919091A9142CC
:1074B00002D2180000F02EFA10BDC046FFFFFF7F79
:1074C0000368020001208B4204D850681B188B42CD
:1074D00089414842704710B5012A02D10B780370E8
:1074E00010BDFFF7A4FFFBE710B5012A02D10B780E
:1074F000037010BD002AFCD000F0AEFCF9E70B00D1
:1075000010B51100012B01D1027010BD002BFCD071
:107510001A0000F0B4FCF8E737B50400019115003B
:107520000F2906D9002201A9FFF788FF019B2060DF
:10753000A3600199002903D02A002068FFF7DFFF2C
:107540000021019B22686360D15437BD10B5521AE7
:10755000FFF7C1FF10BD10B5521AFFF7BCFF10BDF9
:10756000F0B51600426885B00193531A9B1B009337
:107570000A9B0D009B1B9B180393030001680833B3
:1075800004000F22994200D0826803A92000FFF76F
:1075900055FF0700002D03D02A002168FFF79BFF4D
:1075A000019B002B07D00A9B002B04D078191A00EE
:1075B0000199FFF790FF009B002B08D02368AE19BC
:1075C00099190A9B009AED187819FFF784FF20009B
:1075D000FFF750FF039B2760A36005B0F0BD70B5B7
:1075E0001500436804005A1A521B08D0002D06D01B
:1075F00000684B19C31840181900FFF775FF0021E8
:1076000063685D1B23686560595570BD70B50500E2
:107610000E00083028600B6808360C009E420BD123
:1076200010223100FFF703FF636828006B6000231E
:1076300026606360237270BD2B608B68AB60F3E7DC
:1076400070B516000C4A04000D00FFF71DFF731CF7
:1076500005D10023226865605355200070BD002EBF
:10766000FBD063685A1BB24200D9320029002000C7
:10767000FFF7B5FFF1E7C046278E0000F0B5170011
:10768000060087B00C9C0391029322003B4B39000B
:10769000FFF708FF31007368E21B35680592083177
:1076A0009A1804920F228D4200D0B26804998A423F
:1076B00058D3039A02999B1ADB1B3000AD18039331
:1076C000FFF7FEFE002811D0039B002B06D0A74237
:1076D00004D0E91928191A00FFF706FF002C24D05E
:1076E000220002992800FFF7F6FE1EE0002C06D0CB
:1076F000A7423FD3220002992800FFF7F5FE039B23
:10770000002B12D0A74210D0E9192819039AFFF7CD
:10771000EBFEA74209D2029BEF191B199F420DD322
:10772000220002992800FFF7DFFE049B30007360FF
:10773000002332680499535407B0F0BD029B9F4266
:1077400005D8059A9446634419002200CAE7029BB3
:107750002800FF1A3A001900FFF7C6FEE21B29199C
:10776000E819C0E70094029B3A0003993000FFF744
:10777000F7FEDAE7039B002BCDD0C5E7E48D0000D0
:10778000F7B504001500094A0F001E00FFF77CFE44
:1077900063680100DA1BAA4200D92A00089B200076
:1077A00000933300FFF76AFFFEBDC0463B8E00002A
:1077B00073B5050010000E00140000F015FE310036
:1077C0000090230028000022FFF7DAFF76BD13B5F2
:1077D0006B46D971416807338A4209D20468891A15
:1077E000A0181A00FFF719FE002801D0001B16BDD3
:1077F00001204042FBE7000073B504000D001600B5
:10780000002904D1002A02D00C4800F080F8731B34
:1078100001930F2B07D9002201A92000FFF70EFECC
:10782000019B2060A360320029002068FFF78EFED4
:107830000021019B22686360D15473BDFD8D00005F
:1078400002000B0010B504000832026006CB0023D2
:107850008A18FFF7D1FF200010BD000073B50400A7
:107860000D001600002904D1002A02D00C4800F0B7
:107870004EF8731B01930F2B07D9002201A920009A
:10788000FFF7DCFD019B2060A36032002900206827
:10789000FFF761FE0021019B22686360D15473BD34
:1078A000FD8D0000F8B51E0003000D001700083321
:1078B00003600A4A390004002800FFF7E5FD2B6841
:1078C0006A681918D21BB24200D9320020008A1807
:1078D0000023FFF7C3FF2000F8BDC046698E0000FB
:1078E00070B50D00040011002800064A1E00FFF7C5
:1078F000CBFD3300020029002000FFF7D3FF20005A
:1079000070BDC046988D000010B500F043FA10B568
:1079100000F040FA10B500F03DFA00000FB4182353
:10792000B3B500AFFC1820CC280000F05DFD80232B
:107930009B00C118074B2A00C0186B46C008C00046
:107940001B1A9D46230068467C6000F05FF800F03B
:1079500021FAC0460E020000F0B50C1A9FB000AF2D
:10796000631C7B600C23060069221049F81800F0A4
:107970006AFA23006A467733DB08DB00D31A9D4698
:107980000C236D46F9186822280000F05CFA2800E4
:1079900022006830310000F056FA00227B6828008F
:1079A000EB1867331A70FFF7B2FFC0468F8E0000E6
:1079B000F0B585B000AF86B06B461E000C361500E2
:1079C0003400B8607960FB6028000A2100F0F2F80A
:1079D0000D4B013C5B5C280023700A2100F064F829
:1079E000051EF1D17B68341B9C420AD8FB6822003B
:1079F000191B0C31B86800F026FA2000BD4605B00E
:107A0000F0BD01246442F8E7848E0000F7B507005A
:107A100015000400013946182A78002A37D0B442EC
:107A200033D2252A08D16A78732A0AD07A2A15D047
:107A3000253A51424A41AD182A7801352270013465
:107A4000EAE7181D1A68230011781C00002919D0D4
:107A50009E4213D0197001320133F5E7AA78752AD6
:107A6000EAD11A1D0192311B1A682000FFF7A0FF0E
:107A700000280ADD24180335019BCDE731003800CA
:107A8000FFF76AFF02350300C6E72100F7E7E01BB6
:107A90002270FEBD02B4714649084900095C4900E4
:107AA0008E4402BC7047C046002243088B4274D308
:107AB00003098B425FD3030A8B4244D3030B8B42EF
:107AC00028D3030C8B420DD3FF22090212BA030CF8
:107AD0008B4202D31212090265D0030B8B4219D3D9
