:020000040000FA
:10000000FC7F00200D060000FD0500000106000039
:1000100000000000000000000000000000000000E0
:1000200000000000000000000000000005060000C5
:100030000000000000000000090600006507000045
:1000400010B5064C2378002B07D1054B002B02D0AE
:10005000044800E000BF0123237010BD5C000020B5
:10006000000000000819000008B5084B002B03D061
:100070000748084900E000BF07480368002B03D089
:10008000064B002B00D0984708BDC046000000007A
:100090000819000060000020580000200000000047
:1000A000154A164B1178002909D115491878097895
:1000B0004118C9B21970802012498002C8611178B4
:1000C0000131C9B211701978F02902D819780929BB
:1000D00009D80B4908784042C0B2087018780978EE
:1000E0004118C9B2197012781B789A4203D1802244
:1000F000044B9202DA617047780000200100002072
:10010000000000200044004110B5C3699C07FCD4E6
:1001100003680224A3430360C46901231C42FBD18A
:100120000468234303600368DC07FCD4C46901232B
:100130001C42FBD1C469DC401C42F7D1084B1A4376
:100140000260C3695A07FCD4C0239B0243608181CB
:10015000C3699C07FCD4036802221343036010BDEB
:1001600004000040037EDA07FCD5018570470000DB
:10017000027E01235107FBD5428B1A4207D1428BE5
:10018000DA401A4203D1428B92081A4202D0034B42
:1001900001221A70008DC0B27047C046790000205D
:1001A00070B50368041C988B1A1C0821FF320842A2
:1001B00026D0802099839872112353704021144BCC
:1001C000917150715E68134DC0202E40800506432A
:1001D0005E605E693540284358610F4818600F48DB
:1001E00018615D680E4828408025AD02284358609C
:1001F0005868800B8003586000235171237105E01B
:10020000137ADA0602D5201C00F0E6FA207970BDD8
:1002100098010020FFFFFF8F9800002018010020A8
:10022000FF3F00F0002303714371044B01608360C2
:100230000B78022213430B707047C046A1010000E7
:1002400038B5364B2021DA6901200A43DA61344B94
:1002500006241A7802431A70324B0F221978914300
:1002600019701978214319702F490C7820430870B0
:1002700019780A401A701A7860210A431A702B4BB9
:100280002B4A5A805A7852B2002AFBDB294B0121B3
:100290001A780A431A709A78D107FCD42648026863
:1002A000510B1F221140914200D1052111408C01B8
:1002B0001D8D22492940214319850468A10C0A405B
:1002C0001F2A00D11D221C8D1F210A408C4322436E
:1002D0001A8502680721D20D0A408A4200D1032202
:1002E0000A40188D1103164A02400A431A851978EC
:1002F0007F220A401A701A78042112480A431A70A1
:1003000058621A890C218A431A811A8901218A4369
:100310001A810021802201F076F938BD00040040E6
:10032000584400413C44004159440041000C004005
:100330000640000000500041246080003FF8FFFFAD
:10034000FF8FFFFF98010020F7B5141C1F4A5F01C3
:1003500001971D1CD319061C5869271C4000400F2B
:1003600003301033C74006D00F1C80225968120694
:100370000A435A6009E02F1C7B1E9F41144BBF01AA
:10038000FF18381C221C01F035F901990F48083577
:1003900042181761131C5269A104920B890C920335
:1003A0000A435A6159690B4A0A405A616B01F318B2
:1003B0000222DA715979802252420A435A716B0142
:1003C000F318DB799A07FAD5201CFEBD98010020AE
:1003D00018010020FF3F00F0F8B51A4E051C3378D5
:1003E000141C002B12D1184B184A1A645A6C920B29
:1003F00092035A64586C164A02405A64A2235B0066
:10040000EA5C40200243EA54012333704827FF3757
:10041000EA5D0123134012D00B4B5A6C9204920CEC
:10042000A24202D25C6CA404A40C081C221C074942
:1004300001F0E0F80123EB550023337000E01C1CB1
:10044000201CF8BD7A00002098010020D800002070
:10045000FF3F00F0FF3083792022002900D11022D5
:100460001343837170470000084BFF305A69920BA9
:1004700092035A6102230372827980235B42134301
:100480008371037A9A07FCD57047C0469801002013
:1004900080235B421943C9B28172704770B5A023B3
:1004A00003225B00C254134B134A5C6CC0211440FE
:1004B00089050C4346255C64FF35402444550F4DA7
:1004C00030261D6490256D0046555D6B154029430F
:1004D000922559636D0080214155094D1D63B0255A
:1004E0006D0044555C6F22405A67B2235B00C154D3
:1004F00070BDC04698010020FFFFFF8FD80000208C
:1005000058010020024B5B785BB2002BFADB70478E
:10051000000C0040024BDB68DA06FBD57047C04692
:1005200000080040F8B52A4B1E2259689143022268
:1005300011435960274B28491E1C9982998A0A4306
:100540009A82F3680227234C3B42FAD0234D0123C1
:10055000AB60FFF7D7FF224B6B60FFF7D3FF82231F
:10056000DB016B80FFF7CEFFA38C80229343A38433
:10057000FFF7D0FF1B4BE362FFF7CCFFA38C1A4AB7
:100580001343A384FFF7C6FFA38C1F43A784F3681C
:100590001A06FCD50F4BDB685A06F8D50024FFF786
:1005A000B9FFAC60FFF7AEFF104B6B60FFF7AAFF1F
:1005B0000F4B104AC0215A600F4A0906106A000208
:1005C000000A0143116207229C601A60F8BDC04610
:1005D00000400041000800400C060000000C0040F4
:1005E00001050100B805FF7D040A000000070300B3
:1005F00010E000E0E703000000ED00E00EBEFEE7C3
:100600000DBEFEE705BEFEE702BEFEE70E4A0F483E
:1006100038B5824204D10E4A0E4B93420ED10AE005
:100620000D4C9442F7D00023D1188842F3D9E558F5
:1006300004330D60F8E700F011F804E09342FAD2B9
:10064000002102C3FAE7FEE7000000205C00002062
:10065000A80300205C0000200C19000038B5344BC2
:100660001A681C1C013221D0324A191D1160D9B2FE
:1006700000291BD1304A1078012210402F4A0AD19C
:1006800015682F498D4201D110600FE011602D498E
:1006900001390029FCD11160226882F30888FF2209
:1006A0009343294A9360224B5B681847FFF73AFF50
:1006B00062B600F0CDFD00F05BF8244B8022920280
:1006C00023499A6008220A602249041C0A60802299
:1006D00012059A609A61204B204AC0215A601A4A3A
:1006E0000906106A0002000A0143116200229A60A2
:1006F00007221A60A368201C9847194B002801D0D4
:1007000001221A701A78002A05D0002000F094FA0D
:1007100000F01AFBFCE71B78002BEBD100F00CFE7D
:100720000028E7D0012000F087FA00F00DFBFCE77D
:10073000002000001802002038040040FC7F002048
:100740003581730748E8010000ED00E000440041F6
:10075000884400419844004110E000E0E7030000B5
:100760007B00002008B5FFF79BFC00F0C9FA08BD2C
:1007700010B5054B054C2360FFF762FD201C216876
:10078000FFF750FD201C10BD005000411C0200204E
:1007900070B5051CC0B0081C161C0C1C00F03BFFFB
:1007A00040006A460323023053701070760801231C
:1007B000E218013A11785A00002906D1281C69462E
:1007C0000023FFF7C1FD40B070BDB342F6DA6846C2
:1007D00081520133ECE70000F7B5BA4A0468137898
:1007E000B949271CFF37051C102038720B7053784D
:1007F000B648B74E037093783380D17833880902B6
:100800000B4333801179B34B198051791888090251
:10081000084318809079B0490880D279088812027C
:1008200002430A8040227A71A84F3A78A64F1202FA
:1008300038780F1C0243A9488446181C624500D131
:10084000C2E020DC802149008A4200D16EE109DC4F
:10085000812A00D192E0822A00D195E0802A00D03E
:1008600064E18BE081235B009A4200D1CFE000DAA3
:1008700058E1C0239B009A4200D157E1984B9A421D
:1008800000D14FE152E190231B019A4269D015DC5F
:10089000D023DB009A4222D088231B019A4269D0E0
:1008A000A023DB009A4200D040E1201CFFF7DCFDD2
:1008B0003188286889B2FFF7EBFD3BE1894B9A420A
:1008C00000D12FE100DC31E1874B9A4200D11DE1DC
:1008D000864B9A4200D029E133886B7122E133883C
:1008E0001B0A012B08D10B8812222868934201D8D9
:1008F0000A8892B27E4911E133881B0A022B08D183
:100900000B8843222868934201D80A8892B2794919
:1009100004E133881B0A032B00D007E13388DBB2E4
:10092000012B17D0002B07D0022B00D0FEE00A8845
:100930002868D2B2704911E0042201A86F4900F082
:1009400059FE3B8804222868934201D83A8892B223
:1009500001A9E3E00A8828686949D2B2FFF718FFC5
:10096000E8E03388201C2B71FFF77EFD201CFFF789
:1009700095FDDFE0291C01C90122CFE06149002378
:100980000B8028680222CAE05E4900220A8018888B
:10099000502210405C4A10701E880F203040188092
:1009A0001888032800D9C1E012781B8808335B013E
:1009B000E418A379002A01D09B0600E0DB06DB0FD8
:1009C0000B8028680222A9E019887F2291434E4AB1
:1009D000C9B2117018880F2101401980318800298F
:1009E00000D0A3E01988002900D19FE019880329CD
:1009F00000D99BE012781B8808335B01E318002ABA
:100A000002D020225A718DE0102159718AE00288AB
:100A10007F239A433C4BD2B21A7001880F220A40BE
:100A200002803288002A00D080E00288002A00D1AB
:100A30007CE00288032A00D978E01B78002B1FD0C5
:100A4000038808335B01E3189B799A066AD503880B
:100A5000202208335B01E3181A71038808335B0115
:100A6000E318DB795F065DD50388402208335B011C
:100A7000E318DA710388022208335B01E3181EE0F1
:100A8000038808335B01E3189B79D9064AD50388AC
:100A9000102208335B01E3181A71038808335B01E5
:100AA000E318DB799A063DD50388202208335B01E1
:100AB000E318DA710388012208335B01E3181A7125
:100AC00030E0C046980000207D0000208200002019
:100AD0008400002086000020800000200203000027
:100AE0000103000021200000A121000021220000BC
:100AF0005C160000040000204C1600003C160000AC
:100B0000401600007E0000207C0000200B88082298
:100B10002868934201D80A8892B207490023FFF758
:100B200013FC07E0201CFFF79FFC03E0201C0121C1
:100B3000FFF790FCF7BDC0464800002007B5054B05
:100B40000122019001A91868131CFFF7FDFB012089
:100B50000EBDC0461C02002013B5054B6C46073481
:100B60001868211C0122FFF737FC207816BDC0460B
:100B70001C02002010B5074C201CFFF711FB031CC2
:100B80000020834205D022684823FF33D05C012334
:100B9000184010BD1C02002010B5054A0C1C031C97
:100BA000191C10680123221CFFF7CEFB201C10BD6E
:100BB0001C02002070B5084C061C201C0D1CFFF701
:100BC000EFFA0023984205D02068311C2A1CFFF759
:100BD00003FC031C181C70BD1C020020F8B50C4C53
:100BE000051C201C0E1CFFF7DBFA0023271C341CFD
:100BF00098420AD0002C07D0291C221C3868FFF725
:100C0000EBFB241A2D18F5E7331C181CF8BDC04661
:100C10001C02002008B5031C081C111C9847044B3B
:100C2000802212055A61034B64221A8008BDC04617
:100C3000004400418C000020012805D1054B064AE4
:100C40001A60064B187004E0002802D1044A014BD8
:100C50001A6070478C02002090160000940000205B
:100C6000DC16000030B50A1C1C4985B00978031C4D
:100C700000292AD0042A01D1006804E0022A01D107
:100C8000008800E00078520004A98B180B3B9C1AE6
:100C9000A3420BD00F210140092902D83025294356
:100CA00000E0373119700009013BF1E701A9302359
:100CB0000B7078234B700A208B1898700D20D87019
:100CC000074B04321B68D86803E005490968C86807
:100CD000191CFFF79FFF05B030BDC04688000020FB
:100CE0008C02002072B6EFF30883044A1360036895
:100CF00083F30888436818477047C0469002002075
:100D00000D4B1A88002A09D01A88013A92B21A802B
:100D1000002A03D18022094B12059A61084B1A88D8
:100D2000002A08D01A88013A92B21A80002A02D109
:100D3000044B08221A6070478C00002000440041D8
:100D40008A00002098440041F0B591B008A9CE4A2D
:100D50000B1C31CA31C351CA51C360CA60C3CB4BEB
:100D6000CB489A687A255203520F92005258C949CB
:100D700002609C68A4B262430C60C74900240A6008
:100D8000C64A1460C64C2570C64CC74D2368281C43
:100D90001B6940219847002805D0C44B08221A60DF
:100DA000C34B64221A80C34B00221860C24B1D60E3
:100DB000C24BC24DBF4F1A602A683B689A42E3D2C9
:100DC000BD4B1B681A78FF2A00D120E2232A00D0ED
:100DD000F7E1BB4E3378002B06D0B24BB9491B6804
:100DE0000222D868FFF716FFAD4B1B78532B3FD17B
:100DF0003B682A6893421ED9AF4801322A609A1A8A
:100E0000B14B01681B6801310160B04E9A4201D2BA
:100E1000326000E03360A14832680068049000F05E
:100E2000E9FB336829685A182A60A34A1668F11842
:100E30001160A74A13702B68013B2B609E4B1A6808
:100E4000013A1A60A24BA04A1B7811688B420DD25E
:100E500022689248C91A006892699047002805D014
:100E6000924B08221A60924B64221A80C04696E187
:100E7000522B0ED18948944A2368006811685B6937
:100E800003909847934B802212055A616422924B3B
:100E90000DE04F2B05D1814B8B4A1B6812681A70ED
:100EA0007DE1482B05D17D4B874A1B6812681A806B
:100EB00075E1572B05D1794B834A1B6812681A607C
:100EC0006DE16F2B03D1754B0121186807E0682B8A
:100ED00008D1724B7C481B6802211B880360FFF716
:100EE000C1FE5CE1772B06D16C4B77481B6804216F
:100EF0001B680360F3E7472B13D1734B1868FFF7A8
:100F0000F1FE764B1B6883F3088862B6744B1B783E
:100F1000002B00D143E1634B06201B681B689847F8
:100F20003DE1542B04D1012333705E4B1B6864E018
:100F30004E2B0CD13378002B06D15A4B61491B68DC
:100F40000222D868FFF766FE0023337027E1562B94
:100F500057D123686349D8680122FFF75BFE2368F5
:100F60006149D8680322FFF755FE604D2368291CAC
:100F7000D8680122FFF74EFE23685D49D8680D222C
:100F8000FFF748FE2368291CD8680122FFF742FEBC
:100F9000494F4A4D5749002339602B603A1C281CA1
:100FA00013685E1C16601B780593002B03D0036842
:100FB00001330360F4E73B4E2A683368D868FFF7D3
:100FC00029FE33684949D8680122FFF723FE0599B5
:100FD000296049493960384A1368581C10601B78E9
:100FE000002B04D0354B1A6801321A60F3E73368DE
:100FF0002A68D868FFF70EFE3368D86831490222A4
:10100000CBE0314A582B17D1214E234D3668136857
:101010002A68B10093420AD21C4D5808E86137484B
:1010200028801A4D287DC607FBD55B18F2E71D4BBB
:1010300033491B68D868AFE0592B00D07DE01268B7
:10104000164B3049002A02D11B680B6070E00F4D2F
:10105000086819686B680D4E8025AB439208736071
:10106000002A65D0284B094D2B80084E337DDD07C3
:10107000FBD50023064D2D680195AD08AB4247D343
:10108000224D024E35804AE07016000000400041BB
:10109000440200203C020020380200208802002088
:1010A000340200208C0200204802002094440041B9
:1010B0008A0000202C020020300200204002002084
:1010C00088000020D0160000940200209802002022
:1010D00028020020004400418C00002090020020E3
:1010E00094000020AC160000D5160000AE160000DB
:1010F000F8160000B0160000BC16000002A5FFFFA5
:10110000C51600009000002044A5FFFF04A5FFFFC6
:101110009342B5D09D00465901334E51AAE7404E47
:10112000357DEE07FBD59D0049194019D21A97E786
:101130003C4B3D491B68D8682EE05A2B2FD13B4BC6
:1011400017681D680026EF19BD4206D02878311CAB
:1011500000F014F90135061CF6E7324B34491B68E0
:101160000122D868FFF756FD07230F223240111CD9
:1011700036093031092A00DD07311820C0186A46C7
:101180008154013BF1D2236806A9D8680822FFF7F1
:1011900041FD23682749D8680322FFF73BFD264B12
:1011A0007A221A70254B00221A60254B1B78934235
:1011B0002DD01C4B23491B680122D868FFF72AFD5C
:1011C00025E0111C3039C8B21C4B092804D81D6811
:1011D0002A01114319601AE0111C4139052903D86D
:1011E0001E68373A310106E0111C6139052904D81F
:1011F0001868573A01010A4308E02C2A03D10B4A28
:101200001968116001E00C490A7000221A600E4B47
:101210001A6801321A600D4B1A680132C9E5C046DE
:10122000004000418C020020C91600008802002006
:10123000CD160000CF1600003402002094020020DA
:1012400088000020D3160000400200203002002059
:1012500010B51C4B01201A78022402431A701A4B55
:101260000F22197891431970197821431970174981
:101270000C782043087019780A401A701A782021D7
:101280000A431A70124B04211A6A0A431A62114B5C
:10129000114A5A805A7852B2002AFBDBC4220F4806
:1012A0000F499203FEF730FF0E4A002313700E4AD7
:1012B00013700E4A13700E4A13700E4A13700E4AC2
:1012C000137010BD4A440041354400414B44004175
:1012D00000040040000C00401440000000080042E0
:1012E0002AF600009C020020230300209D0200201B
:1012F000A0020020240300202103002008B5C1B271
:101300000248FEF72FFF012008BDC046000800423A
:10131000024B187E4007C00F7047C04600080042CD
:1013200008B5FFF7F5FF0028FBD00248FEF720FFC5
:1013300008BDC0460008004208B5FFF7E9FF0023DA
:10134000984205D0FFF7ECFF031C233B5A42534160
:10135000181C08BD70B5041C0D1C4618B44204D0FE
:101360002078FFF7CBFF0134F8E7281C70BD10B5DB
:10137000041CFFF7D5FF2070012010BD0B0A584058
:10138000034B4000C05A0902484080B27047C04633
:1013900006170000F7B50024051C0F1C261CBC42D4
:1013A00020D0FFF7BDFF114BC0B21B780190002B7E
:1013B0001AD1311CFFF7E2FF0D4B061C1A88002AD8
:1013C00004D10C4A11782A1C002907D001996A1C03
:1013D0002970802F02D11988013919800134A4B2F3
:1013E000151CDCE7301C00E00120FEBD21030020BD
:1013F0009E02002022030020F0B53E4E85B0002260
:1014000003900C1C32703C4B914201D1012201E04F
:101410003A490C801A707F231C4201D080349C43CF
:10142000FFF77EFF3378C0B2002B07D00025357060
:10143000FFF776FF3378C0B2AB4236D1432803D0F2
:10144000712853D01528EBD1012300930120FFF719
:1014500055FF0098FFF752FF00998025C843C0B29E
:10146000FFF74CFF039B00270293244A1388002BAD
:101470001DD1214901930978002918D10198FFF75E
:101480003DFF391C0198FFF779FF013D071C002D36
:10149000EBD1000AC0B2FFF731FFF8B2FFF72EFF21
:1014A000FFF73EFF3378002B0AD035701FE002991A
:1014B000013B09781380029B019101330293DDE720
:1014C000C0B2062807D1009B03990133DBB28031FB
:1014D0000093803C0391002CB8D10420FFF70EFF4D
:1014E000FFF71EFF044B01251C7000E00025281C9F
:1014F00005B0F0BD21030020220300209E02002041
:10150000F0B5384C87B0002301902370994201D187
:10151000012301E0344A1180344A642613704320C9
:10152000FFF7ECFE324FFFF7F3FE002803D1002F48
:1015300003D0013FF7E7002F03D1013E002EEED18B
:101540004DE00125FFF7ECFE2378002B38D1C0B227
:101550000290012805D004283DD10620FFF7CEFED9
:1015600039E005AE0221301CFFF714FF01988021FD
:10157000FFF710FF23780390002B18D1FFF7D0FE60
:101580000702FFF7CDFEBFB223783F18BFB2012B91
:101590000DD0039B9F4207D13378AB4204D1EB437C
:1015A0007278DBB29A4204D01820FFF7A7FE00231E
:1015B00003E00620FFF7A2FE029B2278002A02D059
:1015C000002626700BE0012B05D1019A6B1C80329E
:1015D000DDB20192B6E7054A002313700126301CE4
:1015E00007B0F0BD210300209E020020220300204E
:1015F00000350C0010B50023934203D0CC5CC454DA
:101600000133F9E710BD031C8218934202D0197010
:101610000133FAE770470023C25C0133002AFBD193
:10162000581E7047F8B5C046F8BC08BC9E467047C7
:10163000F8B5C046F8BC08BC9E46704704030904D0
:1016400041726475696E6F204C4C43004172647541
:10165000696E6F205A65726F00000000120100026F
:101660000200004041234D00000201020001000081
:1016700008000000100000002000000040000000F2
:1016800080000000000100000002000000040000D3
:10169000FD1200002113000011130000551300007B
:1016A0006F130000F9130000011500007600200000
:1016B00041707220313120323031390031333A30CB
:1016C000393A343900580A0D00590A0D005A0023DE
:1016D0000A0D003E00322E30000000003D0B0000DD
:1016E000590B0000750B0000990B0000B50B0000B2
:1016F000990B0000DD0B00005B41726475696E6F31
:101700003A58595A5D00000021104220633084404D
:10171000A550C660E770088129914AA16BB18CC1C0
:10172000ADD1CEE1EFF13112100273325222B55237
:101730009442F772D662399318837BB35AA3BDD310
:101740009CC3FFF3DEE36224433420040114E66407
:10175000C774A44485546AA54BB528850995EEE560
:10176000CFF5ACC58DD55336722611163006D77617
:10177000F6669556B4465BB77AA719973887DFF7B0
:10178000FEE79DD7BCC7C448E5588668A7784008DF
:10179000611802282338CCC9EDD98EE9AFF9488900
:1017A00069990AA92BB9F55AD44AB77A966A711A77
:1017B000500A333A122AFDDBDCCBBFFB9EEB799B50
:1017C000588B3BBB1AABA66C877CE44CC55C222CC7
:1017D000033C600C411CAEED8FFDECCDCDDD2AADA0
:1017E0000BBD688D499D977EB66ED55EF44E133E57
:1017F000322E511E700E9FFFBEEFDDDFFCCF1BBFF0
:101800003AAF599F788F8891A981CAB1EBA10CD1C9
:101810002DC14EF16FE18010A100C230E3200450D1
:10182000254046706760B9839893FBA3DAB33DC344
:101830001CD37FE35EF3B1029012F322D232354221
:10184000145277625672EAB5CBA5A89589856EF5D4
:101850004FE52CD50DC5E234C324A0148104667471
:10186000476424540544DBA7FAB79987B8975FE724
:101870007EF71DC73CD7D326F2369106B0165766C1
:101880007676154634564CD96DC90EF92FE9C899AC
:10189000E9898AB9ABA94458654806782768C01811
:1018A000E1088238A3287DCB5CDB3FEB1EFBF98B84
:1018B000D89BBBAB9ABB754A545A376A167AF10A61
:1018C000D01AB32A923A2EFD0FED6CDD4DCDAABD94
:1018D0008BADE89DC98D267C076C645C454CA23CB1
:1018E000832CE01CC10C1FEF3EFF5DCF7CDF9BAF64
:1018F000BABFD98FF89F176E367E554E745E932E01
:10190000B23ED10EF01E00000000000001140000E5
:1019100009024300020100803209040000010202B2
:101920000000052400100104240200052406000123
:101930000524010001070583030800FF09040100D5
:10194000020A0000000705810240000007050202AC
:101950004000000000C20100000008006900000013
:0819600041000000000000003E
:102000000080002011650000F9640000F964000000
:1020100000000000000000000000000000000000C0
:10202000000000000000000000000000F964000053
:102030000000000000000000F96400006565000079
:10204000F9640000F9640000F9640000F96400001C
:10205000F9640000F9640000F9640000FD64000008
:10206000F964000045640000F9640000F9640000B0
:10207000A94A0000F964000055640000F9640000FA
:10208000F9640000F9640000F9640000F9640000DC
:1020900000000000F9640000F9640000F964000029
:1020A000F9640000F9640000F9640000F9640000BC
:1020B0000000000010B5064C2378002B07D1054B1B
:1020C000002B02D0044800E000BF0123237010BDA4
:1020D00090000020000000007C870000044B10B539
:1020E000002B03D00349044800E000BF10BDC046E8
:1020F00000000000940000207C87000010B52C3008
:10210000044A0378D2689B00985803681B68984774
:1021100010BDC046EC00002010B5072004F030FCD4
:1021200010BD000010B50121072004F0DDFB064CB6
:10213000012220000F2102F091FE01220E21200039
:1021400002F08CFE10BDC046DC00002010B5064C2D
:10215000012220000D2102F081FE00220D2120002D
:1021600002F0C2FE10BDC046DC00002010B5020027
:102170000D21024802F0B8FE10BDC046DC00002070
:1021800010B502000F21024802F0AEFE10BDC0469D
:10219000DC00002010B502000E21024802F0A4FE6F
:1021A00010BDC046DC00002010B5074C002904D14A
:1021B0000131200002F014FF10BD0179200002F06F
:1021C000FEFE0021F5E7C0460401002010B5040022
:1021D000C068002801D005F065F9200010BD036932
:1021E00010B5002B0DD04369002B0AD00400036802
:1021F000083421001B68984710220021200005F0B8
:1022000090FD10BDF0B5012189B0062004F06CFBF3
:10221000254C0323254A0621200002F0F5FD20006D
:1022200002F0B6FD224802F0ACFE224802F0A9FE00
:10223000214802F0A6FE602300240493403B05934E
:1022400010330693103307931C4B1D4D03931D4F02
:102250001D4B164E21000134019302970096049AFB
:10226000059B2800E4B203F00FF9062CECD1174BC4
:10227000069A0393144B210001932800079B0297B1
:10228000009603F001F9114B069A03930E4B0721B8
:1022900001932800079B0297009603F0F5F82800A9
:1022A00003F065F809B0F0BDDC000020D00100208B
:1022B00004010020BC000020CC000020728000003F
:1022C000EC00002019210000A9210000638000001B
:1022D00070B504000D000020896805F0A8F8E968D1
:1022E0002060002005F0A3F8A9686060002005F0D8
:1022F0009EF8E968A060002005F099F8E0602000F1
:1023000070BD70B5040005684668AE4204D0280070
:1023100005F004F91835F8E72068002801D005F029
:10232000C1F8200070BD0000F0B50400A9B007AEF0
:1023300002F01DFF21003000FFF7CAFF0DA8154A6B
:10234000154927790B9005F041F9022300220C93DF
:102350000B9B01219A702300059203920F4A0BAD4B
:1023600008330491029239000D4A0195009611A894
:1023700003F0C2FD280005F0D1F813A8FFF72FFFE6
:10238000084B23A81193084B1393FFF7BAFF29B00A
:10239000F0BDC0466280000060800000FD200000AB
:1023A000AC000020448100003081000010B5002402
:1023B000044BDB6818590434FFF7B6FF202CF7D123
:1023C00010BDC046EC00002010B5FA240121062003
:1023D000640004F0D5FAFFF7E9FF200004F0FAF8F2
:1023E0000021062004F0CCFAFFF7E0FF200004F003
:1023F000F1F810BDC020F0B540008BB005F04EF8EC
:1024000006001020002405F049F804704470847020
:10241000C470047144718471C47104724472847212
:10242000C472047344738473C4733060102005F065
:1024300035F80B21FE23C172047044708470C370A0
:10244000047144718471C47104724472847204739F
:1024500044738473C4737060102005F01FF8042562
:102460000623047045708370C470057143718471D4
:10247000C471047244728472C472047344738473AA
:10248000C473B060102005F009F8D021BE2290235B
:1024900081700171C939C2704271047043708371D7
:1024A000C471047244728172C47201734473847380
:1024B000C473F060102004F0F1FF18274770222742
:1024C000C770C22726234771032108278370D93399
:1024D0000371C03B0373333B04708571C471047294
:1024E00045728772C77243738173C4733061102061
:1024F00004F0D4FFC02242213C25C2234170C270A7
:102500002239C271B93A05708570057143718171C4
:10251000047244728772C272047342738773C27307
:102520007061102004F0BAFF80231A0003705C234E
:102530004370A2236221C370863B0371092381701B
:10254000032182717C3A427203730232043B0172AE
:1025500083734471C4718772C7724273C773B06169
:10256000102004F09BFF0622047044708470C27037
:10257000047144718471C471047244728472C472AF
:10258000047344738473C473F061102004F086FFF5
:10259000C021022307228170037178218023C17238
:1025A000827204704470C57044718471C471047285
:1025B0004472037344738473C4733062102004F054
:1025C0006DFFC570843505718025857278250223DD
:1025D000C572072504704470837044718471C4719E
:1025E00004724472057344738473C4737062102060
:1025F00004F054FF0E25142304708370037144709B
:10260000C57044718471C471047244728472C4725E
:10261000047344738473C473B062102004F03EFFEB
:10262000E0220125C270D13A0470447084700471B4
:1026300044718471C471047245728572C2720573EB
:1026400045738473C473F062102004F027FF1822CE
:102650000470C27244708470C470047144718471D7
:10266000C471047244728472047344738473C473B7
:102670003063102004F012FF047044708470C47042
:10268000047144718471C471047244728572C5729C
:10269000057345738473C4737063102004F0FEFEE9
:1026A000047044708470C470047144718471C47186
:1026B000047244728472C472077344738473C47363
:1026C000B063102004F0EAFE1E23E0224371A2331F
:1026D0008372823B047044708470C4700271847190
:1026E000C47104724472C372057344738473C473F7
:1026F000F063102004F0D2FE06218170062102232F
:10270000F82241710321C37003710A33417281734E
:10271000047042708271C47104728372C77207734D
:102720004373C4733064102004F0B8FE0422827036
:10273000FE22022302710F22047002734470C370E0
:1027400044718471C471047244728472C47244739B
:102750008473C4737064102004F0A0FE0C2319006D
:102760004370022383708223C3706623037118238E
:1027700043710B00023B8372013B04708471C4718E
:1027800004724172C372077347738473C473B06475
:10279000102004F083FE0C23062143700A3B6222C2
:1027A00083709C23417249190470C2700271437195
:1027B0008471C47104728772C77207734173847322
:1027C000C473F064102004F069FE70220E2380218F
:1027D00082700F22C370B233417003717D39BE3BEA
:1027E000047044718471C471047241728372C37243
:1027F000027343738473C4733065102004F04EFE7B
:1028000042227E238270222243704233C2700271C0
:102810004271837106220C2303210470C471047277
:1028200042728772C772077343738173C473706592
:10283000102004F033FE2C2380217022C370343327
:102840004170827043714E3A543B81717D390271FF
:102850000470C471047241728372C7720773437348
:102860008173C473B065102004F018FE0E2343700A
:1028700002238370C370E2230371C43B43710321BD
:102880000C2304708471C471047244728372C17227
:10289000047344738473C473F065102004F0FEFD68
:1028A0004222C27042226421982302710422817064
:1028B00041716139047043708371C4710472417253
:1028C0008272C772077342738173C47330661020BB
:1028D00004F0E4FD38239C46C622822143706346FF
:1028E00082704271C03AC1700171C272047083710A
:1028F000C471047244728772057344738473C47321
:102900007066102004F0CAFD1023047044708470B7
:10291000C370047144718471C4710472447284720E
:10292000C772047344738473C473B066180004F0F0
:10293000B5FD1023C37018230470447084700471B3
:1029400044718471C471047244728472C3720473DA
:1029500044738473C473F066102004F09FFD402319
:10296000102280218370203BC370037142711E3B93
:102970000C3A4170C272027304708471C4710472A3
:102980004572837247738473C4733067102004F0F8
:1029900085FD402343708370C370037143713E3BD8
:1029A00004708471C471047243728372C3720373BE
:1029B00043738473C4737067102004F06FFD202389
:1029C00010228370C370DB184270037104228021CF
:1029D0000223047041718471C4710472477282725F
:1029E000C272037345738473C473B067102004F01C
:1029F00055FD0C23662183700A3BC370822241710E
:102A000018230B210470447002718371C471047225
:102A100044728472C472017344738473C473F06724
:102A2000102004F03BFDE22383701223C370E033D7
:102A300003711F23F821042203724723017081715F
:102A4000072142704271837203731C321F3B427232
:102A500043732832331DC471C2728173C473D86743
:102A6000102004F01BFD0E21C1700E218023702266
:102A700001710321437083718572743BC5720573C4
:102A80004573F519047082704271C471037241720A
:102A90008173C373E867102004F000FDFE254570C4
:102AA00022258570C570057164250422457198251D
:102AB00042738571150032000F23032188320470A0
:102AC000C471047243728772C77207738173C473CF
:102AD0001060102004F0E2FCF822857042700C2196
:102AE0002A003300022581718272093952198C3310
:102AF0000470C57005714571C47104724172C7726A
:102B0000077347738273C4731860102004F0C6FC07
:102B1000F82383710F23FE22437233000321427096
:102B20009033FA3A04708570C57005714271C471B2
:102B300004728772C772077342738173C47318601B
:102B4000102004F0ABFC85710F256B4603951D7BAF
:102B500087724572C7723D000773477387733700EA
:102B60004221FE229437427004708170C17001715D
:102B70004171C4710472C4733860102004F08EFC7B
:102B800042216B460691197EFE278170C17001714A
:102B9000417102210491197C04708171197B477085
:102BA000417231009831C47104728472C47204732A
:102BB00044738473C4730860102004F06FFC042114
:102BC0006B460591197DF8224170197C0270817065
:102BD000197ED823032283716B4608921D329B18FD
:102BE0001A786B4602721A7DC170427242732022BB
:102BF0009B181A7801718273320044219C32417112
:102C0000C4718572C5720573C4731060102004F01E
:102C100045FC6B461A7B4021427282733200A0321F
:102C20008170C17001714171047047708771C47106
:102C300004728472C47204734473C47310601020ED
:102C400004F02CFC6B461A7B0470C2723200A43272
:102C500044708470C770047144718471C4710472CB
:102C600044728472047344738473C47310601020BC
:102C700004F014FC6B461A7D047042720273202229
:102C80009B181A78447042733200A8328470C47062
:102C9000047147718471C47104728572C572847342
:102CA000C4731060102004F0F9FB202230238270DE
:102CB000C37006229C3303716B4607921A7F402132
:102CC00042711A7B4170027220229B181A786B465F
:102CD00042730C22099218329B181A78077082737B
:102CE0003200AC328471C47144728472C472047351
:102CF000C4731060102004F0D1FB6B461A7B047083
:102D000042723200B03247708470C47004714471F2
:102D10008471C47104728572C572057345738573BD
:102D2000C4731060102004F0B9FB6B461A7D6B462B
:102D30001B7D382183716B461B7B427081700A00BA
:102D40000372C0216B46C1700171197B330042715F
:102D5000B433373A0770C77144728472C272027317
:102D600044738473C1731860102004F097FB6B46A2
:102D700024229B181978102383706023C3706B463C
:102D80001B7B41700372012303736B461A7F802102
:102D900042731A7B3300B833077001714471877135
:102DA000C47144728472C4728273C4731860102038
:102DB00004F074FB24216B465B181B78F0224370EF
:102DC0006B461B7C027083706B461B7C8271C370E8
:102DD0006B461B7C6A4603716B465B181B78117F40
:102DE00043710123037283733300BC33C471417296
:102DF0008572C57205734173C4731860102004F0A6
:102E00004DFB822338228370C37003716B4682713D
:102E10001A7B442142723200C03204704770417103
:102E2000C47104728472C472047344738473C4736F
:102E30001060102004F032FB6B4624215B181978D7
:102E40006B464170197CF0228170C17001712421A0
:102E50005B181978012303726B46027082711A7F26
:102E6000092342720A2202736A46127F4171427339
:102E70003200C432C4718572C3728373C47310602C
:102E8000102004F00BFB82238370C3700371442372
:102E900043710C3B83716B461A7B04704272202293
:102EA0009B181A786B46427324229B181A78477035
:102EB00082733200C8321060C47104728472C472AA
:102EC0000473C473102004F0E9FA382303700C3340
:102ED00043706B461B7E847183706B461B7EC4718E
:102EE000C3706B461B7E45720371842343716B462E
:102EF0001B7D85720372072343733300CC33C57285
:102F000005738473C4731860102004F0C7FA6B460D
:102F10001A7C047042708270027142711A7B330015
:102F2000D033C7708471C471047244728472C272E7
:102F3000047344738473C4731860102004F0AEFAF1
:102F40006B4620229B181A786B4642721A7D0470D9
:102F50008272427320229B181A783300D433477050
:102F60008470C470047144718771C4710472C57235
:102F700005738273C4731860102004F08FFA6B46D7
:102F80001A7F7823437043716B461B7FC5723500EF
:102F9000802183710723D83502708170C47001715C
:102FA000C471047244728372037344738473C47370
:102FB0002860102004F072FAC77001276B46F022D7
:102FC0004772477337000E258021C4710472C472A2
:102FD0000024427042711A7BDC37057081700171E8
:102FE0008571827202738473C4733860102004F098
:102FF00055FA0627077087710C27A023077287737D
:1030000037001821402283700371E0379D3BC27066
:103010004372437341704171C4718472C47204730A
:10302000C4733860102004F039FA302745704571B8
:103030003500C021877007710F27E435C170047017
:103040008471C471047244728472C77204734473CD
:103050008473C4732860102004F020FAC2230C2764
:103060008370603BC370483B03710F3B4372330076
:103070000225062207720827E83305704570427161
:103080008471C4718772C772077347738473C47382
:103090001860102004F002FAFE2383707E3BC37296
:1030A00003733300FF22EC3304704470C570057164
:1030B00044718471C4710472447282724473847363
:1030C000C4731860102004F0E9F9E021C170417365
:1030D000310001221E23F031C27283700373086035
:1030E00004704470047144718471C4710472447238
:1030F00084728473C473102004F0D0F98570C57095
:10310000FE25057180258572C572FF250573350082
:10311000F4350470447044718471C4710472447253
:1031200044738473C4732860102004F0B7F90C252D
:10313000C57205733500C021CC23F835417081700C
:10314000C3700371417181710470C471047244725F
:10315000847244738473C4732860102004F09EF951
:103160002025057245728572C57205734573857396
:103170003500FC35047044708470C470047144716F
:103180008471C471C4732860102004F087F902238D
:1031900006210422047044708370C170027144716E
:1031A0008471C471047244728472C472047344736F
:1031B0008473C4736860102004F070F910214823F0
:1031C000882241700F218270C3700371437168328D
:1031D000413B04708271C471047243728772C7727A
:1031E000077347738173C473A860102004F056F905
:1031F0000F21FF234172042203214370EF3B8370B0
:103200004371D03381730470C77007718371C471C7
:1032100004728772C77207734273C473E860102028
:1032200004F03CF9C02230234270BF3A42720532AA
:1032300083708272203B023A0470C7700771477135
:103240008371C4710472C772077347738273C47346
:103250002861180004F022F9E0220321FF234270C4
:10326000D03A8270427141720C3A0C310470C770CE
:1032700007718371C47104728272C77207734773D6
:103280008173C4736861102004F008F9E021417073
:10329000E02190238822817103218370C270027122
:1032A0004371843A8E3B41720470C471047282721D
:1032B000C772077342738373C473A861102004F04C
:1032C000EDF81022FC2382700F22C370EA3BC27219
:1032D00004704470037143718471C4710472447248
:1032E0008472047344738473C473E861102004F01F
:1032F000D5F81823E0218370E0338371B53B437226
:1033000049338372043BC37203733C334373853B7D
:1033100041700470C77007714771C4710472837380
:10332000C4732862102004F0B9F810228270F022D1
:10333000FF2342710F2243700470C77007718471BC
:10334000C471047242728472C472047342738473CF
:10335000C4736862102004F0A1F8F4220271E53A07
:10336000047044708470C47044718471C4710472B8
:1033700044728472C472027344738473C473A86207
:10338000102004F08BF8F422027180226B46069222
:103390001A7E7F23047044708470C47044718471F9
:1033A000C471047244728272C27203734473847370
:1033B000C473E862102004F071F8FF226B46079294
:1033C0001A7F202142701A7E04708270C0220492FB
:1033D0001A7C0171C270102205921A7D87714271A8
:1033E0000F224272012203921A7B06230273437357
:1033F000C47104728472C4728773C473286310200A
:1034000004F04CF8FE218170F73981720470447029
:10341000C470047144718471C47104724472C772BF
:10342000077344738473C4736863102004F036F820
:10343000F022F823C27082710F22037047708770E8
:1034400007714771C471027244728472C27204734C
:1034500044738273C473A863102004F01FF8F02231
:10346000F82342710F22047043708770C770077190
:103470008471C471047242728472C47204734273A0
:103480008473C473E863102004F008F86B46E021ED
:103490001A7D042341708171DD3904708270C77018
:1034A00007714271C471047241728372C7720773EB
:1034B00043738173C4732864102003F0EFFFF82274
:1034C0006B4642701822E02142711A7F04238171F9
:1034D000DD3904708770C7700771C471047242725D
:1034E0008372C772077343738173C4736864102057
:1034F00003F0D4FF0423E02183724373F8226B4668
:1035000041708271C8391A7F817015394172047017
:10351000C77007714771C4710472C77207738273F1
:10352000C473A864102003F0B9FF6B46F822427000
:103530001A7D047042710F228770C7700771847101
:10354000C471047242728472C472047344738473CB
:10355000C473E864102003F0A1FF702343706B462E
:1035600088211A7D04238170C170017141718139F4
:10357000437282710470C47104728772C7720773D8
:1035800047738173C4732865102003F087FFFE2101
:10359000C170072104704470877007714471847191
:1035A000C471047244728472C17207734473847369
:1035B000C4736865102003F071FFF8220721427080
:1035C00042710F2204708470C47004718471C471DC
:1035D000047241728772C772077342738473C47333
:1035E000A865102003F05AFF38216B460591197D1C
:1035F0006A464170197C047081700171197D032342
:1036000041710C210891143152181178C4708471E1
:10361000C471047244728372C172037344738473FD
:10362000C473E865102003F039FF6B46197D847080
:103630000170197C04714170F821C170197CC4714A
:103640004171197D04728171197B0F23417283725C
:10365000C172037341738473C4732866102003F02E
:103660001DFF6B461A7C3021C27002716A46062328
:1036700081704171117B047047708771C47104724D
:1036800047728372C172017343738773C473686630
:10369000102003F003FF6B46197D04704170197C04
:1036A000C47081704171197D812383726133C3724B
:1036B000C43B03736B468171197B0471C47104723E
:1036C000447241738473C473A866102003F0E6FE4D
:1036D000C82303716B462022197D9B18417119780C
:1036E0000A238372013B047047708770C77084712E
:1036F000C47104724172C372077347738473C473D5
:10370000E866102003F0CAFE6B46197E1F7B8170AD
:103710007E210771477187721F7EC170C17204706C
:1037200044708471C4710472447207734773847364
:10373000C4732867102003F0B1FE6B463700047095
:1037400044708470047144718471C4710472447251
:10375000847200241D7FFC37C570C57204734473E6
:103760008473C4737867102003F098FE80257E214F
:10377000012301710173047044708370C37045713B
:103780008471C471047244728572C5724373847308
:10379000C473B867102003F081FE4023C370C37167
:1037A0003F3B0470447085700571447185710472EB
:1037B00043728472C472047343738473C473F8676E
:1037C000102003F06BFEBE235B00F050394B3A4AE9
:1037D0001E6005267D3D047044708470C4700471C1
:1037E00044718471C471047244728472C47204732B
:1037F00044738473C47304349A809D60DC603C20FD
:1038000003F04CFE102003F049FE102003F046FEAA
:10381000102003F043FE102003F040FE102003F0C0
:103820003DFE102003F03AFE102003F037FE10207A
:1038300003F034FE102003F031FE102003F02EFEC2
:10384000102003F02BFE102003F028FE102003F0C0
:1038500025FE102003F022FE102003F01FFE174863
:1038600001F090FA2A00210000960223144801F08A
:1038700061FB07232A00019321000096053B1148B4
:1038800001F065FB104B2A000193104B21000093BF
:103890000F48022301F069FB0E4C0F4B0F4A1049F1
:1038A000200001F05CFD0F4A0F49200003F002FEEA
:1038B0000BB0F0BDAC00002020600000DC00002058
:1038C00004010020BC0000206D2100004D210000FB
:1038D000CC000020EC000020952100008121000098
:1038E0002521000000000020CD2100000368F7B56D
:1038F000002B04DA8468E3188360002303604368C4
:10390000002B04DAC468E318C36000234360066830
:103910001468350025414368A5401C005768761B94
:103920003C41BC4087681B1BF619C7688660DB19E1
:103930001768C3603E41866017680560BE405768DF
:1039400086603B41C36057684460BB400193C360DD
:1039500001231768BB4001279E4200DA836052684A
:10396000019B9740BB4200DAC76082680B68AD18C4
:103970009D4201DD9B1A0360C2684B68A4189C42FB
:1039800001DD9B1A4360F7BD00B5042805D803F09C
:10399000D3FF14050A0F0300002000BD7720CB07DA
:1039A000FBD46630F9E7AA20CB07F6D45538F4E704
:1039B0008820CB07F1D46638EFE7FF20EDE700B5AC
:1039C0000300072A0BD8100003F0B6FF0804070A0B
:1039D0000D0F1214C943C9B200E01940080000BD20
:1039E0008B431900FAE71943F8E7C9431943F2E793
:1039F0005940F3E7C9435940EDE770B5160004AAF2
:103A000015780269C468D21062438A420BD90468EF
:103A100018006418FFF7B8FF01002A002078314031
:103A2000FFF7CDFF207070BD73B54C68C5681600F8
:103A3000E2106A430968511808D40725254001247B
:103A4000AC400093E2B23300FFF7D7FF73BD000034
:103A500084B0F8B5040009930CAB08921D780022DD
:103A60002300079104C307A846C846C30268201D67
:103A70001A600B990E4AFFF739FF2369D810E368E3
:103A8000584303F00BFD060023692060DF10E36854
:103A90005F43C719BE4206D031002800FFF774FF0C
:103AA00030700136F6E72000F8BC08BC04B01847B7
:103AB0008480000010B504000068002801D003F0E5
:103AC000F5FC200010BD0000F0B587B01F000CAB66
:103AD0001B78060002930DAB1B7804910393002A18
:103AE00001DABF1800223369D119994201DD9F1A0A
:103AF000013F93424ADD002F48DD0499002945DB50
:103B0000F3688B4242DD0724D5105D4314406D18E5
:103B1000002C15D008221E4B141BE4B21A5DBC42C7
:103B200003DDFF23E11B0B411A40002D06DB039B45
:103B3000290000933000029BFFF75FFFF368ED1848
:103B4000BC4223DC3C1B072C11DD2700002D07DBCA
:103B5000039BFF2200932900029B3000FFF74DFFDB
:103B6000F368083FED18072FF0DC07231C40002CFA
:103B70000CD0002D0ADB0722064B14401A5D039B74
:103B8000290000933000029BFFF737FF07B0F0BD1C
:103B90008C8000009480000084B0F0B506000D0019
:103BA0000C0087B00F9311AB1B780D91029312ABF1
:103BB0001F780E920F9B0393EB18A3420ADD029B22
:103BC000210000930E9A0197109B3000FFF77CFFB5
:103BD0000134EFE707B0F0BC08BC04B01847F0B5FB
:103BE00099B01C001EAB1B78070004931FAB1B7819
:103BF0000E00019320AB1B780025029301231B1BB1
:103C0000039363005B4200920593A54278DA039B1D
:103C1000002B08DB059B013C02330593059A039BAF
:103C20009446634403930135039A6B000133D31820
:103C300004220393049B134215D073190A93009B2B
:103C4000019AE3180B930AA9029B3800FFF7ECFED8
:103C5000A3190893009B019A5B19099308A9029B79
:103C60003800FFF7E1FE0222049B134215D07319BE
:103C70000E93009B019A1B1B0F930EA9029B380009
:103C8000FFF7D2FEA3190C93009B019A5B1B0D93C7
:103C90000CA9029B3800FFF7C7FE049B1B0715D534
:103CA000331B1293009B019A5B19139312A9029B79
:103CB0003800FFF7B9FE731B1093009B019AE318BD
:103CC000119310A9029B3800FFF7AEFE049BDB079F
:103CD0009BD5331B1693009B019A5B1B179316A968
:103CE000029B3800FFF7A0FE731B1493009B019A00
:103CF0001B1B159314A9029B3800FFF795FE84E760
:103D000019B0F0BDF0B597B01C001CAB1B780025B6
:103D100005931EAB1B78039206931FAB1B786200C2
:103D200007930123524208921D9A0490D2180291DF
:103D30001F1B09920B93A5425EDA2600002F04DBBD
:103D4000089B661E02330893FF1801356B000A9327
:103D50000133FF18AE4223DB059B0B9A13420DD0B3
:103D6000029B09985919039B9A1B73001B1807980B
:103D70000190069800900498FFF7A6FE0222059B8A
:103D800013420DD0029B0998591B039B9A1B730089
:103D90001B1807980190069800900498FFF794FE6E
:103DA000B44227D0059B0B9A13420FD0029B0A986E
:103DB000E118039B5A1C1D9B521B013B1B180798C3
:103DC0000190069800900498FFF77EFE0222059B62
:103DD00013420FD0029B0A98191B039B5A1C1D9B70
:103DE000521B013B1B1807980190069800900498FD
:103DF000FFF76AFE34009EE717B0F0BD84B0F0B55F
:103E00000600080093B01F001B931EAB1B781C9D7F
:103E100005931FAB1B7819911A920693089009928B
:103E2000AF423DDAFC0FE41964101D9B24B29C42A2
:103E300000DD1C00069A089B02921B19059A079345
:103E40006300FB1A019200950799099A3000FFF769
:103E5000A3FE089B3000DF19099B391B1F19630063
:103E6000ED1A069B013D0393059B3A000293012343
:103E70000139009301952300FFF744FF069B01954C
:103E80000393059B0799029302233A0000933000A5
:103E90002300FFF737FF13B0F0BC08BC04B018478D
:103EA000EC0F6419C0E7F7B5009308AB1F7809ABB6
:103EB0001B780193002919DB03695518C268DB10D0
:103EC00053439D4212D80468651964180E1BA1194A
:103ED000A5420BD03800FFF757FD0099019A014029
:103EE0002078FFF76CFD20700134F0E7F7BDF0B5E6
:103EF00087B005921A000CAB1B7803930DAB1E78AC
:103F0000002901DA52180021C4688B18A34201DD90
:103F1000621A013A8C4216DD002A14DD059F002F3B
:103F200011DB0369BB420EDD07233B409C460123A6
:103F30006546AB40FF107C436118039CDBB20196E1
:103F40000094FFF7B0FF07B0F0BD84B0F0B58BB0C0
:103F50000290129210001A00139315AB1E7816AB44
:103F60001F781191130002001498994211D18242D6
:103F700001DD12901492149B129A01979B1A0096DD
:103F800011990298FFF7A0FD0BB0F0BC08BC04B07B
:103F9000184782420FD1994201DD11931391119A72
:103FA000139B1100039301979B1A0096129A029893
:103FB000FFF79DFFE8E7841AE51764196C40039446
:103FC0005C1AE51764196C400494039C2500049C5A
:103FD000A54203DD1192129113901493119B139A31
:103FE000934205DD12991393149B1192129314912D
:103FF000139B119A05939B1A1D00149A129BEC0FA8
:10400000D11AC817091841406419069164109A42E0
:1040100021DD01230593139A119B07929342B3DC90
:10402000039A04998A4219DD129A099308923B0077
:10403000320008A90298FFF7F7FC069BE41A06D5A0
:10404000059A129B94460793634412936419119B3B
:1040500001331193DFE701235B42DBE73B003200D2
:1040600011A9E7E7F0B589B00C000EA940C909789D
:10407000039110A909780491002C28DB0169C56817
:10408000C910694312198A4221D805689E19AA18D5
:1040900001921A1B059506920792059B019A1B191E
:1040A0009A4214D0069B1B199E4210D02B5D210012
:1040B0000293079B03981F5DFFF766FC0100049ABB
:1040C00039400298FFF77BFC28550134E5E709B039
:1040D000F0BDF0B58FB01C0014AB1B78160009932F
:1040E00015AB1B780D920A9316AB1B78E2680B9305
:1040F00001239340099A089323790700D31A627920
:104100000C910791A568934205DC22689B009B589F
:104110000593002B15D10898A840C01003F0BEF9F4
:104120000123E26800219340A268049093400200BA
:10413000DB10C318934202D011700132FAE7049BDE
:104140000593079B002B3EDB01221300AB40079930
:10415000FD680693EB1A8B4235DB002E33DB3B699F
:1041600008995B1AB3422EDBF6107543079B059E38
:10417000ED180792E268079B9340A2689340059A66
:10418000DB10B21A934210DD0B9B290002930A9BAD
:10419000069A0193069B380000933300FFF762FFF5
:1041A000FB68ED18069BF618E4E7099A2379D31A01
:1041B0006279934204DC22689B009B58002B02D159
:1041C000049803F073F90FB0F0BD0000F8B51D00BE
:1041D00003001600040085C985C30A6820001A6020
:1041E0003100054AFFF782FB2A0031002000083227
:1041F000FFF77CFB2000F8BD84800000F7B501923A
:10420000002208AC26880AAD09AC0BAF2D783F78A8
:1042100024784261019A4773468185734260016048
:1042200003720473FEBDF0B5478985B005000068D0
:10423000FCB203AB3F0A1C705F70002807D06C7B98
:1042400000930194012300F0B8F805B0F0BD6E684A
:10425000301EFAD0287A8446687B6546032D09D142
:10426000023DAF431F705C7040190090300000F0B9
:1042700061FAEAE7002D03D17F352C401C70F4E78A
:10428000022D02D1823D2C43F8E7012DEDD17E3580
:104290002C403F3DF7E770B50300002A00D1027BB8
:1042A0000020042A15D85C0059619818141983421B
:1042B0000AD09E7BCDB2002E04D1261AF573090ACE
:1042C0000138F4E78573FAE7190018000F31FFF79A
:1042D000AAFF70BDF0B5468985B004000068F5B24C
:1042E0000B00360A03A994460D704E70002808D0C2
:1042F000627B002401946446009400F0C3F805B08A
:10430000F0BD6768381EFAD0207A627B03280CD192
:10431000023806430E704D701218FF20019060465F
:104320000090380000F026FAE9E7002802D1803832
:10433000054303E0022803D17D3005400D70ECE712
:104340000128EAD14138F3E7010010B50F31027BB3
:104350000400FFF7BFFF002811D00020227B61007E
:10436000A31852189C420CD0A17B0002002903D153
:10437000997B0843013BF5E7D11AC97BF9E7012096
:10438000404210BD016002714371704770B5050075
:1043900000680C00FFF7D8FF01212B796E79994056
:1043A00001390B00B340214098430300B140286815
:1043B0001943027BFFF76FFF70BDF7B5099D16002B
:1043C00001935319C26804000F00934201D90020E1
:1043D000FEBD0178406800F041FA002D0FD1606801
:1043E0003200036839005B6898478642EFD1019933
:1043F000606800F0A2FA43425841C0B2E8E7089B67
:10440000002BECD060682A00036808995B68984725
:10441000A842DCD1E3E7F8B505000F0016000178EB
:10442000D2B2406800F037FA002486420AD1A64290
:1044300007D9686803685B69984738550134A4B2A6
:10444000F5E701242000F8BDF7B5070016000024A9
:1044500000910193B44213D2FB68351B9D4200D9F1
:104460001D00721B019BA24200D90023009A380054
:1044700011192A00FFF7CFFF002802D06419E9E7DD
:104480000120FEBD73B5040000201D0006AB40CB2B
:104490001B78019000902000FFF78FFF002805D0C7
:1044A0000123320029002000FFF7CEFF76BDF8B5CA
:1044B0001E0006AB1D78FF2343740374C373079B70
:1044C000170003600300002234330400426081734C
:1044D0001A70082002F0DEFF076005714671606007
:1044E000A760267365732000F8BD70B504000E2028
:1044F0002056431C07D0C0B2012102F0F5F9A07B81
:10450000012102F03DFA2568002D07D02B68280014
:10451000DB6A984701203434207070BDE07B0121B4
:1045200002F0E2F9637BE07B2900012B00D9012135
:1045300002F026FA10202056431C07D0C0B20121F9
:1045400002F0D2F9207C012102F01AFA1120205643
:10455000431CDFD0C0B2002102F0C6F9DAE7000048
:10456000F0B50400006889B00E001500002804D0E2
:1045700003681B69984709B0F0BD8022237B029233
:10458000002B01D101330293029A3378A1681340C2
:104590005A4253414948DBB2059303F0D7F96B46C1
:1045A00001901B79039373190793079BB342E2D0E1
:1045B00000273378029D0693039B002B04D0FF2332
:1045C0000198184002F028F80221627BA3698A430F
:1045D00046D11022A256013212D0069929400A0073
:1045E000501E824105980491824209D0606A626936
:1045F000844600292ED011680143116001220592E2
:104600001A68E16A0A431A60039B002B04D0FF2357
:104610000198184002F000F81123E356013306D048
:10462000E369A26A1B681A4201D02F43FFB2A26954
:10463000E16A13688B4313601123E356013300D002
:104640003770237B002B37D16D00EDB2002DB3D135
:104650000136AAE76146106888431060049ACEE7E5
:104660001A68E16A0A431A60039B002B04D0FF23F7
:104670000198184001F0D0FF1023E356013307D012
:10468000069A6369616A154213D01A680A431A6070
:10469000A269E16A13688B4313601123E356013367
:1046A000CAD0E369A26A1B681A42C5D02F43FFB281
:1046B000C2E71A688A43EAE76D10C6E720A107003F
:1046C00013B56B46DC1DD97101222100FFF748FFAD
:1046D000207816BD036810B5002B06D04268196813
:1046E0001800CC6911685268A04710BD006810B569
:1046F000002802D003681B6A984710BD10B5807B64
:1047000040B2431C03D0C9B2C0B202F039F910BDA7
:1047100010B50400FFF7DEFF00212000FFF7EEFFD9
:1047200010BD10B504000121FFF7E8FF2000FFF7DE
:10473000DDFF10BDF7B51D0006000C000192FFF76C
:10474000E7FF089BEF18BD4209D1019BE518AC4279
:104750000BD021783000FFF7B3FF0134F7E7297859
:104760003000FFF7ADFF0135EDE73000FFF7D9FF6F
:104770000120FEBDF7B5009308AB40CB0C001B78C1
:10478000170005000193FFF7C3FFE719BC420AD1E8
:10479000009CA619B4420CD001992800FFF790FFA5
:1047A00020700134F6E721782800FFF789FF0134F3
:1047B000ECE72800FFF7B5FF0120FEBD00207047A1
:1047C000F8B505000E0017000024BC4208D02B6885
:1047D000315D1B6828009847002801D00134F4E7B8
:1047E0002000F8BD006E70477047036E002B03D0A9
:1047F000C36DC018007E704701204042FBE70000F7
:10480000F7B50193FA230025402604009B0083603E
:10481000114B0F00083345600360290000921830E7
:10482000320003F07EFA2000A5653200E56529001C
:104830002566643003F075FA2300A4331D605D60C3
:104840009D606B461B78276123756B461B79A575A8
:1048500020006375FEBDC0469C800000837D002B58
:1048600001D0002070470200B03211700C3A136082
:104870005360936001238375F4E7836C402B09D068
:104880003F22036CC154036C013313400364836CF7
:10489000013383647047F7B50025040017000193C6
:1048A0002800AA4226D0A5650122E5652069256673
:1048B00002F030FAA8421CD026001836206902F017
:1048C000B3FA013501003000FFF7D7FF2069AF428E
:1048D00006D002F0FFF90221206902F005FAEDE7A7
:1048E00002F0F0F9019B002B03D00321206902F0B4
:1048F000FBF9E8B2FEBD002310B5827D9A4208D0D4
:104900000200AC321268402A03D06430FFF7B5FFD2
:104910000123180010BD836C002B0BD03F21436C8A
:10492000C25C436C01330B404364836C013B836482
:104930001000704701204042FBE70300002270B5E1
:10494000B033827504000E000069197802F0E2F9B4
:10495000002806D10321206902F0C6F902252800AB
:1049600070BD2300AC331D68002D10D020006430D2
:104970002569FFF7D0FFC1B2280002F00DFA002828
:10498000EFD10321206902F0AFF90325E7E7002EFC
:10499000E5D00321206902F0A7F9E0E710B518304F
:1049A000FFF7B9FF10BD70B50400006902F01AFAF4
:1049B000002814D0206902F023FA002810D02069C2
:1049C00002F088F90321206902F08EF92300B83340
:1049D0001D68002D32D10023A365E365236670BDF9
:1049E000206902F017FA002809D0206902F00DFAB8
:1049F000002804D0206902F012FA0028DFD02069D4
:104A000002F008FA00281FD1206902F0F4F900280A
:104A1000E5D0206902F003FA00282FD02300AC3340
:104A20001B68FF21002B04D020006430FFF773FFC8
:104A3000C1B2206902F0C8F9A075D0E72368200050
:104A40001B699847A847C6E7206902F043F9206927
:104A5000032102F049F9206902F0E1F90028BED0F3
:104A600022000023A4321360536093600133A375C6
:104A7000B4342368002BB2D09847B0E7236E206986
:104A8000402B06D102F01EF90321206902F02CF917
:104A9000A5E702F0C9F9010020001830FFF7EDFE8C
:104AA000206902F017F9EFE710B50248FFF77BFF26
:104AB00010BDC0461401002010B515231422024970
:104AC0000248FFF79DFE10BDA8060020140100203B
:104AD00070B506000C008D18AC4207D03368217801
:104AE0009B683000984720700134F5E770BD70472F
:104AF000704710B50400406802F0B2F80023237636
:104B000010BD10B5406802F0D0F810BDF8B5050032
:104B100040680C0002F0C4F82B68E7B2260A9B68D4
:104B2000012810D139002800FF2798472B68BC4383
:104B300004439B6831002800984703022000384056
:104B4000184380B2F8BD310028009847FF262B6833
:104B50000002344004439B68390028009847B4435E
:104B60002043EEE710B5040002F09CFC200010BDCD
:104B700010B54B1C0BD0102909D0EFF3108472B67E
:104B8000102905DD02234376002C00D162B610BD4A
:104B90000123427E1A43427618224A430449891867
:104BA00016228A569340C2691343C361ECE7C0469C
:104BB000648100004B1C17D0102915D0437E9B0741
:104BC00012D4EFF3108272B618234B430749C91869
:104BD0000123897D49B28B40C1699943C16100D1EC
:104BE0004176002A00D162B67047C0466481000059
:104BF000437E002B05D09A0704D5837E002B00D07E
:104C000062B67047DB07FCD5C369024A9BB2D3602A
:104C1000F7E7C04600180040037E002B04D143761E
:104C20008376C36101330376704700007FB5036963
:104C300002AE04000D00029172608B4203D1828AA1
:104C4000B3889A4226D0200006223100103003F0AB
:104C50004CF8606802F01BF87379E17A013B581E4A
:104C60008341227B00936068002302F077F9337957
:104C70000021013BDBB2022B01D8074AD15C074B74
:104C80002A009D4200D91A00606801F0D1FF6068D7
:104C900001F0F3FF7FBDC046C0800000001BB700DD
:104CA00070B518260400FFF7B7FF33000821207AFB
:104CB0000D4D4343EB18595601F08EFE3300082189
:104CC000A07A4343EB18595601F086FE0821607A1A
:104CD0004643AD19695601F07FFE044B200006CB18
:104CE000FFF7A4FF70BDC04664810000F001002002
:104CF00007B5437E00910192002B07D09A070AD591
:104D0000EFF310835A425341837672B60099019AA9
:104D1000FFF78CFF07BDDB07F8D5C369014A9BB2DB
:104D20009360F3E7001800400E490F4B10B50122C5
:104D30000B6000234A710B710C490D48083101606A
:104D40000C49427541600C49C2720181182103610E
:104D500081720375094A0A490376037302F0AAFBBC
:104D600010BDC046F001002000093D00C4800000D5
:104D7000D0010020B006002016170000000000201F
:104D8000F14A000000230360436010330372704750
:104D9000F0B5466893B00400002E33D003680022BB
:104DA000052101250027049300F046F80223320074
:104DB000019300905B1904990395029706A8FFF7E9
:104DC0001DFA2268667A049262680521059267726C
:104DD0003A00200000F030F8022300900193059A79
:104DE0005B190499039502970CA8FFF707FA2A00AC
:104DF000082166720CA8FFF74EFA2A00082106A8BF
:104E0000FFF749FA13B0F0BDF7B50600437238203A
:104E100017000D0002F03EFB0023040069B2019769
:104E20000093044A0133FFF742FB74602000FFF750
:104E30005CFBFEBD40420F00037A89B2082B01D90A
:104E4000490011434368002B06D0437A80205B025F
:104E5000C0011843014389B2080070470723F0B529
:104E60008B42BF4197B07F4205920E003A0000216D
:104E700001240500FFF7E0FF0022009002920323C7
:104E80006A682968039401940AA8FFF7B7F93A0001
:104E900006212800FFF7D0FF002200900292039421
:104EA00006CD0194032310A8FFF7A8F907231E409D
:104EB000330022000AA906A8FFF764FA2200330093
:104EC00010A908A8FFF75EFA059B06A8591E4B1EFD
:104ED0009941FFF75BFA059B08A8991E4B4259417F
:104EE000FFF754FA17B0F0BDF0B507278FB0059261
:104EF0008F4292410C005242092101250600FFF722
:104F00009BFF06CE00230090029303950195033387
:104F100008A8FFF773F923002A003B4008A906A858
:104F2000FFF730FA059906A84B1E9941FFF72EFAB4
:104F30000FB0F0BD30B503AC2578FF240471002418
:104F4000C5708460C46001704270837030BD70B5FC
:104F500004AC267805AC25780024C6700571846001
:104F6000C46001704270837070BD10B5FF248370FF
:104F7000029BC4708360039B047101704270C36024
:104F800010BD70B504000500C61C2878FF2802D0AB
:104F9000012101F0A9FC0135B542F6D1E078FF28E6
:104FA00002D0012101F0A0FC2079FF2802D00121CC
:104FB00001F09AFCA368002B00D0984770BDF8B5AB
:104FC00005000E0000240127285DFF2804D03100D1
:104FD0002141394001F0D4FC0134032CF4D1F8BD57
:104FE00010B5C368002B02D00800984710BDC078E8
:104FF000FF28FBD001F0C4FCF8E70000826000222B
:10500000C360084B82B008330360059B01710361E4
:10501000039B4361049B8361029BC361431CDA775A
:1050200002B070470081000070B504000D004369B4
:10503000002198472000A369012198472000636957
:1050400001219847E069290003689B6898476369D4
:1050500000212000984770BD4B1E994110B5AE311C
:10506000FFF7E2FF10BD70B50D0004008121FFF7CE
:10507000DBFF29002000FFF7D7FF70BD70B50400EB
:1050800016000D004369002198472000A369002104
:1050900098472000636901219847E069320003685E
:1050A00029001B699847636900212000984770BD5B
:1050B000CB68F7B5DDB204000E00002D37D00B69C8
:1050C000DA10D3B20093002B31D00369DF794B683B
:1050D000DF198B68FFB2D910CBB221210193FFF702
:1050E000A3FF7F2120003940FFF79EFF7F23691E29
:1050F0007918072719402000FFF796FF222120008A
:10510000FFF792FF019920003940FFF78DFF009AC9
:10511000019B944663441900013939402000FFF790
:1051200083FF009A31686A432000FFF7A7FFF7BDAD
:10513000F8B5040043690E000021170098470021CC
:105140002000A36998470121200063699847002542
:10515000BD4207D0E0693100036801359B6898477C
:10516000ADB2F5E76369002120009847F8BD10B59E
:1051700004002121FFF758FF20000021FFF754FF12
:1051800020007F21FFF750FF20002221FFF74CFF76
:1051900020000021FFF748FF20000721FFF744FF10
:1051A00080220021D2002000FFF7C2FF10BD3F2364
:1051B0000B40402110B51943FFF736FF10BD70B505
:1051C0000D0004002021FFF72FFF29002000FFF72A
:1051D0002BFF70BD4B1E994110B5A031FFF724FF86
:1051E00010BD4B1E994110B5A631FFF71DFF10BD34
:1051F00070B50C00A8210500FFF716FF3F2128001D
:105200002140FFF711FF70BD10B5C823002900D160
:10521000083B1900FFF708FF10BD70B50C00D32143
:105220000500FFF701FF3F2128002140FFF7FCFEAA
:1052300070BD70B50C00D52116000500FFF7F4FE17
:105240000F210C40310121432800C9B2FFF7ECFEC9
:1052500070BD70B50D000400D921FFF7E5FE2900EF
:105260002000FFF7E1FE70BD70B50E00DA210500E9
:105270001400FFF7D9FE1221002E00D11039631E51
:105280009C41640128002143FFF7CEFE70BD10B59C
:105290000400DB21FFF7C8FE40212000FFF7C4FE19
:1052A00010BD70B50D008D210400FFF7BDFE50212B
:1052B000002D00D140392000FFF7B6FE70BD10B5BB
:1052C0000400AE21FFF7B0FE236920005A7A197A54
:1052D000FFF7AFFF236920001979FFF789FF2369E2
:1052E00020009979FFF799FF236920001978FFF7CB
:1052F0005EFF23692000997BFFF7D3FF2000002188
:10530000FFF75DFF236920009978FFF763FF2369AA
:1053100020005979FFF778FF236920001A7BD97A9A
:10532000FFF7A2FF23692000997AFFF792FF236914
:105330002000597BFFF7ABFF2000A421FFF774FE8C
:1053400023692000D978FFF74CFF236920005978A2
:10535000FFF789FE2E212000FFF766FE10BD836057
:10536000002301604260C36003614361704770B510
:10537000040003689847002063689847A3680120E9
:105380009847012001F026F9A368002098470A20D9
:1053900001F020F90120A36898472669E568AE422C
:1053A00003D001CDFFF78BFFF9E7012001F012F9DF
:1053B000012063689847012001F00CF92669E5682F
:1053C000AE4204D0012101CDFFF746FEF8E764208C
:1053D00001F000F92569E468A54203D001CCFFF78C
:1053E000C6FEF9E770BD0000F0B54368076885B0F8
:1053F000DB1B0500029114009B100126002B00D03E
:105400001E00029A9E19D71B1E4AB34233D89642F9
:1054100031D8002E30D10196019BDF19002F01D029
:1054200023683B602F68029BDC1B9F4204D0220054
:105430003900019802F062FC019B04341C19029AA5
:105440006B689A1A0392029A934204D0039A0299C3
:10545000200002F04AFC039BE418002F02D0380021
:1054600002F020F8019B019A2B60B300D3186C6006
:10547000AB6005B0F0BD1600B00002F00BF8019073
:10548000CAE7C046FFFFFF3FF0B58BB008AD0593FC
:105490002B0004920F0004A9040005C905C32420B1
:1054A00001F0F8FF0600139B39000393129B089A42
:1054B0000293119B0193109B00936B68FFF79EFD75
:1054C000216963690796994206D0002900D00E60D1
:1054D000043121610BB0F0BD200007AA0C30FFF7AA
:1054E00083FFF7E773B58468C368002C07D1002BEE
:1054F00005D10133016042608360C36073BD0568FC
:1055000046686419F318013C013B8D420BDD0160D4
:105510000168641A01348460964208DD4260426882
:105520009B1A0133E9E78C42F2DA0C00F0E7934270
:10553000F5DA1300F3E7F0B50B6891B005000C0045
:10554000026B002B04DA8968CB18A3600023236068
:105550006368002B04DAE168CB18E3600023636022
:105560002668916830000841636888401900D76850
:10557000361A3941B940A7685B1AF619E768A66080
:10558000DB199768E3603E41A66097682060BE40E3
:10559000D768A6603B41E360D7686160BB40059374
:1055A000E36001239768BB4001279E4200DAA360B5
:1055B000D268059B9740BB4200DAE760A2686B6A3D
:1055C0008018984201DD9B1A2360E268AB6A891853
:1055D000994201DD9B1A63602000EB692268083064
:1055E00099182B6A626807919A18089209ABC0C88B
:1055F000C0C32B004E331B780BA80293AB690193F9
:105600000A9B05930093099BFEF722FA2B680BAACD
:10561000210028005B6898476B680BA92800984711
:105620000BA8FEF747FA11B0F0BD826870B5C368E9
:10563000002A08D1002B06D1030014C914C301238A
:105640008360C36070BD056844680E685219E31832
:10565000013A013BB5420CDD06600568521B013280
:1056600082604A68944208DD426042689B1A0133B6
:10567000E7E7B242F1DA3200EFE79342F5DA1300DE
:10568000F3E70000F7B506001700040015000191CC
:10569000019B9C4208D0002D03D02100280001F07E
:1056A000B1FF18341835F3E71820A41B034EE408A3
:1056B0007443E400E40860433818FEBDABAAAA0AAC
:1056C000030050331A788A4207D019700023836090
:1056D000C360436A0361836A43617047F0B597B062
:1056E0001D0005931C9B06000F0014000492002B64
:1056F00013D1036B0692D96801238B4004210291D8
:105700001C995B190993019100932A002100230041
:10571000380007950894FEF718FC736B1C9A013B40
:10572000934217D10122316B13008868C968834006
:105730008A400421029100211B19013B52190D924C
:105740000191009219002A0038000A930B950C93DE
:10575000FEF7FBFB1D9B002B12D1336B2A009968CF
:1057600001238B40042102911D991B190191009581
:10577000210038000E940F9510931195FEF7E5FB6C
:10578000B36B1D9A013B934214D10123316B1A0074
:10579000C868896882408B40042102910021521917
:1057A000013A01911B1900922100380012941392C2
:1057B000FEF7CBFB17B0F0BDF0B50F00016B8FB05B
:1057C00006927B68CA6804001341DBB20A938B68B7
:1057D000B96800251941FB680791134108930A9B9A
:1057E000EB18DBB20493089BAB4242DD236B3A68B3
:1057F0009B6800261A41D3B20B931823049A534393
:1058000009930B9BF318DBB20593079BB3422DDD85
:105810003100236B9A68D86891402A0082402000AA
:105820000C910D92503000789C46029020004F3031
:105830000078099B0190206CC058059BC05C6346B2
:1058400000900698FEF745FC23003C331B78002BA4
:1058500009D0049B0C9A0193059B069900932000A4
:105860000D9BFFF73BFF0136F6B2CAE70135EDB2FB
:10587000B5E70FB0F0BD0000436810B504681C1B0D
:10588000094BE4106343094CE01A884202D210002D
:1058900001F092FF994200D21900C818834201D842
:1058A000A04200D9014810BDABAAAAAAAAAAAA0A76
:1058B000F7B583684668040000919E4208D0002E28
:1058C00002D0300001F09EFE636818336360F7BDBC
:1058D000204A0121FFF7D0FF23680500F31A019346
:1058E000002827D01C4B984201D901F05FFF1820F7
:1058F000684301F0CFFD0700019BF818002802D093
:10590000009901F07FFE31003A002068FFF7BAFEEF
:105910000200616830001832FFF7B4FE6368266841
:1059200001900093009BB34206D0300001F0F6FDD9
:105930001836F7E70700DFE72068002801D001F0FC
:10594000B1FD019B2760636018235D437D19A5604D
:10595000BDE7C0460C810000AAAAAA0AF0B5A3B010
:10596000019100210700102218A815911691179196
:1059700002F0D7F900220A21019801F07BFE040011
:10598000431C12D00300002201991CA801F0FAFE6A
:105990001CA915A8FFF78CFF1CA801F0BFFD621C15
:1059A0000021019801F048FEE4E7179B169E03933F
:1059B0009E424DD0002E03D00199300001F092FE9E
:1059C000169B0193183316933A00159B169C4D3283
:1059D000E41AAB4BE410634304931278BB6B012AC7
:1059E0007AD0141E01D0022A7CD00025BB6BAC42B9
:1059F0007BDCE343DB171C40002306940193019AF0
:105A0000069B9C181300049A934200DA8AE0D44360
:105A10001825E417069B1440E4186543BB6BA342AA
:105A200000DCFEE000267B6BB34200DCF6E03B6C62
:105A30005B599B191A78002A08D0002231001A708D
:105A400018A8220011961294FFF74CFD0136EAE7E0
:105A50008C4A012115A8FFF70FFF159B0500F31ACB
:105A60000393002829D0884B984201D901F09EFE6B
:105A70001820684301F00EFD0400039BE018002885
:105A800002D0019901F02EFE310022001598FFF797
:105A9000F9FD0200169B3000190018320193FFF740
:105AA000F1FD169B159E03900193019BB34206D016
:105AB000300001F033FD1836F7E70400DDE71598F4
:105AC000002801D001F0EEFC039B159416931823D7
:105AD0005D436419179477E7049A9B1ADC0FE41866
:105AE000641082E7049A9C1A7FE79D4218DA182313
:105AF00000266B4301937B6BB34211DD019A3B6C33
:105B00009B589B191A78002A08D0002231001A707D
:105B100018A82A0009960A95FFF7E4FC0136EAE77F
:105B2000013563E7002C76DBBB6B9C4273DA1823EC
:105B3000019A53430793079A159B9B183A005B6899
:105B40004C32039312787B6B012A2DD0002A35D07A
:105B5000022A30D01823002563430593029A7B6BF9
:105B6000AA422DDCD5430026ED171540039BA91949
:105B70009E4239DBDB43039ADB1713405D197B6BD5
:105B8000AB4248DD059A3B6C9B585B191A78002A9A
:105B900008D0002229001A7018A822000F9510942E
:105BA000FFF7A0FC0135EAE7039A9B1ADA0FD31836
:105BB0005B100293CEE7039A9B1AFAE70292C9E7B9
:105BC0009D420FDA059A3B6C9B585B191A78002AA4
:105BD00008D0002229001A7018A822000B950C94F6
:105BE000FFF780FC0135B9E77B6B994211DA059A22
:105BF0003B6C07989B58159A5B1812581878925D61
:105C0000904206D01A7018A822000D910E94FFF74A
:105C100069FC0136AAE7019B0133EFE60134183530
:105C2000FCE6189A396B13008868C968834013939F
:105C3000199B3C001D008D4014951A9D0834521983
:105C400082401C921B9A20009B188B4013A901953F
:105C50001D93FFF7EAFC20001CA9FFF7E6FC159C4A
:105C6000169DA54204D0200001F058FC1834F8E736
:105C70001598002801D001F015FC23B0F0BDC046F6
:105C8000ABAAAAAA0C810000AAAAAA0AF0B597B0EA
:105C90001F001FAB1B781600019320AB1B7808AACE
:105CA000029321AB1B780400039322AB1B78009175
:105CB000049323AB1B781C99059351239B18DB7F1E
:105CC00008A8069355239B18DB7F3A0007930CAD79
:105CD0003300FEF77BFA102208A9280002F005F82D
:105CE00020001E9B102263600021083002F019F88A
:105CF0002300A7611C3307CD07C32A6825001A605B
:105D00006A46127840351A716A46127F5A71234BDF
:105D1000B26808332360636A266313416363F368E0
:105D2000A26A00261A41A2636A462300127B3C3312
:105D30001A706B4622001B794C3226646664A66496
:105D400013706B461B7A53706B461B7C93706B46CB
:105D50001B7DD3706B461B7E1371A36BB3420FDDAB
:105D600012AB0722616B10A8109301F010FC10A970
:105D70002800FFF79DFD10A801F0D0FB0136ECE7ED
:105D80001D9910A801F0AEFC10A92000FFF7E6FD58
:105D900010A801F0C3FB200017B0F0BD288100005F
:105DA000F0B50E6805680023AE4212DB4A6844680D
:105DB000A2420EDB8F68F6198768ED19AE4208DC47
:105DC000CB68C168D2186118D30FC81791424341FC
:105DD000DBB21800F0BDF0B50C00076893B00C3FC3
:105DE0003B680500C61823680797316B002B04DA5F
:105DF000A268D318A360002323606368002B04DA31
:105E0000E268D318E3600023636023688F6818009A
:105E10003841B8406268844620601000CF6838413D
:105E2000B8406746DB1BA768121ADB19E768A36056
:105E3000D2198F68E2603B41A3608F686060BB400D
:105E4000CF68A3603A41E260CF68BA40012705926B
:105E5000E2608A68974001220697BB4200DAA76099
:105E6000CB689A40059B934200DAE2606346A168E2
:105E7000726A5B18934201DD521A2260E268B36ACB
:105E80008018984201DD9B1A63602600079B2168F9
:105E90001B686068EB18DA69083651181A6A0991AC
:105EA00012180A920BA8944684CE84C00420029053
:105EB0009B69624601930C9B0DA8059300930B9B75
:105EC000FDF7C6FD2B680DAA210028005B689847E6
:105ED0002B680DA90C3B18682818436898470DA833
:105EE000FDF7E8FD13B0F0BD036810B50C3B1B686F
:105EF000C018FFF770FF10BDF0B5040097B00C9309
:105F00001FAB1B7810AD0D9320AB1B780F000E93C9
:105F100021AB1B781D99060028000B920F9301F00E
:105F2000E1FB23790622581E83415B421A400F9BF6
:105F30000021099304230693033B049303931E9BC0
:105F4000083602931C9B089207910B9A05910093C7
:105F500039000C9B01953000FFF798FE280001F0F6
:105F6000DDFA094B20001A0024330C322260A360B2
:105F700034226B469B181B78043223716B469B18A6
:105F80001B78637117B0F0BD38810000F0B50700D1
:105F9000036899B00C3B18680692381802000EABE3
:105FA00024320C0022CA22C300213B79456A866A4A
:105FB0008B4200D00631FFF783FB3B790993002B1E
:105FC00023D02368002B1ED16268002A1BD1A3684E
:105FD000AB4218D1E368B34215D104212B000391E1
:105FE000029201910698110000960C920D920E9566
:105FF0000F96FDF703FF3B68069A0C3B18682100DB
:106000003818FFF7D9FB19B0F0BD3B68069A0C3B76
:10601000186821003818FFF7CFFB6B1F083D079564
:1060200004250493731F083E0593089600262B1F32
:106030000A93F3B2012B3DD0002B03D0022B41D0A9
:106040000A9B39E00A9A10951192079A129210A9A8
:1060500020001393FFF7A4FE002818D0082210A9EF
:1060600014A801F042FE109A13999446119A129BBB
:1060700052180421029109990B93179263440191DC
:1060800000921499159A06981693FDF75EFF013653
:10609000042ECED10026F3B2012B21D0002B19D033
:1060A000022B52D0059B1095119304235B4212934F
:1060B00008331BE0049B04331093002311951293C3
:1060C000089BC4E7059B109504331193079B12931B
:1060D0000023BCE70423109511955B42129305E061
:1060E000049B1195109304231293083B10A92000E0
:1060F0001393FFF755FE00280DD004230293099B4C
:10610000109901930123B340DBB20093119A042349
:106110000698FDF764FD0136042EBCD17B79002B77
:1061200000D170E7049B013B0493059B013B059361
:10613000089B023B0893079B023B079302230993AA
:10614000052D00D15FE7052570E7049B1093059BA3
:1061500011930423C2E7036810B5103B1B68C018F5
:10616000FFF714FF10BD0000F8B53C2001F096F9D0
