:1020000000800020E14C0000C94C0000C94C0000D9
:1020100000000000000000000000000000000000C0
:10202000000000000000000000000000C94C00009B
:102030000000000000000000C94C0000354D000009
:10204000C94C0000C94C0000C94C0000C94C00003C
:10205000C94C0000C94C0000C94C0000CD4C000028
:10206000C94C0000154C0000C94C0000C94C0000D0
:1020700065410000C94C0000254C0000C94C00001F
:10208000C94C0000C94C0000C94C0000C94C0000FC
:1020900000000000C94C0000C94C0000C94C000001
:1020A000C94C0000C94C0000C94C0000C94C0000DC
:1020B0000000000010B5064C2378002B07D1054B1B
:1020C000002B02D0044800E000BF0123237010BDA4
:1020D000900000200000000044680000044B10B590
:1020E000002B03D00349044800E000BF10BDC046E8
:1020F00000000000940000204468000010B5072094
:1021000003F026F810BD000010B50121072002F0F1
:10211000D3FF064C012220000F2102F0FDF901221D
:102120000E21200002F0F8F910BDC046DC000020AE
:1021300010B5064C012220000D2102F0EDF900221D
:102140000D21200002F02EFA10BDC046DC00002058
:1021500010B502000D21024802F024FA10BDC0465D
:10216000DC00002010B502000F21024802F01AFA2C
:1021700010BDC046DC00002010B502000E21024850
:1021800002F010FA10BDC046DC00002010B5074C6C
:10219000002904D10131200002F080FA10BD01783D
:1021A000200002F06AFA0021F5E7C0460401002091
:1021B00010B50400C068002801D003F05BFD2000CA
:1021C00010BD84B0F7B50E000991109915000E41AD
:1021D00004000B9318000FAB1B788E4001931199EC
:1021E00000230D4123600D9B0A929C46129A139B7B
:1021F0008D400C99104119410E9F90409940002844
:1022000001D101309040002901D1013199403318AA
:10221000634501DD63461E1A6B18BB4200DD7D1A63
:10222000E06048436660A5602161C01003F01EFDB8
:10223000E268236920605A430199D21003F00CFF31
:102240002000FEBC08BC04B0184710B504000068AC
:10225000002801D003F012FD200010BDF0B50121CF
:1022600089B0062002F028FF254C0323254A0621C9
:10227000200002F027F9200002F0E8F8224802F0DE
:10228000DEF9224802F0DBF9214802F0D8F9602398
:1022900000240493403B05931033069310330793B7
:1022A0001C4B1D4D03931D4F1D4B164E2100013439
:1022B000019302970096049A059B2800E4B202F06D
:1022C0007BFC062CECD1174B069A0393144B210090
:1022D00001932800079B0297009602F06DFC114BBA
:1022E000069A03930E4B072101932800079B029740
:1022F000009602F061FC280002F0D2FB09B0F0BDAC
:10230000DC000020D001002004010020BC000020DF
:10231000CC000020EB620000EC000020FD2000005B
:102320008D210000DC620000F0B5284E05007178B8
:1023300030789DB041180139C9B2013103F05FFC1A
:102340006B68B2680B90981A03F04EFCAB68F268A9
:102350000D90981A03F048FC6B6800240A931193BF
:1023600013AB9C461900AA680E90194812920F945C
:1023700010948CC88CC16246036809930B6004A951
:1023800089CA89C1099B2A1D0B60039401A909CA46
:1023900009C1AA682100009217A822000A9BFFF732
:1023A00010FF6B462C2201949B181F780E9A330065
:1023B0000D9917A8009702F02CFB17A9280002F02E
:1023C000D1F917A8FFF741FF1DB0F0BDAC00002008
:1023D000CC62000010B50024044BDB6818590434AB
:1023E000FFF7A2FF202CF7D110BDC046EC00002063
:1023F00010B5FA240121062002F0AAFE6400012093
:10240000FFF7E8FF200002F0CDFC0021062002F0DB
:102410009FFE0020FFF7DEFF200002F0C3FC10BD8E
:10242000C020F0B540008BB003F020FC0600102067
:10243000002403F01BFC047044708470C4700471A9
:1024400044718471C471047244728472C4720473DE
:1024500044738473C4733060102003F007FC0B21B5
:10246000FE23C172047044708470C370047144719F
:102470008471C471047244728472047344738473EB
:10248000C4737060102003F0F1FB04250623047070
:1024900045708370C470057143718471C471047296
:1024A00044728472C472047344738473C473B060DE
:1024B000102003F0DBFBD021BE229023817001713C
:1024C000C939C2704271047043708371C47104725F
:1024D00044728172C472017344738473C473F06074
:1024E000102003F0C3FB182747702227C770C227AC
:1024F00026234771032108278370D9330371C03B1A
:102500000373333B04708571C47104724572877222
:10251000C77243738173C4733061102003F0A6FB4C
:10252000C02242213C25C2234170C2702239C271AF
:10253000B93A0570857005714371817104724472F6
:102540008772C272047342738773C2737061102002
:1025500003F08CFB80231A0003705C234370A223DA
:102560006221C370863B037109238170032182714C
:102570007C3A427203730232043B017283734471EA
:10258000C4718772C7724273C773B061102003F0C1
:102590006DFB0622047044708470C2700471447133
:1025A0008471C471047244728472C472047344737B
:1025B0008473C473F061102003F058FBC021022320
:1025C00007228170037178218023C17282720470A6
:1025D0004470C57044718471C47104724472037391
:1025E00044738473C4733062102003F03FFBC570E2
:1025F000843505718025857278250223C5720725EB
:1026000004704470837044718471C47104724472A4
:10261000057344738473C4737062102003F026FB47
:102620000E2514230470837003714470C5704471C7
:102630008471C471047244728472C47204734473EA
:102640008473C473B062102003F010FBE0220125F4
:10265000C270D13A04704470847004714471847102
:10266000C471047245728572C272057345738473B6
:10267000C473F062102003F0F9FA18220470C272D9
:1026800044708470C470047144718471C4710472A4
:1026900044728472047344738473C473306310206F
:1026A00003F0E4FA047044708470C47004714471DF
:1026B0008471C471047244728572C5720573457366
:1026C0008473C4737063102003F0D0FA04704470F4
:1026D0008470C470047144718471C4710472447252
:1026E0008472C472077344738473C473B06310201C
:1026F00003F0BCFA1E23E0224371A2338372823BB3
:10270000047044708470C47002718471C471047266
:102710004472C372057344738473C473F0631020EE
:1027200003F0A4FA0621817006210223F8224171E8
:102730000321C37003710A334172817304704270C4
:102740008271C47104728372C77207734373C47356
:102750003064102003F08AFA04228270FE220223E1
:1027600002710F22047002734470C370447184714B
:10277000C471047244728472C47244738473C473E7
:102780007064102003F072FA0C23190043700223C6
:1027900083708223C37066230371182343710B0077
:1027A000023B8372013B04708471C47104724172F4
:1027B000C372077347738473C473B064102003F04B
:1027C00055FA0C23062143700A3B622283709C2336
:1027D000417249190470C270027143718471C471ED
:1027E00004728772C772077341738473C473F06491
:1027F000102003F03BFA70220E23802182700F22FA
:10280000C370B233417003717D39BE3B04704471B3
:102810008471C471047241728372C3720273437310
:102820008473C4733065102003F020FA42227E23A3
:102830008270222243704233C270027142718371EE
:1028400006220C2303210470C47104724272877241
:10285000C772077343738173C4737065102003F0EC
:1028600005FA2C2380217022C370343341708270AA
:1028700043714E3A543B81717D3902710470C471C9
:10288000047241728372C772077343738173C47396
:10289000B065102003F0EAF90E2343700223837021
:1028A000C370E2230371C43B437103210C23047002
:1028B0008471C471047244728372C172047344736C
:1028C0008473C473F065102003F0D0F94222C27003
:1028D000422264219823027104228170417161397E
:1028E000047043708371C471047241728272C77242
:1028F000077342738173C4733066102003F0B6F916
:1029000038239C46C62282214370634682704271FE
:10291000C03AC1700171C27204708371C4710472D3
:1029200044728772057344738473C4737066102095
:1029300003F09CF91023047044708470C370047118
:1029400044718471C471047244728472C7720473D6
:1029500044738473C473B066180003F087F91023BE
:10296000C3701823047044708470047144718471BE
:10297000C471047244728472C372047344738473A6
:10298000C473F066102003F071F9402310228021F7
:102990008370203BC370037142711E3B0C3A41703F
:1029A000C272027304708471C471047245728372BE
:1029B00047738473C4733067102003F057F94023C2
:1029C00043708370C370037143713E3B0470847124
:1029D000C471047243728372C3720373437384734A
:1029E000C4737067102003F041F920231022837014
:1029F000C370DB184270037104228021022304702B
:102A000041718471C471047247728272C27203731D
:102A100045738473C473B067102003F027F90C2347
:102A2000662183700A3BC3708222417118230B21F7
:102A30000470447002718371C471047244728472B0
:102A4000C472017344738473C473F067102003F07D
:102A50000DF9E22383701223C370E03303711F2347
:102A6000F82104220372472301708171072142700B
:102A70004271837203731C321F3B427243732832CC
:102A8000331DC471C2728173C473D867102003F000
:102A9000EDF80E21C1700E218023702201710321F7
:102AA000437083718572743BC57205734573F51964
:102AB000047082704271C471037241728173C37376
:102AC000E867102003F0D2F8FE25457022258570B6
:102AD000C57005716425042245719825427385717E
:102AE000150032000F23032188320470C471047270
:102AF00043728772C77207738173C47310601020AA
:102B000003F0B4F8F822857042700C212A003300DB
:102B1000022581718272093952198C330470C57093
:102B200005714571C47104724172C77207734773AE
:102B30008273C4731860102003F098F8F82383712F
:102B40000F23FE2243723300032142709033FA3A7E
:102B500004708570C57005714271C471047287720A
:102B6000C772077342738173C4731860102003F037
:102B70007DF885710F256B4603951D7B8772457225
:102B8000C7723D0007734773877337004221FE22E7
:102B90009437427004708170C17001714171C471C9
:102BA0000472C4733860102003F060F842216B4651
:102BB0000691197EFE278170C17001714171022159
:102BC0000491197C04708171197B47704172310046
:102BD0009831C47104728472C47204734473847330
:102BE000C4730860102003F041F804216B4605917E
:102BF000197DF8224170197C02708170197ED823EA
:102C0000032283716B4608921D329B181A786B461B
:102C100002721A7DC1704272427320229B181A7888
:102C200001718273320044219C324171C4718572FA
:102C3000C5720573C4731060102003F017F86B465B
:102C40001A7B4021427282733200A0328170C170BF
:102C500001714171047047708771C471047284728C
:102C6000C47204734473C4731060102002F0FEFF3A
:102C70006B461A7B0470C2723200A43244708470B6
:102C8000C770047144718471C47104724472847297
:102C9000047344738473C4731060102002F0E6FF61
:102CA0006B461A7D04704272027320229B181A78B8
:102CB000447042733200A8328470C470047147714A
:102CC0008471C47104728572C5728473C473106098
:102CD000102002F0CBFF202230238270C370062226
:102CE0009C3303716B4607921A7F402142711A7B15
:102CF0004170027220229B181A786B4642730C2294
:102D0000099218329B181A78077082733200AC321D
:102D10008471C47144728472C4720473C473106089
:102D2000102002F0A3FF6B461A7B0470427232003F
:102D3000B03247708470C470047144718471C4717E
:102D400004728572C572057345738573C473106010
:102D5000102002F08BFF6B461A7D6B461B7D3821DD
:102D600083716B461B7B427081700A000372C02125
:102D70006B46C1700171197B33004271B433373A2D
:102D80000770C77144728472C27202734473847391
:102D9000C1731860102002F069FF6B4624229B1853
:102DA0001978102383706023C3706B461B7B4170BE
:102DB0000372012303736B461A7F802142731A7BCF
:102DC0003300B8330770017144718771C471447264
:102DD0008472C4728273C4731860102002F046FFBC
:102DE00024216B465B181B78F02243706B461B7CDA
:102DF000027083706B461B7C8271C3706B461B7CB8
:102E00006A4603716B465B181B78117F437101237F
:102E1000037283733300BC33C47141728572C5720F
:102E200005734173C4731860102002F01FFF8223E2
:102E300038228370C37003716B4682711A7B442100
:102E400042723200C032047047704171C471047222
:102E50008472C472047344738473C473106010204A
:102E600002F004FF6B4624215B1819786B46417011
:102E7000197CF0228170C170017124215B181978CE
:102E8000012303726B46027082711A7F092342721A
:102E90000A2202736A46127F417142733200C432C1
:102EA000C4718572C3728373C4731060102002F002
:102EB000DDFE82238370C3700371442343710C3B96
:102EC00083716B461A7B0470427220229B181A7819
:102ED0006B46427324229B181A7847708273320023
:102EE000C8321060C47104728472C4720473C473F3
:102EF000102002F0BBFE382303700C3343706B4686
:102F00001B7E847183706B461B7EC471C3706B46DD
:102F10001B7E45720371842343716B461B7D857252
:102F20000372072343733300CC33C5720573847374
:102F3000C4731860102002F099FE6B461A7C04706E
:102F400042708270027142711A7B3300D033C770B5
:102F50008471C471047244728472C27204734473C3
:102F60008473C4731860102002F080FE6B46202228
:102F70009B181A786B4642721A7D047082724273F3
:102F800020229B181A783300D43347708470C470A1
:102F9000047144718771C4710472C57205738273C0
:102FA000C4731860102002F061FE6B461A7F78230C
:102FB000437043716B461B7FC5723500802183715E
:102FC0000723D83502708170C4700171C471047216
:102FD00044728372037344738473C4732860102033
:102FE00002F044FEC77001276B46F0224772477318
:102FF00037000E258021C4710472C472002442700F
:1030000042711A7BDC3705708170017185718272A3
:1030100002738473C4733860102002F027FE062701
:10302000077087710C27A023077287733700182158
:10303000402283700371E0379D3BC270437243733B
:1030400041704171C4718472C4720473C473386076
:10305000102002F00BFE3027457045713500C0216D
:10306000877007710F27E435C17004708471C471D3
:10307000047244728472C772047344738473C47399
:103080002860102002F0F2FDC2230C278370603B01
:10309000C370483B03710F3B437233000225062285
:1030A00007720827E8330570457042718471C47156
:1030B0008772C772077347738473C47318601020D4
:1030C00002F0D4FDFE2383707E3BC3720373330092
:1030D000FF22EC3304704470C57005714471847133
:1030E000C47104724472827244738473C47318602E
:1030F000102002F0BBFDE021C170417331000122BC
:103100001E23F031C2728370037308600470447030
:10311000047144718471C471047244728472847342
:10312000C473102002F0A2FD8570C570FE250571E4
:1031300080258572C572FF2505733500F43504704E
:10314000447044718471C471047244724473847312
:10315000C4732860102002F089FD0C25C572057328
:103160003500C021CC23F83541708170C3700371E4
:10317000417181710470C471047244728472447329
:103180008473C4732860102002F070FD202505723E
:1031900045728572C5720573457385733500FC35BC
:1031A000047044708470C470047144718471C4717B
:1031B000C4732860102002F059FD02230621042266
:1031C000047044708370C170027144718471C47161
:1031D000047244728472C472047344738473C4733B
:1031E0006860102002F042FD1021482388224170BF
:1031F0000F218270C370037143716832413B0470C8
:103200008271C471047243728772C7720773477305
:103210008173C473A860102002F028FD0F21FF23E2
:103220004172042203214370EF3B83704371D0331A
:1032300081730470C77007718371C47104728772DF
:10324000C77207734273C473E860102002F00EFD6A
:10325000C02230234270BF3A4272053283708272BC
:10326000203B023A0470C770077147718371C471C3
:103270000472C772077347738273C473286118009E
:1032800002F0F4FCE0220321FF234270D03A827066
:10329000427141720C3A0C310470C770077183712E
:1032A000C47104728272C772077347738173C473E7
:1032B0006861102002F0DAFCE0214170E0219023E7
:1032C0008822817103218370C27002714371843A34
:1032D0008E3B41720470C47104728272C7720773AC
:1032E00042738373C473A861102002F0BFFC1022E4
:1032F000FC2382700F22C370EA3BC27204704470D8
:10330000037143718471C4710472447284720473D2
:1033100044738473C473E861102002F0A7FC18237F
:10332000E0218370E0338371B53B4372493383728C
:10333000043BC37203733C334373853B4170047099
:10334000C77007714771C47104728373C4732862B4
:10335000102002F08BFC10228270F022FF234271B9
:103360000F2243700470C77007718471C4710472B6
:1033700042728472C472047342738473C473686249
:10338000102002F073FCF4220271E53A04704470DC
:103390008470C47044718471C47104724472847204
:1033A000C472027344738473C473A862102002F061
:1033B0005DFCF422027180226B4606921A7E7F2306
:1033C000047044708470C47044718471C471047258
:1033D00044728272C272037344738473C473E8626A
:1033E000102002F043FCFF226B4607921A7F202137
:1033F00042701A7E04708270C02204921A7C01719D
:10340000C270102205921A7D877142710F2242729A
:10341000012203921A7B062302734373C471047260
:103420008472C4728773C4732863102002F01EFC78
:10343000FE218170F739817204704470C470047188
:1034400044718471C47104724472C7720773447307
:103450008473C4736863102002F008FCF022F82320
:10346000C27082710F2203704770877007714771B5
:10347000C471027244728472C272047344738273A0
:10348000C473A863102002F0F1FBF022F82342710C
:103490000F22047043708770C77007718471C47104
:1034A000047242728472C472047342738473C4736C
:1034B000E863102002F0DAFB6B46E0211A7D04235A
:1034C00041708171DD3904708270C770077142717B
:1034D000C471047241728372C7720773437381733C
:1034E000C4732864102002F0C1FBF8226B464270BE
:1034F0001822E02142711A7F04238171DD390470A2
:103500008770C7700771C471047242728372C77288
:10351000077343738173C4736864102002F0A6FBC1
:103520000423E02183724373F8226B464170827159
:10353000C8391A7F8170153941720470C7700771DC
:103540004771C4710472C77207738273C473A8642D
:10355000102002F08BFB6B46F82242701A7D04703B
:1035600042710F228770C77007718471C471047231
:1035700042728472C472047344738473C473E864C3
:10358000102002F073FB702343706B4688211A7D74
:1035900004238170C170017141718139437282715C
:1035A0000470C47104728772C772077347738173A2
:1035B000C4732865102002F059FBFE21C170072159
:1035C000047044708770077144718471C47104720F
:1035D00044728472C172077344738473C4736865E0
:1035E000102002F043FBF8220721427042710F22A3
:1035F00004708470C47004718471C4710472417267
:103600008772C772077342738473C473A8651020EE
:1036100002F02CFB38216B460591197D6A464170FA
:10362000197C047081700171197D032341710C2193
:103630000891143152181178C4708471C4710472E5
:1036400044728372C172037344738473C473E865F4
:10365000102002F00BFB6B46197D84700170197C01
:1036600004714170F821C170197CC4714171197DD8
:1036700004728171197B0F2341728372C1720373CB
:1036800041738473C4732866102002F0EFFA6B460E
:103690001A7C3021C27002716A4606238170417122
:1036A000117B047047708771C47104724772837212
:1036B000C172017343738773C4736866102002F08C
:1036C000D5FA6B46197D04704170197CC470817005
:1036D0004171197D812383726133C372C43B0373CB
:1036E0006B468171197B0471C47104724472417319
:1036F0008473C473A866102002F0B8FAC82303715B
:103700006B462022197D9B18417119780A23837218
:10371000013B047047708770C7708471C471047274
:103720004172C372077347738473C473E8661020D1
:1037300002F09CFA6B46197E1F7B81707E21077117
:10374000477187721F7EC170C172047044708471AA
:10375000C47104724472077347738473C473286717
:10376000102002F083FA6B463700047044708470B6
:10377000047144718471C4710472447284720024AF
:103780001D7FFC37C570C572047344738473C473A2
:103790007867102002F06AFA80257E2101230171EA
:1037A0000173047044708370C37045718471C47177
:1037B000047244728572C57243738473C473B867AC
:1037C000102002F053FA4023C370C3713F3B0470D2
:1037D00044708570057144718571047243728472FE
:1037E000C472047343738473C473F867102002F0C7
:1037F0003DFABE235B00F050214A224B04701A8030
:1038000008229A60921844708470C47004714471E4
:103810008471C471047244728472C47204734473F8
:103820008473C473DA60053417485E6000F008FEE4
:103830000094022303220421144800F0D9FE072338
:10384000009401930322053B0421114800F0DDFEA2
:10385000104B03220193104B042100930F480223C5
:1038600000F0E1FE0E4C0F4B0F4A1049200001F012
:103870000FF90F4A0F49200002F004FA0BB0F0BD17
:1038800020600000AC000020DC00002004010020CB
:10389000BC0000205121000031210000CC0000209C
:1038A000EC000020792100006521000009210000C2
:1038B00000000020B1210000F7B50192002208AC01
:1038C00026880AAD09AC0BAF2D783F782478426189
:1038D000019A4773468185734260016003720473E5
:1038E000FEBDF0B5478985B005000068FCB203ABAA
:1038F0003F0A1C705F70002807D06C7B0093019416
:10390000012300F0B8F805B0F0BD6E68301EFAD0A3
:10391000287A8446687B6546032D09D1023DAF4372
:103920001F705C7040190090300000F061FAEAE707
:10393000002D03D17F352C401C70F4E7022D02D1FD
:10394000823D2C43F8E7012DEDD17E352C403F3DE3
:10395000F7E770B50300002A00D1027B0020042A9B
:1039600015D85C0059619818141983420AD09E7BBF
:10397000CDB2002E04D1261AF573090A0138F4E7F6
:103980008573FAE7190018000F31FFF7AAFF70BD21
:10399000F0B5468985B004000068F5B20B00360A20
:1039A00003A994460D704E70002808D0627B002455
:1039B00001946446009400F0C3F805B0F0BD676858
:1039C000381EFAD0207A627B03280CD102380643D5
:1039D0000E704D701218FF20019060460090380064
:1039E00000F026FAE9E7002802D18038054303E019
:1039F000022803D17D3005400D70ECE70128EAD1A3
:103A00004138F3E7010010B50F31027B0400FFF7E6
:103A1000BFFF002811D00020227B6100A31852189C
:103A20009C420CD0A17B0002002903D1997B084362
:103A3000013BF5E7D11AC97BF9E70120404210BDEF
:103A4000016002714371704770B5050000680C0099
:103A5000FFF7D8FF01212B796E79994001390B00CE
:103A6000B340214098430300B14028681943027BCA
:103A7000FFF76FFF70BDF7B5099D1600019353194D
:103A8000C26804000F00934201D90020FEBD0178F6
:103A9000406800F041FA002D0FD1606832000368E1
:103AA00039005B6898478642EFD10199606800F061
:103AB000A2FA43425841C0B2E8E7089B002BECD081
:103AC00060682A00036808995B689847A842DCD1BF
:103AD000E3E7F8B505000F0016000178D2B24068A0
:103AE00000F037FA002486420AD1A64207D9686856
:103AF00003685B69984738550134A4B2F5E701249F
:103B00002000F8BDF7B507001600002400910193CE
:103B1000B44213D2FB68351B9D4200D91D00721BB5
:103B2000019BA24200D90023009A380011192A00F3
:103B3000FFF7CFFF002802D06419E9E70120FEBD9E
:103B400073B5040000201D0006AB40CB1B7801902C
:103B500000902000FFF78FFF002805D001233200DE
:103B600029002000FFF7CEFF76BDF8B51E0006AB9A
:103B70001D78FF2343740374C373079B170003600E
:103B80000300002234330400426081731A7008205D
:103B900002F068F80760057146716060A7602673DF
:103BA00065732000F8BD70B504000E202056431C3C
:103BB00007D0C0B2012101F07FFAA07B012101F002
:103BC000C7FA2568002D07D02B682800DB6A9847C4
:103BD00001203434207070BDE07B012101F06CFACB
:103BE000637BE07B2900012B00D9012101F0B0FAB1
:103BF00010202056431C07D0C0B2012101F05CFA0E
:103C0000207C012101F0A4FA11202056431CDFD0B2
:103C1000C0B2002101F050FADAE70000F0B504006C
:103C2000006889B00E001500002804D003681B69E5
:103C3000984709B0F0BD8022237B0292002B01D16E
:103C400001330293029A3378A16813405A425341D8
:103C50004948DBB2059302F027F86B4601901B79C7
:103C6000039373190793079BB342E2D0002733787D
:103C7000029D0693039B002B04D0FF23019818405C
:103C800001F0B2F80221627BA3698A4346D1102277
:103C9000A256013212D0069929400A00501E8241D4
:103CA00005980491824209D0606A626984460029BD
:103CB0002ED0116801431160012205921A68E16A51
:103CC0000A431A60039B002B04D0FF23019818407D
:103CD00001F08AF81123E356013306D0E369A26AA2
:103CE0001B681A4201D02F43FFB2A269E16A136830
:103CF0008B4313601123E356013300D03770237BCD
:103D0000002B37D16D00EDB2002DB3D10136AAE7FB
:103D10006146106888431060049ACEE71A68E16A29
:103D20000A431A60039B002B04D0FF23019818401C
:103D300001F05AF81023E356013307D0069A63695D
:103D4000616A154213D01A680A431A60A269E16ACF
:103D500013688B4313601123E3560133CAD0E36920
:103D6000A26A1B681A42C5D02F43FFB2C2E71A6885
:103D70008A43EAE76D10C6E720A1070013B56B463A
:103D8000DC1DD97101222100FFF748FF207816BD04
:103D9000036810B5002B06D0426819681800CC697A
:103DA00011685268A04710BD006810B5002802D005
:103DB00003681B6A984710BD10B5807B40B2431C56
:103DC00003D0C9B2C0B201F0C3F910BD10B50400F0
:103DD000FFF7DEFF00212000FFF7EEFF10BD10B55A
:103DE00004000121FFF7E8FF2000FFF7DDFF10BD11
:103DF000F7B51D0006000C000192FFF7E7FF089BD6
:103E0000EF18BD4209D1019BE518AC420BD02178D7
:103E10003000FFF7B3FF0134F7E729783000FFF7F0
:103E2000ADFF0135EDE73000FFF7D9FF0120FEBD02
:103E3000F7B5009308AB40CB0C001B7817000500CA
:103E40000193FFF7C3FFE719BC420AD1009CA619F2
:103E5000B4420CD001992800FFF790FF2070013484
:103E6000F6E721782800FFF789FF0134ECE7280006
:103E7000FFF7B5FF0120FEBD00207047F8B5050033
:103E80000E0017000024BC4208D02B68315D1B686F
:103E900028009847002801D00134F4E72000F8BD3D
:103EA000006E70477047036E002B03D0C36DC018BF
:103EB000007E704701204042FBE70000F7B5019308
:103EC000FA230025402604009B008360114B0F005D
:103ED000083345600360290000921830320002F078
:103EE000BBF82000A5653200E56529002566643031
:103EF00002F0B2F82300A4331D605D609D606B4644
:103F00001B78276123756B461B79A57520006375A7
:103F1000FEBDC046FC620000837D002B01D0002066
:103F200070470200B03211700C3A13605360936016
:103F300001238375F4E7836C402B09D03F22036C87
:103F4000C154036C013313400364836C01338364F5
:103F50007047F7B500250400170001932800AA4216
:103F600026D0A5650122E5652069256601F0BAFA2B
:103F7000A8421CD026001836206901F03DFB01350F
:103F800001003000FFF7D7FF2069AF4206D001F0F3
:103F900089FA0221206901F08FFAEDE701F07AFA3F
:103FA000019B002B03D00321206901F085FAE8B2C0
:103FB000FEBD002310B5827D9A4208D00200AC32CB
:103FC0001268402A03D06430FFF7B5FF01231800C0
:103FD00010BD836C002B0BD03F21436CC25C436C43
:103FE00001330B404364836C013B836410007047D2
:103FF00001204042FBE70300002270B5B033827518
:1040000004000E000069197801F06CFA002806D14E
:104010000321206901F050FA0225280070BD230019
:10402000AC331D68002D10D0200064302569FFF7E7
:10403000D0FFC1B2280001F097FA0028EFD1032188
:10404000206901F039FA0325E7E7002EE5D00321C6
:10405000206901F031FAE0E710B51830FFF7B9FF39
:1040600010BD70B50400006901F0A4FA002814D056
:10407000206901F0ADFA002810D0206901F012FA91
:104080000321206901F018FA2300B8331D68002DC0
:1040900032D10023A365E365236670BD206901F07A
:1040A000A1FA002809D0206901F097FA002804D06D
:1040B000206901F09CFA0028DFD0206901F092FA13
:1040C00000281FD1206901F07EFA0028E5D0206980
:1040D00001F08DFA00282FD02300AC331B68FF219C
:1040E000002B04D020006430FFF773FFC1B22069B9
:1040F00001F052FAA075D0E7236820001B699847A9
:10410000A847C6E7206901F0CDF92069032101F035
:10411000D3F9206901F06BFA0028BED022000023F9
:10412000A4321360536093600133A375B4342368E1
:10413000002BB2D09847B0E7236E2069402B06D100
:1041400001F0A8F90321206901F0B6F9A5E701F013
:1041500053FA010020001830FFF7EDFE206901F04E
:10416000A1F9EFE710B50248FFF77BFF10BDC0468D
:104170001401002010B51523142202490248FFF74C
:104180009DFE10BD980600201401002070B50600A9
:104190000C008D18AC4207D0336821789B68300042
:1041A000984720700134F5E770BD7047704710B52F
:1041B0000400406801F03CF90023237610BD10B5DF
:1041C000406801F05AF910BDF8B5050040680C00D0
:1041D00001F04EF92B68E7B2260A9B68012810D13E
:1041E00039002800FF2798472B68BC4304439B688D
:1041F000310028009847030220003840184380B25D
:10420000F8BD310028009847FF262B680002344093
:1042100004439B68390028009847B4432043EEE7E5
:1042200010B5040001F026FD200010BD10B54B1C98
:104230000BD0102909D0EFF3108472B6102905DDD8
:1042400002234376002C00D162B610BD0123427ECA
:104250001A43427618224A430449891816228A567C
:104260009340C2691343C361ECE7C046606300003A
:104270004B1C17D0102915D0437E9B0712D4EFF3A7
:10428000108272B618234B430749C9180123897D50
:1042900049B28B40C1699943C16100D14176002A7E
:1042A00000D162B67047C04660630000437E002BB9
:1042B00005D09A0704D5837E002B00D062B67047E4
:1042C000DB07FCD5C369024A9BB2D360F7E7C0465F
:1042D00000180040037E002B04D143768376C3612F
:1042E00001330376704700007FB5036902AE040016
:1042F0000D00029172608B4203D1828AB3889A4288
:1043000026D0200006223100103001F089FE6068BE
:1043100001F0A5F87379E17A013B581E8341227BB5
:1043200000936068002301F001FA33790021013B1A
:10433000DBB2022B01D8074AD15C074B2A009D4211
:1043400000D91A00606801F05BF8606801F07DF840
:104350007FBDC04620630000001BB70070B5182663
:104360000400FFF7B7FF33000821207A0D4D4343C7
:10437000EB18595600F018FF33000821A07A434388
:10438000EB18595600F010FF0821607A4643AD192A
:10439000695600F009FF044B200006CBFFF7A4FF8D
:1043A00070BDC04660630000F001002007B5437E89
:1043B00000910192002B07D09A070AD5EFF31083E2
:1043C0005A425341837672B60099019AFFF78CFFE7
:1043D00007BDDB07F8D5C369014A9BB29360F3E7D9
:1043E000001800400E490F4B10B501220B6000234E
:1043F0004A710B710C490D48083101600C49427536
:1044000041600C49C27201811821036181720375F8
:10441000094A0A490376037301F034FC10BDC04613
:10442000F001002000093D0024630000D0010020BD
:10443000A00600201617000000000020AD4100007B
:10444000002303604360103303727047F0B5466881
:1044500093B00400002E33D003680022052101250B
:104460000027049300F046F80223320001930090E5
:104470005B1904990395029706A8FFF71DFA2268B5
:10448000667A049262680521059267723A002000FC
:1044900000F030F8022300900193059A5B1904990B
:1044A000039502970CA8FFF707FA2A000821667205
:1044B0000CA8FFF74EFA2A00082106A8FFF749FAD0
:1044C00013B0F0BDF7B506004372382017000D0099
:1044D00001F0C8FB0023040069B201970093044A6D
:1044E0000133FFF742FB74602000FFF75CFBFEBD69
:1044F00040420F00037A89B2082B01D949001143C9
:104500004368002B06D0437A80205B02C001184329
:10451000014389B2080070470723F0B58B42BF41C1
:1045200097B07F4205920E003A0000210124050059
:10453000FFF7E0FF00220090029203236A682968D7
:10454000039401940AA8FFF7B7F93A00062128005E
:10455000FFF7D0FF002200900292039406CD019451
:10456000032310A8FFF7A8F907231E4033002200F9
:104570000AA906A8FFF764FA2200330010A908A8C8
:10458000FFF75EFA059B06A8591E4B1E9941FFF7DF
:104590005BFA059B08A8991E4B425941FFF754FA54
:1045A00017B0F0BDF0B507278FB005928F4292414A
:1045B0000C005242092101250600FFF79BFF06CEA1
:1045C00000230090029303950195033308A8FFF799
:1045D00073F923002A003B4008A906A8FFF730FA28
:1045E000059906A84B1E9941FFF72EFA0FB0F0BDB2
:1045F00030B503AC2578FF2404710024C5708460B5
:10460000C46001704270837030BD70B504AC267810
:1046100005AC25780024C67005718460C460017003
:104620004270837070BD10B5FF248370029BC4700C
:104630008360039B047101704270C36010BD70B54C
:1046400004000500C61C2878FF2802D0012100F0D4
:1046500033FD0135B542F6D1E078FF2802D00121C3
:1046600000F02AFD2079FF2802D0012100F024FD6E
:10467000A368002B00D0984770BDF8B505000E0068
:1046800000240127285DFF2804D031002141394052
:1046900000F05EFD0134032CF4D1F8BD10B5C36801
:1046A000002B02D00800984710BDC078FF28FBD02F
:1046B00000F04EFDF8E713B56C46009263600170A0
:1046C000031D06CC06C3079BC360059B0361069BC5
:1046D0004361049B83610023037716BD70B504001A
:1046E0000D00036900219847200063690121984764
:1046F0002000236901219847A069290003689B686D
:104700009847236900212000984770BD4B1E9941AE
:1047100010B5AE31FFF7E2FF10BD70B50D0004001B
:104720008121FFF7DBFF29002000FFF7D7FF70BDD5
:1047300070B5040016000D000369002198472000A1
:104740006369002198472000236901219847A069E7
:104750003200036829001B69984723690021200063
:10476000984770BDCB68F7B5DDB204000E00002D90
:1047700037D00B69DA10D3B20093002B31D0C36865
:10478000DF794B68DF198B68FFB2D910CBB22121DA
:104790000193FFF7A3FF7F2120003940FFF79EFF21
:1047A0007F23691E7918072719402000FFF796FF1D
:1047B00022212000FFF792FF019920003940FFF7E6
:1047C0008DFF009A019B94466344190001393940DA
:1047D0002000FFF783FF009A31686A432000FFF74B
:1047E000A7FFF7BDF8B5040003690E00002117000C
:1047F0009847002120006369984701212000236920
:1048000098470025BD4207D0A069310003680135F3
:104810009B689847ADB2F5E72369002120009847CF
:10482000F8BD10B504002121FFF758FF200000213A
:10483000FFF754FF20007F21FFF750FF20002221C7
:10484000FFF74CFF20000021FFF748FF2000072161
:10485000FFF744FF80220021D2002000FFF7C2FFB3
:1048600010BD3F230B40402110B51943FFF736FF21
:1048700010BD70B50D0004002021FFF72FFF2900A7
:104880002000FFF72BFF70BD4B1E994110B5A031E2
:10489000FFF724FF10BD4B1E994110B5A631FFF75D
:1048A0001DFF10BD70B50C00A8210500FFF716FF15
:1048B0003F2128002140FFF711FF70BD10B5C8232C
:1048C000002900D1083B1900FFF708FF10BD70B5A3
:1048D0000C00D3210500FFF701FF3F2128002140F4
:1048E000FFF7FCFE70BD70B50C00D5211600050069
:1048F000FFF7F4FE0F210C40310121432800C9B21B
:10490000FFF7ECFE70BD70B50D000400D921FFF774
:10491000E5FE29002000FFF7E1FE70BD70B50E0036
:10492000DA2105001400FFF7D9FE1221002E00D174
:104930001039631E9C41640128002143FFF7CEFE1D
:1049400070BD10B50400DB21FFF7C8FE4021200038
:10495000FFF7C4FE10BD70B50D008D210400FFF7F8
:10496000BDFE5021002D00D140392000FFF7B6FEDA
:1049700070BD10B50400AE21FFF7B0FEE368200063
:104980005A7A197AFFF7AFFFE36820001979FFF729
:1049900089FFE36820009979FFF799FFE368200019
:1049A0001978FFF75EFFE3682000997BFFF7D3FFDC
:1049B00020000021FFF75DFFE36820009978FFF7F2
:1049C00063FFE36820005979FFF778FFE368200070
:1049D0001A7BD97AFFF7A2FFE3682000997AFFF7E4
:1049E00092FFE3682000597BFFF7ABFF2000A42172
:1049F000FFF774FEE3682000D978FFF74CFFE36807
:104A000020005978FFF789FE2E212000FFF766FE6F
:104A100010BDF0B585B01C000AAB03920D000291E9
:104A20001A78002932DBC368A66800939B1B8B426F
:104A30002CDB039B002B29DB0169E768C91B99422A
:104A400024DB002721780197521A61788A4203DC1F
:104A500061689200525801920027009ADB1053437C
:104A60005B190568ED18A368E2685343DB109F42A9
:104A70000CDABF19002E06D0019B3200991BC91910
:104A8000280001F0D6FA009BED18ECE705B0F0BD68
:104A90008360002301604260C3600361436170472B
:104AA00070B5040003689847002063689847A368BE
:104AB00001209847012000F075F9A368002098476D
:104AC0000A2000F06FF90120A36898472669E5687D
:104AD000AE4203D001CDFFF74CFFF9E7012000F013
:104AE00061F9012063689847012000F05BF92669AD
:104AF000E568AE4204D0012101CDFFF707FEF8E7DB
:104B0000642000F04FF92569E468A54203D001CC88
:104B1000FFF787FEF9E770BDF0B54368076885B019
:104B2000DB1B0500029114009B100126002B00D016
:104B30001E00029A9E19D71B1E4AB34233D89642D2
:104B400031D8002E30D10196019BDF19002F01D002
:104B500023683B602F68029BDC1B9F4204D022002D
:104B60003900019801F065FA019B04341C19029A7E
:104B70006B689A1A0392029A934204D0039A02999C
:104B8000200001F04DFA039BE418002F02D03800FA
:104B900001F070F8019B019A2B60B300D3186C6090
:104BA000AB6005B0F0BD1600B00001F05BF80190FD
:104BB000CAE7C046FFFFFF3FF0B58BB008AD0593D5
:104BC0002B0004920F0004A9040005C905C320208E
:104BD00001F048F80600139B39000393129B089AD2
:104BE0000293119B0193109B00936B68FFF763FD89
:104BF000216963690796994206D0002900D00E60AA
:104C0000043121610BB0F0BD200007AA0C30FFF782
:104C100083FFF7E710B5024800F02BFF10BDC04638
:104C20003C04002010B5024800F023FF10BDC04630
:104C3000F8010020F7B501240326154F1549380067
:104C400000F04EFB1449154800F04AFB1449154882
:104C500000F046FB1449154800F042FB1449154882
:104C600000F03EFB144D1549280000F039FB3900D7
:104C70000096230001940022114800F073FE009674
:104C8000290001941E231F220E4800F06BFEF7BD81
:104C90008006002000080042000C00428806002028
:104CA00000100042900600200014004298060020E8
:104CB00000180042A0060020A8060020001C0042A8
:104CC0003C040020F8010020FEE70000034B10B573
:104CD0001B68002B00D0984710BDC046B0060020CE
:104CE00070B50F490F4CA14204D100F08BF800F0D1
:104CF000A5FFFEE70C4D00238D42F6D0CA18E81838
:104D0000A24205D3094B8242EFD00949002204E0B8
:104D1000006804331060F1E704C38B42FCD3E4E77E
:104D20000000002090000020486800009000002053
:104D3000C806002010B500F063F8002801D100F08B
:104D400049F810BDF7B51348012284461249134CA7
:104D50008E68636805689B0E1340019288686268DC
:104D6000019F920E3A4067463F6893420ED1BD4282
:104D70000CD186420AD35B19FA254868AD00861B20
:104D800007486B437043000DC018FEBD3D00130083
:104D90000600E3E7B406002010E000E000ED00E0CC
:104DA0005555000070B5041E10D0FFF7CBFF05006D
:104DB00000F025F8FFF7C6FF054B401B9842F7D9D6
:104DC000FA23013C9B00ED18002CF3D170BDC046C6
:104DD000E703000010B5034A13680133136000F0C5
:104DE00043FA10BDB406002010B5002806D03023C9
:104DF0000321584300F058FF0138FDD110BD704722
:104E0000002070471E2270B54648474943689343C7
:104E10001C3A1343436008238C6923438B61434C42
:104E2000434B9C829C8A14439C82DC681442FCD0D5
:104E30000124404A14701578254203D055786DB28C
:104E4000002DF8DB01249460547864B2002CFBDB65
:104E5000394C5460547864B2002CFBDB8224E401AA
:104E60005480547864B2002CFBDB02249C840E3402
:104E7000DD682542FCD0314CDC621024DD6825421F
:104E8000FCD09D8C2E4C2C439C841024DD68254244
:104E9000FCD002249D8C80262C439C844024DD6819
:104EA0003542FCD0DD682542F9D01024DD6825426A
:104EB000FCD000249460547864B2002CFBDB214CBD
:104EC0005460547864B2002CFBDB1C6A1E4D2C40ED
:104ED00080251C621C6AAC431C62032393601B4B3D
:104EE000536053785BB2002BFBDB0023FF240B7273
:104EF000174A4B728B72CB72164B1A60164B174ABD
:104F00001B6811689A065B01C90E2340520F1202FA
:104F10000B431343124A13858023426813434360B3
:104F200070BDC04600400041000400400C06000077
:104F300000080040000C004001050100B905FF7D9C
:104F4000040A000000070300FFFCFFFF0306010046
:104F5000006CDC02040000202460800020608000DF
:104F600000400042FA21314B10B51868890000F06A
:104F70009BFE2F4B0138984256D82E492E4A486046
:104F8000C020136A00061B021B0A0343136200249D
:104F900007238C600B608021136A09061B021B0A21
:104FA0000B431362FC22254B196A0A431A62FC2246
:104FB000196A92010A431A62A022196AD2020A43AC
:104FC0001A62E0B20021013400F076F8142CF8D116
:104FD0001B4B1C005A7852B2002AFBDB194A5A803C
:104FE000194B1A00597EC9090129FBD0E421C900D7
:104FF00099803F21D970537EDB09012BFBD0C02360
:1050000000205B011361907000F024F863785BB2BC
:10501000002BFBDB0D4B0E4A6380D379DB09012BA0
:10502000FBD04123537010BDFEE7C04604000020B2
:10503000FFFFFF0010E000E000ED00E00004004092
:10504000000C00401E4000000040004221400000D3
:1050500000480042164A00B51300517EC9090129D3
:10506000FBD00138042816D81969124A0A400F21CA
:105070001A615A788A4300F00DFE0308060B0300FC
:10508000110001220A435A7000BD11000322F9E702
:1050900011000222F6E7F02311691B050B430F21D3
:1050A000136153788B43190002230B435370EBE7D2
:1050B00000400042FFFFFFF0182330B51D00040040
:1050C00045430820204A55192856013014D0032999
:1050D00012D808006343D156D31800F0DBFD022834
:1050E0000E1B5868CB010221184A9B181A1840322F
:1050F0001170012282405A6030BD5868CB010621F0
:10510000124A9B181A1840321170012282405A60CC
:105110009A61F1E75868CB0106210C4A9B181A18CE
:1051200040321170012282405A605A61E4E75868A7
:10513000CB010221054A9B181A1840321170012236
:1051400082409A60D8E7C046606300000044004196
:105150001823F0B508245843114A13181C5701347A
:105160001BD0012635005F688356BD400D4ADB0128
:105170009A18906805420BD10C00601E8441D21928
:105180004032107834400336A400B04320431070FE
:10519000044A9B18002901D15D61F0BD9D61FCE7C7
:1051A000606300000044004118224243F8B52C4ED1
:1051B0000300B218127A52B2140001320ED0481C09
:1051C00000240C280AD800F065FD072020202020AC
:1051D0002020200B0B0B0B00012464422000F8BDA3
:1051E000092905D10021D8B2FFF766FF0024F5E7B1
:1051F0000A2902D1D8B20839F6E700240B29EDD1EB
:10520000D8B20A39FFF758FFE8E718204343F218ED
:105210005568F3562C00134ADB016E0817389B18AB
:10522000C9B204409E19002C0DD00F2430363278BC
:10523000090122401143C9B25B19317040331A7819
:1052400010431870D2E732000F27303216785B19FE
:10525000BE433143117040331A7810431870BDE7D4
:105260006063000000440041164A10B51368591CE1
:1052700026D0013B1360002B22D172B6124B134A89
:105280000433934213D9124A01211000147D0C42B9
:10529000FCD02021148BFF319B085B00214311833C
:1052A000D3610C4B13800123027D1A42FCD0BFF363
:1052B0004F8F094B094ADA60BFF34F8FC046FDE7B5
:1052C00010BDC046080000200020000003020000BE
:1052D0000040004102A5FFFF00ED00E00400FA05D8
:1052E00000230371016070479446F0B59E1E721E44
:1052F00096416246056892072F6836063A43324364
:105300002A60072505AC24780068A40129402143C0
:1053100042680024022B00D05C031143214341600A
:10532000F0BD30B5C0250368AD031C6812052A40E6
:105330002243C0240904A4022140114319600368D8
:105340005A6814435C6030BD0123026811680B4346
:10535000136003681A68D207FCD4DA69D207F9D45B
:1053600070470223026811680B4313600268D36917
:105370009B07FCD470470268137E9B0702D4037915
:10538000002BF9D1002303717047002203685A8370
:1053900070470368187E4007C00F70470368187E87
:1053A000C0097047802302685B42117E0B4313766D
:1053B00070470368588B8007C00F7047022302684C
:1053C000518B0B43538370470368187EC007C00F8F
:1053D00070470368188DC0B2704703681A7ED20701
:1053E000FCD589B219850123037118007047012289
:1053F00003689A757047012203681A7570470000A8
:1054000070B5012604684B08334031402568090710
:105410005B070B432B43236004685100034800F0F3
:1054200043FC0138C0B2207370BDC046006CDC0282
:105430000123026811680B43136003681A68D207DE
:10544000FCD4DA69D207F9D47047022302681168E4
:105450000B4313600268D3699B07FCD47047036851
:10546000DA699207FCD402211A688A431A607047ED
:10547000036818684000C00F70470268936A5B0AAF
:105480005B021943916203681A7E5207FCD5986A41
:10549000C0B2704780230268DB02116851680B4379
:1054A00053607047036803491A685A680A405A6093
:1054B0007047C046FFFFFBFF032230B50368114071
:1054C0001C68074D5A6809042A40E4061143640F1A
:1054D0005960052C03D10268D3695B07FCD430BD49
:1054E000FFFFFCFF70B5056804006B8B9B069B0FEC
:1054F000022B0DD06B8B00209B069B0F032B32D011
:105500006B8B9B0704D56B8B9B069B0F012B2AD1C2
:105510006B6A49001143DB0AC9B2DB020B436B62C1
:105520002368002A13D11A7ED207FCD55B8B9B0619
:105530009B0F022B04D0490800222000FFF7D2FF66
:105540002368588B4007C30F012058400BE0187E9A
:105550008007C00FF4D11A7ED207F8D5C02259684F
:1055600092020A435A6070BD0368283319700268BA
:10557000107EC007C30F508B002B06D1C007C00F91
:1055800008D1538B9B07F3D570474007C30F012009
:105590005840F9E71800F7E70368283319700368E3
:1055A00000201A7E520704D5588B01234007C00FF4
:1055B0005840704703681868C006400F04384342DB
:1055C0005841C0B270470368187E4007C00F70474B
:1055D0000368187EC007C00F70470368588BC00669
:1055E000C00F70470368187E8007C00F70470368BC
:1055F000588B0007C00F704703681A68D206520F15
:10560000052A05D11A7E920702D41A7ED207F9D54F
:1056100028331878C0B270470368214A30B59342E6
:105620002FD0204A93422FD01F4A93422FD01F4A97
:1056300093422FD01E4A93422FD01E4A93421FD12D
:105640000E2319220121032599401B48C024016023
:1056500099082B40AB40FC359D4089000918A400F7
:105660000859A843C0259D402B0003430B518023BC
:10567000DB011A43114B5A805A7852B2002AFBDBE5
:1056800030BD09231422DDE70A231522DAE70B23B4
:105690001622D7E70C231722D4E70D231822D1E7CF
:1056A00000080042000C00420010004200140042BA
:1056B00000180042001C004200E100E0000C004025
:1056C000F8B504000F0016001D00FFF7A5FF20002D
:1056D000FFF73AFE1C21BB000B4071072268090C42
:1056E0000B431360842322689375012F1AD1102174
:1056F000012E00D008390C4B69431868C00000F037
:10570000D3FA0722216802408B895203DB04DB0CA9
:1057100013438B81226803049089DB0C400B400308
:1057200018439081F8BDC04604000020F7B506007C
:10573000019308AB1F780D001400FFF779FE3000CD
:10574000FFF76AFFC022240592031440BA070C2712
:1057500017433C43C0270722BF022D0433683D4056
:1057600025431D60019B316813401A0080239B0272
:1057700013434B60F7BD01207047000010B503686C
:10578000014A1B6A984710BD13040000FC30006AF0
:10579000704787239B00C018C36880204000C01A50
:1057A00070470300FC331A6A002A03D0DB69C01873
:1057B000007D704701204042FBE710B504000069FE
:1057C000FFF7C2FD22000023FC329361D361136214
:1057D00087229200A4186360A360E36010BD872352
:1057E00010B59B00C218D368002BFCD10069FFF7ED
:1057F000C2FD10BD0368002B02D162B6BFF36F8FEC
:105800007047F02001403039484248417047F0234A
:105810001B011940802306209B0099420AD00133C6
:10582000FF330130994205D0802302385B00994252
:1058300000D0002070470F2001400020012903D034
:105840000239481E8141481C704700008B23F0B587
:10585000182685B002919B000400C05C330008212B
:105860004343324D1700EB185956FFF79DFC304B60
:105870000821E05C33004343EB185956FFF794FCD2
:105880002C4BE25C0393022A09D11133E05CFF2820
:1058900005D008214643AE197156FFF785FC8C26CA
:1058A000B600A05DFF2819D00121FFF705FC1822E2
:1058B000A35D21495A43AB56AD18DB0158188D2121
:1058C000890060501D4901225B188E2189006350B8
:1058D00069688A408F21890062501A600122029B08
:1058E00011002069FFF7ECFE39002000FFF78FFF61
:1058F000390005002000FFF79EFF39000600200058
:10590000FFF77FFF33000090290020690122FFF795
:10591000EBFC0B4B2069E25C039BE15CFFF701FDB4
:105920002069FFF71EFD05B0F0BDC04660630000B2
:105930002D0200002F0200001844004114440041D1
:105940002E020000802210B504005200002100F059
:1059500083FB23000022FC335A6020009A60DA6047
:1059600010BD0000F7B51D0008AB1B7804000093C4
:1059700009AB1B781600019300234360FA239B00B8
:105980008360114B0F00083303601430FFF7DAFF18
:1059900020002130FF30FFF7D5FF8B236A469B00A4
:1059A0002761E654094B1278E554094B2000E25474
:1059B0006A46084B1279E2548C22313BFF3B92003D
:1059C000A3541032A354FEBDB06700002D020000A6
:1059D0002E0200002F020000F7B5EFF310830093B2
:1059E0000123019372B680260200FF25019BFC3241
:1059F0007600013B5C1C0FD0D4685F1EB44209D016
:105A000054680155546801342C405460D468013402
:105A1000D460EEE73B00EDE768460193FFF7EAFE4E
:105A2000F7BD13B5EFF3108300930123019372B612
:105A3000019B5A1E0192002B15D00300FC33DA683B
:105A4000002A0DD09A68845C9A680132D2B29A60BA
:105A5000DA68013ADA606846FFF7CCFE200016BD2E
:105A600001246442F7E701246846FFF7C3FE64425D
:105A7000F4E710B504000069FFF79BFC002805D08F
:105A80002069FFF7A6FC2069FFF798FC2069FFF763
:105A900080FC00281BD02069FFF79BFC0100200040
:105AA0001430FFF799FF8C239B00E35CFF2B0ED093
:105AB0002300FC331A6A80235B009B1A092B06DC47
:105AC0008D238F229B009200E358A2581A60206910
:105AD000FFF77AFC00280ED087239B00E318DB68D1
:105AE000002B14D020002130FF30FFF79AFFC1B205
:105AF0002069FFF772FC2069FFF750FC002805D0F1
:105B00002069FFF74FFC2069FFF73FFC10BD2069BB
:105B1000FFF771FCEFE70000F8B5040000690D0025
:105B2000FFF752FC87239B00E618002802D0F36899
:105B3000002B34D001278022F3685200934223D1F6
:105B4000EFF310833B4210D1174B5B68DB05DB0D95
:105B5000F1D0103B5BB2002B10DAF13A1340083B56
:105B60009B08124A9B009B181B682069FFF72CFCBE
:105B70000028E0D02000FFF77CFFDCE79B08C03363
:105B80000B4A9B009B58F0E720002130FF30290092
:105B9000FFF722FF2069FFF72AFC0120F8BD29004A
:105BA0002069FFF71AFCF8E700ED00E01CED00E0CB
:105BB00000E100E010B504001430FFF732FF8C2341
:105BC0009B00E35CFF2B0ED02300FC331A6A80237A
:105BD0005B009B1A0A2B06DD8E238F229B0092000E
:105BE000E358A2581A6010BD10B5041E05D000F08D
:105BF000E3FA210000F0C8F90C00200010BD10B538
:105C00000400884203DA081AFFF7EEFF2418200088
:105C100010BDF7B506000D000C008B180193019B19
:105C2000671B9C4207D0336821781B683000984777
:105C300001340028F3D13800FEBD704710B5FFF7DE
:105C400091F900F0B5F9FFF7F8FFFCF707FBFCF757
:105C5000CFFB034B002BFAD000E000BFF7E7C046B4
:105C60000000000010B500F0C7F910BD10B500F03D
:105C7000C3F910BD10B500F0C9F910BD10B500F0A2
:105C8000C5F910BD0B0010B50100180000F082F935
:105C900010BD000002B4714649084900095C490082
:105CA0008E4402BC7047C046002243088B4274D326
:105CB00003098B425FD3030A8B4244D3030B8B420D
:105CC00028D3030C8B420DD3FF22090212BA030C16
:105CD0008B4202D31212090265D0030B8B4219D3F7
:105CE00000E0090AC30B8B4201D3CB03C01A524117
:105CF000830B8B4201D38B03C01A5241430B8B425F
:105D000001D34B03C01A5241030B8B4201D30B0347
:105D1000C01A5241C30A8B4201D3CB02C01A52416E
:105D2000830A8B4201D38B02C01A5241430A8B4231
:105D300001D34B02C01A5241030A8B4201D30B021A
:105D4000C01A5241CDD2C3098B4201D3CB01C01A34
:105D5000524183098B4201D38B01C01A524143093E
:105D60008B4201D34B01C01A524103098B4201D32C
:105D70000B01C01A5241C3088B4201D3CB00C01A99
:105D8000524183088B4201D38B00C01A5241430811
:105D90008B4201D34B00C01A5241411A00D2014636
:105DA000524110467047FFE701B5002000F0F0F8BF
:105DB00002BDC0460029F7D076E7704703460B4383
:105DC0007FD4002243088B4274D303098B425FD3F4
:105DD000030A8B4244D3030B8B4228D3030C8B4220
:105DE0000DD3FF22090212BA030C8B4202D3121206
:105DF000090265D0030B8B4219D300E0090AC30BDB
:105E00008B4201D3CB03C01A5241830B8B4201D387
:105E10008B03C01A5241430B8B4201D34B03C01A70
:105E20005241030B8B4201D30B03C01A5241C30AE8
:105E30008B4201D3CB02C01A5241830A8B4201D359
:105E40008B02C01A5241430A8B4201D34B02C01A43
:105E50005241030A8B4201D30B02C01A5241CDD2E8
:105E6000C3098B4201D3CB01C01A524183098B4233
:105E700001D38B01C01A524143098B4201D34B011C
:105E8000C01A524103098B4201D30B01C01A52417F
:105E9000C3088B4201D3CB00C01A524183088B4206
:105EA00001D38B00C01A524143088B4201D34B00EF
:105EB000C01A5241411A00D2014652411046704761
:105EC0005DE0CA0F00D04942031000D34042534066
:105ED00000229C4603098B422DD3030A8B4212D326
:105EE000FC22890112BA030A8B420CD38901921158
:105EF0008B4208D3890192118B4204D389013AD095
:105F0000921100E08909C3098B4201D3CB01C01A69
:105F1000524183098B4201D38B01C01A524143097C
:105F20008B4201D34B01C01A524103098B4201D36A
:105F30000B01C01A5241C3088B4201D3CB00C01AD7
:105F4000524183088B4201D38B00C01A5241D9D2EF
:105F500043088B4201D34B00C01A5241411A00D270
:105F60000146634652415B10104601D34042002B6C
:105F700000D54942704763465B1000D3404201B5EB
:105F8000002000F005F802BD0029F8D016E77047A0
:105F90007047C04610B5040004481300002804D020
:105FA0000A000220210000E000BF10BD0000000038
:105FB00070B500260C4D0D4C641BA410A64209D1EF
:105FC000002600F077F90A4D0A4C641BA410A64283
:105FD00005D170BDB300EB5898470136EEE7B3002A
:105FE000EB5898470136F2E770000020700000205F
:105FF000700000208400002010B5034B01001868D9
:1060000000F07CF810BDC0460C00002010B5034B1A
:106010000100186800F028F810BDC0460C000020F0
:10602000002310B59A4200D110BDCC5CC45401339A
:10603000F8E710B5884202D98B18984203D30023A1
:1060400007E08B5C8354013AFBD210BDCC5CC45496
:1060500001339A42FAD1F8E703001218934200D1B3
:10606000704719700133F9E770B50500002910D0A9
:106070000C1F2368002B00DAE418280000F0E0F879
:106080001D4A1368002B05D163601460280000F0DE
:10609000D8F870BDA34209D9216860188342F3D1B2
:1060A00018685B6841182160EEE713005A68002AFF
:1060B00001D0A242F9D919685818A0420BD1206822
:1060C0000918581819608242E0D1106852684118C6
:1060D00019605A60DAE7A04202D90C232B60D5E799
:1060E00021686018824203D110685268411821600B
:1060F00062605C60CAE7C046B8060020032370B542
:10610000CD1C9D43083506000C2D1ED20C25A9423E
:106110001DD8300000F094F8254A146821000029A9
:1061200019D1244C2368002B03D1300000F076F8FD
:1061300020602900300000F071F8431C2BD10C23A3
:106140003000336000F07DF803E0002DDFDA0C232F
:106150003360002070BD0B685B1B19D40B2B03D977
:106160000B60CC18256003E04B688C420DD11360A6
:10617000300000F066F8200007220B30231D90430A
:10618000C31AE7D05A42E250E4E763600C00EFE73D
:106190000C004968C3E70323C41C9C43A042E1D020
:1061A000211A300000F03AF8431CDBD1C7E7C046A3
:1061B000B8060020BC060020124B10B51C68A36B6B
:1061C000002B0FD11820FFF717FF0F4BA0630360C0
:1061D0000E4B012243600E4B83600B23838100230F
:1061E00002614361A46B0B4A206961690A4B00F0AC
:1061F00029F801220023801859412061616148007B
:10620000400810BD0C0000200E33CDAB34126DE6FB
:10621000ECDE05002D7F954C2DF45158002370B510
:10622000064C05000800236000F036F8431C03D13B
:106230002368002B00D02B6070BDC046C406002030
:1062400070477047F0B5CE46474615042D0C2E001A
:1062500080B50704140C3F0C9946030C7E435D4344
:10626000674363437F19340CE4199C46A54203D964
:1062700080235B029846C4444B4643435143250C5C
:1062800036046544360C2404A4195B1959182000FF
:106290000CBC90469946F0BD044A1368002B00D10F
:1062A000034B1818106018007047C046C006002045
:1062B000C8060020F8B5C046F8BC08BC9E4670472A
:1062C000F8B5C046F8BC08BC9E4670470000000008
:1062D00003000000000000000300000040800100F7
:1062E0003F0100280008F101002000408001001F4C
:1062F00001001000081F0100200000000000000045
:1063000000000000B33F00007D3E0000793E000029
:10631000A53E0000A13E000059400000A73E00003D
:10632000010203000000000000000000AD41000079
:1063300021420000BF410000C94100008D41000022
:106340002D42000071420000AD430000AD4200004C
:10635000AB410000AB4100005D430000AF410000D5
:10636000000000000B00000002000000040000001C
:10637000FF00FFFFFFFF0B00000000000A0000000D
:106380000200000004000000FF00FFFFFFFF0A0002
:10639000000000000E0000000800000004000000E3
:1063A000FF00FFFFFFFF0E000000000009000000DB
:1063B000040000001C000000FF00010001000900B3
:1063C0000000000008000000040000001C000000A5
:1063D000FF00000000001000000000000F0000009F
:1063E000040000001C000000FF00010301030F0077
:1063F0000000000014000000050000002C00000058
:10640000FF00020002000400000000001500000070
:10641000050000002C000000FF0003000300050041
:106420000000000006000000040000001C00000046
:10643000FF0000010001060000000000070000004E
:10644000040000001C000000FF0001010101070022
:106450000000000012000000040000001C0000000A
:10646000FF00000300030200000000001000000015
:10647000040000001C000000FF00000200020000F9
:106480000000000013000000050000002C000000C8
:10649000FF000300030003000000000011000000E3
:1064A000040000001C000000FF00010201020100C6
:1064B00000000000020000000100000002000000D7
:1064C0000000FFFFFFFF02000100000008000000C5
:1064D0000100000018000000020000040004080091
:1064E0000100000009000000010000001800000089
:1064F0000300010401040900000000000400000082
:1065000001000000000000000400FFFFFFFF040086
:106510000000000005000000010000000000000075
:106520000500FFFFFFFF0500010000000200000062
:1065300001000000000000000A00FFFFFFFF020052
:10654000000000001600000002000000040000002F
:10655000FF00FFFFFFFF0600000000001700000023
:106560000200000004000000FF00FFFFFFFF070023
:10657000000000000C000000030000000400000008
:10658000FF00FFFFFFFF0C00010000000A000000F9
:106590000300000004000000FF00FFFFFFFF0A00EF
:1065A000010000000B0000000300000004000000D8
:1065B000FF00FFFFFFFF0B000100000003000000D1
:1065C0000B00000004000000FF00FFFFFFFFFF00C2
:1065D000000000001B0000000B0000000400000091
:1065E000FF00FFFFFFFFFF00000000001C00000095
:1065F0000600000000000000FF00FFFFFFFFFF009B
:10660000000000001800000006000000000000006C
:10661000FF00FFFFFFFFFF00000000001900000067
:106620000600000000000000FF00FFFFFFFFFF006A
:106630000100000016000000030000000000000040
:10664000FF00FFFFFFFFFF00010000001700000038
:106650000300000000000000FF00FFFFFFFFFF003D
:106660000000000016000000020000000000000012
:10667000FF00FFFFFFFFFF00000000001700000009
:106680000200000000000000FF00FFFFFFFFFF000E
:1066900000000000130000000200000000000000E5
:1066A000FF00FFFFFFFFFF000000000010000000E0
:1066B0000200000000000000FF00FFFFFFFFFF00DE
:1066C00000000000120000000200000000000000B6
:1066D000FF00FFFFFFFFFF000000000011000000AF
:1066E0000200000000000000FF00FFFFFFFFFF00AE
:1066F000000000000D000000040000000C0000007D
:10670000FF000100FFFF0D00000000001500000069
:10671000050000000C000000FF000300FFFFFF0069
:106720000000000006000000040000000C00000053
:10673000FF000001FFFFFF00000000000700000055
:10674000040000000C000000FF000101FFFFFF003B
:106750000000000003000000010000000200000033
:10676000FF00FFFFFFFFFF0000000000020000002D
:1067700001000000020000001400FFFFFFFF020004
:10678000000000001E0000000400000006000000E1
:10679000FF00FFFF00010A00000000001F000000D2
:1067A0000400000006000000FF00FFFF01010B00D5
:1067B0000000000000000000195B0000135C0000F6
:1067C00093570000DF5700008D570000B55B0000B5
:1067D000A35700007D5700004D580000BB57000034
:1067E00077570000000000000000000000000000DB
:1067F0000000000000000000000000000000000099
:106800000000000000000000000000000000000088
:106810000000000000000000000000000000000078
:106820000000000000000000000000000000000068
:106830000000000000000000000000000000000058
:08684000000000000000000050
:106848000000000040420F00FFFFFFFF1000002083
:10685800000000000468000024680000E4670000ED
:106868000000000000000000000000000000000020
:106878000000000000000000000000000000000010
:106888000000000000000000000000000000000000
:1068980000000000000000000000000000000000F0
:1068A80000000000000000000000000000000000E0
:1068B800DD2000002124000075410000E5430000B0
:1068C800354C0000B520000000000000000000006A
:0400000300004CE1CC
:00000001FF
